{"contracts/8bitPenguins.sol":{"EightBitPenguinsUpgradeable":{"abi":[{"inputs":[],"stateMutability":"nonpayable","type":"constructor"},{"anonymous":false,"inputs":[{"indexed":true,"internalType":"address","name":"owner","type":"address"},{"indexed":true,"internalType":"address","name":"approved","type":"address"},{"indexed":true,"internalType":"uint256","name":"tokenId","type":"uint256"}],"name":"Approval","type":"event"},{"anonymous":false,"inputs":[{"indexed":true,"internalType":"address","name":"owner","type":"address"},{"indexed":true,"internalType":"address","name":"operator","type":"address"},{"indexed":false,"internalType":"bool","name":"approved","type":"bool"}],"name":"ApprovalForAll","type":"event"},{"anonymous":false,"inputs":[{"indexed":false,"internalType":"uint256","name":"_fromTokenId","type":"uint256"},{"indexed":false,"internalType":"uint256","name":"_toTokenId","type":"uint256"}],"name":"BatchMetadataUpdate","type":"event"},{"anonymous":false,"inputs":[{"indexed":false,"internalType":"uint8","name":"version","type":"uint8"}],"name":"Initialized","type":"event"},{"anonymous":false,"inputs":[{"indexed":false,"internalType":"uint256","name":"maxPerWallet","type":"uint256"}],"name":"MaxPerWalletChanged","type":"event"},{"anonymous":false,"inputs":[{"indexed":false,"internalType":"uint256","name":"maxSupply","type":"uint256"}],"name":"MaxSupplyChanged","type":"event"},{"anonymous":false,"inputs":[{"indexed":false,"internalType":"uint256","name":"_tokenId","type":"uint256"}],"name":"MetadataUpdate","type":"event"},{"anonymous":false,"inputs":[{"indexed":false,"internalType":"uint256","name":"price","type":"uint256"}],"name":"MintPriceChanged","type":"event"},{"anonymous":false,"inputs":[{"indexed":false,"internalType":"bool","name":"status","type":"bool"}],"name":"MintStatusChanged","type":"event"},{"anonymous":false,"inputs":[{"indexed":true,"internalType":"address","name":"previousOwner","type":"address"},{"indexed":true,"internalType":"address","name":"newOwner","type":"address"}],"name":"OwnershipTransferred","type":"event"},{"anonymous":false,"inputs":[{"indexed":true,"internalType":"uint256","name":"phaseId","type":"uint256"}],"name":"PhaseRemoved","type":"event"},{"anonymous":false,"inputs":[{"indexed":true,"internalType":"uint256","name":"phaseId","type":"uint256"},{"indexed":false,"internalType":"string","name":"name","type":"string"},{"indexed":false,"internalType":"uint256","name":"price","type":"uint256"},{"indexed":false,"internalType":"uint256","name":"startTime","type":"uint256"},{"indexed":false,"internalType":"uint256","name":"endTime","type":"uint256"},{"indexed":false,"internalType":"uint256","name":"maxSupply","type":"uint256"},{"indexed":false,"internalType":"uint256","name":"maxPerWallet","type":"uint256"},{"indexed":false,"internalType":"bool","name":"enabled","type":"bool"}],"name":"PhaseUpserted","type":"event"},{"anonymous":false,"inputs":[{"indexed":true,"internalType":"uint256","name":"phaseId","type":"uint256"},{"indexed":true,"internalType":"address","name":"account","type":"address"},{"indexed":false,"internalType":"bool","name":"allowed","type":"bool"}],"name":"PhaseWhitelistUpdated","type":"event"},{"anonymous":false,"inputs":[{"indexed":false,"internalType":"string","name":"image","type":"string"}],"name":"PlaceholderImageChanged","type":"event"},{"anonymous":false,"inputs":[{"indexed":false,"internalType":"bool","name":"status","type":"bool"}],"name":"RevealStatusChanged","type":"event"},{"anonymous":false,"inputs":[{"indexed":true,"internalType":"uint256","name":"tokenId","type":"uint256"},{"indexed":true,"internalType":"address","name":"owner","type":"address"}],"name":"TokenEvolved3D","type":"event"},{"anonymous":false,"inputs":[{"indexed":true,"internalType":"address","name":"from","type":"address"},{"indexed":true,"internalType":"address","name":"to","type":"address"},{"indexed":true,"internalType":"uint256","name":"tokenId","type":"uint256"}],"name":"Transfer","type":"event"},{"inputs":[],"name":"MAX_PER_WALLET","outputs":[{"internalType":"uint256","name":"","type":"uint256"}],"stateMutability":"view","type":"function"},{"inputs":[],"name":"MAX_SUPPLY","outputs":[{"internalType":"uint256","name":"","type":"uint256"}],"stateMutability":"view","type":"function"},{"inputs":[{"internalType":"address","name":"to","type":"address"},{"internalType":"uint256","name":"tokenId","type":"uint256"}],"name":"approve","outputs":[],"stateMutability":"nonpayable","type":"function"},{"inputs":[{"internalType":"address","name":"owner","type":"address"}],"name":"balanceOf","outputs":[{"internalType":"uint256","name":"","type":"uint256"}],"stateMutability":"view","type":"function"},{"inputs":[],"name":"currentPhaseId","outputs":[{"internalType":"bool","name":"exists","type":"bool"},{"internalType":"uint256","name":"phaseId","type":"uint256"}],"stateMutability":"view","type":"function"},{"inputs":[{"internalType":"uint256","name":"phaseId","type":"uint256"}],"name":"deletePhase","outputs":[],"stateMutability":"nonpayable","type":"function"},{"inputs":[{"internalType":"uint256","name":"tokenId","type":"uint256"},{"internalType":"string","name":"imageBase64","type":"string"},{"internalType":"string","name":"attributesJson","type":"string"}],"name":"evolveTo3D","outputs":[],"stateMutability":"nonpayable","type":"function"},{"inputs":[{"internalType":"uint256","name":"tokenId","type":"uint256"},{"internalType":"string","name":"imageBase64","type":"string"}],"name":"evolveTo3DImageOnly","outputs":[],"stateMutability":"nonpayable","type":"function"},{"inputs":[{"internalType":"uint256","name":"tokenId","type":"uint256"}],"name":"getApproved","outputs":[{"internalType":"address","name":"","type":"address"}],"stateMutability":"view","type":"function"},{"inputs":[{"internalType":"uint256","name":"phaseId","type":"uint256"}],"name":"getPhase","outputs":[{"internalType":"string","name":"name_","type":"string"},{"internalType":"uint256","name":"price","type":"uint256"},{"internalType":"uint256","name":"startTime","type":"uint256"},{"internalType":"uint256","name":"endTime","type":"uint256"},{"internalType":"uint256","name":"maxSupply_","type":"uint256"},{"internalType":"uint256","name":"maxPerWallet_","type":"uint256"},{"internalType":"uint256","name":"minted","type":"uint256"},{"internalType":"bool","name":"enabled","type":"bool"}],"stateMutability":"view","type":"function"},{"inputs":[{"internalType":"uint256","name":"phaseId","type":"uint256"}],"name":"getPhaseWhitelist","outputs":[{"internalType":"address[]","name":"","type":"address[]"}],"stateMutability":"view","type":"function"},{"inputs":[],"name":"initialize","outputs":[],"stateMutability":"nonpayable","type":"function"},{"inputs":[],"name":"initializeV2","outputs":[],"stateMutability":"nonpayable","type":"function"},{"inputs":[{"internalType":"address","name":"owner","type":"address"},{"internalType":"address","name":"operator","type":"address"}],"name":"isApprovedForAll","outputs":[{"internalType":"bool","name":"","type":"bool"}],"stateMutability":"view","type":"function"},{"inputs":[{"internalType":"uint256","name":"phaseId","type":"uint256"},{"internalType":"address","name":"account","type":"address"}],"name":"isPhaseWhitelisted","outputs":[{"internalType":"bool","name":"","type":"bool"}],"stateMutability":"view","type":"function"},{"inputs":[{"internalType":"uint256","name":"quantity","type":"uint256"},{"internalType":"string[]","name":"imageBase64s","type":"string[]"},{"internalType":"string[]","name":"names","type":"string[]"},{"internalType":"string[]","name":"attributesJson","type":"string[]"},{"internalType":"uint256[]","name":"rarityScores","type":"uint256[]"}],"name":"mint","outputs":[],"stateMutability":"payable","type":"function"},{"inputs":[],"name":"mintActive","outputs":[{"internalType":"bool","name":"","type":"bool"}],"stateMutability":"view","type":"function"},{"inputs":[],"name":"mintPrice","outputs":[{"internalType":"uint256","name":"","type":"uint256"}],"stateMutability":"view","type":"function"},{"inputs":[{"internalType":"address","name":"","type":"address"}],"name":"mintedPerWallet","outputs":[{"internalType":"uint256","name":"","type":"uint256"}],"stateMutability":"view","type":"function"},{"inputs":[],"name":"name","outputs":[{"internalType":"string","name":"","type":"string"}],"stateMutability":"view","type":"function"},{"inputs":[],"name":"owner","outputs":[{"internalType":"address","name":"","type":"address"}],"stateMutability":"view","type":"function"},{"inputs":[{"internalType":"uint256","name":"tokenId","type":"uint256"}],"name":"ownerOf","outputs":[{"internalType":"address","name":"","type":"address"}],"stateMutability":"view","type":"function"},{"inputs":[],"name":"phaseCount","outputs":[{"internalType":"uint256","name":"","type":"uint256"}],"stateMutability":"view","type":"function"},{"inputs":[{"internalType":"uint256","name":"","type":"uint256"},{"internalType":"address","name":"","type":"address"}],"name":"phaseMintedPerWallet","outputs":[{"internalType":"uint256","name":"","type":"uint256"}],"stateMutability":"view","type":"function"},{"inputs":[{"internalType":"uint256","name":"","type":"uint256"}],"name":"phaseWhitelistCount","outputs":[{"internalType":"uint256","name":"","type":"uint256"}],"stateMutability":"view","type":"function"},{"inputs":[],"name":"placeholderImage","outputs":[{"internalType":"string","name":"","type":"string"}],"stateMutability":"view","type":"function"},{"inputs":[{"internalType":"uint256","name":"tokenId","type":"uint256"}],"name":"rarityRank","outputs":[{"internalType":"uint256","name":"","type":"uint256"}],"stateMutability":"view","type":"function"},{"inputs":[],"name":"renounceOwnership","outputs":[],"stateMutability":"nonpayable","type":"function"},{"inputs":[],"name":"revealed","outputs":[{"internalType":"bool","name":"","type":"bool"}],"stateMutability":"view","type":"function"},{"inputs":[{"internalType":"address","name":"from","type":"address"},{"internalType":"address","name":"to","type":"address"},{"internalType":"uint256","name":"tokenId","type":"uint256"}],"name":"safeTransferFrom","outputs":[],"stateMutability":"nonpayable","type":"function"},{"inputs":[{"internalType":"address","name":"from","type":"address"},{"internalType":"address","name":"to","type":"address"},{"internalType":"uint256","name":"tokenId","type":"uint256"},{"internalType":"bytes","name":"data","type":"bytes"}],"name":"safeTransferFrom","outputs":[],"stateMutability":"nonpayable","type":"function"},{"inputs":[{"internalType":"address","name":"operator","type":"address"},{"internalType":"bool","name":"approved","type":"bool"}],"name":"setApprovalForAll","outputs":[],"stateMutability":"nonpayable","type":"function"},{"inputs":[{"internalType":"uint256","name":"maxPerWallet_","type":"uint256"}],"name":"setMaxPerWallet","outputs":[],"stateMutability":"nonpayable","type":"function"},{"inputs":[{"internalType":"uint256","name":"maxSupply_","type":"uint256"}],"name":"setMaxSupply","outputs":[],"stateMutability":"nonpayable","type":"function"},{"inputs":[{"internalType":"uint256","name":"price","type":"uint256"}],"name":"setMintPrice","outputs":[],"stateMutability":"nonpayable","type":"function"},{"inputs":[{"internalType":"uint256","name":"phaseId","type":"uint256"},{"internalType":"address[]","name":"accounts","type":"address[]"},{"internalType":"bool","name":"allowed","type":"bool"}],"name":"setPhaseWhitelist","outputs":[],"stateMutability":"nonpayable","type":"function"},{"inputs":[{"internalType":"string","name":"image","type":"string"}],"name":"setPlaceholderImage","outputs":[],"stateMutability":"nonpayable","type":"function"},{"inputs":[{"internalType":"bool","name":"status","type":"bool"}],"name":"setRevealed","outputs":[],"stateMutability":"nonpayable","type":"function"},{"inputs":[{"internalType":"bytes4","name":"interfaceId","type":"bytes4"}],"name":"supportsInterface","outputs":[{"internalType":"bool","name":"","type":"bool"}],"stateMutability":"view","type":"function"},{"inputs":[],"name":"symbol","outputs":[{"internalType":"string","name":"","type":"string"}],"stateMutability":"view","type":"function"},{"inputs":[],"name":"toggleMint","outputs":[],"stateMutability":"nonpayable","type":"function"},{"inputs":[{"internalType":"uint256","name":"","type":"uint256"}],"name":"tokenAttributes","outputs":[{"internalType":"string","name":"","type":"string"}],"stateMutability":"view","type":"function"},{"inputs":[{"internalType":"uint256","name":"","type":"uint256"}],"name":"tokenEvolved3D","outputs":[{"internalType":"bool","name":"","type":"bool"}],"stateMutability":"view","type":"function"},{"inputs":[{"internalType":"uint256","name":"","type":"uint256"}],"name":"tokenImage","outputs":[{"internalType":"string","name":"","type":"string"}],"stateMutability":"view","type":"function"},{"inputs":[{"internalType":"uint256","name":"tokenId","type":"uint256"}],"name":"tokenMetadataJson","outputs":[{"internalType":"string","name":"","type":"string"}],"stateMutability":"view","type":"function"},{"inputs":[{"internalType":"uint256","name":"","type":"uint256"}],"name":"tokenName","outputs":[{"internalType":"string","name":"","type":"string"}],"stateMutability":"view","type":"function"},{"inputs":[{"internalType":"uint256","name":"","type":"uint256"}],"name":"tokenRarityScore","outputs":[{"internalType":"uint256","name":"","type":"uint256"}],"stateMutability":"view","type":"function"},{"inputs":[{"internalType":"uint256","name":"","type":"uint256"}],"name":"tokenSeeds","outputs":[{"internalType":"uint256","name":"","type":"uint256"}],"stateMutability":"view","type":"function"},{"inputs":[{"internalType":"uint256","name":"tokenId","type":"uint256"}],"name":"tokenURI","outputs":[{"internalType":"string","name":"","type":"string"}],"stateMutability":"view","type":"function"},{"inputs":[],"name":"totalSupply","outputs":[{"internalType":"uint256","name":"","type":"uint256"}],"stateMutability":"view","type":"function"},{"inputs":[{"internalType":"address","name":"from","type":"address"},{"internalType":"address","name":"to","type":"address"},{"internalType":"uint256","name":"tokenId","type":"uint256"}],"name":"transferFrom","outputs":[],"stateMutability":"nonpayable","type":"function"},{"inputs":[{"internalType":"address","name":"newOwner","type":"address"}],"name":"transferOwnership","outputs":[],"stateMutability":"nonpayable","type":"function"},{"inputs":[{"internalType":"uint256","name":"phaseId","type":"uint256"},{"internalType":"string","name":"name_","type":"string"},{"internalType":"uint256","name":"price","type":"uint256"},{"internalType":"uint256","name":"startTime","type":"uint256"},{"internalType":"uint256","name":"endTime","type":"uint256"},{"internalType":"uint256","name":"maxSupply_","type":"uint256"},{"internalType":"uint256","name":"maxPerWallet_","type":"uint256"},{"internalType":"bool","name":"enabled","type":"bool"}],"name":"upsertPhase","outputs":[],"stateMutability":"nonpayable","type":"function"},{"inputs":[],"name":"withdraw","outputs":[],"stateMutability":"nonpayable","type":"function"}],"evm":{"bytecode":{"linkReferences":{},"object":"60808060405234620000c6576000549060ff8260081c1662000074575060ff8082160362000038575b604051614d589081620000cc8239f35b60ff90811916176000557f7f26b83ff96e1f2b6a682f133852f6798a09c465da95921460cefb3847402498602060405160ff8152a13862000028565b62461bcd60e51b815260206004820152602760248201527f496e697469616c697a61626c653a20636f6e747261637420697320696e697469604482015266616c697a696e6760c81b6064820152608490fd5b600080fdfe608080604052600436101561001357600080fd5b60003560e01c90816301ffc9a714612f635750806306fdde0314612ebe578063081812fc14612ea0578063095ea7b314612d265780630f2cdd6c14612d0857806316ef376b14612c6957806318160ddd14612c4a57806323b872dd14612c2657806325fd90f314612c0357806329c1605f14612bdd57806332cb6b0c14612bbf5780633a602b4d14612b845780633ccfd60b14612b4057806340c5b34e14612b1757806342842e0e14612ae4578063448d8c5c14612a3f5780635183022714612a195780635c86a009146128c75780635cd8a76b1461286a57806360e6ca6f146125d45780636352211e146125a45780636817c76c146125865780636f8b44b0146124ac57806370a0823114612415578063715018a6146123ca5780637978d4511461222e5780637b3d6e56146122015780638129fc1c14611c145780638da5cb5b14611beb57806391d8d68b146117e45780639333174a14610da157806395d89b4114610cd35780639c30ad8514610cb4578063a22cb46514610bdd578063a3fa281714610b16578063b75f1aef14610910578063b88d4fde14610863578063c1eea4a014610831578063c3753d7014610804578063c87b56dd1461076b578063cf3484251461073e578063d2f40d791461068c578063d3dd5fe014610631578063dc5d9f42146105d4578063de006f541461058b578063e0a80853146104f9578063e268e4d314610465578063e4faf28814610446578063e725f87714610419578063e82303ce146103ec578063e985e9c514610396578063f2824b5314610351578063f2fde38b146102c25763f4a0a5281461027157600080fd5b346102bd5760203660031901126102bd577f25b1f9f6b6e61dfca5575239769e4450ed2e49176670837f5d1a82a9a2fc693f60206004356102b0613255565b8060fd55604051908152a1005b600080fd5b346102bd5760203660031901126102bd576102db613028565b6102e3613255565b6001600160a01b038116156102fd576102fb906132ad565b005b60405162461bcd60e51b815260206004820152602660248201527f4f776e61626c653a206e6577206f776e657220697320746865207a65726f206160448201526564647265737360d01b6064820152608490fd5b346102bd5760203660031901126102bd5760043560005261010560205261039261037e6040600020613137565b604051918291602083526020830190613003565b0390f35b346102bd5760403660031901126102bd576103af613028565b6103b761303e565b9060018060a01b03809116600052606a60205260406000209116600052602052602060ff604060002054166040519015158152f35b346102bd5760203660031901126102bd5760043560005261010d6020526020604060002054604051908152f35b346102bd5760203660031901126102bd5760043560005261010460205261039261037e6040600020613137565b346102bd5760003660031901126102bd57602061010854604051908152f35b346102bd5760203660031901126102bd57600435610481613255565b80156104b7576020817ec836a17ed3a6a59dce35376ae3c2777797dc03f39f463153c0fea5b65f06839260fc55604051908152a1005b60405162461bcd60e51b815260206004820152601a60248201527904d6178207065722077616c6c6574206d757374206265203e20360341b6044820152606490fd5b346102bd5760203660031901126102bd576004358015158091036102bd5760207f4a9768f4a343b5cd5d5319e6fe71e839c384e1f67a57e74631919d50c5d4d95391610543613255565b60fe5461ff008260081b169061ff0019161760fe55604051908152a1610100548061056a57005b6040600080516020614c2383398151915291815190600182526020820152a1005b346102bd5760403660031901126102bd576105a461303e565b60043560005261010960205260406000209060018060a01b03166000526020526020604060002054604051908152f35b346102bd5760403660031901126102bd576004356105f061303e565b906105ff610108548210613b10565b60005261010a60205260406000209060018060a01b0316600052602052602060ff604060002054166040519015158152f35b346102bd5760003660031901126102bd5761064a613255565b7fb304fe5dd2d3c45e8ec87c1dd1bd2b3a773b3135e84a7b9151f5fb4bf1a06d0e602060fe5460ff8082161516809160ff19161760fe556040519015158152a1005b346102bd5760403660031901126102bd576004356024356001600160401b0381116102bd57600080516020614d03833981519152916107236106d460209336906004016131dd565b906106dd613a4e565b83151580610731575b6106ef90613c92565b61070b6106fb8561332b565b6001600160a01b03163314613cce565b61071d6107188383614ab6565b613995565b83613d0c565b604051908152a1600160c955005b50610100548411156106e6565b346102bd5760203660031901126102bd5760043560005261010360205261039261037e6040600020613137565b346102bd5760203660031901126102bd576103926107a461079f600435801515806107f7575b61079a90613c92565b613fbd565b613e69565b61037e603d60405180937f646174613a6170706c69636174696f6e2f6a736f6e3b6261736536342c00000060208301526107e78151809260208686019101612fe0565b810103601d810184520182613114565b5061010054811115610791565b346102bd5760203660031901126102bd576004356000526101016020526020604060002054604051908152f35b346102bd5760203660031901126102bd57600435600052610107602052602060ff604060002054166040519015158152f35b346102bd5760803660031901126102bd5761087c613028565b61088461303e565b90606435906044356001600160401b0383116102bd57366023840112156102bd578260040135936108b48561323a565b926108c26040519485613114565b85845236602487870101116102bd5760006020876102fb98602461090b990183890137860101526108fb6108f68433613456565b61337d565b61090683838361351e565b613755565b613432565b346102bd576020806003193601126102bd576001600160401b036004358181116102bd576109429036906004016131dd565b9161094b613255565b8215610ad4578211610abe5760ff906109648254613089565b601f8111610a83575b50600092601f8111600114610a105780600080516020614c038339815191529394600091610a05575b508160011b906000198360031b1c19161784555b6109bf60405192839287845287840191613aef565b0390a160fe5460081c1615806109f9575b6109d657005b6040600080516020614c23833981519152916101005482519160018352820152a1005b506101005415156109d0565b905082013586610996565b601f1981169383600052856000209060005b87878210610a6d57505082600080516020614c03833981519152959610610a53575b5050600181811b0184556109aa565b830135600019600384901b60f8161c191690558580610a44565b6001839482939488013581550193019101610a22565b610aae908360005285600020601f860160051c810191878710610ab4575b601f0160051c019061383f565b8461096d565b9091508190610aa1565b634e487b7160e01b600052604160045260246000fd5b60405162461bcd60e51b815260048101859052601a602482015279141b1858d95a1bdb19195c881a5b5859d9481c995c5d5a5c995960321b6044820152606490fd5b346102bd576020806003193601126102bd57600435610b39610108548210613b10565b60005261010b8152604060002060405190818382549182815201908192600052846000209060005b86828210610bc0578686610b7782880383613114565b604051928392818401908285525180915260408401929160005b828110610ba057505050500390f35b83516001600160a01b031685528695509381019392810192600101610b91565b83546001600160a01b031685529093019260019283019201610b61565b346102bd5760403660031901126102bd57610bf6613028565b60243590811515908183036102bd576001600160a01b031691338314610c7357610c459033600052606a60205260406000208460005260205260406000209060ff801983541691151516179055565b6040519081527f17307eab39ab6107e8899845ad3d59bd9653f200f220920489ca2b5937696c3160203392a3005b60405162461bcd60e51b815260206004820152601960248201527822a9219b99189d1030b8383937bb32903a379031b0b63632b960391b6044820152606490fd5b346102bd5760203660031901126102bd5761039261037e600435613fbd565b346102bd5760003660031901126102bd57604051600090606654610cf681613089565b808352600191808316908115610d795750600114610d1f575b6103928361037e81870382613114565b6066600090815260209450917f46501879b8ca8525e8c2fd519e2fbfcfa2ebea26501294aa02cbfcfb12e943545b828410610d665750505081019091019061037e81610d0f565b8054858501870152928501928101610d4d565b610392955061037e93506020915091849260ff191682840152151560051b8201019350610d0f565b60a03660031901126102bd576024356001600160401b0381116102bd57610dcc90369060040161320a565b906044356001600160401b0381116102bd57610dec90369060040161320a565b906064356001600160401b0381116102bd57610e0c90369060040161320a565b93906084356001600160401b0381116102bd57610e2d90369060040161320a565b9091610e37613a4e565b610e3f614a2b565b60ff60fe9b9499939a929b5416156117aa576004351561176e578b600435036117295781600435036116e457836004350361169357856004350361163f57610e8c600435610100546138f0565b60fb54106116055733600052610102602052610eaf6004356040600020546138f0565b60fc54106115c05788611417575b50610eca6004358b613932565b34106113db5760005b6004358110610f8557610ef18b8b8b610f3a575b5060043590613932565b803411610f00575b600160c955005b60008080610f0f819434613a41565b818115610f31575b3390f115610f255780610ef9565b6040513d6000823e3d90fd5b506108fc610f17565b6006610f45826138fd565b5001610f5460043582546138f0565b90556000526101096020526040600020336000526020526040600020610f7d60043582546138f0565b905582610ee7565b610f9c610718610f96838f8c613954565b90614ab6565b610fb3610faa828688613954565b905015156139ef565b610fbf61010054613945565b9081610100556040518260208201523360601b60408201524460548201524260748201526094828183015281528060c081011060018060401b0360c083011117610abe57818e8260c061102d940160405260208151910120856000526101016020526040600020558b613954565b600084815261010360205260409020916001600160401b038211610abe5781906110618261105b8654613089565b86613856565b600090601f831160011461137157600092611366575b50508160011b916000199060031b1c19161790555b611097818486613954565b600084815261010460205260409020916001600160401b038211610abe5781906110c58261105b8654613089565b600090601f83116001146112fc576000926112f1575b50508160011b916000199060031b1c19161790555b6110fb818688613954565b600084815261010560205260409020916001600160401b038211610abe5781906111298261105b8654613089565b600090601f83116001146112875760009261127c575b50508160011b916000199060031b1c19161790555b61115f81888a613a31565b35826000526101066020526040600020553360005261010260205260406000206111898154613945565b905560405191611198836130c3565b6000835233156112385760208161122761090b611233966111d06111ca600080516020614d038339815191529761361a565b15613aa4565b6111dc6111ca8561361a565b3360008181526068875260408082208054600101905586825260678852812080546001600160a01b03191683179055859190600080516020614ca38339815191528180a48333613637565b604051908152a1613945565b610ed3565b606460405162461bcd60e51b815260206004820152602060248201527f4552433732313a206d696e7420746f20746865207a65726f20616464726573736044820152fd5b01359050388061113f565b9091508360005260206000209160005b601f19851681106112d9575083601f198116106112bf575b505050600190811b019055611154565b0135600019600384901b60f8161c191690558f80806112af565b90926020600181928686013581550194019101611297565b0135905038806110db565b9091508360005260206000209160005b601f198516811061134e575083601f19811610611334575b505050600190811b0190556110f0565b0135600019600384901b60f8161c191690558f8080611324565b9092602060018192868601358155019401910161130c565b013590503880611077565b9091508360005260206000209160005b601f19851681106113c3575083601f198116106113a9575b505050600190811b01905561108c565b0135600019600384901b60f8161c191690558f8080611399565b90926020600181928686013581550194019101611381565b60405162461bcd60e51b8152602060048201526014602482015273125b9cdd59999a58da595b9d081c185e5b595b9d60621b6044820152606490fd5b6114208a6138fd565b5060ff6007820154161561158a578a60005261010d60205260406000205461152a575b600481015490816114cd575b50508015610ebd578960005261010960205260406000203360005260205261147e6004356040600020546138f0565b11611489578b610ebd565b60405162461bcd60e51b815260206004820152601c60248201527b115e18d959591cc81c1a185cd9481b585e081c195c881dd85b1b195d60221b6044820152606490fd5b6114de9060066004359101546138f0565b116114ea578c8061144f565b60405162461bcd60e51b815260206004820152601860248201527745786365656473207068617365206d617820737570706c7960401b6044820152606490fd5b61010a60205260406000203360005260205260ff604060002054166114435760405162461bcd60e51b81526020600482015260196024820152784e6f742077686974656c697374656420666f7220706861736560381b6044820152606490fd5b60405162461bcd60e51b815260206004820152600e60248201526d141a185cd948191a5cd8589b195960921b6044820152606490fd5b60405162461bcd60e51b815260206004820152601d60248201527f4578636565647320676c6f62616c206d6178207065722077616c6c65740000006044820152606490fd5b60405162461bcd60e51b815260206004820152601260248201527145786365656473206d617820737570706c7960701b6044820152606490fd5b60405162461bcd60e51b815260206004820152602660248201527f4d7573742070726f76696465207261726974792073636f726520666f7220656160448201526518da0813919560d21b6064820152608490fd5b60405162461bcd60e51b8152602060048201526024808201527f4d7573742070726f76696465206174747269627574657320666f7220656163686044820152630813919560e21b6064820152608490fd5b60405162461bcd60e51b815260206004820152601e60248201527f4d7573742070726f76696465206e616d6520666f722065616368204e465400006044820152606490fd5b60405162461bcd60e51b815260206004820152601f60248201527f4d7573742070726f7669646520696d61676520666f722065616368204e4654006044820152606490fd5b60405162461bcd60e51b81526020600482015260146024820152734d757374206d696e74206174206c65617374203160601b6044820152606490fd5b60405162461bcd60e51b81526020600482015260126024820152714d696e74696e67206e6f742061637469766560701b6044820152606490fd5b346102bd5760603660031901126102bd576024356001600160401b0381116102bd5761181490369060040161320a565b6044351515604435036102bd57611829613255565b6118396101085460043510613b10565b60005b81811061184557005b611850818385613a31565b35906001600160a01b03821682036102bd576001600160a01b03821615611baa5760043560005261010a80602052604060002060018060a01b03841660005260205260ff60406000205416604435604435611ba2575b156119c45750600435600052602052604060002060018060a01b03831660005260205260406000206001908160ff1982541617905560043560005261010b8060205260406000208054600160401b811015610abe5761190e8161192d93868994018155613beb565b90919082549060031b9160018060a01b03809116831b921b1916179055565b60043560005260205260406000205461010c602052604060002060018060a01b03851660005260205260406000205560043560005261010d60205260406000209283548281018091116119ae576119a9945560405191825260018060a01b031690600080516020614c43833981519152602060043592a3613945565b61183c565b634e487b7160e01b600052601160045260246000fd5b604435159081611b9a575b506119e0575b506119a99150613945565b6004356000818152602092835260408082206001600160a01b038716808452908552818320805460ff1916905592825261010c84528082209282529190925290205480611a7f575b5060043560005261010d602052604060002091825460001981019081116119ae57909255604051600081526119a9926001600160a01b03169060043590600080516020614c4383398151915290602090a3846119d5565b60043560005261010b6020526040600020805490818303611b1d575b50505060043560005261010b602052604060002080548015611b07576000190190611ac68282613beb565b81549060018060a01b039060031b1b191690555560043560005261010c602052604060002060018060a01b0383166000526020526000604081205584611a28565b634e487b7160e01b600052603160045260246000fd5b816000198101116119ae57611b36916000190190613beb565b60018060a01b0391549060031b1c1660043560005261010b6020526040600020826000198101116119ae578161190e611b7492600019860190613beb565b60043560005261010c602052604060002090600052602052604060002055848080611a9b565b9050866119cf565b5080156118a6565b60405162461bcd60e51b8152602060048201526019602482015278496e76616c69642077686974656c697374206164647265737360381b6044820152606490fd5b346102bd5760003660031901126102bd576097546040516001600160a01b039091168152602090f35b346102bd5760003660031901126102bd5760005460ff808260081c16158080916121f5575b80156121df575b611c49906137dc565b600192818460ff198316176000556121cd575b50604051611c69816130de565b600d81526020926c386269742050656e6775696e7360981b8483015260405191611c92836130de565b60059283815264038424954560dc1b86820152611cbe8360005460081c16611cb981613890565b613890565b81516001600160401b039190828111610abe5780611cdd606554613089565b94601f958a878211612195575b5050899086831160011461213057600092612125575b5050600019600383901b1c191690891b176065555b8051918211610abe57611d29606654613089565b8381116120ee575b5086908383116001146120705791806a3a32bc3a1f1e17b9bb339f60a91b969492600f9694600092612065575b5050600019600383901b1c191690891b176066555b611d878260005460081c16611cb981613890565b611d90336132ad565b611da48260005460081c16611cb981613890565b8760c955603260fb55603260fc55600060fd5561ffff1960fe541660fe55611dcc8254613089565b818111612043575b50506103d781556000527f272072783d273938272072793d27313232272066696c6c3d272532334338384685600020917f646174613a696d6167652f7376672b786d6c3b757466382c3c73766720786d6c83557f6e733d27687474703a2f2f7777772e77332e6f72672f323030302f7376672720888401557f76696577426f783d273020302034303020343030273e3c72656374207769647460028401557f683d2734303027206865696768743d27343030272066696c6c3d27253233384260038401557f30453241272f3e3c656c6c697073652063783d27323030272063793d2732303860048401558201557f3146272f3e3c656c6c697073652063783d27313836272063793d27313832272060068201557f72783d273532272072793d273730272066696c6c3d272532334546424634352760078201557f2f3e3c656c6c697073652063783d27323132272063793d27323238272072783d60088201557f273736272072793d273834272066696c6c3d2725323338463542313227206f7060098201557f61636974793d27302e3535272f3e3c7465787420783d273230302720793d2733600a8201557f3532272066696c6c3d272532334646464646462720666f6e742d73697a653d27600b8201557f32382720666f6e742d66616d696c793d274a6574427261696e73204d6f6e6f2c600c8201557f6d6f6e6f73706163652720666f6e742d7765696768743d273730302720746578600d8201557f742d616e63686f723d276d6964646c65273e386269742050656e6775696e3c2f600e820155015561201f57005b600080516020614c638339815191529161ff001960005416600055604051908152a1005b601061205e9284600052896000209201851c8201910161383f565b8780611dd4565b015190508a80611d5e565b889291601f198316916066600052896000209260005b8b8282106120d857505091600f97959391856a3a32bc3a1f1e17b9bb339f60a91b9a989694106120bf575b505050811b01606655611d73565b015160001960f88460031b161c191690558a80806120b1565b8385015186558d97909501949384019301612086565b6121169060666000528860002085808601891c8201928b871061211c575b01881c019061383f565b88611d31565b9250819261210c565b015190508a80611d00565b908b9350601f1983169160656000528b6000209260005b8d82821061217f5750508411612166575b505050811b01606555611d15565b015160001960f88460031b161c191690558a8080612158565b8385015186558f97909501949384019301612147565b6121bd9160656000528882600020918187018d1c83019387106121c4575b018b1c019061383f565b8b8a611cea565b925081926121b3565b61ffff19166101011760005583611c5c565b50303b158015611c405750828216600114611c40565b50600182841610611c39565b346102bd5760203660031901126102bd576004356000526101066020526020604060002054604051908152f35b346102bd5760603660031901126102bd576004356001600160401b036024358181116102bd576122629036906004016131dd565b9290916044358181116102bd576122806122c79136906004016131dd565b95909461228b613a4e565b841515806123bd575b61229d90613c92565b6122a96106fb8661332b565b6122b66107188383614ab6565b6122c18715156139ef565b84613d0c565b8160005260209261010584526040600020918511610abe576122f3856122ed8454613089565b84613856565b600090601f861160011461234857600080516020614d0383398151915295916000918361233d575b50508160011b916000199060031b1c1916179055604051908152a1600160c955005b01359050868061231b565b601f1986169183600052856000209260005b8181106123a65750916001939188600080516020614d0383398151915299941061238c575b505050811b019055610723565b0135600019600384901b60f8161c1916905586808061237f565b91938760018192878701358155019501920161235a565b5061010054851115612294565b346102bd5760003660031901126102bd576123e3613255565b609780546001600160a01b031981169091556000906001600160a01b0316600080516020614c838339815191528280a3005b346102bd5760203660031901126102bd576001600160a01b03612436613028565b1680156124555760005260686020526020604060002054604051908152f35b60405162461bcd60e51b815260206004820152602960248201527f4552433732313a2061646472657373207a65726f206973206e6f7420612076616044820152683634b21037bbb732b960b91b6064820152608490fd5b346102bd5760203660031901126102bd576004356124c8613255565b610100548110612547578015612509576020817f28a10a2e0b5582da7164754cb994f6214b8af6aa7f7e003305fbc09e7106c5139260fb55604051908152a1005b60405162461bcd60e51b815260206004820152601660248201527504d617820737570706c79206d757374206265203e20360541b6044820152606490fd5b60405162461bcd60e51b815260206004820152601760248201527613585e081cdd5c1c1b1e4818995b1bddc81b5a5b9d1959604a1b6044820152606490fd5b346102bd5760003660031901126102bd57602060fd54604051908152f35b346102bd5760203660031901126102bd5760206125c260043561332b565b6040516001600160a01b039091168152f35b346102bd576101003660031901126102bd576001600160401b036004356024358281116102bd576126099036906004016131dd565b60e435938415158086036102bd5761261f613255565b821561282f576084359182158015612825575b801561281a575b156127de5761010880548781036127cd57600160401b811015610abe57612665916001820190556138fd565b50505b612671866138fd565b50908411610abe5761268d846126878354613089565b83613856565b600096601f85116001146127535784600080516020614ce38339815191529798600091612748575b508560011b906000198760031b1c19161782555b6044359384600184015560643580600285015581600385015561270d60a43593846004870155600760c43596876005820155019060ff801983541691151516179055565b61272460405198899860e08a5260e08a0191613aef565b95602088015260408701526060860152608085015260a084015260c08301520390a2005b9050860135896126b5565b81600052602097886000209860005b601f19881681106127b657505097600080516020614ce3833981519152979886601f1981161061279c575b5050600185811b0182556126c9565b870135600019600388901b60f8161c19169055888061278d565b828901358b556001909a0199918101918101612762565b6127d991508710613b10565b612668565b60405162461bcd60e51b8152602060048201526014602482015273496e76616c69642070686173652077696e646f7760601b6044820152606490fd5b506064358311612639565b5060643515612632565b60405162461bcd60e51b8152602060048201526013602482015272141a185cd9481b985b59481c995c5d5a5c9959606a1b6044820152606490fd5b346102bd5760003660031901126102bd57600260005460ff8160081c1615806128bb575b612897906137dc565b61ffff191617600055600080516020614c63833981519152602060405160028152a1005b5060ff8116821161288e565b346102bd576020806003193601126102bd57600435906128e5613255565b6101089081549081156129e057600019918083019081116119ae57840361299c578360005261010d81526000604081205561010b81526040600020908154906000835581612981575b50505061294361293d846138fd565b90613b53565b81548015611b0757019061295961293d836138fd565b557f3ae6bd42f8622e3894ef16a2193a204de29ee6392703e402f31749d92b1735e8600080a2005b612994926000526000209081019061383f565b83808061292e565b6064906040519062461bcd60e51b82526004820152601e60248201527f4f6e6c79206c6173742070686173652063616e2062652064656c6574656400006044820152fd5b6064906040519062461bcd60e51b8252600482015260126024820152714e6f20706861736520746f2064656c65746560701b6044820152fd5b346102bd5760003660031901126102bd57602060ff60fe5460081c166040519015158152f35b346102bd5760003660031901126102bd5760405160009060ff54612a6281613089565b808352600191808316908115610d795750600114612a8a576103928361037e81870382613114565b60ff600090815260209450917fe08ec2af2cfc251225e1968fd6ca21e4044f129bffa95bac3503be8bdb30a3675b828410612ad15750505081019091019061037e81610d0f565b8054858501870152928501928101612ab8565b346102bd576102fb61090b612af836613054565b9060405192612b06846130c3565b600084526108fb6108f68433613456565b346102bd5760003660031901126102bd576040612b32613c03565b825191151582526020820152f35b346102bd5760003660031901126102bd57612b59613255565b600080808060018060a01b03609754164790828215612b7b575bf115610f2557005b506108fc612b73565b346102bd5760203660031901126102bd576001600160a01b03612ba5613028565b166000526101026020526020604060002054604051908152f35b346102bd5760003660031901126102bd57602060fb54604051908152f35b346102bd5760203660031901126102bd576020612bfb600435614977565b604051908152f35b346102bd5760003660031901126102bd57602060ff60fe54166040519015158152f35b346102bd576102fb612c3736613054565b91612c456108f68433613456565b61351e565b346102bd5760003660031901126102bd57602061010054604051908152f35b346102bd5760203660031901126102bd57612cde612c96600435612c91610108548210613b10565b6138fd565b50600181015460028201549160038101546004820154600583015490600684015492612cc960ff60078701541695613137565b96604051988998610100808b528a0190613003565b96602089015260408801526060870152608086015260a085015260c0840152151560e08301520390f35b346102bd5760003660031901126102bd57602060fc54604051908152f35b346102bd5760403660031901126102bd57612d3f613028565b602435906001600160a01b038080612d568561332b565b16921691808314612e5157803314908115612e2c575b5015612dc157600083815260696020526040902080546001600160a01b03191683179055612d998361332b565b167f8c5be1e5ebec7d5bd14f71427d1e84f3dd0314c0f7b2291e5b200ac8c7c3b925600080a4005b60405162461bcd60e51b815260206004820152603d60248201527f4552433732313a20617070726f76652063616c6c6572206973206e6f7420746f60448201527f6b656e206f776e6572206f7220617070726f76656420666f7220616c6c0000006064820152608490fd5b9050600052606a60205260406000203360005260205260ff6040600020541684612d6c565b60405162461bcd60e51b815260206004820152602160248201527f4552433732313a20617070726f76616c20746f2063757272656e74206f776e656044820152603960f91b6064820152608490fd5b346102bd5760203660031901126102bd5760206125c2600435613351565b346102bd5760003660031901126102bd57604051600090606554612ee181613089565b808352600191808316908115610d795750600114612f09576103928361037e81870382613114565b6065600090815260209450917f8ff97419363ffd7000167f130ef7168fbea05faf9251824ca5043f113cc6a7c75b828410612f505750505081019091019061037e81610d0f565b8054858501870152928501928101612f37565b346102bd5760203660031901126102bd576004359063ffffffff60e01b82168092036102bd578160209215908115612f9d575b5015158152f35b6380ac58cd60e01b811491508115612fcf575b8115612fbe575b5083612f96565b6301ffc9a760e01b14905083612fb7565b635b5e139f60e01b81149150612fb0565b60005b838110612ff35750506000910152565b8181015183820152602001612fe3565b9060209161301c81518092818552858086019101612fe0565b601f01601f1916010190565b600435906001600160a01b03821682036102bd57565b602435906001600160a01b03821682036102bd57565b60609060031901126102bd576001600160a01b039060043582811681036102bd579160243590811681036102bd579060443590565b90600182811c921680156130b9575b60208310146130a357565b634e487b7160e01b600052602260045260246000fd5b91607f1691613098565b602081019081106001600160401b03821117610abe57604052565b604081019081106001600160401b03821117610abe57604052565b606081019081106001600160401b03821117610abe57604052565b601f909101601f19168101906001600160401b03821190821017610abe57604052565b906040519182600082549261314b84613089565b9081845260019485811690816000146131ba5750600114613177575b505061317592500383613114565b565b9093915060005260209081600020936000915b8183106131a257505061317593508201013880613167565b8554888401850152948501948794509183019161318a565b91505061317594506020925060ff191682840152151560051b8201013880613167565b9181601f840112156102bd578235916001600160401b0383116102bd57602083818601950101116102bd57565b9181601f840112156102bd578235916001600160401b0383116102bd576020808501948460051b0101116102bd57565b6001600160401b038111610abe57601f01601f191660200190565b6097546001600160a01b0316330361326957565b606460405162461bcd60e51b815260206004820152602060248201527f4f776e61626c653a2063616c6c6572206973206e6f7420746865206f776e65726044820152fd5b609780546001600160a01b039283166001600160a01b031982168117909255909116600080516020614c83833981519152600080a3565b156132eb57565b60405162461bcd60e51b8152602060048201526018602482015277115490cdcc8c4e881a5b9d985b1a59081d1bdad95b88125160421b6044820152606490fd5b6000908152606760205260409020546001600160a01b031661334e8115156132e4565b90565b61336261335d8261361a565b6132e4565b6000908152606960205260409020546001600160a01b031690565b1561338457565b60405162461bcd60e51b815260206004820152602d60248201527f4552433732313a2063616c6c6572206973206e6f7420746f6b656e206f776e6560448201526c1c881bdc88185c1c1c9bdd9959609a1b6064820152608490fd5b60809060208152603260208201527f4552433732313a207472616e7366657220746f206e6f6e20455243373231526560408201527131b2b4bb32b91034b6b83632b6b2b73a32b960711b60608201520190565b1561343957565b60405162461bcd60e51b815280613452600482016133df565b0390fd5b906001600160a01b03808061346a8461332b565b1693169183831493841561349d575b508315613487575b50505090565b61349391929350613351565b1614388080613481565b909350600052606a60205260406000208260005260205260ff604060002054169238613479565b156134cb57565b60405162461bcd60e51b815260206004820152602560248201527f4552433732313a207472616e736665722066726f6d20696e636f72726563742060448201526437bbb732b960d91b6064820152608490fd5b906135469161352c8461332b565b6001600160a01b03939184169284929091831684146134c4565b169182156135c957816135639161355c8661332b565b16146134c4565b600080516020614ca3833981519152600084815260696020526040812060018060a01b03199081815416905583825260686020526040822060001981540190558482526040822060018154019055858252606760205284604083209182541617905580a4565b60405162461bcd60e51b8152602060048201526024808201527f4552433732313a207472616e7366657220746f20746865207a65726f206164646044820152637265737360e01b6064820152608490fd5b6000908152606760205260409020546001600160a01b0316151590565b91929091803b1561374c57613684936040519081630a85bd0160e11b9384825233600483015260009687602484015260448301526080606483015281878160209a8b966084830190613003565b03926001600160a01b03165af1849181613708575b506136f7575050503d6000146136ef573d6136b38161323a565b906136c16040519283613114565b81528091833d92013e5b805191826136ec5760405162461bcd60e51b815280613452600482016133df565b01fd5b5060606136cb565b6001600160e01b0319161492509050565b9091508581813d8311613745575b6137208183613114565b8101031261374157516001600160e01b031981168103613741579038613699565b8480fd5b503d613716565b50915050600190565b92939190803b156137d2576137a7946040518092630a85bd0160e11b9485835233600484015260018060a01b03809816602484015260448301526080606483015281806020998a956084830190613003565b03916000988991165af184918161370857506136f7575050503d6000146136ef573d6136b38161323a565b5050915050600190565b156137e357565b60405162461bcd60e51b815260206004820152602e60248201527f496e697469616c697a61626c653a20636f6e747261637420697320616c72656160448201526d191e481a5b9a5d1a585b1a5e995960921b6064820152608490fd5b81811061384a575050565b6000815560010161383f565b9190601f811161386557505050565b613175926000526020600020906020601f840160051c83019310610ab457601f0160051c019061383f565b1561389757565b60405162461bcd60e51b815260206004820152602b60248201527f496e697469616c697a61626c653a20636f6e7472616374206973206e6f74206960448201526a6e697469616c697a696e6760a81b6064820152608490fd5b919082018092116119ae57565b610108805482101561391c5760005260206000209060031b0190600090565b634e487b7160e01b600052603260045260246000fd5b818102929181159184041417156119ae57565b60001981146119ae5760010190565b919081101561391c5760051b81013590601e19813603018212156102bd5701803591906001600160401b0383116102bd5760200182360381136102bd579190565b1561399c57565b60405162461bcd60e51b815260206004820152602560248201527f496d616765206d75737420626520646174613a696d6167652f2a3b62617365366044820152641a1617171760d91b6064820152608490fd5b156139f657565b60405162461bcd60e51b8152602060048201526013602482015272105d1d1c9a589d5d195cc81c995c5d5a5c9959606a1b6044820152606490fd5b919081101561391c5760051b0190565b919082039182116119ae57565b600260c95414613a5f57600260c955565b60405162461bcd60e51b815260206004820152601f60248201527f5265656e7472616e637947756172643a207265656e7472616e742063616c6c006044820152606490fd5b15613aab57565b60405162461bcd60e51b815260206004820152601c60248201527b115490cdcc8c4e881d1bdad95b88185b1c9958591e481b5a5b9d195960221b6044820152606490fd5b908060209392818452848401376000828201840152601f01601f1916010190565b15613b1757565b60405162461bcd60e51b8152602060048201526014602482015273141a185cd948191bd95cc81b9bdd08195e1a5cdd60621b6044820152606490fd5b90613bd557613b628154613089565b80613b96575b5060076000918260018201558260028201558260038201558260048201558260058201558260068201550155565b601f8111600114613bad5750600081555b38613b68565b600090828252613bcc601f60208420920160051c82016001830161383f565b81835555613ba7565b634e487b7160e01b600052600060045260246000fd5b805482101561391c5760005260206000200190600090565b600090610108545b808310613c1b5750600091508190565b613c24836138fd565b5060ff60078201541615613c7c5760028101548015159081613c88575b50613c7c57600301548015159081613c72575b50613c60575060019190565b9091613c6b90613945565b9190613c0b565b9050421138613c54565b509091613c6b90613945565b9050421038613c41565b15613c9957565b60405162461bcd60e51b815260206004820152600d60248201526c24b73b30b634b2103a37b5b2b760991b6044820152606490fd5b15613cd557565b60405162461bcd60e51b815260206004820152600f60248201526e2737ba103a37b5b2b71037bbb732b960891b6044820152606490fd5b6000818152610103602090815260408220919492939092906001600160401b038211613e2357613d4682613d408554613089565b85613856565b8590601f8311600114613dbc5761010794939291879183613db1575b50508160011b916000199060031b1c19161790555b8284525260408220600160ff198254161790557fe6bd40d7fbe8d26f44fd9e1ba6d94055a784eb2de4a192c015f84c86a73d225b339280a3565b013590503880613d62565b83875284872091601f198416885b818110613e0c57509160019391856101079897969410613df2575b505050811b019055613d77565b0135600019600384901b60f8161c19169055388080613de5565b919387600181928787013581550195019201613dca565b634e487b7160e01b86526041600452602486fd5b90613e418261323a565b613e4e6040519182613114565b8281528092613e5f601f199161323a565b0190602036910137565b805115613fa95760405190613e7d826130f9565b604082527f4142434445464748494a4b4c4d4e4f505152535455565758595a61626364656660208301527f6768696a6b6c6d6e6f707172737475767778797a303132333435363738392b2f604083015280516002918282018092116119ae576003918290046001600160fe1b03811681036119ae57613eff908495941b613e37565b936020850193829183518401906020820192835194600085525b838110613f58575050505052510680600114613f4557600214613f3a575090565b603d90600019015390565b50603d9081600019820153600119015390565b87600491999293949901918251600190603f9082828260121c16880101518453828282600c1c16880101518385015382828260061c1688010151888501531685010151898201530197929190613f19565b50604051613fb6816130c3565b6000815290565b801515806144bb575b613fcf90613c92565b60ff908160fe5460081c16156143095760926141279261334e926000918183526142456020916101038352604093614008858720613137565b95818152610104855261401c868220613137565b968282526101058652614030878320613137565b928083526101068752878320549261404782614977565b958551156142c1575b82825261406961010796878b52828c8520541690614616565b95838352808a52818b84205416600014614288578a51614088816130f9565b602981527f556e6971756520386269742050656e6775696e73206f6e2042617365202845768b820152686f6c7665642033442960b81b8c820152935b835289529089902054161561425e5760296141026140fc8a516140e6816130de565b60048152637472756560e01b8b820152956144c8565b966144c8565b98519c8d809b683d913730b6b2911d1160b91b8b8301528a8151948593019101612fe0565b8901701116113232b9b1b934b83a34b7b7111d1160791b6029820152614156825180938a603a85019101612fe0565b016a11161134b6b0b3b2911d1160a91b603a82015261417e8251809389604585019101612fe0565b0170222c2272657665616c6564223a7472756560781b60458201526d161132bb37b63b32b22f99b2111d60911b60568201526141c38251809388606485019101612fe0565b016d161130ba3a3934b13aba32b9911d60911b60648201526141ee8251809387607285019101612fe0565b016f16113930b934ba3cafb9b1b7b932911d60811b607282015261421b8251809386608285019101612fe0565b01916e16113930b934ba3cafb930b735911d60891b60828401528351938491609185019101612fe0565b01607d60f81b6091820152036072810184520182613114565b60296141026140fc8a51614271816130de565b600581526466616c736560d81b8b820152956144c8565b8a51614293816130de565b601c81527b556e6971756520386269742050656e6775696e73206f6e204261736560201b8b820152936140c4565b945088516142ce816130f9565b60368152600080516020614cc38339815191528982015275223a224d65746164617461204d697373696e67227d5d60501b8a82015294614050565b614312906144c8565b6040518092602092777b226e616d65223a22386269742050656e6775696e73202360401b8484015261434d8151809286603887019101612fe0565b8201907f222c226465736372697074696f6e223a22556e72657665616c6564203862697460388301527b102832b733bab4b7399037b7102130b9b291161134b6b0b3b2911d1160211b605883015260009181546143a981613089565b926001918083169081156144825750600114614435575b505050509081600080516020614cc383398151915261334e947f222c2272657665616c6564223a66616c73652c2261747472696275746573223a606095528201527f223a224e6f2050726f706572747920756e74696c6c2052657665616c227d5d7d6040820152036040810184520182613114565b600090815286812093945091925b84831061446b575050500160740182600080516020614cc3833981519152606061334e6143c0565b805484840160740152879550918601918101614443565b606097965060749350600080516020614cc383398151915294925061334e9895915060ff191683830152801515020101929382956143c0565b5061010054811115613fc6565b6000908072184f03e93ff9f4daa797ed6e38ed64bf6a1f0160401b808210156145f7575b506904ee2d6d415b85acef8160201b808310156145e8575b50662386f26fc10000808310156145d9575b506305f5e100808310156145ca575b50612710808310156145bb575b5060648210156145ab575b600a809210156145a1575b600190816021614559828701613e37565b95860101905b61456b575b5050505090565b600019019083906f181899199a1a9b1b9c1cb0b131b232b360811b8282061a83530491821561459c5791908261455f565b614564565b9160010191614548565b919060646002910491019161453d565b60049193920491019138614532565b60089193920491019138614525565b60109193920491019138614516565b60209193920491019138614504565b6040935081049150386144ec565b90815181101561391c570160200190565b901561334e57604080519061462a826130de565b6018825261465a60209277113a3930b4ba2fba3cb832911d1122bb37b63aba34b7b71160411b84820152846148c7565b6148c257825115801561489a575b61484757825192835b6147b2575b83158015614782575b61477b5760001984019384116119ae578051808511614773575b506146a38461323a565b936146b083519586613114565b8085526146bc8161323a565b8585019290601f1901368437600090815b83811061474357505050509261334e92827f2c7b2274726169745f74797065223a2245766f6c7574696f6e222c2276616c75614716966051955197889551809286880190612fe0565b8401928301527065223a2245766f6c766564203344227d5d60781b90820152036031810184520182613114565b61476e906001600160f81b031961475a8285614605565b5116841a614768828b614605565b53613945565b6146cd565b935038614699565b9250505090565b5060001984018481116119ae57605d60f81b906001600160f81b0319906147a99084614605565b5116141561467f565b92600019810190808211614832576001600160f81b03196147d38387614605565b5116600160fd1b8114908115614824575b8115614816575b8115614808575b501561480057509283614671565b939050614676565b600d60f81b149050386147f2565b600560f91b811491506147eb565b600960f81b811491506147e4565b60246000634e487b7160e01b81526011600452fd5b9091507f5b7b2274726169745f74797065223a2245766f6c7574696f6e222c2276616c75815192614877846130f9565b603184528301527065223a2245766f6c766564203344227d5d60781b9082015290565b506148bd81516148a9816130de565b60028152615b5d60f01b84820152846148c7565b614668565b505090565b908051801561495657825110614970576000905b6148e88351825190613a41565b82116149685760019260005b825181101561495e576001600160f81b03198061491a61491484886138f0565b85614605565b5116906149278386614605565b51160361493c5761493790613945565b6148f4565b5092509060005b6149565761495090613945565b906148db565b505050600190565b5092919091614943565b505050600090565b5050600090565b80151580614a1e575b61498990613c92565b6000908082526101069160209183835260408083205492600195869561010054965b878111156149be57505050505050505090565b8581146149e2578084528282528484205487808211918215614a05575b50506149f0575b6149eb90613945565b6149ab565b976149fd6149eb91613945565b9890506149e2565b14905080614a15575b87386149db565b50858110614a0e565b5061010054811115614980565b614a33613c03565b919015614a5557614a43826138fd565b50600180820154600590920154909392565b905061010854614a6e5760fd5460009160009190600090565b60405162461bcd60e51b81526020600482015260146024820152734e6f20616374697665206d696e7420706861736560601b6044820152606490fd5b9082101561391c570190565b9060405190614ac4826130de565b600b82526a646174613a696d6167652f60a81b602083015260405192614ae9846130de565b60088452670ed8985cd94d8d0b60c21b60208501528251600881018091116119ae57821115614bf95760005b8351811015614b5f576001600160f81b031980614b33838686614aaa565b351690614b408387614605565b511603614b5557614b5090613945565b614b15565b5050505050600090565b509290919260009351925b80614b768451866138f0565b116145645760019460005b8451811015614bf0576001600160f81b031980614ba8614ba1848a6138f0565b8688614aaa565b351690614bb58388614605565b511603614bca57614bc590613945565b614b81565b509390945060005b614be657614bdf90613945565b9293614b6a565b5050505050600190565b50939094614bd2565b5050505060009056fe9debbd008148f593b1d1f618a64b0d9561e522df1013cdcfd8c7302978119def6bd5c950a8d8df17f772f5af37cb3655737899cbf903264b9795592da439661cb766049abb760077328403f9e881e7e0fbaaeb7f8e58341fdb1387f6b4fe3ba07f26b83ff96e1f2b6a682f133852f6798a09c465da95921460cefb38474024988be0079c531659141344cd1fd0a4f28419497f9722a3daafe3b4186f6b6457e0ddf252ad1be2c89b69c2b068fc378daa952ba7f163c4a11628f55a4df523b3ef5b7b2274726169745f74797065223a2250726f7065727479222c2276616c7565eb4eeec0e38c476c368b8f69450d5c4d716ebace637e90a57446da575622f0ddf8e1a15aba9398e019f0b49df1a4fde98ee17ae345cb5f6b5e2c27f5033e8ce7a26469706673582212208df26cf87738f68a99edad0e1321c3464e5807fc13c9298592043f22cb3c867964736f6c63430008140033","opcodes":"PUSH1 0x80 DUP1 PUSH1 0x40 MSTORE CALLVALUE PUSH3 0xC6 JUMPI PUSH1 0x0 SLOAD SWAP1 PUSH1 0xFF DUP3 PUSH1 0x8 SHR AND PUSH3 0x74 JUMPI POP PUSH1 0xFF DUP1 DUP3 AND SUB PUSH3 0x38 JUMPI JUMPDEST PUSH1 0x40 MLOAD PUSH2 0x4D58 SWAP1 DUP2 PUSH3 0xCC DUP3 CODECOPY RETURN JUMPDEST PUSH1 0xFF SWAP1 DUP2 NOT AND OR PUSH1 0x0 SSTORE PUSH32 0x7F26B83FF96E1F2B6A682F133852F6798A09C465DA95921460CEFB3847402498 PUSH1 0x20 PUSH1 0x40 MLOAD PUSH1 0xFF DUP2 MSTORE LOG1 CODESIZE PUSH3 0x28 JUMP JUMPDEST PUSH3 0x461BCD PUSH1 0xE5 SHL DUP2 MSTORE PUSH1 0x20 PUSH1 0x4 DUP3 ADD MSTORE PUSH1 0x27 PUSH1 0x24 DUP3 ADD MSTORE PUSH32 0x496E697469616C697A61626C653A20636F6E747261637420697320696E697469 PUSH1 0x44 DUP3 ADD MSTORE PUSH7 0x616C697A696E67 PUSH1 0xC8 SHL PUSH1 0x64 DUP3 ADD MSTORE PUSH1 0x84 SWAP1 REVERT JUMPDEST PUSH1 0x0 DUP1 REVERT INVALID PUSH1 0x80 DUP1 PUSH1 0x40 MSTORE PUSH1 0x4 CALLDATASIZE LT ISZERO PUSH2 0x13 JUMPI PUSH1 0x0 DUP1 REVERT JUMPDEST PUSH1 0x0 CALLDATALOAD PUSH1 0xE0 SHR SWAP1 DUP2 PUSH4 0x1FFC9A7 EQ PUSH2 0x2F63 JUMPI POP DUP1 PUSH4 0x6FDDE03 EQ PUSH2 0x2EBE JUMPI DUP1 PUSH4 0x81812FC EQ PUSH2 0x2EA0 JUMPI DUP1 PUSH4 0x95EA7B3 EQ PUSH2 0x2D26 JUMPI DUP1 PUSH4 0xF2CDD6C EQ PUSH2 0x2D08 JUMPI DUP1 PUSH4 0x16EF376B EQ PUSH2 0x2C69 JUMPI DUP1 PUSH4 0x18160DDD EQ PUSH2 0x2C4A JUMPI DUP1 PUSH4 0x23B872DD EQ PUSH2 0x2C26 JUMPI DUP1 PUSH4 0x25FD90F3 EQ PUSH2 0x2C03 JUMPI DUP1 PUSH4 0x29C1605F EQ PUSH2 0x2BDD JUMPI DUP1 PUSH4 0x32CB6B0C EQ PUSH2 0x2BBF JUMPI DUP1 PUSH4 0x3A602B4D EQ PUSH2 0x2B84 JUMPI DUP1 PUSH4 0x3CCFD60B EQ PUSH2 0x2B40 JUMPI DUP1 PUSH4 0x40C5B34E EQ PUSH2 0x2B17 JUMPI DUP1 PUSH4 0x42842E0E EQ PUSH2 0x2AE4 JUMPI DUP1 PUSH4 0x448D8C5C EQ PUSH2 0x2A3F JUMPI DUP1 PUSH4 0x51830227 EQ PUSH2 0x2A19 JUMPI DUP1 PUSH4 0x5C86A009 EQ PUSH2 0x28C7 JUMPI DUP1 PUSH4 0x5CD8A76B EQ PUSH2 0x286A JUMPI DUP1 PUSH4 0x60E6CA6F EQ PUSH2 0x25D4 JUMPI DUP1 PUSH4 0x6352211E EQ PUSH2 0x25A4 JUMPI DUP1 PUSH4 0x6817C76C EQ PUSH2 0x2586 JUMPI DUP1 PUSH4 0x6F8B44B0 EQ PUSH2 0x24AC JUMPI DUP1 PUSH4 0x70A08231 EQ PUSH2 0x2415 JUMPI DUP1 PUSH4 0x715018A6 EQ PUSH2 0x23CA JUMPI DUP1 PUSH4 0x7978D451 EQ PUSH2 0x222E JUMPI DUP1 PUSH4 0x7B3D6E56 EQ PUSH2 0x2201 JUMPI DUP1 PUSH4 0x8129FC1C EQ PUSH2 0x1C14 JUMPI DUP1 PUSH4 0x8DA5CB5B EQ PUSH2 0x1BEB JUMPI DUP1 PUSH4 0x91D8D68B EQ PUSH2 0x17E4 JUMPI DUP1 PUSH4 0x9333174A EQ PUSH2 0xDA1 JUMPI DUP1 PUSH4 0x95D89B41 EQ PUSH2 0xCD3 JUMPI DUP1 PUSH4 0x9C30AD85 EQ PUSH2 0xCB4 JUMPI DUP1 PUSH4 0xA22CB465 EQ PUSH2 0xBDD JUMPI DUP1 PUSH4 0xA3FA2817 EQ PUSH2 0xB16 JUMPI DUP1 PUSH4 0xB75F1AEF EQ PUSH2 0x910 JUMPI DUP1 PUSH4 0xB88D4FDE EQ PUSH2 0x863 JUMPI DUP1 PUSH4 0xC1EEA4A0 EQ PUSH2 0x831 JUMPI DUP1 PUSH4 0xC3753D70 EQ PUSH2 0x804 JUMPI DUP1 PUSH4 0xC87B56DD EQ PUSH2 0x76B JUMPI DUP1 PUSH4 0xCF348425 EQ PUSH2 0x73E JUMPI DUP1 PUSH4 0xD2F40D79 EQ PUSH2 0x68C JUMPI DUP1 PUSH4 0xD3DD5FE0 EQ PUSH2 0x631 JUMPI DUP1 PUSH4 0xDC5D9F42 EQ PUSH2 0x5D4 JUMPI DUP1 PUSH4 0xDE006F54 EQ PUSH2 0x58B JUMPI DUP1 PUSH4 0xE0A80853 EQ PUSH2 0x4F9 JUMPI DUP1 PUSH4 0xE268E4D3 EQ PUSH2 0x465 JUMPI DUP1 PUSH4 0xE4FAF288 EQ PUSH2 0x446 JUMPI DUP1 PUSH4 0xE725F877 EQ PUSH2 0x419 JUMPI DUP1 PUSH4 0xE82303CE EQ PUSH2 0x3EC JUMPI DUP1 PUSH4 0xE985E9C5 EQ PUSH2 0x396 JUMPI DUP1 PUSH4 0xF2824B53 EQ PUSH2 0x351 JUMPI DUP1 PUSH4 0xF2FDE38B EQ PUSH2 0x2C2 JUMPI PUSH4 0xF4A0A528 EQ PUSH2 0x271 JUMPI PUSH1 0x0 DUP1 REVERT JUMPDEST CALLVALUE PUSH2 0x2BD JUMPI PUSH1 0x20 CALLDATASIZE PUSH1 0x3 NOT ADD SLT PUSH2 0x2BD JUMPI PUSH32 0x25B1F9F6B6E61DFCA5575239769E4450ED2E49176670837F5D1A82A9A2FC693F PUSH1 0x20 PUSH1 0x4 CALLDATALOAD PUSH2 0x2B0 PUSH2 0x3255 JUMP JUMPDEST DUP1 PUSH1 0xFD SSTORE PUSH1 0x40 MLOAD SWAP1 DUP2 MSTORE LOG1 STOP JUMPDEST PUSH1 0x0 DUP1 REVERT JUMPDEST CALLVALUE PUSH2 0x2BD JUMPI PUSH1 0x20 CALLDATASIZE PUSH1 0x3 NOT ADD SLT PUSH2 0x2BD JUMPI PUSH2 0x2DB PUSH2 0x3028 JUMP JUMPDEST PUSH2 0x2E3 PUSH2 0x3255 JUMP JUMPDEST PUSH1 0x1 PUSH1 0x1 PUSH1 0xA0 SHL SUB DUP2 AND ISZERO PUSH2 0x2FD JUMPI PUSH2 0x2FB SWAP1 PUSH2 0x32AD JUMP JUMPDEST STOP JUMPDEST PUSH1 0x40 MLOAD PUSH3 0x461BCD PUSH1 0xE5 SHL DUP2 MSTORE PUSH1 0x20 PUSH1 0x4 DUP3 ADD MSTORE PUSH1 0x26 PUSH1 0x24 DUP3 ADD MSTORE PUSH32 0x4F776E61626C653A206E6577206F776E657220697320746865207A65726F2061 PUSH1 0x44 DUP3 ADD MSTORE PUSH6 0x646472657373 PUSH1 0xD0 SHL PUSH1 0x64 DUP3 ADD MSTORE PUSH1 0x84 SWAP1 REVERT JUMPDEST CALLVALUE PUSH2 0x2BD JUMPI PUSH1 0x20 CALLDATASIZE PUSH1 0x3 NOT ADD SLT PUSH2 0x2BD JUMPI PUSH1 0x4 CALLDATALOAD PUSH1 0x0 MSTORE PUSH2 0x105 PUSH1 0x20 MSTORE PUSH2 0x392 PUSH2 0x37E PUSH1 0x40 PUSH1 0x0 KECCAK256 PUSH2 0x3137 JUMP JUMPDEST PUSH1 0x40 MLOAD SWAP2 DUP3 SWAP2 PUSH1 0x20 DUP4 MSTORE PUSH1 0x20 DUP4 ADD SWAP1 PUSH2 0x3003 JUMP JUMPDEST SUB SWAP1 RETURN JUMPDEST CALLVALUE PUSH2 0x2BD JUMPI PUSH1 0x40 CALLDATASIZE PUSH1 0x3 NOT ADD SLT PUSH2 0x2BD JUMPI PUSH2 0x3AF PUSH2 0x3028 JUMP JUMPDEST PUSH2 0x3B7 PUSH2 0x303E JUMP JUMPDEST SWAP1 PUSH1 0x1 DUP1 PUSH1 0xA0 SHL SUB DUP1 SWAP2 AND PUSH1 0x0 MSTORE PUSH1 0x6A PUSH1 0x20 MSTORE PUSH1 0x40 PUSH1 0x0 KECCAK256 SWAP2 AND PUSH1 0x0 MSTORE PUSH1 0x20 MSTORE PUSH1 0x20 PUSH1 0xFF PUSH1 0x40 PUSH1 0x0 KECCAK256 SLOAD AND PUSH1 0x40 MLOAD SWAP1 ISZERO ISZERO DUP2 MSTORE RETURN JUMPDEST CALLVALUE PUSH2 0x2BD JUMPI PUSH1 0x20 CALLDATASIZE PUSH1 0x3 NOT ADD SLT PUSH2 0x2BD JUMPI PUSH1 0x4 CALLDATALOAD PUSH1 0x0 MSTORE PUSH2 0x10D PUSH1 0x20 MSTORE PUSH1 0x20 PUSH1 0x40 PUSH1 0x0 KECCAK256 SLOAD PUSH1 0x40 MLOAD SWAP1 DUP2 MSTORE RETURN JUMPDEST CALLVALUE PUSH2 0x2BD JUMPI PUSH1 0x20 CALLDATASIZE PUSH1 0x3 NOT ADD SLT PUSH2 0x2BD JUMPI PUSH1 0x4 CALLDATALOAD PUSH1 0x0 MSTORE PUSH2 0x104 PUSH1 0x20 MSTORE PUSH2 0x392 PUSH2 0x37E PUSH1 0x40 PUSH1 0x0 KECCAK256 PUSH2 0x3137 JUMP JUMPDEST CALLVALUE PUSH2 0x2BD JUMPI PUSH1 0x0 CALLDATASIZE PUSH1 0x3 NOT ADD SLT PUSH2 0x2BD JUMPI PUSH1 0x20 PUSH2 0x108 SLOAD PUSH1 0x40 MLOAD SWAP1 DUP2 MSTORE RETURN JUMPDEST CALLVALUE PUSH2 0x2BD JUMPI PUSH1 0x20 CALLDATASIZE PUSH1 0x3 NOT ADD SLT PUSH2 0x2BD JUMPI PUSH1 0x4 CALLDATALOAD PUSH2 0x481 PUSH2 0x3255 JUMP JUMPDEST DUP1 ISZERO PUSH2 0x4B7 JUMPI PUSH1 0x20 DUP2 PUSH31 0xC836A17ED3A6A59DCE35376AE3C2777797DC03F39F463153C0FEA5B65F0683 SWAP3 PUSH1 0xFC SSTORE PUSH1 0x40 MLOAD SWAP1 DUP2 MSTORE LOG1 STOP JUMPDEST PUSH1 0x40 MLOAD PUSH3 0x461BCD PUSH1 0xE5 SHL DUP2 MSTORE PUSH1 0x20 PUSH1 0x4 DUP3 ADD MSTORE PUSH1 0x1A PUSH1 0x24 DUP3 ADD MSTORE PUSH26 0x4D6178207065722077616C6C6574206D757374206265203E203 PUSH1 0x34 SHL PUSH1 0x44 DUP3 ADD MSTORE PUSH1 0x64 SWAP1 REVERT JUMPDEST CALLVALUE PUSH2 0x2BD JUMPI PUSH1 0x20 CALLDATASIZE PUSH1 0x3 NOT ADD SLT PUSH2 0x2BD JUMPI PUSH1 0x4 CALLDATALOAD DUP1 ISZERO ISZERO DUP1 SWAP2 SUB PUSH2 0x2BD JUMPI PUSH1 0x20 PUSH32 0x4A9768F4A343B5CD5D5319E6FE71E839C384E1F67A57E74631919D50C5D4D953 SWAP2 PUSH2 0x543 PUSH2 0x3255 JUMP JUMPDEST PUSH1 0xFE SLOAD PUSH2 0xFF00 DUP3 PUSH1 0x8 SHL AND SWAP1 PUSH2 0xFF00 NOT AND OR PUSH1 0xFE SSTORE PUSH1 0x40 MLOAD SWAP1 DUP2 MSTORE LOG1 PUSH2 0x100 SLOAD DUP1 PUSH2 0x56A JUMPI STOP JUMPDEST PUSH1 0x40 PUSH1 0x0 DUP1 MLOAD PUSH1 0x20 PUSH2 0x4C23 DUP4 CODECOPY DUP2 MLOAD SWAP2 MSTORE SWAP2 DUP2 MLOAD SWAP1 PUSH1 0x1 DUP3 MSTORE PUSH1 0x20 DUP3 ADD MSTORE LOG1 STOP JUMPDEST CALLVALUE PUSH2 0x2BD JUMPI PUSH1 0x40 CALLDATASIZE PUSH1 0x3 NOT ADD SLT PUSH2 0x2BD JUMPI PUSH2 0x5A4 PUSH2 0x303E JUMP JUMPDEST PUSH1 0x4 CALLDATALOAD PUSH1 0x0 MSTORE PUSH2 0x109 PUSH1 0x20 MSTORE PUSH1 0x40 PUSH1 0x0 KECCAK256 SWAP1 PUSH1 0x1 DUP1 PUSH1 0xA0 SHL SUB AND PUSH1 0x0 MSTORE PUSH1 0x20 MSTORE PUSH1 0x20 PUSH1 0x40 PUSH1 0x0 KECCAK256 SLOAD PUSH1 0x40 MLOAD SWAP1 DUP2 MSTORE RETURN JUMPDEST CALLVALUE PUSH2 0x2BD JUMPI PUSH1 0x40 CALLDATASIZE PUSH1 0x3 NOT ADD SLT PUSH2 0x2BD JUMPI PUSH1 0x4 CALLDATALOAD PUSH2 0x5F0 PUSH2 0x303E JUMP JUMPDEST SWAP1 PUSH2 0x5FF PUSH2 0x108 SLOAD DUP3 LT PUSH2 0x3B10 JUMP JUMPDEST PUSH1 0x0 MSTORE PUSH2 0x10A PUSH1 0x20 MSTORE PUSH1 0x40 PUSH1 0x0 KECCAK256 SWAP1 PUSH1 0x1 DUP1 PUSH1 0xA0 SHL SUB AND PUSH1 0x0 MSTORE PUSH1 0x20 MSTORE PUSH1 0x20 PUSH1 0xFF PUSH1 0x40 PUSH1 0x0 KECCAK256 SLOAD AND PUSH1 0x40 MLOAD SWAP1 ISZERO ISZERO DUP2 MSTORE RETURN JUMPDEST CALLVALUE PUSH2 0x2BD JUMPI PUSH1 0x0 CALLDATASIZE PUSH1 0x3 NOT ADD SLT PUSH2 0x2BD JUMPI PUSH2 0x64A PUSH2 0x3255 JUMP JUMPDEST PUSH32 0xB304FE5DD2D3C45E8EC87C1DD1BD2B3A773B3135E84A7B9151F5FB4BF1A06D0E PUSH1 0x20 PUSH1 0xFE SLOAD PUSH1 0xFF DUP1 DUP3 AND ISZERO AND DUP1 SWAP2 PUSH1 0xFF NOT AND OR PUSH1 0xFE SSTORE PUSH1 0x40 MLOAD SWAP1 ISZERO ISZERO DUP2 MSTORE LOG1 STOP JUMPDEST CALLVALUE PUSH2 0x2BD JUMPI PUSH1 0x40 CALLDATASIZE PUSH1 0x3 NOT ADD SLT PUSH2 0x2BD JUMPI PUSH1 0x4 CALLDATALOAD PUSH1 0x24 CALLDATALOAD PUSH1 0x1 PUSH1 0x1 PUSH1 0x40 SHL SUB DUP2 GT PUSH2 0x2BD JUMPI PUSH1 0x0 DUP1 MLOAD PUSH1 0x20 PUSH2 0x4D03 DUP4 CODECOPY DUP2 MLOAD SWAP2 MSTORE SWAP2 PUSH2 0x723 PUSH2 0x6D4 PUSH1 0x20 SWAP4 CALLDATASIZE SWAP1 PUSH1 0x4 ADD PUSH2 0x31DD JUMP JUMPDEST SWAP1 PUSH2 0x6DD PUSH2 0x3A4E JUMP JUMPDEST DUP4 ISZERO ISZERO DUP1 PUSH2 0x731 JUMPI JUMPDEST PUSH2 0x6EF SWAP1 PUSH2 0x3C92 JUMP JUMPDEST PUSH2 0x70B PUSH2 0x6FB DUP6 PUSH2 0x332B JUMP JUMPDEST PUSH1 0x1 PUSH1 0x1 PUSH1 0xA0 SHL SUB AND CALLER EQ PUSH2 0x3CCE JUMP JUMPDEST PUSH2 0x71D PUSH2 0x718 DUP4 DUP4 PUSH2 0x4AB6 JUMP JUMPDEST PUSH2 0x3995 JUMP JUMPDEST DUP4 PUSH2 0x3D0C JUMP JUMPDEST PUSH1 0x40 MLOAD SWAP1 DUP2 MSTORE LOG1 PUSH1 0x1 PUSH1 0xC9 SSTORE STOP JUMPDEST POP PUSH2 0x100 SLOAD DUP5 GT ISZERO PUSH2 0x6E6 JUMP JUMPDEST CALLVALUE PUSH2 0x2BD JUMPI PUSH1 0x20 CALLDATASIZE PUSH1 0x3 NOT ADD SLT PUSH2 0x2BD JUMPI PUSH1 0x4 CALLDATALOAD PUSH1 0x0 MSTORE PUSH2 0x103 PUSH1 0x20 MSTORE PUSH2 0x392 PUSH2 0x37E PUSH1 0x40 PUSH1 0x0 KECCAK256 PUSH2 0x3137 JUMP JUMPDEST CALLVALUE PUSH2 0x2BD JUMPI PUSH1 0x20 CALLDATASIZE PUSH1 0x3 NOT ADD SLT PUSH2 0x2BD JUMPI PUSH2 0x392 PUSH2 0x7A4 PUSH2 0x79F PUSH1 0x4 CALLDATALOAD DUP1 ISZERO ISZERO DUP1 PUSH2 0x7F7 JUMPI JUMPDEST PUSH2 0x79A SWAP1 PUSH2 0x3C92 JUMP JUMPDEST PUSH2 0x3FBD JUMP JUMPDEST PUSH2 0x3E69 JUMP JUMPDEST PUSH2 0x37E PUSH1 0x3D PUSH1 0x40 MLOAD DUP1 SWAP4 PUSH32 0x646174613A6170706C69636174696F6E2F6A736F6E3B6261736536342C000000 PUSH1 0x20 DUP4 ADD MSTORE PUSH2 0x7E7 DUP2 MLOAD DUP1 SWAP3 PUSH1 0x20 DUP7 DUP7 ADD SWAP2 ADD PUSH2 0x2FE0 JUMP JUMPDEST DUP2 ADD SUB PUSH1 0x1D DUP2 ADD DUP5 MSTORE ADD DUP3 PUSH2 0x3114 JUMP JUMPDEST POP PUSH2 0x100 SLOAD DUP2 GT ISZERO PUSH2 0x791 JUMP JUMPDEST CALLVALUE PUSH2 0x2BD JUMPI PUSH1 0x20 CALLDATASIZE PUSH1 0x3 NOT ADD SLT PUSH2 0x2BD JUMPI PUSH1 0x4 CALLDATALOAD PUSH1 0x0 MSTORE PUSH2 0x101 PUSH1 0x20 MSTORE PUSH1 0x20 PUSH1 0x40 PUSH1 0x0 KECCAK256 SLOAD PUSH1 0x40 MLOAD SWAP1 DUP2 MSTORE RETURN JUMPDEST CALLVALUE PUSH2 0x2BD JUMPI PUSH1 0x20 CALLDATASIZE PUSH1 0x3 NOT ADD SLT PUSH2 0x2BD JUMPI PUSH1 0x4 CALLDATALOAD PUSH1 0x0 MSTORE PUSH2 0x107 PUSH1 0x20 MSTORE PUSH1 0x20 PUSH1 0xFF PUSH1 0x40 PUSH1 0x0 KECCAK256 SLOAD AND PUSH1 0x40 MLOAD SWAP1 ISZERO ISZERO DUP2 MSTORE RETURN JUMPDEST CALLVALUE PUSH2 0x2BD JUMPI PUSH1 0x80 CALLDATASIZE PUSH1 0x3 NOT ADD SLT PUSH2 0x2BD JUMPI PUSH2 0x87C PUSH2 0x3028 JUMP JUMPDEST PUSH2 0x884 PUSH2 0x303E JUMP JUMPDEST SWAP1 PUSH1 0x64 CALLDATALOAD SWAP1 PUSH1 0x44 CALLDATALOAD PUSH1 0x1 PUSH1 0x1 PUSH1 0x40 SHL SUB DUP4 GT PUSH2 0x2BD JUMPI CALLDATASIZE PUSH1 0x23 DUP5 ADD SLT ISZERO PUSH2 0x2BD JUMPI DUP3 PUSH1 0x4 ADD CALLDATALOAD SWAP4 PUSH2 0x8B4 DUP6 PUSH2 0x323A JUMP JUMPDEST SWAP3 PUSH2 0x8C2 PUSH1 0x40 MLOAD SWAP5 DUP6 PUSH2 0x3114 JUMP JUMPDEST DUP6 DUP5 MSTORE CALLDATASIZE PUSH1 0x24 DUP8 DUP8 ADD ADD GT PUSH2 0x2BD JUMPI PUSH1 0x0 PUSH1 0x20 DUP8 PUSH2 0x2FB SWAP9 PUSH1 0x24 PUSH2 0x90B SWAP10 ADD DUP4 DUP10 ADD CALLDATACOPY DUP7 ADD ADD MSTORE PUSH2 0x8FB PUSH2 0x8F6 DUP5 CALLER PUSH2 0x3456 JUMP JUMPDEST PUSH2 0x337D JUMP JUMPDEST PUSH2 0x906 DUP4 DUP4 DUP4 PUSH2 0x351E JUMP JUMPDEST PUSH2 0x3755 JUMP JUMPDEST PUSH2 0x3432 JUMP JUMPDEST CALLVALUE PUSH2 0x2BD JUMPI PUSH1 0x20 DUP1 PUSH1 0x3 NOT CALLDATASIZE ADD SLT PUSH2 0x2BD JUMPI PUSH1 0x1 PUSH1 0x1 PUSH1 0x40 SHL SUB PUSH1 0x4 CALLDATALOAD DUP2 DUP2 GT PUSH2 0x2BD JUMPI PUSH2 0x942 SWAP1 CALLDATASIZE SWAP1 PUSH1 0x4 ADD PUSH2 0x31DD JUMP JUMPDEST SWAP2 PUSH2 0x94B PUSH2 0x3255 JUMP JUMPDEST DUP3 ISZERO PUSH2 0xAD4 JUMPI DUP3 GT PUSH2 0xABE JUMPI PUSH1 0xFF SWAP1 PUSH2 0x964 DUP3 SLOAD PUSH2 0x3089 JUMP JUMPDEST PUSH1 0x1F DUP2 GT PUSH2 0xA83 JUMPI JUMPDEST POP PUSH1 0x0 SWAP3 PUSH1 0x1F DUP2 GT PUSH1 0x1 EQ PUSH2 0xA10 JUMPI DUP1 PUSH1 0x0 DUP1 MLOAD PUSH1 0x20 PUSH2 0x4C03 DUP4 CODECOPY DUP2 MLOAD SWAP2 MSTORE SWAP4 SWAP5 PUSH1 0x0 SWAP2 PUSH2 0xA05 JUMPI JUMPDEST POP DUP2 PUSH1 0x1 SHL SWAP1 PUSH1 0x0 NOT DUP4 PUSH1 0x3 SHL SHR NOT AND OR DUP5 SSTORE JUMPDEST PUSH2 0x9BF PUSH1 0x40 MLOAD SWAP3 DUP4 SWAP3 DUP8 DUP5 MSTORE DUP8 DUP5 ADD SWAP2 PUSH2 0x3AEF JUMP JUMPDEST SUB SWAP1 LOG1 PUSH1 0xFE SLOAD PUSH1 0x8 SHR AND ISZERO DUP1 PUSH2 0x9F9 JUMPI JUMPDEST PUSH2 0x9D6 JUMPI STOP JUMPDEST PUSH1 0x40 PUSH1 0x0 DUP1 MLOAD PUSH1 0x20 PUSH2 0x4C23 DUP4 CODECOPY DUP2 MLOAD SWAP2 MSTORE SWAP2 PUSH2 0x100 SLOAD DUP3 MLOAD SWAP2 PUSH1 0x1 DUP4 MSTORE DUP3 ADD MSTORE LOG1 STOP JUMPDEST POP PUSH2 0x100 SLOAD ISZERO ISZERO PUSH2 0x9D0 JUMP JUMPDEST SWAP1 POP DUP3 ADD CALLDATALOAD DUP7 PUSH2 0x996 JUMP JUMPDEST PUSH1 0x1F NOT DUP2 AND SWAP4 DUP4 PUSH1 0x0 MSTORE DUP6 PUSH1 0x0 KECCAK256 SWAP1 PUSH1 0x0 JUMPDEST DUP8 DUP8 DUP3 LT PUSH2 0xA6D JUMPI POP POP DUP3 PUSH1 0x0 DUP1 MLOAD PUSH1 0x20 PUSH2 0x4C03 DUP4 CODECOPY DUP2 MLOAD SWAP2 MSTORE SWAP6 SWAP7 LT PUSH2 0xA53 JUMPI JUMPDEST POP POP PUSH1 0x1 DUP2 DUP2 SHL ADD DUP5 SSTORE PUSH2 0x9AA JUMP JUMPDEST DUP4 ADD CALLDATALOAD PUSH1 0x0 NOT PUSH1 0x3 DUP5 SWAP1 SHL PUSH1 0xF8 AND SHR NOT AND SWAP1 SSTORE DUP6 DUP1 PUSH2 0xA44 JUMP JUMPDEST PUSH1 0x1 DUP4 SWAP5 DUP3 SWAP4 SWAP5 DUP9 ADD CALLDATALOAD DUP2 SSTORE ADD SWAP4 ADD SWAP2 ADD PUSH2 0xA22 JUMP JUMPDEST PUSH2 0xAAE SWAP1 DUP4 PUSH1 0x0 MSTORE DUP6 PUSH1 0x0 KECCAK256 PUSH1 0x1F DUP7 ADD PUSH1 0x5 SHR DUP2 ADD SWAP2 DUP8 DUP8 LT PUSH2 0xAB4 JUMPI JUMPDEST PUSH1 0x1F ADD PUSH1 0x5 SHR ADD SWAP1 PUSH2 0x383F JUMP JUMPDEST DUP5 PUSH2 0x96D JUMP JUMPDEST SWAP1 SWAP2 POP DUP2 SWAP1 PUSH2 0xAA1 JUMP JUMPDEST PUSH4 0x4E487B71 PUSH1 0xE0 SHL PUSH1 0x0 MSTORE PUSH1 0x41 PUSH1 0x4 MSTORE PUSH1 0x24 PUSH1 0x0 REVERT JUMPDEST PUSH1 0x40 MLOAD PUSH3 0x461BCD PUSH1 0xE5 SHL DUP2 MSTORE PUSH1 0x4 DUP2 ADD DUP6 SWAP1 MSTORE PUSH1 0x1A PUSH1 0x24 DUP3 ADD MSTORE PUSH26 0x141B1858D95A1BDB19195C881A5B5859D9481C995C5D5A5C9959 PUSH1 0x32 SHL PUSH1 0x44 DUP3 ADD MSTORE PUSH1 0x64 SWAP1 REVERT JUMPDEST CALLVALUE PUSH2 0x2BD JUMPI PUSH1 0x20 DUP1 PUSH1 0x3 NOT CALLDATASIZE ADD SLT PUSH2 0x2BD JUMPI PUSH1 0x4 CALLDATALOAD PUSH2 0xB39 PUSH2 0x108 SLOAD DUP3 LT PUSH2 0x3B10 JUMP JUMPDEST PUSH1 0x0 MSTORE PUSH2 0x10B DUP2 MSTORE PUSH1 0x40 PUSH1 0x0 KECCAK256 PUSH1 0x40 MLOAD SWAP1 DUP2 DUP4 DUP3 SLOAD SWAP2 DUP3 DUP2 MSTORE ADD SWAP1 DUP2 SWAP3 PUSH1 0x0 MSTORE DUP5 PUSH1 0x0 KECCAK256 SWAP1 PUSH1 0x0 JUMPDEST DUP7 DUP3 DUP3 LT PUSH2 0xBC0 JUMPI DUP7 DUP7 PUSH2 0xB77 DUP3 DUP9 SUB DUP4 PUSH2 0x3114 JUMP JUMPDEST PUSH1 0x40 MLOAD SWAP3 DUP4 SWAP3 DUP2 DUP5 ADD SWAP1 DUP3 DUP6 MSTORE MLOAD DUP1 SWAP2 MSTORE PUSH1 0x40 DUP5 ADD SWAP3 SWAP2 PUSH1 0x0 JUMPDEST DUP3 DUP2 LT PUSH2 0xBA0 JUMPI POP POP POP POP SUB SWAP1 RETURN JUMPDEST DUP4 MLOAD PUSH1 0x1 PUSH1 0x1 PUSH1 0xA0 SHL SUB AND DUP6 MSTORE DUP7 SWAP6 POP SWAP4 DUP2 ADD SWAP4 SWAP3 DUP2 ADD SWAP3 PUSH1 0x1 ADD PUSH2 0xB91 JUMP JUMPDEST DUP4 SLOAD PUSH1 0x1 PUSH1 0x1 PUSH1 0xA0 SHL SUB AND DUP6 MSTORE SWAP1 SWAP4 ADD SWAP3 PUSH1 0x1 SWAP3 DUP4 ADD SWAP3 ADD PUSH2 0xB61 JUMP JUMPDEST CALLVALUE PUSH2 0x2BD JUMPI PUSH1 0x40 CALLDATASIZE PUSH1 0x3 NOT ADD SLT PUSH2 0x2BD JUMPI PUSH2 0xBF6 PUSH2 0x3028 JUMP JUMPDEST PUSH1 0x24 CALLDATALOAD SWAP1 DUP2 ISZERO ISZERO SWAP1 DUP2 DUP4 SUB PUSH2 0x2BD JUMPI PUSH1 0x1 PUSH1 0x1 PUSH1 0xA0 SHL SUB AND SWAP2 CALLER DUP4 EQ PUSH2 0xC73 JUMPI PUSH2 0xC45 SWAP1 CALLER PUSH1 0x0 MSTORE PUSH1 0x6A PUSH1 0x20 MSTORE PUSH1 0x40 PUSH1 0x0 KECCAK256 DUP5 PUSH1 0x0 MSTORE PUSH1 0x20 MSTORE PUSH1 0x40 PUSH1 0x0 KECCAK256 SWAP1 PUSH1 0xFF DUP1 NOT DUP4 SLOAD AND SWAP2 ISZERO ISZERO AND OR SWAP1 SSTORE JUMP JUMPDEST PUSH1 0x40 MLOAD SWAP1 DUP2 MSTORE PUSH32 0x17307EAB39AB6107E8899845AD3D59BD9653F200F220920489CA2B5937696C31 PUSH1 0x20 CALLER SWAP3 LOG3 STOP JUMPDEST PUSH1 0x40 MLOAD PUSH3 0x461BCD PUSH1 0xE5 SHL DUP2 MSTORE PUSH1 0x20 PUSH1 0x4 DUP3 ADD MSTORE PUSH1 0x19 PUSH1 0x24 DUP3 ADD MSTORE PUSH25 0x22A9219B99189D1030B8383937BB32903A379031B0B63632B9 PUSH1 0x39 SHL PUSH1 0x44 DUP3 ADD MSTORE PUSH1 0x64 SWAP1 REVERT JUMPDEST CALLVALUE PUSH2 0x2BD JUMPI PUSH1 0x20 CALLDATASIZE PUSH1 0x3 NOT ADD SLT PUSH2 0x2BD JUMPI PUSH2 0x392 PUSH2 0x37E PUSH1 0x4 CALLDATALOAD PUSH2 0x3FBD JUMP JUMPDEST CALLVALUE PUSH2 0x2BD JUMPI PUSH1 0x0 CALLDATASIZE PUSH1 0x3 NOT ADD SLT PUSH2 0x2BD JUMPI PUSH1 0x40 MLOAD PUSH1 0x0 SWAP1 PUSH1 0x66 SLOAD PUSH2 0xCF6 DUP2 PUSH2 0x3089 JUMP JUMPDEST DUP1 DUP4 MSTORE PUSH1 0x1 SWAP2 DUP1 DUP4 AND SWAP1 DUP2 ISZERO PUSH2 0xD79 JUMPI POP PUSH1 0x1 EQ PUSH2 0xD1F JUMPI JUMPDEST PUSH2 0x392 DUP4 PUSH2 0x37E DUP2 DUP8 SUB DUP3 PUSH2 0x3114 JUMP JUMPDEST PUSH1 0x66 PUSH1 0x0 SWAP1 DUP2 MSTORE PUSH1 0x20 SWAP5 POP SWAP2 PUSH32 0x46501879B8CA8525E8C2FD519E2FBFCFA2EBEA26501294AA02CBFCFB12E94354 JUMPDEST DUP3 DUP5 LT PUSH2 0xD66 JUMPI POP POP POP DUP2 ADD SWAP1 SWAP2 ADD SWAP1 PUSH2 0x37E DUP2 PUSH2 0xD0F JUMP JUMPDEST DUP1 SLOAD DUP6 DUP6 ADD DUP8 ADD MSTORE SWAP3 DUP6 ADD SWAP3 DUP2 ADD PUSH2 0xD4D JUMP JUMPDEST PUSH2 0x392 SWAP6 POP PUSH2 0x37E SWAP4 POP PUSH1 0x20 SWAP2 POP SWAP2 DUP5 SWAP3 PUSH1 0xFF NOT AND DUP3 DUP5 ADD MSTORE ISZERO ISZERO PUSH1 0x5 SHL DUP3 ADD ADD SWAP4 POP PUSH2 0xD0F JUMP JUMPDEST PUSH1 0xA0 CALLDATASIZE PUSH1 0x3 NOT ADD SLT PUSH2 0x2BD JUMPI PUSH1 0x24 CALLDATALOAD PUSH1 0x1 PUSH1 0x1 PUSH1 0x40 SHL SUB DUP2 GT PUSH2 0x2BD JUMPI PUSH2 0xDCC SWAP1 CALLDATASIZE SWAP1 PUSH1 0x4 ADD PUSH2 0x320A JUMP JUMPDEST SWAP1 PUSH1 0x44 CALLDATALOAD PUSH1 0x1 PUSH1 0x1 PUSH1 0x40 SHL SUB DUP2 GT PUSH2 0x2BD JUMPI PUSH2 0xDEC SWAP1 CALLDATASIZE SWAP1 PUSH1 0x4 ADD PUSH2 0x320A JUMP JUMPDEST SWAP1 PUSH1 0x64 CALLDATALOAD PUSH1 0x1 PUSH1 0x1 PUSH1 0x40 SHL SUB DUP2 GT PUSH2 0x2BD JUMPI PUSH2 0xE0C SWAP1 CALLDATASIZE SWAP1 PUSH1 0x4 ADD PUSH2 0x320A JUMP JUMPDEST SWAP4 SWAP1 PUSH1 0x84 CALLDATALOAD PUSH1 0x1 PUSH1 0x1 PUSH1 0x40 SHL SUB DUP2 GT PUSH2 0x2BD JUMPI PUSH2 0xE2D SWAP1 CALLDATASIZE SWAP1 PUSH1 0x4 ADD PUSH2 0x320A JUMP JUMPDEST SWAP1 SWAP2 PUSH2 0xE37 PUSH2 0x3A4E JUMP JUMPDEST PUSH2 0xE3F PUSH2 0x4A2B JUMP JUMPDEST PUSH1 0xFF PUSH1 0xFE SWAP12 SWAP5 SWAP10 SWAP4 SWAP11 SWAP3 SWAP12 SLOAD AND ISZERO PUSH2 0x17AA JUMPI PUSH1 0x4 CALLDATALOAD ISZERO PUSH2 0x176E JUMPI DUP12 PUSH1 0x4 CALLDATALOAD SUB PUSH2 0x1729 JUMPI DUP2 PUSH1 0x4 CALLDATALOAD SUB PUSH2 0x16E4 JUMPI DUP4 PUSH1 0x4 CALLDATALOAD SUB PUSH2 0x1693 JUMPI DUP6 PUSH1 0x4 CALLDATALOAD SUB PUSH2 0x163F JUMPI PUSH2 0xE8C PUSH1 0x4 CALLDATALOAD PUSH2 0x100 SLOAD PUSH2 0x38F0 JUMP JUMPDEST PUSH1 0xFB SLOAD LT PUSH2 0x1605 JUMPI CALLER PUSH1 0x0 MSTORE PUSH2 0x102 PUSH1 0x20 MSTORE PUSH2 0xEAF PUSH1 0x4 CALLDATALOAD PUSH1 0x40 PUSH1 0x0 KECCAK256 SLOAD PUSH2 0x38F0 JUMP JUMPDEST PUSH1 0xFC SLOAD LT PUSH2 0x15C0 JUMPI DUP9 PUSH2 0x1417 JUMPI JUMPDEST POP PUSH2 0xECA PUSH1 0x4 CALLDATALOAD DUP12 PUSH2 0x3932 JUMP JUMPDEST CALLVALUE LT PUSH2 0x13DB JUMPI PUSH1 0x0 JUMPDEST PUSH1 0x4 CALLDATALOAD DUP2 LT PUSH2 0xF85 JUMPI PUSH2 0xEF1 DUP12 DUP12 DUP12 PUSH2 0xF3A JUMPI JUMPDEST POP PUSH1 0x4 CALLDATALOAD SWAP1 PUSH2 0x3932 JUMP JUMPDEST DUP1 CALLVALUE GT PUSH2 0xF00 JUMPI JUMPDEST PUSH1 0x1 PUSH1 0xC9 SSTORE STOP JUMPDEST PUSH1 0x0 DUP1 DUP1 PUSH2 0xF0F DUP2 SWAP5 CALLVALUE PUSH2 0x3A41 JUMP JUMPDEST DUP2 DUP2 ISZERO PUSH2 0xF31 JUMPI JUMPDEST CALLER SWAP1 CALL ISZERO PUSH2 0xF25 JUMPI DUP1 PUSH2 0xEF9 JUMP JUMPDEST PUSH1 0x40 MLOAD RETURNDATASIZE PUSH1 0x0 DUP3 RETURNDATACOPY RETURNDATASIZE SWAP1 REVERT JUMPDEST POP PUSH2 0x8FC PUSH2 0xF17 JUMP JUMPDEST PUSH1 0x6 PUSH2 0xF45 DUP3 PUSH2 0x38FD JUMP JUMPDEST POP ADD PUSH2 0xF54 PUSH1 0x4 CALLDATALOAD DUP3 SLOAD PUSH2 0x38F0 JUMP JUMPDEST SWAP1 SSTORE PUSH1 0x0 MSTORE PUSH2 0x109 PUSH1 0x20 MSTORE PUSH1 0x40 PUSH1 0x0 KECCAK256 CALLER PUSH1 0x0 MSTORE PUSH1 0x20 MSTORE PUSH1 0x40 PUSH1 0x0 KECCAK256 PUSH2 0xF7D PUSH1 0x4 CALLDATALOAD DUP3 SLOAD PUSH2 0x38F0 JUMP JUMPDEST SWAP1 SSTORE DUP3 PUSH2 0xEE7 JUMP JUMPDEST PUSH2 0xF9C PUSH2 0x718 PUSH2 0xF96 DUP4 DUP16 DUP13 PUSH2 0x3954 JUMP JUMPDEST SWAP1 PUSH2 0x4AB6 JUMP JUMPDEST PUSH2 0xFB3 PUSH2 0xFAA DUP3 DUP7 DUP9 PUSH2 0x3954 JUMP JUMPDEST SWAP1 POP ISZERO ISZERO PUSH2 0x39EF JUMP JUMPDEST PUSH2 0xFBF PUSH2 0x100 SLOAD PUSH2 0x3945 JUMP JUMPDEST SWAP1 DUP2 PUSH2 0x100 SSTORE PUSH1 0x40 MLOAD DUP3 PUSH1 0x20 DUP3 ADD MSTORE CALLER PUSH1 0x60 SHL PUSH1 0x40 DUP3 ADD MSTORE PREVRANDAO PUSH1 0x54 DUP3 ADD MSTORE TIMESTAMP PUSH1 0x74 DUP3 ADD MSTORE PUSH1 0x94 DUP3 DUP2 DUP4 ADD MSTORE DUP2 MSTORE DUP1 PUSH1 0xC0 DUP2 ADD LT PUSH1 0x1 DUP1 PUSH1 0x40 SHL SUB PUSH1 0xC0 DUP4 ADD GT OR PUSH2 0xABE JUMPI DUP2 DUP15 DUP3 PUSH1 0xC0 PUSH2 0x102D SWAP5 ADD PUSH1 0x40 MSTORE PUSH1 0x20 DUP2 MLOAD SWAP2 ADD KECCAK256 DUP6 PUSH1 0x0 MSTORE PUSH2 0x101 PUSH1 0x20 MSTORE PUSH1 0x40 PUSH1 0x0 KECCAK256 SSTORE DUP12 PUSH2 0x3954 JUMP JUMPDEST PUSH1 0x0 DUP5 DUP2 MSTORE PUSH2 0x103 PUSH1 0x20 MSTORE PUSH1 0x40 SWAP1 KECCAK256 SWAP2 PUSH1 0x1 PUSH1 0x1 PUSH1 0x40 SHL SUB DUP3 GT PUSH2 0xABE JUMPI DUP2 SWAP1 PUSH2 0x1061 DUP3 PUSH2 0x105B DUP7 SLOAD PUSH2 0x3089 JUMP JUMPDEST DUP7 PUSH2 0x3856 JUMP JUMPDEST PUSH1 0x0 SWAP1 PUSH1 0x1F DUP4 GT PUSH1 0x1 EQ PUSH2 0x1371 JUMPI PUSH1 0x0 SWAP3 PUSH2 0x1366 JUMPI JUMPDEST POP POP DUP2 PUSH1 0x1 SHL SWAP2 PUSH1 0x0 NOT SWAP1 PUSH1 0x3 SHL SHR NOT AND OR SWAP1 SSTORE JUMPDEST PUSH2 0x1097 DUP2 DUP5 DUP7 PUSH2 0x3954 JUMP JUMPDEST PUSH1 0x0 DUP5 DUP2 MSTORE PUSH2 0x104 PUSH1 0x20 MSTORE PUSH1 0x40 SWAP1 KECCAK256 SWAP2 PUSH1 0x1 PUSH1 0x1 PUSH1 0x40 SHL SUB DUP3 GT PUSH2 0xABE JUMPI DUP2 SWAP1 PUSH2 0x10C5 DUP3 PUSH2 0x105B DUP7 SLOAD PUSH2 0x3089 JUMP JUMPDEST PUSH1 0x0 SWAP1 PUSH1 0x1F DUP4 GT PUSH1 0x1 EQ PUSH2 0x12FC JUMPI PUSH1 0x0 SWAP3 PUSH2 0x12F1 JUMPI JUMPDEST POP POP DUP2 PUSH1 0x1 SHL SWAP2 PUSH1 0x0 NOT SWAP1 PUSH1 0x3 SHL SHR NOT AND OR SWAP1 SSTORE JUMPDEST PUSH2 0x10FB DUP2 DUP7 DUP9 PUSH2 0x3954 JUMP JUMPDEST PUSH1 0x0 DUP5 DUP2 MSTORE PUSH2 0x105 PUSH1 0x20 MSTORE PUSH1 0x40 SWAP1 KECCAK256 SWAP2 PUSH1 0x1 PUSH1 0x1 PUSH1 0x40 SHL SUB DUP3 GT PUSH2 0xABE JUMPI DUP2 SWAP1 PUSH2 0x1129 DUP3 PUSH2 0x105B DUP7 SLOAD PUSH2 0x3089 JUMP JUMPDEST PUSH1 0x0 SWAP1 PUSH1 0x1F DUP4 GT PUSH1 0x1 EQ PUSH2 0x1287 JUMPI PUSH1 0x0 SWAP3 PUSH2 0x127C JUMPI JUMPDEST POP POP DUP2 PUSH1 0x1 SHL SWAP2 PUSH1 0x0 NOT SWAP1 PUSH1 0x3 SHL SHR NOT AND OR SWAP1 SSTORE JUMPDEST PUSH2 0x115F DUP2 DUP9 DUP11 PUSH2 0x3A31 JUMP JUMPDEST CALLDATALOAD DUP3 PUSH1 0x0 MSTORE PUSH2 0x106 PUSH1 0x20 MSTORE PUSH1 0x40 PUSH1 0x0 KECCAK256 SSTORE CALLER PUSH1 0x0 MSTORE PUSH2 0x102 PUSH1 0x20 MSTORE PUSH1 0x40 PUSH1 0x0 KECCAK256 PUSH2 0x1189 DUP2 SLOAD PUSH2 0x3945 JUMP JUMPDEST SWAP1 SSTORE PUSH1 0x40 MLOAD SWAP2 PUSH2 0x1198 DUP4 PUSH2 0x30C3 JUMP JUMPDEST PUSH1 0x0 DUP4 MSTORE CALLER ISZERO PUSH2 0x1238 JUMPI PUSH1 0x20 DUP2 PUSH2 0x1227 PUSH2 0x90B PUSH2 0x1233 SWAP7 PUSH2 0x11D0 PUSH2 0x11CA PUSH1 0x0 DUP1 MLOAD PUSH1 0x20 PUSH2 0x4D03 DUP4 CODECOPY DUP2 MLOAD SWAP2 MSTORE SWAP8 PUSH2 0x361A JUMP JUMPDEST ISZERO PUSH2 0x3AA4 JUMP JUMPDEST PUSH2 0x11DC PUSH2 0x11CA DUP6 PUSH2 0x361A JUMP JUMPDEST CALLER PUSH1 0x0 DUP2 DUP2 MSTORE PUSH1 0x68 DUP8 MSTORE PUSH1 0x40 DUP1 DUP3 KECCAK256 DUP1 SLOAD PUSH1 0x1 ADD SWAP1 SSTORE DUP7 DUP3 MSTORE PUSH1 0x67 DUP9 MSTORE DUP2 KECCAK256 DUP1 SLOAD PUSH1 0x1 PUSH1 0x1 PUSH1 0xA0 SHL SUB NOT AND DUP4 OR SWAP1 SSTORE DUP6 SWAP2 SWAP1 PUSH1 0x0 DUP1 MLOAD PUSH1 0x20 PUSH2 0x4CA3 DUP4 CODECOPY DUP2 MLOAD SWAP2 MSTORE DUP2 DUP1 LOG4 DUP4 CALLER PUSH2 0x3637 JUMP JUMPDEST PUSH1 0x40 MLOAD SWAP1 DUP2 MSTORE LOG1 PUSH2 0x3945 JUMP JUMPDEST PUSH2 0xED3 JUMP JUMPDEST PUSH1 0x64 PUSH1 0x40 MLOAD PUSH3 0x461BCD PUSH1 0xE5 SHL DUP2 MSTORE PUSH1 0x20 PUSH1 0x4 DUP3 ADD MSTORE PUSH1 0x20 PUSH1 0x24 DUP3 ADD MSTORE PUSH32 0x4552433732313A206D696E7420746F20746865207A65726F2061646472657373 PUSH1 0x44 DUP3 ADD MSTORE REVERT JUMPDEST ADD CALLDATALOAD SWAP1 POP CODESIZE DUP1 PUSH2 0x113F JUMP JUMPDEST SWAP1 SWAP2 POP DUP4 PUSH1 0x0 MSTORE PUSH1 0x20 PUSH1 0x0 KECCAK256 SWAP2 PUSH1 0x0 JUMPDEST PUSH1 0x1F NOT DUP6 AND DUP2 LT PUSH2 0x12D9 JUMPI POP DUP4 PUSH1 0x1F NOT DUP2 AND LT PUSH2 0x12BF JUMPI JUMPDEST POP POP POP PUSH1 0x1 SWAP1 DUP2 SHL ADD SWAP1 SSTORE PUSH2 0x1154 JUMP JUMPDEST ADD CALLDATALOAD PUSH1 0x0 NOT PUSH1 0x3 DUP5 SWAP1 SHL PUSH1 0xF8 AND SHR NOT AND SWAP1 SSTORE DUP16 DUP1 DUP1 PUSH2 0x12AF JUMP JUMPDEST SWAP1 SWAP3 PUSH1 0x20 PUSH1 0x1 DUP2 SWAP3 DUP7 DUP7 ADD CALLDATALOAD DUP2 SSTORE ADD SWAP5 ADD SWAP2 ADD PUSH2 0x1297 JUMP JUMPDEST ADD CALLDATALOAD SWAP1 POP CODESIZE DUP1 PUSH2 0x10DB JUMP JUMPDEST SWAP1 SWAP2 POP DUP4 PUSH1 0x0 MSTORE PUSH1 0x20 PUSH1 0x0 KECCAK256 SWAP2 PUSH1 0x0 JUMPDEST PUSH1 0x1F NOT DUP6 AND DUP2 LT PUSH2 0x134E JUMPI POP DUP4 PUSH1 0x1F NOT DUP2 AND LT PUSH2 0x1334 JUMPI JUMPDEST POP POP POP PUSH1 0x1 SWAP1 DUP2 SHL ADD SWAP1 SSTORE PUSH2 0x10F0 JUMP JUMPDEST ADD CALLDATALOAD PUSH1 0x0 NOT PUSH1 0x3 DUP5 SWAP1 SHL PUSH1 0xF8 AND SHR NOT AND SWAP1 SSTORE DUP16 DUP1 DUP1 PUSH2 0x1324 JUMP JUMPDEST SWAP1 SWAP3 PUSH1 0x20 PUSH1 0x1 DUP2 SWAP3 DUP7 DUP7 ADD CALLDATALOAD DUP2 SSTORE ADD SWAP5 ADD SWAP2 ADD PUSH2 0x130C JUMP JUMPDEST ADD CALLDATALOAD SWAP1 POP CODESIZE DUP1 PUSH2 0x1077 JUMP JUMPDEST SWAP1 SWAP2 POP DUP4 PUSH1 0x0 MSTORE PUSH1 0x20 PUSH1 0x0 KECCAK256 SWAP2 PUSH1 0x0 JUMPDEST PUSH1 0x1F NOT DUP6 AND DUP2 LT PUSH2 0x13C3 JUMPI POP DUP4 PUSH1 0x1F NOT DUP2 AND LT PUSH2 0x13A9 JUMPI JUMPDEST POP POP POP PUSH1 0x1 SWAP1 DUP2 SHL ADD SWAP1 SSTORE PUSH2 0x108C JUMP JUMPDEST ADD CALLDATALOAD PUSH1 0x0 NOT PUSH1 0x3 DUP5 SWAP1 SHL PUSH1 0xF8 AND SHR NOT AND SWAP1 SSTORE DUP16 DUP1 DUP1 PUSH2 0x1399 JUMP JUMPDEST SWAP1 SWAP3 PUSH1 0x20 PUSH1 0x1 DUP2 SWAP3 DUP7 DUP7 ADD CALLDATALOAD DUP2 SSTORE ADD SWAP5 ADD SWAP2 ADD PUSH2 0x1381 JUMP JUMPDEST PUSH1 0x40 MLOAD PUSH3 0x461BCD PUSH1 0xE5 SHL DUP2 MSTORE PUSH1 0x20 PUSH1 0x4 DUP3 ADD MSTORE PUSH1 0x14 PUSH1 0x24 DUP3 ADD MSTORE PUSH20 0x125B9CDD59999A58DA595B9D081C185E5B595B9D PUSH1 0x62 SHL PUSH1 0x44 DUP3 ADD MSTORE PUSH1 0x64 SWAP1 REVERT JUMPDEST PUSH2 0x1420 DUP11 PUSH2 0x38FD JUMP JUMPDEST POP PUSH1 0xFF PUSH1 0x7 DUP3 ADD SLOAD AND ISZERO PUSH2 0x158A JUMPI DUP11 PUSH1 0x0 MSTORE PUSH2 0x10D PUSH1 0x20 MSTORE PUSH1 0x40 PUSH1 0x0 KECCAK256 SLOAD PUSH2 0x152A JUMPI JUMPDEST PUSH1 0x4 DUP2 ADD SLOAD SWAP1 DUP2 PUSH2 0x14CD JUMPI JUMPDEST POP POP DUP1 ISZERO PUSH2 0xEBD JUMPI DUP10 PUSH1 0x0 MSTORE PUSH2 0x109 PUSH1 0x20 MSTORE PUSH1 0x40 PUSH1 0x0 KECCAK256 CALLER PUSH1 0x0 MSTORE PUSH1 0x20 MSTORE PUSH2 0x147E PUSH1 0x4 CALLDATALOAD PUSH1 0x40 PUSH1 0x0 KECCAK256 SLOAD PUSH2 0x38F0 JUMP JUMPDEST GT PUSH2 0x1489 JUMPI DUP12 PUSH2 0xEBD JUMP JUMPDEST PUSH1 0x40 MLOAD PUSH3 0x461BCD PUSH1 0xE5 SHL DUP2 MSTORE PUSH1 0x20 PUSH1 0x4 DUP3 ADD MSTORE PUSH1 0x1C PUSH1 0x24 DUP3 ADD MSTORE PUSH28 0x115E18D959591CC81C1A185CD9481B585E081C195C881DD85B1B195D PUSH1 0x22 SHL PUSH1 0x44 DUP3 ADD MSTORE PUSH1 0x64 SWAP1 REVERT JUMPDEST PUSH2 0x14DE SWAP1 PUSH1 0x6 PUSH1 0x4 CALLDATALOAD SWAP2 ADD SLOAD PUSH2 0x38F0 JUMP JUMPDEST GT PUSH2 0x14EA JUMPI DUP13 DUP1 PUSH2 0x144F JUMP JUMPDEST PUSH1 0x40 MLOAD PUSH3 0x461BCD PUSH1 0xE5 SHL DUP2 MSTORE PUSH1 0x20 PUSH1 0x4 DUP3 ADD MSTORE PUSH1 0x18 PUSH1 0x24 DUP3 ADD MSTORE PUSH24 0x45786365656473207068617365206D617820737570706C79 PUSH1 0x40 SHL PUSH1 0x44 DUP3 ADD MSTORE PUSH1 0x64 SWAP1 REVERT JUMPDEST PUSH2 0x10A PUSH1 0x20 MSTORE PUSH1 0x40 PUSH1 0x0 KECCAK256 CALLER PUSH1 0x0 MSTORE PUSH1 0x20 MSTORE PUSH1 0xFF PUSH1 0x40 PUSH1 0x0 KECCAK256 SLOAD AND PUSH2 0x1443 JUMPI PUSH1 0x40 MLOAD PUSH3 0x461BCD PUSH1 0xE5 SHL DUP2 MSTORE PUSH1 0x20 PUSH1 0x4 DUP3 ADD MSTORE PUSH1 0x19 PUSH1 0x24 DUP3 ADD MSTORE PUSH25 0x4E6F742077686974656C697374656420666F72207068617365 PUSH1 0x38 SHL PUSH1 0x44 DUP3 ADD MSTORE PUSH1 0x64 SWAP1 REVERT JUMPDEST PUSH1 0x40 MLOAD PUSH3 0x461BCD PUSH1 0xE5 SHL DUP2 MSTORE PUSH1 0x20 PUSH1 0x4 DUP3 ADD MSTORE PUSH1 0xE PUSH1 0x24 DUP3 ADD MSTORE PUSH14 0x141A185CD948191A5CD8589B1959 PUSH1 0x92 SHL PUSH1 0x44 DUP3 ADD MSTORE PUSH1 0x64 SWAP1 REVERT JUMPDEST PUSH1 0x40 MLOAD PUSH3 0x461BCD PUSH1 0xE5 SHL DUP2 MSTORE PUSH1 0x20 PUSH1 0x4 DUP3 ADD MSTORE PUSH1 0x1D PUSH1 0x24 DUP3 ADD MSTORE PUSH32 0x4578636565647320676C6F62616C206D6178207065722077616C6C6574000000 PUSH1 0x44 DUP3 ADD MSTORE PUSH1 0x64 SWAP1 REVERT JUMPDEST PUSH1 0x40 MLOAD PUSH3 0x461BCD PUSH1 0xE5 SHL DUP2 MSTORE PUSH1 0x20 PUSH1 0x4 DUP3 ADD MSTORE PUSH1 0x12 PUSH1 0x24 DUP3 ADD MSTORE PUSH18 0x45786365656473206D617820737570706C79 PUSH1 0x70 SHL PUSH1 0x44 DUP3 ADD MSTORE PUSH1 0x64 SWAP1 REVERT JUMPDEST PUSH1 0x40 MLOAD PUSH3 0x461BCD PUSH1 0xE5 SHL DUP2 MSTORE PUSH1 0x20 PUSH1 0x4 DUP3 ADD MSTORE PUSH1 0x26 PUSH1 0x24 DUP3 ADD MSTORE PUSH32 0x4D7573742070726F76696465207261726974792073636F726520666F72206561 PUSH1 0x44 DUP3 ADD MSTORE PUSH6 0x18DA08139195 PUSH1 0xD2 SHL PUSH1 0x64 DUP3 ADD MSTORE PUSH1 0x84 SWAP1 REVERT JUMPDEST PUSH1 0x40 MLOAD PUSH3 0x461BCD PUSH1 0xE5 SHL DUP2 MSTORE PUSH1 0x20 PUSH1 0x4 DUP3 ADD MSTORE PUSH1 0x24 DUP1 DUP3 ADD MSTORE PUSH32 0x4D7573742070726F76696465206174747269627574657320666F722065616368 PUSH1 0x44 DUP3 ADD MSTORE PUSH4 0x8139195 PUSH1 0xE2 SHL PUSH1 0x64 DUP3 ADD MSTORE PUSH1 0x84 SWAP1 REVERT JUMPDEST PUSH1 0x40 MLOAD PUSH3 0x461BCD PUSH1 0xE5 SHL DUP2 MSTORE PUSH1 0x20 PUSH1 0x4 DUP3 ADD MSTORE PUSH1 0x1E PUSH1 0x24 DUP3 ADD MSTORE PUSH32 0x4D7573742070726F76696465206E616D6520666F722065616368204E46540000 PUSH1 0x44 DUP3 ADD MSTORE PUSH1 0x64 SWAP1 REVERT JUMPDEST PUSH1 0x40 MLOAD PUSH3 0x461BCD PUSH1 0xE5 SHL DUP2 MSTORE PUSH1 0x20 PUSH1 0x4 DUP3 ADD MSTORE PUSH1 0x1F PUSH1 0x24 DUP3 ADD MSTORE PUSH32 0x4D7573742070726F7669646520696D61676520666F722065616368204E465400 PUSH1 0x44 DUP3 ADD MSTORE PUSH1 0x64 SWAP1 REVERT JUMPDEST PUSH1 0x40 MLOAD PUSH3 0x461BCD PUSH1 0xE5 SHL DUP2 MSTORE PUSH1 0x20 PUSH1 0x4 DUP3 ADD MSTORE PUSH1 0x14 PUSH1 0x24 DUP3 ADD MSTORE PUSH20 0x4D757374206D696E74206174206C656173742031 PUSH1 0x60 SHL PUSH1 0x44 DUP3 ADD MSTORE PUSH1 0x64 SWAP1 REVERT JUMPDEST PUSH1 0x40 MLOAD PUSH3 0x461BCD PUSH1 0xE5 SHL DUP2 MSTORE PUSH1 0x20 PUSH1 0x4 DUP3 ADD MSTORE PUSH1 0x12 PUSH1 0x24 DUP3 ADD MSTORE PUSH18 0x4D696E74696E67206E6F7420616374697665 PUSH1 0x70 SHL PUSH1 0x44 DUP3 ADD MSTORE PUSH1 0x64 SWAP1 REVERT JUMPDEST CALLVALUE PUSH2 0x2BD JUMPI PUSH1 0x60 CALLDATASIZE PUSH1 0x3 NOT ADD SLT PUSH2 0x2BD JUMPI PUSH1 0x24 CALLDATALOAD PUSH1 0x1 PUSH1 0x1 PUSH1 0x40 SHL SUB DUP2 GT PUSH2 0x2BD JUMPI PUSH2 0x1814 SWAP1 CALLDATASIZE SWAP1 PUSH1 0x4 ADD PUSH2 0x320A JUMP JUMPDEST PUSH1 0x44 CALLDATALOAD ISZERO ISZERO PUSH1 0x44 CALLDATALOAD SUB PUSH2 0x2BD JUMPI PUSH2 0x1829 PUSH2 0x3255 JUMP JUMPDEST PUSH2 0x1839 PUSH2 0x108 SLOAD PUSH1 0x4 CALLDATALOAD LT PUSH2 0x3B10 JUMP JUMPDEST PUSH1 0x0 JUMPDEST DUP2 DUP2 LT PUSH2 0x1845 JUMPI STOP JUMPDEST PUSH2 0x1850 DUP2 DUP4 DUP6 PUSH2 0x3A31 JUMP JUMPDEST CALLDATALOAD SWAP1 PUSH1 0x1 PUSH1 0x1 PUSH1 0xA0 SHL SUB DUP3 AND DUP3 SUB PUSH2 0x2BD JUMPI PUSH1 0x1 PUSH1 0x1 PUSH1 0xA0 SHL SUB DUP3 AND ISZERO PUSH2 0x1BAA JUMPI PUSH1 0x4 CALLDATALOAD PUSH1 0x0 MSTORE PUSH2 0x10A DUP1 PUSH1 0x20 MSTORE PUSH1 0x40 PUSH1 0x0 KECCAK256 PUSH1 0x1 DUP1 PUSH1 0xA0 SHL SUB DUP5 AND PUSH1 0x0 MSTORE PUSH1 0x20 MSTORE PUSH1 0xFF PUSH1 0x40 PUSH1 0x0 KECCAK256 SLOAD AND PUSH1 0x44 CALLDATALOAD PUSH1 0x44 CALLDATALOAD PUSH2 0x1BA2 JUMPI JUMPDEST ISZERO PUSH2 0x19C4 JUMPI POP PUSH1 0x4 CALLDATALOAD PUSH1 0x0 MSTORE PUSH1 0x20 MSTORE PUSH1 0x40 PUSH1 0x0 KECCAK256 PUSH1 0x1 DUP1 PUSH1 0xA0 SHL SUB DUP4 AND PUSH1 0x0 MSTORE PUSH1 0x20 MSTORE PUSH1 0x40 PUSH1 0x0 KECCAK256 PUSH1 0x1 SWAP1 DUP2 PUSH1 0xFF NOT DUP3 SLOAD AND OR SWAP1 SSTORE PUSH1 0x4 CALLDATALOAD PUSH1 0x0 MSTORE PUSH2 0x10B DUP1 PUSH1 0x20 MSTORE PUSH1 0x40 PUSH1 0x0 KECCAK256 DUP1 SLOAD PUSH1 0x1 PUSH1 0x40 SHL DUP2 LT ISZERO PUSH2 0xABE JUMPI PUSH2 0x190E DUP2 PUSH2 0x192D SWAP4 DUP7 DUP10 SWAP5 ADD DUP2 SSTORE PUSH2 0x3BEB JUMP JUMPDEST SWAP1 SWAP2 SWAP1 DUP3 SLOAD SWAP1 PUSH1 0x3 SHL SWAP2 PUSH1 0x1 DUP1 PUSH1 0xA0 SHL SUB DUP1 SWAP2 AND DUP4 SHL SWAP3 SHL NOT AND OR SWAP1 SSTORE JUMP JUMPDEST PUSH1 0x4 CALLDATALOAD PUSH1 0x0 MSTORE PUSH1 0x20 MSTORE PUSH1 0x40 PUSH1 0x0 KECCAK256 SLOAD PUSH2 0x10C PUSH1 0x20 MSTORE PUSH1 0x40 PUSH1 0x0 KECCAK256 PUSH1 0x1 DUP1 PUSH1 0xA0 SHL SUB DUP6 AND PUSH1 0x0 MSTORE PUSH1 0x20 MSTORE PUSH1 0x40 PUSH1 0x0 KECCAK256 SSTORE PUSH1 0x4 CALLDATALOAD PUSH1 0x0 MSTORE PUSH2 0x10D PUSH1 0x20 MSTORE PUSH1 0x40 PUSH1 0x0 KECCAK256 SWAP3 DUP4 SLOAD DUP3 DUP2 ADD DUP1 SWAP2 GT PUSH2 0x19AE JUMPI PUSH2 0x19A9 SWAP5 SSTORE PUSH1 0x40 MLOAD SWAP2 DUP3 MSTORE PUSH1 0x1 DUP1 PUSH1 0xA0 SHL SUB AND SWAP1 PUSH1 0x0 DUP1 MLOAD PUSH1 0x20 PUSH2 0x4C43 DUP4 CODECOPY DUP2 MLOAD SWAP2 MSTORE PUSH1 0x20 PUSH1 0x4 CALLDATALOAD SWAP3 LOG3 PUSH2 0x3945 JUMP JUMPDEST PUSH2 0x183C JUMP JUMPDEST PUSH4 0x4E487B71 PUSH1 0xE0 SHL PUSH1 0x0 MSTORE PUSH1 0x11 PUSH1 0x4 MSTORE PUSH1 0x24 PUSH1 0x0 REVERT JUMPDEST PUSH1 0x44 CALLDATALOAD ISZERO SWAP1 DUP2 PUSH2 0x1B9A JUMPI JUMPDEST POP PUSH2 0x19E0 JUMPI JUMPDEST POP PUSH2 0x19A9 SWAP2 POP PUSH2 0x3945 JUMP JUMPDEST PUSH1 0x4 CALLDATALOAD PUSH1 0x0 DUP2 DUP2 MSTORE PUSH1 0x20 SWAP3 DUP4 MSTORE PUSH1 0x40 DUP1 DUP3 KECCAK256 PUSH1 0x1 PUSH1 0x1 PUSH1 0xA0 SHL SUB DUP8 AND DUP1 DUP5 MSTORE SWAP1 DUP6 MSTORE DUP2 DUP4 KECCAK256 DUP1 SLOAD PUSH1 0xFF NOT AND SWAP1 SSTORE SWAP3 DUP3 MSTORE PUSH2 0x10C DUP5 MSTORE DUP1 DUP3 KECCAK256 SWAP3 DUP3 MSTORE SWAP2 SWAP1 SWAP3 MSTORE SWAP1 KECCAK256 SLOAD DUP1 PUSH2 0x1A7F JUMPI JUMPDEST POP PUSH1 0x4 CALLDATALOAD PUSH1 0x0 MSTORE PUSH2 0x10D PUSH1 0x20 MSTORE PUSH1 0x40 PUSH1 0x0 KECCAK256 SWAP2 DUP3 SLOAD PUSH1 0x0 NOT DUP2 ADD SWAP1 DUP2 GT PUSH2 0x19AE JUMPI SWAP1 SWAP3 SSTORE PUSH1 0x40 MLOAD PUSH1 0x0 DUP2 MSTORE PUSH2 0x19A9 SWAP3 PUSH1 0x1 PUSH1 0x1 PUSH1 0xA0 SHL SUB AND SWAP1 PUSH1 0x4 CALLDATALOAD SWAP1 PUSH1 0x0 DUP1 MLOAD PUSH1 0x20 PUSH2 0x4C43 DUP4 CODECOPY DUP2 MLOAD SWAP2 MSTORE SWAP1 PUSH1 0x20 SWAP1 LOG3 DUP5 PUSH2 0x19D5 JUMP JUMPDEST PUSH1 0x4 CALLDATALOAD PUSH1 0x0 MSTORE PUSH2 0x10B PUSH1 0x20 MSTORE PUSH1 0x40 PUSH1 0x0 KECCAK256 DUP1 SLOAD SWAP1 DUP2 DUP4 SUB PUSH2 0x1B1D JUMPI JUMPDEST POP POP POP PUSH1 0x4 CALLDATALOAD PUSH1 0x0 MSTORE PUSH2 0x10B PUSH1 0x20 MSTORE PUSH1 0x40 PUSH1 0x0 KECCAK256 DUP1 SLOAD DUP1 ISZERO PUSH2 0x1B07 JUMPI PUSH1 0x0 NOT ADD SWAP1 PUSH2 0x1AC6 DUP3 DUP3 PUSH2 0x3BEB JUMP JUMPDEST DUP2 SLOAD SWAP1 PUSH1 0x1 DUP1 PUSH1 0xA0 SHL SUB SWAP1 PUSH1 0x3 SHL SHL NOT AND SWAP1 SSTORE SSTORE PUSH1 0x4 CALLDATALOAD PUSH1 0x0 MSTORE PUSH2 0x10C PUSH1 0x20 MSTORE PUSH1 0x40 PUSH1 0x0 KECCAK256 PUSH1 0x1 DUP1 PUSH1 0xA0 SHL SUB DUP4 AND PUSH1 0x0 MSTORE PUSH1 0x20 MSTORE PUSH1 0x0 PUSH1 0x40 DUP2 KECCAK256 SSTORE DUP5 PUSH2 0x1A28 JUMP JUMPDEST PUSH4 0x4E487B71 PUSH1 0xE0 SHL PUSH1 0x0 MSTORE PUSH1 0x31 PUSH1 0x4 MSTORE PUSH1 0x24 PUSH1 0x0 REVERT JUMPDEST DUP2 PUSH1 0x0 NOT DUP2 ADD GT PUSH2 0x19AE JUMPI PUSH2 0x1B36 SWAP2 PUSH1 0x0 NOT ADD SWAP1 PUSH2 0x3BEB JUMP JUMPDEST PUSH1 0x1 DUP1 PUSH1 0xA0 SHL SUB SWAP2 SLOAD SWAP1 PUSH1 0x3 SHL SHR AND PUSH1 0x4 CALLDATALOAD PUSH1 0x0 MSTORE PUSH2 0x10B PUSH1 0x20 MSTORE PUSH1 0x40 PUSH1 0x0 KECCAK256 DUP3 PUSH1 0x0 NOT DUP2 ADD GT PUSH2 0x19AE JUMPI DUP2 PUSH2 0x190E PUSH2 0x1B74 SWAP3 PUSH1 0x0 NOT DUP7 ADD SWAP1 PUSH2 0x3BEB JUMP JUMPDEST PUSH1 0x4 CALLDATALOAD PUSH1 0x0 MSTORE PUSH2 0x10C PUSH1 0x20 MSTORE PUSH1 0x40 PUSH1 0x0 KECCAK256 SWAP1 PUSH1 0x0 MSTORE PUSH1 0x20 MSTORE PUSH1 0x40 PUSH1 0x0 KECCAK256 SSTORE DUP5 DUP1 DUP1 PUSH2 0x1A9B JUMP JUMPDEST SWAP1 POP DUP7 PUSH2 0x19CF JUMP JUMPDEST POP DUP1 ISZERO PUSH2 0x18A6 JUMP JUMPDEST PUSH1 0x40 MLOAD PUSH3 0x461BCD PUSH1 0xE5 SHL DUP2 MSTORE PUSH1 0x20 PUSH1 0x4 DUP3 ADD MSTORE PUSH1 0x19 PUSH1 0x24 DUP3 ADD MSTORE PUSH25 0x496E76616C69642077686974656C6973742061646472657373 PUSH1 0x38 SHL PUSH1 0x44 DUP3 ADD MSTORE PUSH1 0x64 SWAP1 REVERT JUMPDEST CALLVALUE PUSH2 0x2BD JUMPI PUSH1 0x0 CALLDATASIZE PUSH1 0x3 NOT ADD SLT PUSH2 0x2BD JUMPI PUSH1 0x97 SLOAD PUSH1 0x40 MLOAD PUSH1 0x1 PUSH1 0x1 PUSH1 0xA0 SHL SUB SWAP1 SWAP2 AND DUP2 MSTORE PUSH1 0x20 SWAP1 RETURN JUMPDEST CALLVALUE PUSH2 0x2BD JUMPI PUSH1 0x0 CALLDATASIZE PUSH1 0x3 NOT ADD SLT PUSH2 0x2BD JUMPI PUSH1 0x0 SLOAD PUSH1 0xFF DUP1 DUP3 PUSH1 0x8 SHR AND ISZERO DUP1 DUP1 SWAP2 PUSH2 0x21F5 JUMPI JUMPDEST DUP1 ISZERO PUSH2 0x21DF JUMPI JUMPDEST PUSH2 0x1C49 SWAP1 PUSH2 0x37DC JUMP JUMPDEST PUSH1 0x1 SWAP3 DUP2 DUP5 PUSH1 0xFF NOT DUP4 AND OR PUSH1 0x0 SSTORE PUSH2 0x21CD JUMPI JUMPDEST POP PUSH1 0x40 MLOAD PUSH2 0x1C69 DUP2 PUSH2 0x30DE JUMP JUMPDEST PUSH1 0xD DUP2 MSTORE PUSH1 0x20 SWAP3 PUSH13 0x386269742050656E6775696E73 PUSH1 0x98 SHL DUP5 DUP4 ADD MSTORE PUSH1 0x40 MLOAD SWAP2 PUSH2 0x1C92 DUP4 PUSH2 0x30DE JUMP JUMPDEST PUSH1 0x5 SWAP3 DUP4 DUP2 MSTORE PUSH5 0x384249545 PUSH1 0xDC SHL DUP7 DUP3 ADD MSTORE PUSH2 0x1CBE DUP4 PUSH1 0x0 SLOAD PUSH1 0x8 SHR AND PUSH2 0x1CB9 DUP2 PUSH2 0x3890 JUMP JUMPDEST PUSH2 0x3890 JUMP JUMPDEST DUP2 MLOAD PUSH1 0x1 PUSH1 0x1 PUSH1 0x40 SHL SUB SWAP2 SWAP1 DUP3 DUP2 GT PUSH2 0xABE JUMPI DUP1 PUSH2 0x1CDD PUSH1 0x65 SLOAD PUSH2 0x3089 JUMP JUMPDEST SWAP5 PUSH1 0x1F SWAP6 DUP11 DUP8 DUP3 GT PUSH2 0x2195 JUMPI JUMPDEST POP POP DUP10 SWAP1 DUP7 DUP4 GT PUSH1 0x1 EQ PUSH2 0x2130 JUMPI PUSH1 0x0 SWAP3 PUSH2 0x2125 JUMPI JUMPDEST POP POP PUSH1 0x0 NOT PUSH1 0x3 DUP4 SWAP1 SHL SHR NOT AND SWAP1 DUP10 SHL OR PUSH1 0x65 SSTORE JUMPDEST DUP1 MLOAD SWAP2 DUP3 GT PUSH2 0xABE JUMPI PUSH2 0x1D29 PUSH1 0x66 SLOAD PUSH2 0x3089 JUMP JUMPDEST DUP4 DUP2 GT PUSH2 0x20EE JUMPI JUMPDEST POP DUP7 SWAP1 DUP4 DUP4 GT PUSH1 0x1 EQ PUSH2 0x2070 JUMPI SWAP2 DUP1 PUSH11 0x3A32BC3A1F1E17B9BB339F PUSH1 0xA9 SHL SWAP7 SWAP5 SWAP3 PUSH1 0xF SWAP7 SWAP5 PUSH1 0x0 SWAP3 PUSH2 0x2065 JUMPI JUMPDEST POP POP PUSH1 0x0 NOT PUSH1 0x3 DUP4 SWAP1 SHL SHR NOT AND SWAP1 DUP10 SHL OR PUSH1 0x66 SSTORE JUMPDEST PUSH2 0x1D87 DUP3 PUSH1 0x0 SLOAD PUSH1 0x8 SHR AND PUSH2 0x1CB9 DUP2 PUSH2 0x3890 JUMP JUMPDEST PUSH2 0x1D90 CALLER PUSH2 0x32AD JUMP JUMPDEST PUSH2 0x1DA4 DUP3 PUSH1 0x0 SLOAD PUSH1 0x8 SHR AND PUSH2 0x1CB9 DUP2 PUSH2 0x3890 JUMP JUMPDEST DUP8 PUSH1 0xC9 SSTORE PUSH1 0x32 PUSH1 0xFB SSTORE PUSH1 0x32 PUSH1 0xFC SSTORE PUSH1 0x0 PUSH1 0xFD SSTORE PUSH2 0xFFFF NOT PUSH1 0xFE SLOAD AND PUSH1 0xFE SSTORE PUSH2 0x1DCC DUP3 SLOAD PUSH2 0x3089 JUMP JUMPDEST DUP2 DUP2 GT PUSH2 0x2043 JUMPI JUMPDEST POP POP PUSH2 0x3D7 DUP2 SSTORE PUSH1 0x0 MSTORE PUSH32 0x272072783D273938272072793D27313232272066696C6C3D2725323343383846 DUP6 PUSH1 0x0 KECCAK256 SWAP2 PUSH32 0x646174613A696D6167652F7376672B786D6C3B757466382C3C73766720786D6C DUP4 SSTORE PUSH32 0x6E733D27687474703A2F2F7777772E77332E6F72672F323030302F7376672720 DUP9 DUP5 ADD SSTORE PUSH32 0x76696577426F783D273020302034303020343030273E3C726563742077696474 PUSH1 0x2 DUP5 ADD SSTORE PUSH32 0x683D2734303027206865696768743D27343030272066696C6C3D272532333842 PUSH1 0x3 DUP5 ADD SSTORE PUSH32 0x30453241272F3E3C656C6C697073652063783D27323030272063793D27323038 PUSH1 0x4 DUP5 ADD SSTORE DUP3 ADD SSTORE PUSH32 0x3146272F3E3C656C6C697073652063783D27313836272063793D273138322720 PUSH1 0x6 DUP3 ADD SSTORE PUSH32 0x72783D273532272072793D273730272066696C6C3D2725323345464246343527 PUSH1 0x7 DUP3 ADD SSTORE PUSH32 0x2F3E3C656C6C697073652063783D27323132272063793D27323238272072783D PUSH1 0x8 DUP3 ADD SSTORE PUSH32 0x273736272072793D273834272066696C6C3D2725323338463542313227206F70 PUSH1 0x9 DUP3 ADD SSTORE PUSH32 0x61636974793D27302E3535272F3E3C7465787420783D273230302720793D2733 PUSH1 0xA DUP3 ADD SSTORE PUSH32 0x3532272066696C6C3D272532334646464646462720666F6E742D73697A653D27 PUSH1 0xB DUP3 ADD SSTORE PUSH32 0x32382720666F6E742D66616D696C793D274A6574427261696E73204D6F6E6F2C PUSH1 0xC DUP3 ADD SSTORE PUSH32 0x6D6F6E6F73706163652720666F6E742D7765696768743D273730302720746578 PUSH1 0xD DUP3 ADD SSTORE PUSH32 0x742D616E63686F723D276D6964646C65273E386269742050656E6775696E3C2F PUSH1 0xE DUP3 ADD SSTORE ADD SSTORE PUSH2 0x201F JUMPI STOP JUMPDEST PUSH1 0x0 DUP1 MLOAD PUSH1 0x20 PUSH2 0x4C63 DUP4 CODECOPY DUP2 MLOAD SWAP2 MSTORE SWAP2 PUSH2 0xFF00 NOT PUSH1 0x0 SLOAD AND PUSH1 0x0 SSTORE PUSH1 0x40 MLOAD SWAP1 DUP2 MSTORE LOG1 STOP JUMPDEST PUSH1 0x10 PUSH2 0x205E SWAP3 DUP5 PUSH1 0x0 MSTORE DUP10 PUSH1 0x0 KECCAK256 SWAP3 ADD DUP6 SHR DUP3 ADD SWAP2 ADD PUSH2 0x383F JUMP JUMPDEST DUP8 DUP1 PUSH2 0x1DD4 JUMP JUMPDEST ADD MLOAD SWAP1 POP DUP11 DUP1 PUSH2 0x1D5E JUMP JUMPDEST DUP9 SWAP3 SWAP2 PUSH1 0x1F NOT DUP4 AND SWAP2 PUSH1 0x66 PUSH1 0x0 MSTORE DUP10 PUSH1 0x0 KECCAK256 SWAP3 PUSH1 0x0 JUMPDEST DUP12 DUP3 DUP3 LT PUSH2 0x20D8 JUMPI POP POP SWAP2 PUSH1 0xF SWAP8 SWAP6 SWAP4 SWAP2 DUP6 PUSH11 0x3A32BC3A1F1E17B9BB339F PUSH1 0xA9 SHL SWAP11 SWAP9 SWAP7 SWAP5 LT PUSH2 0x20BF JUMPI JUMPDEST POP POP POP DUP2 SHL ADD PUSH1 0x66 SSTORE PUSH2 0x1D73 JUMP JUMPDEST ADD MLOAD PUSH1 0x0 NOT PUSH1 0xF8 DUP5 PUSH1 0x3 SHL AND SHR NOT AND SWAP1 SSTORE DUP11 DUP1 DUP1 PUSH2 0x20B1 JUMP JUMPDEST DUP4 DUP6 ADD MLOAD DUP7 SSTORE DUP14 SWAP8 SWAP1 SWAP6 ADD SWAP5 SWAP4 DUP5 ADD SWAP4 ADD PUSH2 0x2086 JUMP JUMPDEST PUSH2 0x2116 SWAP1 PUSH1 0x66 PUSH1 0x0 MSTORE DUP9 PUSH1 0x0 KECCAK256 DUP6 DUP1 DUP7 ADD DUP10 SHR DUP3 ADD SWAP3 DUP12 DUP8 LT PUSH2 0x211C JUMPI JUMPDEST ADD DUP9 SHR ADD SWAP1 PUSH2 0x383F JUMP JUMPDEST DUP9 PUSH2 0x1D31 JUMP JUMPDEST SWAP3 POP DUP2 SWAP3 PUSH2 0x210C JUMP JUMPDEST ADD MLOAD SWAP1 POP DUP11 DUP1 PUSH2 0x1D00 JUMP JUMPDEST SWAP1 DUP12 SWAP4 POP PUSH1 0x1F NOT DUP4 AND SWAP2 PUSH1 0x65 PUSH1 0x0 MSTORE DUP12 PUSH1 0x0 KECCAK256 SWAP3 PUSH1 0x0 JUMPDEST DUP14 DUP3 DUP3 LT PUSH2 0x217F JUMPI POP POP DUP5 GT PUSH2 0x2166 JUMPI JUMPDEST POP POP POP DUP2 SHL ADD PUSH1 0x65 SSTORE PUSH2 0x1D15 JUMP JUMPDEST ADD MLOAD PUSH1 0x0 NOT PUSH1 0xF8 DUP5 PUSH1 0x3 SHL AND SHR NOT AND SWAP1 SSTORE DUP11 DUP1 DUP1 PUSH2 0x2158 JUMP JUMPDEST DUP4 DUP6 ADD MLOAD DUP7 SSTORE DUP16 SWAP8 SWAP1 SWAP6 ADD SWAP5 SWAP4 DUP5 ADD SWAP4 ADD PUSH2 0x2147 JUMP JUMPDEST PUSH2 0x21BD SWAP2 PUSH1 0x65 PUSH1 0x0 MSTORE DUP9 DUP3 PUSH1 0x0 KECCAK256 SWAP2 DUP2 DUP8 ADD DUP14 SHR DUP4 ADD SWAP4 DUP8 LT PUSH2 0x21C4 JUMPI JUMPDEST ADD DUP12 SHR ADD SWAP1 PUSH2 0x383F JUMP JUMPDEST DUP12 DUP11 PUSH2 0x1CEA JUMP JUMPDEST SWAP3 POP DUP2 SWAP3 PUSH2 0x21B3 JUMP JUMPDEST PUSH2 0xFFFF NOT AND PUSH2 0x101 OR PUSH1 0x0 SSTORE DUP4 PUSH2 0x1C5C JUMP JUMPDEST POP ADDRESS EXTCODESIZE ISZERO DUP1 ISZERO PUSH2 0x1C40 JUMPI POP DUP3 DUP3 AND PUSH1 0x1 EQ PUSH2 0x1C40 JUMP JUMPDEST POP PUSH1 0x1 DUP3 DUP5 AND LT PUSH2 0x1C39 JUMP JUMPDEST CALLVALUE PUSH2 0x2BD JUMPI PUSH1 0x20 CALLDATASIZE PUSH1 0x3 NOT ADD SLT PUSH2 0x2BD JUMPI PUSH1 0x4 CALLDATALOAD PUSH1 0x0 MSTORE PUSH2 0x106 PUSH1 0x20 MSTORE PUSH1 0x20 PUSH1 0x40 PUSH1 0x0 KECCAK256 SLOAD PUSH1 0x40 MLOAD SWAP1 DUP2 MSTORE RETURN JUMPDEST CALLVALUE PUSH2 0x2BD JUMPI PUSH1 0x60 CALLDATASIZE PUSH1 0x3 NOT ADD SLT PUSH2 0x2BD JUMPI PUSH1 0x4 CALLDATALOAD PUSH1 0x1 PUSH1 0x1 PUSH1 0x40 SHL SUB PUSH1 0x24 CALLDATALOAD DUP2 DUP2 GT PUSH2 0x2BD JUMPI PUSH2 0x2262 SWAP1 CALLDATASIZE SWAP1 PUSH1 0x4 ADD PUSH2 0x31DD JUMP JUMPDEST SWAP3 SWAP1 SWAP2 PUSH1 0x44 CALLDATALOAD DUP2 DUP2 GT PUSH2 0x2BD JUMPI PUSH2 0x2280 PUSH2 0x22C7 SWAP2 CALLDATASIZE SWAP1 PUSH1 0x4 ADD PUSH2 0x31DD JUMP JUMPDEST SWAP6 SWAP1 SWAP5 PUSH2 0x228B PUSH2 0x3A4E JUMP JUMPDEST DUP5 ISZERO ISZERO DUP1 PUSH2 0x23BD JUMPI JUMPDEST PUSH2 0x229D SWAP1 PUSH2 0x3C92 JUMP JUMPDEST PUSH2 0x22A9 PUSH2 0x6FB DUP7 PUSH2 0x332B JUMP JUMPDEST PUSH2 0x22B6 PUSH2 0x718 DUP4 DUP4 PUSH2 0x4AB6 JUMP JUMPDEST PUSH2 0x22C1 DUP8 ISZERO ISZERO PUSH2 0x39EF JUMP JUMPDEST DUP5 PUSH2 0x3D0C JUMP JUMPDEST DUP2 PUSH1 0x0 MSTORE PUSH1 0x20 SWAP3 PUSH2 0x105 DUP5 MSTORE PUSH1 0x40 PUSH1 0x0 KECCAK256 SWAP2 DUP6 GT PUSH2 0xABE JUMPI PUSH2 0x22F3 DUP6 PUSH2 0x22ED DUP5 SLOAD PUSH2 0x3089 JUMP JUMPDEST DUP5 PUSH2 0x3856 JUMP JUMPDEST PUSH1 0x0 SWAP1 PUSH1 0x1F DUP7 GT PUSH1 0x1 EQ PUSH2 0x2348 JUMPI PUSH1 0x0 DUP1 MLOAD PUSH1 0x20 PUSH2 0x4D03 DUP4 CODECOPY DUP2 MLOAD SWAP2 MSTORE SWAP6 SWAP2 PUSH1 0x0 SWAP2 DUP4 PUSH2 0x233D JUMPI JUMPDEST POP POP DUP2 PUSH1 0x1 SHL SWAP2 PUSH1 0x0 NOT SWAP1 PUSH1 0x3 SHL SHR NOT AND OR SWAP1 SSTORE PUSH1 0x40 MLOAD SWAP1 DUP2 MSTORE LOG1 PUSH1 0x1 PUSH1 0xC9 SSTORE STOP JUMPDEST ADD CALLDATALOAD SWAP1 POP DUP7 DUP1 PUSH2 0x231B JUMP JUMPDEST PUSH1 0x1F NOT DUP7 AND SWAP2 DUP4 PUSH1 0x0 MSTORE DUP6 PUSH1 0x0 KECCAK256 SWAP3 PUSH1 0x0 JUMPDEST DUP2 DUP2 LT PUSH2 0x23A6 JUMPI POP SWAP2 PUSH1 0x1 SWAP4 SWAP2 DUP9 PUSH1 0x0 DUP1 MLOAD PUSH1 0x20 PUSH2 0x4D03 DUP4 CODECOPY DUP2 MLOAD SWAP2 MSTORE SWAP10 SWAP5 LT PUSH2 0x238C JUMPI JUMPDEST POP POP POP DUP2 SHL ADD SWAP1 SSTORE PUSH2 0x723 JUMP JUMPDEST ADD CALLDATALOAD PUSH1 0x0 NOT PUSH1 0x3 DUP5 SWAP1 SHL PUSH1 0xF8 AND SHR NOT AND SWAP1 SSTORE DUP7 DUP1 DUP1 PUSH2 0x237F JUMP JUMPDEST SWAP2 SWAP4 DUP8 PUSH1 0x1 DUP2 SWAP3 DUP8 DUP8 ADD CALLDATALOAD DUP2 SSTORE ADD SWAP6 ADD SWAP3 ADD PUSH2 0x235A JUMP JUMPDEST POP PUSH2 0x100 SLOAD DUP6 GT ISZERO PUSH2 0x2294 JUMP JUMPDEST CALLVALUE PUSH2 0x2BD JUMPI PUSH1 0x0 CALLDATASIZE PUSH1 0x3 NOT ADD SLT PUSH2 0x2BD JUMPI PUSH2 0x23E3 PUSH2 0x3255 JUMP JUMPDEST PUSH1 0x97 DUP1 SLOAD PUSH1 0x1 PUSH1 0x1 PUSH1 0xA0 SHL SUB NOT DUP2 AND SWAP1 SWAP2 SSTORE PUSH1 0x0 SWAP1 PUSH1 0x1 PUSH1 0x1 PUSH1 0xA0 SHL SUB AND PUSH1 0x0 DUP1 MLOAD PUSH1 0x20 PUSH2 0x4C83 DUP4 CODECOPY DUP2 MLOAD SWAP2 MSTORE DUP3 DUP1 LOG3 STOP JUMPDEST CALLVALUE PUSH2 0x2BD JUMPI PUSH1 0x20 CALLDATASIZE PUSH1 0x3 NOT ADD SLT PUSH2 0x2BD JUMPI PUSH1 0x1 PUSH1 0x1 PUSH1 0xA0 SHL SUB PUSH2 0x2436 PUSH2 0x3028 JUMP JUMPDEST AND DUP1 ISZERO PUSH2 0x2455 JUMPI PUSH1 0x0 MSTORE PUSH1 0x68 PUSH1 0x20 MSTORE PUSH1 0x20 PUSH1 0x40 PUSH1 0x0 KECCAK256 SLOAD PUSH1 0x40 MLOAD SWAP1 DUP2 MSTORE RETURN JUMPDEST PUSH1 0x40 MLOAD PUSH3 0x461BCD PUSH1 0xE5 SHL DUP2 MSTORE PUSH1 0x20 PUSH1 0x4 DUP3 ADD MSTORE PUSH1 0x29 PUSH1 0x24 DUP3 ADD MSTORE PUSH32 0x4552433732313A2061646472657373207A65726F206973206E6F742061207661 PUSH1 0x44 DUP3 ADD MSTORE PUSH9 0x3634B21037BBB732B9 PUSH1 0xB9 SHL PUSH1 0x64 DUP3 ADD MSTORE PUSH1 0x84 SWAP1 REVERT JUMPDEST CALLVALUE PUSH2 0x2BD JUMPI PUSH1 0x20 CALLDATASIZE PUSH1 0x3 NOT ADD SLT PUSH2 0x2BD JUMPI PUSH1 0x4 CALLDATALOAD PUSH2 0x24C8 PUSH2 0x3255 JUMP JUMPDEST PUSH2 0x100 SLOAD DUP2 LT PUSH2 0x2547 JUMPI DUP1 ISZERO PUSH2 0x2509 JUMPI PUSH1 0x20 DUP2 PUSH32 0x28A10A2E0B5582DA7164754CB994F6214B8AF6AA7F7E003305FBC09E7106C513 SWAP3 PUSH1 0xFB SSTORE PUSH1 0x40 MLOAD SWAP1 DUP2 MSTORE LOG1 STOP JUMPDEST PUSH1 0x40 MLOAD PUSH3 0x461BCD PUSH1 0xE5 SHL DUP2 MSTORE PUSH1 0x20 PUSH1 0x4 DUP3 ADD MSTORE PUSH1 0x16 PUSH1 0x24 DUP3 ADD MSTORE PUSH22 0x4D617820737570706C79206D757374206265203E203 PUSH1 0x54 SHL PUSH1 0x44 DUP3 ADD MSTORE PUSH1 0x64 SWAP1 REVERT JUMPDEST PUSH1 0x40 MLOAD PUSH3 0x461BCD PUSH1 0xE5 SHL DUP2 MSTORE PUSH1 0x20 PUSH1 0x4 DUP3 ADD MSTORE PUSH1 0x17 PUSH1 0x24 DUP3 ADD MSTORE PUSH23 0x13585E081CDD5C1C1B1E4818995B1BDDC81B5A5B9D1959 PUSH1 0x4A SHL PUSH1 0x44 DUP3 ADD MSTORE PUSH1 0x64 SWAP1 REVERT JUMPDEST CALLVALUE PUSH2 0x2BD JUMPI PUSH1 0x0 CALLDATASIZE PUSH1 0x3 NOT ADD SLT PUSH2 0x2BD JUMPI PUSH1 0x20 PUSH1 0xFD SLOAD PUSH1 0x40 MLOAD SWAP1 DUP2 MSTORE RETURN JUMPDEST CALLVALUE PUSH2 0x2BD JUMPI PUSH1 0x20 CALLDATASIZE PUSH1 0x3 NOT ADD SLT PUSH2 0x2BD JUMPI PUSH1 0x20 PUSH2 0x25C2 PUSH1 0x4 CALLDATALOAD PUSH2 0x332B JUMP JUMPDEST PUSH1 0x40 MLOAD PUSH1 0x1 PUSH1 0x1 PUSH1 0xA0 SHL SUB SWAP1 SWAP2 AND DUP2 MSTORE RETURN JUMPDEST CALLVALUE PUSH2 0x2BD JUMPI PUSH2 0x100 CALLDATASIZE PUSH1 0x3 NOT ADD SLT PUSH2 0x2BD JUMPI PUSH1 0x1 PUSH1 0x1 PUSH1 0x40 SHL SUB PUSH1 0x4 CALLDATALOAD PUSH1 0x24 CALLDATALOAD DUP3 DUP2 GT PUSH2 0x2BD JUMPI PUSH2 0x2609 SWAP1 CALLDATASIZE SWAP1 PUSH1 0x4 ADD PUSH2 0x31DD JUMP JUMPDEST PUSH1 0xE4 CALLDATALOAD SWAP4 DUP5 ISZERO ISZERO DUP1 DUP7 SUB PUSH2 0x2BD JUMPI PUSH2 0x261F PUSH2 0x3255 JUMP JUMPDEST DUP3 ISZERO PUSH2 0x282F JUMPI PUSH1 0x84 CALLDATALOAD SWAP2 DUP3 ISZERO DUP1 ISZERO PUSH2 0x2825 JUMPI JUMPDEST DUP1 ISZERO PUSH2 0x281A JUMPI JUMPDEST ISZERO PUSH2 0x27DE JUMPI PUSH2 0x108 DUP1 SLOAD DUP8 DUP2 SUB PUSH2 0x27CD JUMPI PUSH1 0x1 PUSH1 0x40 SHL DUP2 LT ISZERO PUSH2 0xABE JUMPI PUSH2 0x2665 SWAP2 PUSH1 0x1 DUP3 ADD SWAP1 SSTORE PUSH2 0x38FD JUMP JUMPDEST POP POP JUMPDEST PUSH2 0x2671 DUP7 PUSH2 0x38FD JUMP JUMPDEST POP SWAP1 DUP5 GT PUSH2 0xABE JUMPI PUSH2 0x268D DUP5 PUSH2 0x2687 DUP4 SLOAD PUSH2 0x3089 JUMP JUMPDEST DUP4 PUSH2 0x3856 JUMP JUMPDEST PUSH1 0x0 SWAP7 PUSH1 0x1F DUP6 GT PUSH1 0x1 EQ PUSH2 0x2753 JUMPI DUP5 PUSH1 0x0 DUP1 MLOAD PUSH1 0x20 PUSH2 0x4CE3 DUP4 CODECOPY DUP2 MLOAD SWAP2 MSTORE SWAP8 SWAP9 PUSH1 0x0 SWAP2 PUSH2 0x2748 JUMPI JUMPDEST POP DUP6 PUSH1 0x1 SHL SWAP1 PUSH1 0x0 NOT DUP8 PUSH1 0x3 SHL SHR NOT AND OR DUP3 SSTORE JUMPDEST PUSH1 0x44 CALLDATALOAD SWAP4 DUP5 PUSH1 0x1 DUP5 ADD SSTORE PUSH1 0x64 CALLDATALOAD DUP1 PUSH1 0x2 DUP6 ADD SSTORE DUP2 PUSH1 0x3 DUP6 ADD SSTORE PUSH2 0x270D PUSH1 0xA4 CALLDATALOAD SWAP4 DUP5 PUSH1 0x4 DUP8 ADD SSTORE PUSH1 0x7 PUSH1 0xC4 CALLDATALOAD SWAP7 DUP8 PUSH1 0x5 DUP3 ADD SSTORE ADD SWAP1 PUSH1 0xFF DUP1 NOT DUP4 SLOAD AND SWAP2 ISZERO ISZERO AND OR SWAP1 SSTORE JUMP JUMPDEST PUSH2 0x2724 PUSH1 0x40 MLOAD SWAP9 DUP10 SWAP9 PUSH1 0xE0 DUP11 MSTORE PUSH1 0xE0 DUP11 ADD SWAP2 PUSH2 0x3AEF JUMP JUMPDEST SWAP6 PUSH1 0x20 DUP9 ADD MSTORE PUSH1 0x40 DUP8 ADD MSTORE PUSH1 0x60 DUP7 ADD MSTORE PUSH1 0x80 DUP6 ADD MSTORE PUSH1 0xA0 DUP5 ADD MSTORE PUSH1 0xC0 DUP4 ADD MSTORE SUB SWAP1 LOG2 STOP JUMPDEST SWAP1 POP DUP7 ADD CALLDATALOAD DUP10 PUSH2 0x26B5 JUMP JUMPDEST DUP2 PUSH1 0x0 MSTORE PUSH1 0x20 SWAP8 DUP9 PUSH1 0x0 KECCAK256 SWAP9 PUSH1 0x0 JUMPDEST PUSH1 0x1F NOT DUP9 AND DUP2 LT PUSH2 0x27B6 JUMPI POP POP SWAP8 PUSH1 0x0 DUP1 MLOAD PUSH1 0x20 PUSH2 0x4CE3 DUP4 CODECOPY DUP2 MLOAD SWAP2 MSTORE SWAP8 SWAP9 DUP7 PUSH1 0x1F NOT DUP2 AND LT PUSH2 0x279C JUMPI JUMPDEST POP POP PUSH1 0x1 DUP6 DUP2 SHL ADD DUP3 SSTORE PUSH2 0x26C9 JUMP JUMPDEST DUP8 ADD CALLDATALOAD PUSH1 0x0 NOT PUSH1 0x3 DUP9 SWAP1 SHL PUSH1 0xF8 AND SHR NOT AND SWAP1 SSTORE DUP9 DUP1 PUSH2 0x278D JUMP JUMPDEST DUP3 DUP10 ADD CALLDATALOAD DUP12 SSTORE PUSH1 0x1 SWAP1 SWAP11 ADD SWAP10 SWAP2 DUP2 ADD SWAP2 DUP2 ADD PUSH2 0x2762 JUMP JUMPDEST PUSH2 0x27D9 SWAP2 POP DUP8 LT PUSH2 0x3B10 JUMP JUMPDEST PUSH2 0x2668 JUMP JUMPDEST PUSH1 0x40 MLOAD PUSH3 0x461BCD PUSH1 0xE5 SHL DUP2 MSTORE PUSH1 0x20 PUSH1 0x4 DUP3 ADD MSTORE PUSH1 0x14 PUSH1 0x24 DUP3 ADD MSTORE PUSH20 0x496E76616C69642070686173652077696E646F77 PUSH1 0x60 SHL PUSH1 0x44 DUP3 ADD MSTORE PUSH1 0x64 SWAP1 REVERT JUMPDEST POP PUSH1 0x64 CALLDATALOAD DUP4 GT PUSH2 0x2639 JUMP JUMPDEST POP PUSH1 0x64 CALLDATALOAD ISZERO PUSH2 0x2632 JUMP JUMPDEST PUSH1 0x40 MLOAD PUSH3 0x461BCD PUSH1 0xE5 SHL DUP2 MSTORE PUSH1 0x20 PUSH1 0x4 DUP3 ADD MSTORE PUSH1 0x13 PUSH1 0x24 DUP3 ADD MSTORE PUSH19 0x141A185CD9481B985B59481C995C5D5A5C9959 PUSH1 0x6A SHL PUSH1 0x44 DUP3 ADD MSTORE PUSH1 0x64 SWAP1 REVERT JUMPDEST CALLVALUE PUSH2 0x2BD JUMPI PUSH1 0x0 CALLDATASIZE PUSH1 0x3 NOT ADD SLT PUSH2 0x2BD JUMPI PUSH1 0x2 PUSH1 0x0 SLOAD PUSH1 0xFF DUP2 PUSH1 0x8 SHR AND ISZERO DUP1 PUSH2 0x28BB JUMPI JUMPDEST PUSH2 0x2897 SWAP1 PUSH2 0x37DC JUMP JUMPDEST PUSH2 0xFFFF NOT AND OR PUSH1 0x0 SSTORE PUSH1 0x0 DUP1 MLOAD PUSH1 0x20 PUSH2 0x4C63 DUP4 CODECOPY DUP2 MLOAD SWAP2 MSTORE PUSH1 0x20 PUSH1 0x40 MLOAD PUSH1 0x2 DUP2 MSTORE LOG1 STOP JUMPDEST POP PUSH1 0xFF DUP2 AND DUP3 GT PUSH2 0x288E JUMP JUMPDEST CALLVALUE PUSH2 0x2BD JUMPI PUSH1 0x20 DUP1 PUSH1 0x3 NOT CALLDATASIZE ADD SLT PUSH2 0x2BD JUMPI PUSH1 0x4 CALLDATALOAD SWAP1 PUSH2 0x28E5 PUSH2 0x3255 JUMP JUMPDEST PUSH2 0x108 SWAP1 DUP2 SLOAD SWAP1 DUP2 ISZERO PUSH2 0x29E0 JUMPI PUSH1 0x0 NOT SWAP2 DUP1 DUP4 ADD SWAP1 DUP2 GT PUSH2 0x19AE JUMPI DUP5 SUB PUSH2 0x299C JUMPI DUP4 PUSH1 0x0 MSTORE PUSH2 0x10D DUP2 MSTORE PUSH1 0x0 PUSH1 0x40 DUP2 KECCAK256 SSTORE PUSH2 0x10B DUP2 MSTORE PUSH1 0x40 PUSH1 0x0 KECCAK256 SWAP1 DUP2 SLOAD SWAP1 PUSH1 0x0 DUP4 SSTORE DUP2 PUSH2 0x2981 JUMPI JUMPDEST POP POP POP PUSH2 0x2943 PUSH2 0x293D DUP5 PUSH2 0x38FD JUMP JUMPDEST SWAP1 PUSH2 0x3B53 JUMP JUMPDEST DUP2 SLOAD DUP1 ISZERO PUSH2 0x1B07 JUMPI ADD SWAP1 PUSH2 0x2959 PUSH2 0x293D DUP4 PUSH2 0x38FD JUMP JUMPDEST SSTORE PUSH32 0x3AE6BD42F8622E3894EF16A2193A204DE29EE6392703E402F31749D92B1735E8 PUSH1 0x0 DUP1 LOG2 STOP JUMPDEST PUSH2 0x2994 SWAP3 PUSH1 0x0 MSTORE PUSH1 0x0 KECCAK256 SWAP1 DUP2 ADD SWAP1 PUSH2 0x383F JUMP JUMPDEST DUP4 DUP1 DUP1 PUSH2 0x292E JUMP JUMPDEST PUSH1 0x64 SWAP1 PUSH1 0x40 MLOAD SWAP1 PUSH3 0x461BCD PUSH1 0xE5 SHL DUP3 MSTORE PUSH1 0x4 DUP3 ADD MSTORE PUSH1 0x1E PUSH1 0x24 DUP3 ADD MSTORE PUSH32 0x4F6E6C79206C6173742070686173652063616E2062652064656C657465640000 PUSH1 0x44 DUP3 ADD MSTORE REVERT JUMPDEST PUSH1 0x64 SWAP1 PUSH1 0x40 MLOAD SWAP1 PUSH3 0x461BCD PUSH1 0xE5 SHL DUP3 MSTORE PUSH1 0x4 DUP3 ADD MSTORE PUSH1 0x12 PUSH1 0x24 DUP3 ADD MSTORE PUSH18 0x4E6F20706861736520746F2064656C657465 PUSH1 0x70 SHL PUSH1 0x44 DUP3 ADD MSTORE REVERT JUMPDEST CALLVALUE PUSH2 0x2BD JUMPI PUSH1 0x0 CALLDATASIZE PUSH1 0x3 NOT ADD SLT PUSH2 0x2BD JUMPI PUSH1 0x20 PUSH1 0xFF PUSH1 0xFE SLOAD PUSH1 0x8 SHR AND PUSH1 0x40 MLOAD SWAP1 ISZERO ISZERO DUP2 MSTORE RETURN JUMPDEST CALLVALUE PUSH2 0x2BD JUMPI PUSH1 0x0 CALLDATASIZE PUSH1 0x3 NOT ADD SLT PUSH2 0x2BD JUMPI PUSH1 0x40 MLOAD PUSH1 0x0 SWAP1 PUSH1 0xFF SLOAD PUSH2 0x2A62 DUP2 PUSH2 0x3089 JUMP JUMPDEST DUP1 DUP4 MSTORE PUSH1 0x1 SWAP2 DUP1 DUP4 AND SWAP1 DUP2 ISZERO PUSH2 0xD79 JUMPI POP PUSH1 0x1 EQ PUSH2 0x2A8A JUMPI PUSH2 0x392 DUP4 PUSH2 0x37E DUP2 DUP8 SUB DUP3 PUSH2 0x3114 JUMP JUMPDEST PUSH1 0xFF PUSH1 0x0 SWAP1 DUP2 MSTORE PUSH1 0x20 SWAP5 POP SWAP2 PUSH32 0xE08EC2AF2CFC251225E1968FD6CA21E4044F129BFFA95BAC3503BE8BDB30A367 JUMPDEST DUP3 DUP5 LT PUSH2 0x2AD1 JUMPI POP POP POP DUP2 ADD SWAP1 SWAP2 ADD SWAP1 PUSH2 0x37E DUP2 PUSH2 0xD0F JUMP JUMPDEST DUP1 SLOAD DUP6 DUP6 ADD DUP8 ADD MSTORE SWAP3 DUP6 ADD SWAP3 DUP2 ADD PUSH2 0x2AB8 JUMP JUMPDEST CALLVALUE PUSH2 0x2BD JUMPI PUSH2 0x2FB PUSH2 0x90B PUSH2 0x2AF8 CALLDATASIZE PUSH2 0x3054 JUMP JUMPDEST SWAP1 PUSH1 0x40 MLOAD SWAP3 PUSH2 0x2B06 DUP5 PUSH2 0x30C3 JUMP JUMPDEST PUSH1 0x0 DUP5 MSTORE PUSH2 0x8FB PUSH2 0x8F6 DUP5 CALLER PUSH2 0x3456 JUMP JUMPDEST CALLVALUE PUSH2 0x2BD JUMPI PUSH1 0x0 CALLDATASIZE PUSH1 0x3 NOT ADD SLT PUSH2 0x2BD JUMPI PUSH1 0x40 PUSH2 0x2B32 PUSH2 0x3C03 JUMP JUMPDEST DUP3 MLOAD SWAP2 ISZERO ISZERO DUP3 MSTORE PUSH1 0x20 DUP3 ADD MSTORE RETURN JUMPDEST CALLVALUE PUSH2 0x2BD JUMPI PUSH1 0x0 CALLDATASIZE PUSH1 0x3 NOT ADD SLT PUSH2 0x2BD JUMPI PUSH2 0x2B59 PUSH2 0x3255 JUMP JUMPDEST PUSH1 0x0 DUP1 DUP1 DUP1 PUSH1 0x1 DUP1 PUSH1 0xA0 SHL SUB PUSH1 0x97 SLOAD AND SELFBALANCE SWAP1 DUP3 DUP3 ISZERO PUSH2 0x2B7B JUMPI JUMPDEST CALL ISZERO PUSH2 0xF25 JUMPI STOP JUMPDEST POP PUSH2 0x8FC PUSH2 0x2B73 JUMP JUMPDEST CALLVALUE PUSH2 0x2BD JUMPI PUSH1 0x20 CALLDATASIZE PUSH1 0x3 NOT ADD SLT PUSH2 0x2BD JUMPI PUSH1 0x1 PUSH1 0x1 PUSH1 0xA0 SHL SUB PUSH2 0x2BA5 PUSH2 0x3028 JUMP JUMPDEST AND PUSH1 0x0 MSTORE PUSH2 0x102 PUSH1 0x20 MSTORE PUSH1 0x20 PUSH1 0x40 PUSH1 0x0 KECCAK256 SLOAD PUSH1 0x40 MLOAD SWAP1 DUP2 MSTORE RETURN JUMPDEST CALLVALUE PUSH2 0x2BD JUMPI PUSH1 0x0 CALLDATASIZE PUSH1 0x3 NOT ADD SLT PUSH2 0x2BD JUMPI PUSH1 0x20 PUSH1 0xFB SLOAD PUSH1 0x40 MLOAD SWAP1 DUP2 MSTORE RETURN JUMPDEST CALLVALUE PUSH2 0x2BD JUMPI PUSH1 0x20 CALLDATASIZE PUSH1 0x3 NOT ADD SLT PUSH2 0x2BD JUMPI PUSH1 0x20 PUSH2 0x2BFB PUSH1 0x4 CALLDATALOAD PUSH2 0x4977 JUMP JUMPDEST PUSH1 0x40 MLOAD SWAP1 DUP2 MSTORE RETURN JUMPDEST CALLVALUE PUSH2 0x2BD JUMPI PUSH1 0x0 CALLDATASIZE PUSH1 0x3 NOT ADD SLT PUSH2 0x2BD JUMPI PUSH1 0x20 PUSH1 0xFF PUSH1 0xFE SLOAD AND PUSH1 0x40 MLOAD SWAP1 ISZERO ISZERO DUP2 MSTORE RETURN JUMPDEST CALLVALUE PUSH2 0x2BD JUMPI PUSH2 0x2FB PUSH2 0x2C37 CALLDATASIZE PUSH2 0x3054 JUMP JUMPDEST SWAP2 PUSH2 0x2C45 PUSH2 0x8F6 DUP5 CALLER PUSH2 0x3456 JUMP JUMPDEST PUSH2 0x351E JUMP JUMPDEST CALLVALUE PUSH2 0x2BD JUMPI PUSH1 0x0 CALLDATASIZE PUSH1 0x3 NOT ADD SLT PUSH2 0x2BD JUMPI PUSH1 0x20 PUSH2 0x100 SLOAD PUSH1 0x40 MLOAD SWAP1 DUP2 MSTORE RETURN JUMPDEST CALLVALUE PUSH2 0x2BD JUMPI PUSH1 0x20 CALLDATASIZE PUSH1 0x3 NOT ADD SLT PUSH2 0x2BD JUMPI PUSH2 0x2CDE PUSH2 0x2C96 PUSH1 0x4 CALLDATALOAD PUSH2 0x2C91 PUSH2 0x108 SLOAD DUP3 LT PUSH2 0x3B10 JUMP JUMPDEST PUSH2 0x38FD JUMP JUMPDEST POP PUSH1 0x1 DUP2 ADD SLOAD PUSH1 0x2 DUP3 ADD SLOAD SWAP2 PUSH1 0x3 DUP2 ADD SLOAD PUSH1 0x4 DUP3 ADD SLOAD PUSH1 0x5 DUP4 ADD SLOAD SWAP1 PUSH1 0x6 DUP5 ADD SLOAD SWAP3 PUSH2 0x2CC9 PUSH1 0xFF PUSH1 0x7 DUP8 ADD SLOAD AND SWAP6 PUSH2 0x3137 JUMP JUMPDEST SWAP7 PUSH1 0x40 MLOAD SWAP9 DUP10 SWAP9 PUSH2 0x100 DUP1 DUP12 MSTORE DUP11 ADD SWAP1 PUSH2 0x3003 JUMP JUMPDEST SWAP7 PUSH1 0x20 DUP10 ADD MSTORE PUSH1 0x40 DUP9 ADD MSTORE PUSH1 0x60 DUP8 ADD MSTORE PUSH1 0x80 DUP7 ADD MSTORE PUSH1 0xA0 DUP6 ADD MSTORE PUSH1 0xC0 DUP5 ADD MSTORE ISZERO ISZERO PUSH1 0xE0 DUP4 ADD MSTORE SUB SWAP1 RETURN JUMPDEST CALLVALUE PUSH2 0x2BD JUMPI PUSH1 0x0 CALLDATASIZE PUSH1 0x3 NOT ADD SLT PUSH2 0x2BD JUMPI PUSH1 0x20 PUSH1 0xFC SLOAD PUSH1 0x40 MLOAD SWAP1 DUP2 MSTORE RETURN JUMPDEST CALLVALUE PUSH2 0x2BD JUMPI PUSH1 0x40 CALLDATASIZE PUSH1 0x3 NOT ADD SLT PUSH2 0x2BD JUMPI PUSH2 0x2D3F PUSH2 0x3028 JUMP JUMPDEST PUSH1 0x24 CALLDATALOAD SWAP1 PUSH1 0x1 PUSH1 0x1 PUSH1 0xA0 SHL SUB DUP1 DUP1 PUSH2 0x2D56 DUP6 PUSH2 0x332B JUMP JUMPDEST AND SWAP3 AND SWAP2 DUP1 DUP4 EQ PUSH2 0x2E51 JUMPI DUP1 CALLER EQ SWAP1 DUP2 ISZERO PUSH2 0x2E2C JUMPI JUMPDEST POP ISZERO PUSH2 0x2DC1 JUMPI PUSH1 0x0 DUP4 DUP2 MSTORE PUSH1 0x69 PUSH1 0x20 MSTORE PUSH1 0x40 SWAP1 KECCAK256 DUP1 SLOAD PUSH1 0x1 PUSH1 0x1 PUSH1 0xA0 SHL SUB NOT AND DUP4 OR SWAP1 SSTORE PUSH2 0x2D99 DUP4 PUSH2 0x332B JUMP JUMPDEST AND PUSH32 0x8C5BE1E5EBEC7D5BD14F71427D1E84F3DD0314C0F7B2291E5B200AC8C7C3B925 PUSH1 0x0 DUP1 LOG4 STOP JUMPDEST PUSH1 0x40 MLOAD PUSH3 0x461BCD PUSH1 0xE5 SHL DUP2 MSTORE PUSH1 0x20 PUSH1 0x4 DUP3 ADD MSTORE PUSH1 0x3D PUSH1 0x24 DUP3 ADD MSTORE PUSH32 0x4552433732313A20617070726F76652063616C6C6572206973206E6F7420746F PUSH1 0x44 DUP3 ADD MSTORE PUSH32 0x6B656E206F776E6572206F7220617070726F76656420666F7220616C6C000000 PUSH1 0x64 DUP3 ADD MSTORE PUSH1 0x84 SWAP1 REVERT JUMPDEST SWAP1 POP PUSH1 0x0 MSTORE PUSH1 0x6A PUSH1 0x20 MSTORE PUSH1 0x40 PUSH1 0x0 KECCAK256 CALLER PUSH1 0x0 MSTORE PUSH1 0x20 MSTORE PUSH1 0xFF PUSH1 0x40 PUSH1 0x0 KECCAK256 SLOAD AND DUP5 PUSH2 0x2D6C JUMP JUMPDEST PUSH1 0x40 MLOAD PUSH3 0x461BCD PUSH1 0xE5 SHL DUP2 MSTORE PUSH1 0x20 PUSH1 0x4 DUP3 ADD MSTORE PUSH1 0x21 PUSH1 0x24 DUP3 ADD MSTORE PUSH32 0x4552433732313A20617070726F76616C20746F2063757272656E74206F776E65 PUSH1 0x44 DUP3 ADD MSTORE PUSH1 0x39 PUSH1 0xF9 SHL PUSH1 0x64 DUP3 ADD MSTORE PUSH1 0x84 SWAP1 REVERT JUMPDEST CALLVALUE PUSH2 0x2BD JUMPI PUSH1 0x20 CALLDATASIZE PUSH1 0x3 NOT ADD SLT PUSH2 0x2BD JUMPI PUSH1 0x20 PUSH2 0x25C2 PUSH1 0x4 CALLDATALOAD PUSH2 0x3351 JUMP JUMPDEST CALLVALUE PUSH2 0x2BD JUMPI PUSH1 0x0 CALLDATASIZE PUSH1 0x3 NOT ADD SLT PUSH2 0x2BD JUMPI PUSH1 0x40 MLOAD PUSH1 0x0 SWAP1 PUSH1 0x65 SLOAD PUSH2 0x2EE1 DUP2 PUSH2 0x3089 JUMP JUMPDEST DUP1 DUP4 MSTORE PUSH1 0x1 SWAP2 DUP1 DUP4 AND SWAP1 DUP2 ISZERO PUSH2 0xD79 JUMPI POP PUSH1 0x1 EQ PUSH2 0x2F09 JUMPI PUSH2 0x392 DUP4 PUSH2 0x37E DUP2 DUP8 SUB DUP3 PUSH2 0x3114 JUMP JUMPDEST PUSH1 0x65 PUSH1 0x0 SWAP1 DUP2 MSTORE PUSH1 0x20 SWAP5 POP SWAP2 PUSH32 0x8FF97419363FFD7000167F130EF7168FBEA05FAF9251824CA5043F113CC6A7C7 JUMPDEST DUP3 DUP5 LT PUSH2 0x2F50 JUMPI POP POP POP DUP2 ADD SWAP1 SWAP2 ADD SWAP1 PUSH2 0x37E DUP2 PUSH2 0xD0F JUMP JUMPDEST DUP1 SLOAD DUP6 DUP6 ADD DUP8 ADD MSTORE SWAP3 DUP6 ADD SWAP3 DUP2 ADD PUSH2 0x2F37 JUMP JUMPDEST CALLVALUE PUSH2 0x2BD JUMPI PUSH1 0x20 CALLDATASIZE PUSH1 0x3 NOT ADD SLT PUSH2 0x2BD JUMPI PUSH1 0x4 CALLDATALOAD SWAP1 PUSH4 0xFFFFFFFF PUSH1 0xE0 SHL DUP3 AND DUP1 SWAP3 SUB PUSH2 0x2BD JUMPI DUP2 PUSH1 0x20 SWAP3 ISZERO SWAP1 DUP2 ISZERO PUSH2 0x2F9D JUMPI JUMPDEST POP ISZERO ISZERO DUP2 MSTORE RETURN JUMPDEST PUSH4 0x80AC58CD PUSH1 0xE0 SHL DUP2 EQ SWAP2 POP DUP2 ISZERO PUSH2 0x2FCF JUMPI JUMPDEST DUP2 ISZERO PUSH2 0x2FBE JUMPI JUMPDEST POP DUP4 PUSH2 0x2F96 JUMP JUMPDEST PUSH4 0x1FFC9A7 PUSH1 0xE0 SHL EQ SWAP1 POP DUP4 PUSH2 0x2FB7 JUMP JUMPDEST PUSH4 0x5B5E139F PUSH1 0xE0 SHL DUP2 EQ SWAP2 POP PUSH2 0x2FB0 JUMP JUMPDEST PUSH1 0x0 JUMPDEST DUP4 DUP2 LT PUSH2 0x2FF3 JUMPI POP POP PUSH1 0x0 SWAP2 ADD MSTORE JUMP JUMPDEST DUP2 DUP2 ADD MLOAD DUP4 DUP3 ADD MSTORE PUSH1 0x20 ADD PUSH2 0x2FE3 JUMP JUMPDEST SWAP1 PUSH1 0x20 SWAP2 PUSH2 0x301C DUP2 MLOAD DUP1 SWAP3 DUP2 DUP6 MSTORE DUP6 DUP1 DUP7 ADD SWAP2 ADD PUSH2 0x2FE0 JUMP JUMPDEST PUSH1 0x1F ADD PUSH1 0x1F NOT AND ADD ADD SWAP1 JUMP JUMPDEST PUSH1 0x4 CALLDATALOAD SWAP1 PUSH1 0x1 PUSH1 0x1 PUSH1 0xA0 SHL SUB DUP3 AND DUP3 SUB PUSH2 0x2BD JUMPI JUMP JUMPDEST PUSH1 0x24 CALLDATALOAD SWAP1 PUSH1 0x1 PUSH1 0x1 PUSH1 0xA0 SHL SUB DUP3 AND DUP3 SUB PUSH2 0x2BD JUMPI JUMP JUMPDEST PUSH1 0x60 SWAP1 PUSH1 0x3 NOT ADD SLT PUSH2 0x2BD JUMPI PUSH1 0x1 PUSH1 0x1 PUSH1 0xA0 SHL SUB SWAP1 PUSH1 0x4 CALLDATALOAD DUP3 DUP2 AND DUP2 SUB PUSH2 0x2BD JUMPI SWAP2 PUSH1 0x24 CALLDATALOAD SWAP1 DUP2 AND DUP2 SUB PUSH2 0x2BD JUMPI SWAP1 PUSH1 0x44 CALLDATALOAD SWAP1 JUMP JUMPDEST SWAP1 PUSH1 0x1 DUP3 DUP2 SHR SWAP3 AND DUP1 ISZERO PUSH2 0x30B9 JUMPI JUMPDEST PUSH1 0x20 DUP4 LT EQ PUSH2 0x30A3 JUMPI JUMP JUMPDEST PUSH4 0x4E487B71 PUSH1 0xE0 SHL PUSH1 0x0 MSTORE PUSH1 0x22 PUSH1 0x4 MSTORE PUSH1 0x24 PUSH1 0x0 REVERT JUMPDEST SWAP2 PUSH1 0x7F AND SWAP2 PUSH2 0x3098 JUMP JUMPDEST PUSH1 0x20 DUP2 ADD SWAP1 DUP2 LT PUSH1 0x1 PUSH1 0x1 PUSH1 0x40 SHL SUB DUP3 GT OR PUSH2 0xABE JUMPI PUSH1 0x40 MSTORE JUMP JUMPDEST PUSH1 0x40 DUP2 ADD SWAP1 DUP2 LT PUSH1 0x1 PUSH1 0x1 PUSH1 0x40 SHL SUB DUP3 GT OR PUSH2 0xABE JUMPI PUSH1 0x40 MSTORE JUMP JUMPDEST PUSH1 0x60 DUP2 ADD SWAP1 DUP2 LT PUSH1 0x1 PUSH1 0x1 PUSH1 0x40 SHL SUB DUP3 GT OR PUSH2 0xABE JUMPI PUSH1 0x40 MSTORE JUMP JUMPDEST PUSH1 0x1F SWAP1 SWAP2 ADD PUSH1 0x1F NOT AND DUP2 ADD SWAP1 PUSH1 0x1 PUSH1 0x1 PUSH1 0x40 SHL SUB DUP3 GT SWAP1 DUP3 LT OR PUSH2 0xABE JUMPI PUSH1 0x40 MSTORE JUMP JUMPDEST SWAP1 PUSH1 0x40 MLOAD SWAP2 DUP3 PUSH1 0x0 DUP3 SLOAD SWAP3 PUSH2 0x314B DUP5 PUSH2 0x3089 JUMP JUMPDEST SWAP1 DUP2 DUP5 MSTORE PUSH1 0x1 SWAP5 DUP6 DUP2 AND SWAP1 DUP2 PUSH1 0x0 EQ PUSH2 0x31BA JUMPI POP PUSH1 0x1 EQ PUSH2 0x3177 JUMPI JUMPDEST POP POP PUSH2 0x3175 SWAP3 POP SUB DUP4 PUSH2 0x3114 JUMP JUMPDEST JUMP JUMPDEST SWAP1 SWAP4 SWAP2 POP PUSH1 0x0 MSTORE PUSH1 0x20 SWAP1 DUP2 PUSH1 0x0 KECCAK256 SWAP4 PUSH1 0x0 SWAP2 JUMPDEST DUP2 DUP4 LT PUSH2 0x31A2 JUMPI POP POP PUSH2 0x3175 SWAP4 POP DUP3 ADD ADD CODESIZE DUP1 PUSH2 0x3167 JUMP JUMPDEST DUP6 SLOAD DUP9 DUP5 ADD DUP6 ADD MSTORE SWAP5 DUP6 ADD SWAP5 DUP8 SWAP5 POP SWAP2 DUP4 ADD SWAP2 PUSH2 0x318A JUMP JUMPDEST SWAP2 POP POP PUSH2 0x3175 SWAP5 POP PUSH1 0x20 SWAP3 POP PUSH1 0xFF NOT AND DUP3 DUP5 ADD MSTORE ISZERO ISZERO PUSH1 0x5 SHL DUP3 ADD ADD CODESIZE DUP1 PUSH2 0x3167 JUMP JUMPDEST SWAP2 DUP2 PUSH1 0x1F DUP5 ADD SLT ISZERO PUSH2 0x2BD JUMPI DUP3 CALLDATALOAD SWAP2 PUSH1 0x1 PUSH1 0x1 PUSH1 0x40 SHL SUB DUP4 GT PUSH2 0x2BD JUMPI PUSH1 0x20 DUP4 DUP2 DUP7 ADD SWAP6 ADD ADD GT PUSH2 0x2BD JUMPI JUMP JUMPDEST SWAP2 DUP2 PUSH1 0x1F DUP5 ADD SLT ISZERO PUSH2 0x2BD JUMPI DUP3 CALLDATALOAD SWAP2 PUSH1 0x1 PUSH1 0x1 PUSH1 0x40 SHL SUB DUP4 GT PUSH2 0x2BD JUMPI PUSH1 0x20 DUP1 DUP6 ADD SWAP5 DUP5 PUSH1 0x5 SHL ADD ADD GT PUSH2 0x2BD JUMPI JUMP JUMPDEST PUSH1 0x1 PUSH1 0x1 PUSH1 0x40 SHL SUB DUP2 GT PUSH2 0xABE JUMPI PUSH1 0x1F ADD PUSH1 0x1F NOT AND PUSH1 0x20 ADD SWAP1 JUMP JUMPDEST PUSH1 0x97 SLOAD PUSH1 0x1 PUSH1 0x1 PUSH1 0xA0 SHL SUB AND CALLER SUB PUSH2 0x3269 JUMPI JUMP JUMPDEST PUSH1 0x64 PUSH1 0x40 MLOAD PUSH3 0x461BCD PUSH1 0xE5 SHL DUP2 MSTORE PUSH1 0x20 PUSH1 0x4 DUP3 ADD MSTORE PUSH1 0x20 PUSH1 0x24 DUP3 ADD MSTORE PUSH32 0x4F776E61626C653A2063616C6C6572206973206E6F7420746865206F776E6572 PUSH1 0x44 DUP3 ADD MSTORE REVERT JUMPDEST PUSH1 0x97 DUP1 SLOAD PUSH1 0x1 PUSH1 0x1 PUSH1 0xA0 SHL SUB SWAP3 DUP4 AND PUSH1 0x1 PUSH1 0x1 PUSH1 0xA0 SHL SUB NOT DUP3 AND DUP2 OR SWAP1 SWAP3 SSTORE SWAP1 SWAP2 AND PUSH1 0x0 DUP1 MLOAD PUSH1 0x20 PUSH2 0x4C83 DUP4 CODECOPY DUP2 MLOAD SWAP2 MSTORE PUSH1 0x0 DUP1 LOG3 JUMP JUMPDEST ISZERO PUSH2 0x32EB JUMPI JUMP JUMPDEST PUSH1 0x40 MLOAD PUSH3 0x461BCD PUSH1 0xE5 SHL DUP2 MSTORE PUSH1 0x20 PUSH1 0x4 DUP3 ADD MSTORE PUSH1 0x18 PUSH1 0x24 DUP3 ADD MSTORE PUSH24 0x115490CDCC8C4E881A5B9D985B1A59081D1BDAD95B881251 PUSH1 0x42 SHL PUSH1 0x44 DUP3 ADD MSTORE PUSH1 0x64 SWAP1 REVERT JUMPDEST PUSH1 0x0 SWAP1 DUP2 MSTORE PUSH1 0x67 PUSH1 0x20 MSTORE PUSH1 0x40 SWAP1 KECCAK256 SLOAD PUSH1 0x1 PUSH1 0x1 PUSH1 0xA0 SHL SUB AND PUSH2 0x334E DUP2 ISZERO ISZERO PUSH2 0x32E4 JUMP JUMPDEST SWAP1 JUMP JUMPDEST PUSH2 0x3362 PUSH2 0x335D DUP3 PUSH2 0x361A JUMP JUMPDEST PUSH2 0x32E4 JUMP JUMPDEST PUSH1 0x0 SWAP1 DUP2 MSTORE PUSH1 0x69 PUSH1 0x20 MSTORE PUSH1 0x40 SWAP1 KECCAK256 SLOAD PUSH1 0x1 PUSH1 0x1 PUSH1 0xA0 SHL SUB AND SWAP1 JUMP JUMPDEST ISZERO PUSH2 0x3384 JUMPI JUMP JUMPDEST PUSH1 0x40 MLOAD PUSH3 0x461BCD PUSH1 0xE5 SHL DUP2 MSTORE PUSH1 0x20 PUSH1 0x4 DUP3 ADD MSTORE PUSH1 0x2D PUSH1 0x24 DUP3 ADD MSTORE PUSH32 0x4552433732313A2063616C6C6572206973206E6F7420746F6B656E206F776E65 PUSH1 0x44 DUP3 ADD MSTORE PUSH13 0x1C881BDC88185C1C1C9BDD9959 PUSH1 0x9A SHL PUSH1 0x64 DUP3 ADD MSTORE PUSH1 0x84 SWAP1 REVERT JUMPDEST PUSH1 0x80 SWAP1 PUSH1 0x20 DUP2 MSTORE PUSH1 0x32 PUSH1 0x20 DUP3 ADD MSTORE PUSH32 0x4552433732313A207472616E7366657220746F206E6F6E204552433732315265 PUSH1 0x40 DUP3 ADD MSTORE PUSH18 0x31B2B4BB32B91034B6B83632B6B2B73A32B9 PUSH1 0x71 SHL PUSH1 0x60 DUP3 ADD MSTORE ADD SWAP1 JUMP JUMPDEST ISZERO PUSH2 0x3439 JUMPI JUMP JUMPDEST PUSH1 0x40 MLOAD PUSH3 0x461BCD PUSH1 0xE5 SHL DUP2 MSTORE DUP1 PUSH2 0x3452 PUSH1 0x4 DUP3 ADD PUSH2 0x33DF JUMP JUMPDEST SUB SWAP1 REVERT JUMPDEST SWAP1 PUSH1 0x1 PUSH1 0x1 PUSH1 0xA0 SHL SUB DUP1 DUP1 PUSH2 0x346A DUP5 PUSH2 0x332B JUMP JUMPDEST AND SWAP4 AND SWAP2 DUP4 DUP4 EQ SWAP4 DUP5 ISZERO PUSH2 0x349D JUMPI JUMPDEST POP DUP4 ISZERO PUSH2 0x3487 JUMPI JUMPDEST POP POP POP SWAP1 JUMP JUMPDEST PUSH2 0x3493 SWAP2 SWAP3 SWAP4 POP PUSH2 0x3351 JUMP JUMPDEST AND EQ CODESIZE DUP1 DUP1 PUSH2 0x3481 JUMP JUMPDEST SWAP1 SWAP4 POP PUSH1 0x0 MSTORE PUSH1 0x6A PUSH1 0x20 MSTORE PUSH1 0x40 PUSH1 0x0 KECCAK256 DUP3 PUSH1 0x0 MSTORE PUSH1 0x20 MSTORE PUSH1 0xFF PUSH1 0x40 PUSH1 0x0 KECCAK256 SLOAD AND SWAP3 CODESIZE PUSH2 0x3479 JUMP JUMPDEST ISZERO PUSH2 0x34CB JUMPI JUMP JUMPDEST PUSH1 0x40 MLOAD PUSH3 0x461BCD PUSH1 0xE5 SHL DUP2 MSTORE PUSH1 0x20 PUSH1 0x4 DUP3 ADD MSTORE PUSH1 0x25 PUSH1 0x24 DUP3 ADD MSTORE PUSH32 0x4552433732313A207472616E736665722066726F6D20696E636F727265637420 PUSH1 0x44 DUP3 ADD MSTORE PUSH5 0x37BBB732B9 PUSH1 0xD9 SHL PUSH1 0x64 DUP3 ADD MSTORE PUSH1 0x84 SWAP1 REVERT JUMPDEST SWAP1 PUSH2 0x3546 SWAP2 PUSH2 0x352C DUP5 PUSH2 0x332B JUMP JUMPDEST PUSH1 0x1 PUSH1 0x1 PUSH1 0xA0 SHL SUB SWAP4 SWAP2 DUP5 AND SWAP3 DUP5 SWAP3 SWAP1 SWAP2 DUP4 AND DUP5 EQ PUSH2 0x34C4 JUMP JUMPDEST AND SWAP2 DUP3 ISZERO PUSH2 0x35C9 JUMPI DUP2 PUSH2 0x3563 SWAP2 PUSH2 0x355C DUP7 PUSH2 0x332B JUMP JUMPDEST AND EQ PUSH2 0x34C4 JUMP JUMPDEST PUSH1 0x0 DUP1 MLOAD PUSH1 0x20 PUSH2 0x4CA3 DUP4 CODECOPY DUP2 MLOAD SWAP2 MSTORE PUSH1 0x0 DUP5 DUP2 MSTORE PUSH1 0x69 PUSH1 0x20 MSTORE PUSH1 0x40 DUP2 KECCAK256 PUSH1 0x1 DUP1 PUSH1 0xA0 SHL SUB NOT SWAP1 DUP2 DUP2 SLOAD AND SWAP1 SSTORE DUP4 DUP3 MSTORE PUSH1 0x68 PUSH1 0x20 MSTORE PUSH1 0x40 DUP3 KECCAK256 PUSH1 0x0 NOT DUP2 SLOAD ADD SWAP1 SSTORE DUP5 DUP3 MSTORE PUSH1 0x40 DUP3 KECCAK256 PUSH1 0x1 DUP2 SLOAD ADD SWAP1 SSTORE DUP6 DUP3 MSTORE PUSH1 0x67 PUSH1 0x20 MSTORE DUP5 PUSH1 0x40 DUP4 KECCAK256 SWAP2 DUP3 SLOAD AND OR SWAP1 SSTORE DUP1 LOG4 JUMP JUMPDEST PUSH1 0x40 MLOAD PUSH3 0x461BCD PUSH1 0xE5 SHL DUP2 MSTORE PUSH1 0x20 PUSH1 0x4 DUP3 ADD MSTORE PUSH1 0x24 DUP1 DUP3 ADD MSTORE PUSH32 0x4552433732313A207472616E7366657220746F20746865207A65726F20616464 PUSH1 0x44 DUP3 ADD MSTORE PUSH4 0x72657373 PUSH1 0xE0 SHL PUSH1 0x64 DUP3 ADD MSTORE PUSH1 0x84 SWAP1 REVERT JUMPDEST PUSH1 0x0 SWAP1 DUP2 MSTORE PUSH1 0x67 PUSH1 0x20 MSTORE PUSH1 0x40 SWAP1 KECCAK256 SLOAD PUSH1 0x1 PUSH1 0x1 PUSH1 0xA0 SHL SUB AND ISZERO ISZERO SWAP1 JUMP JUMPDEST SWAP2 SWAP3 SWAP1 SWAP2 DUP1 EXTCODESIZE ISZERO PUSH2 0x374C JUMPI PUSH2 0x3684 SWAP4 PUSH1 0x40 MLOAD SWAP1 DUP2 PUSH4 0xA85BD01 PUSH1 0xE1 SHL SWAP4 DUP5 DUP3 MSTORE CALLER PUSH1 0x4 DUP4 ADD MSTORE PUSH1 0x0 SWAP7 DUP8 PUSH1 0x24 DUP5 ADD MSTORE PUSH1 0x44 DUP4 ADD MSTORE PUSH1 0x80 PUSH1 0x64 DUP4 ADD MSTORE DUP2 DUP8 DUP2 PUSH1 0x20 SWAP11 DUP12 SWAP7 PUSH1 0x84 DUP4 ADD SWAP1 PUSH2 0x3003 JUMP JUMPDEST SUB SWAP3 PUSH1 0x1 PUSH1 0x1 PUSH1 0xA0 SHL SUB AND GAS CALL DUP5 SWAP2 DUP2 PUSH2 0x3708 JUMPI JUMPDEST POP PUSH2 0x36F7 JUMPI POP POP POP RETURNDATASIZE PUSH1 0x0 EQ PUSH2 0x36EF JUMPI RETURNDATASIZE PUSH2 0x36B3 DUP2 PUSH2 0x323A JUMP JUMPDEST SWAP1 PUSH2 0x36C1 PUSH1 0x40 MLOAD SWAP3 DUP4 PUSH2 0x3114 JUMP JUMPDEST DUP2 MSTORE DUP1 SWAP2 DUP4 RETURNDATASIZE SWAP3 ADD RETURNDATACOPY JUMPDEST DUP1 MLOAD SWAP2 DUP3 PUSH2 0x36EC JUMPI PUSH1 0x40 MLOAD PUSH3 0x461BCD PUSH1 0xE5 SHL DUP2 MSTORE DUP1 PUSH2 0x3452 PUSH1 0x4 DUP3 ADD PUSH2 0x33DF JUMP JUMPDEST ADD REVERT JUMPDEST POP PUSH1 0x60 PUSH2 0x36CB JUMP JUMPDEST PUSH1 0x1 PUSH1 0x1 PUSH1 0xE0 SHL SUB NOT AND EQ SWAP3 POP SWAP1 POP JUMP JUMPDEST SWAP1 SWAP2 POP DUP6 DUP2 DUP2 RETURNDATASIZE DUP4 GT PUSH2 0x3745 JUMPI JUMPDEST PUSH2 0x3720 DUP2 DUP4 PUSH2 0x3114 JUMP JUMPDEST DUP2 ADD SUB SLT PUSH2 0x3741 JUMPI MLOAD PUSH1 0x1 PUSH1 0x1 PUSH1 0xE0 SHL SUB NOT DUP2 AND DUP2 SUB PUSH2 0x3741 JUMPI SWAP1 CODESIZE PUSH2 0x3699 JUMP JUMPDEST DUP5 DUP1 REVERT JUMPDEST POP RETURNDATASIZE PUSH2 0x3716 JUMP JUMPDEST POP SWAP2 POP POP PUSH1 0x1 SWAP1 JUMP JUMPDEST SWAP3 SWAP4 SWAP2 SWAP1 DUP1 EXTCODESIZE ISZERO PUSH2 0x37D2 JUMPI PUSH2 0x37A7 SWAP5 PUSH1 0x40 MLOAD DUP1 SWAP3 PUSH4 0xA85BD01 PUSH1 0xE1 SHL SWAP5 DUP6 DUP4 MSTORE CALLER PUSH1 0x4 DUP5 ADD MSTORE PUSH1 0x1 DUP1 PUSH1 0xA0 SHL SUB DUP1 SWAP9 AND PUSH1 0x24 DUP5 ADD MSTORE PUSH1 0x44 DUP4 ADD MSTORE PUSH1 0x80 PUSH1 0x64 DUP4 ADD MSTORE DUP2 DUP1 PUSH1 0x20 SWAP10 DUP11 SWAP6 PUSH1 0x84 DUP4 ADD SWAP1 PUSH2 0x3003 JUMP JUMPDEST SUB SWAP2 PUSH1 0x0 SWAP9 DUP10 SWAP2 AND GAS CALL DUP5 SWAP2 DUP2 PUSH2 0x3708 JUMPI POP PUSH2 0x36F7 JUMPI POP POP POP RETURNDATASIZE PUSH1 0x0 EQ PUSH2 0x36EF JUMPI RETURNDATASIZE PUSH2 0x36B3 DUP2 PUSH2 0x323A JUMP JUMPDEST POP POP SWAP2 POP POP PUSH1 0x1 SWAP1 JUMP JUMPDEST ISZERO PUSH2 0x37E3 JUMPI JUMP JUMPDEST PUSH1 0x40 MLOAD PUSH3 0x461BCD PUSH1 0xE5 SHL DUP2 MSTORE PUSH1 0x20 PUSH1 0x4 DUP3 ADD MSTORE PUSH1 0x2E PUSH1 0x24 DUP3 ADD MSTORE PUSH32 0x496E697469616C697A61626C653A20636F6E747261637420697320616C726561 PUSH1 0x44 DUP3 ADD MSTORE PUSH14 0x191E481A5B9A5D1A585B1A5E9959 PUSH1 0x92 SHL PUSH1 0x64 DUP3 ADD MSTORE PUSH1 0x84 SWAP1 REVERT JUMPDEST DUP2 DUP2 LT PUSH2 0x384A JUMPI POP POP JUMP JUMPDEST PUSH1 0x0 DUP2 SSTORE PUSH1 0x1 ADD PUSH2 0x383F JUMP JUMPDEST SWAP2 SWAP1 PUSH1 0x1F DUP2 GT PUSH2 0x3865 JUMPI POP POP POP JUMP JUMPDEST PUSH2 0x3175 SWAP3 PUSH1 0x0 MSTORE PUSH1 0x20 PUSH1 0x0 KECCAK256 SWAP1 PUSH1 0x20 PUSH1 0x1F DUP5 ADD PUSH1 0x5 SHR DUP4 ADD SWAP4 LT PUSH2 0xAB4 JUMPI PUSH1 0x1F ADD PUSH1 0x5 SHR ADD SWAP1 PUSH2 0x383F JUMP JUMPDEST ISZERO PUSH2 0x3897 JUMPI JUMP JUMPDEST PUSH1 0x40 MLOAD PUSH3 0x461BCD PUSH1 0xE5 SHL DUP2 MSTORE PUSH1 0x20 PUSH1 0x4 DUP3 ADD MSTORE PUSH1 0x2B PUSH1 0x24 DUP3 ADD MSTORE PUSH32 0x496E697469616C697A61626C653A20636F6E7472616374206973206E6F742069 PUSH1 0x44 DUP3 ADD MSTORE PUSH11 0x6E697469616C697A696E67 PUSH1 0xA8 SHL PUSH1 0x64 DUP3 ADD MSTORE PUSH1 0x84 SWAP1 REVERT JUMPDEST SWAP2 SWAP1 DUP3 ADD DUP1 SWAP3 GT PUSH2 0x19AE JUMPI JUMP JUMPDEST PUSH2 0x108 DUP1 SLOAD DUP3 LT ISZERO PUSH2 0x391C JUMPI PUSH1 0x0 MSTORE PUSH1 0x20 PUSH1 0x0 KECCAK256 SWAP1 PUSH1 0x3 SHL ADD SWAP1 PUSH1 0x0 SWAP1 JUMP JUMPDEST PUSH4 0x4E487B71 PUSH1 0xE0 SHL PUSH1 0x0 MSTORE PUSH1 0x32 PUSH1 0x4 MSTORE PUSH1 0x24 PUSH1 0x0 REVERT JUMPDEST DUP2 DUP2 MUL SWAP3 SWAP2 DUP2 ISZERO SWAP2 DUP5 DIV EQ OR ISZERO PUSH2 0x19AE JUMPI JUMP JUMPDEST PUSH1 0x0 NOT DUP2 EQ PUSH2 0x19AE JUMPI PUSH1 0x1 ADD SWAP1 JUMP JUMPDEST SWAP2 SWAP1 DUP2 LT ISZERO PUSH2 0x391C JUMPI PUSH1 0x5 SHL DUP2 ADD CALLDATALOAD SWAP1 PUSH1 0x1E NOT DUP2 CALLDATASIZE SUB ADD DUP3 SLT ISZERO PUSH2 0x2BD JUMPI ADD DUP1 CALLDATALOAD SWAP2 SWAP1 PUSH1 0x1 PUSH1 0x1 PUSH1 0x40 SHL SUB DUP4 GT PUSH2 0x2BD JUMPI PUSH1 0x20 ADD DUP3 CALLDATASIZE SUB DUP2 SGT PUSH2 0x2BD JUMPI SWAP2 SWAP1 JUMP JUMPDEST ISZERO PUSH2 0x399C JUMPI JUMP JUMPDEST PUSH1 0x40 MLOAD PUSH3 0x461BCD PUSH1 0xE5 SHL DUP2 MSTORE PUSH1 0x20 PUSH1 0x4 DUP3 ADD MSTORE PUSH1 0x25 PUSH1 0x24 DUP3 ADD MSTORE PUSH32 0x496D616765206D75737420626520646174613A696D6167652F2A3B6261736536 PUSH1 0x44 DUP3 ADD MSTORE PUSH5 0x1A16171717 PUSH1 0xD9 SHL PUSH1 0x64 DUP3 ADD MSTORE PUSH1 0x84 SWAP1 REVERT JUMPDEST ISZERO PUSH2 0x39F6 JUMPI JUMP JUMPDEST PUSH1 0x40 MLOAD PUSH3 0x461BCD PUSH1 0xE5 SHL DUP2 MSTORE PUSH1 0x20 PUSH1 0x4 DUP3 ADD MSTORE PUSH1 0x13 PUSH1 0x24 DUP3 ADD MSTORE PUSH19 0x105D1D1C9A589D5D195CC81C995C5D5A5C9959 PUSH1 0x6A SHL PUSH1 0x44 DUP3 ADD MSTORE PUSH1 0x64 SWAP1 REVERT JUMPDEST SWAP2 SWAP1 DUP2 LT ISZERO PUSH2 0x391C JUMPI PUSH1 0x5 SHL ADD SWAP1 JUMP JUMPDEST SWAP2 SWAP1 DUP3 SUB SWAP2 DUP3 GT PUSH2 0x19AE JUMPI JUMP JUMPDEST PUSH1 0x2 PUSH1 0xC9 SLOAD EQ PUSH2 0x3A5F JUMPI PUSH1 0x2 PUSH1 0xC9 SSTORE JUMP JUMPDEST PUSH1 0x40 MLOAD PUSH3 0x461BCD PUSH1 0xE5 SHL DUP2 MSTORE PUSH1 0x20 PUSH1 0x4 DUP3 ADD MSTORE PUSH1 0x1F PUSH1 0x24 DUP3 ADD MSTORE PUSH32 0x5265656E7472616E637947756172643A207265656E7472616E742063616C6C00 PUSH1 0x44 DUP3 ADD MSTORE PUSH1 0x64 SWAP1 REVERT JUMPDEST ISZERO PUSH2 0x3AAB JUMPI JUMP JUMPDEST PUSH1 0x40 MLOAD PUSH3 0x461BCD PUSH1 0xE5 SHL DUP2 MSTORE PUSH1 0x20 PUSH1 0x4 DUP3 ADD MSTORE PUSH1 0x1C PUSH1 0x24 DUP3 ADD MSTORE PUSH28 0x115490CDCC8C4E881D1BDAD95B88185B1C9958591E481B5A5B9D1959 PUSH1 0x22 SHL PUSH1 0x44 DUP3 ADD MSTORE PUSH1 0x64 SWAP1 REVERT JUMPDEST SWAP1 DUP1 PUSH1 0x20 SWAP4 SWAP3 DUP2 DUP5 MSTORE DUP5 DUP5 ADD CALLDATACOPY PUSH1 0x0 DUP3 DUP3 ADD DUP5 ADD MSTORE PUSH1 0x1F ADD PUSH1 0x1F NOT AND ADD ADD SWAP1 JUMP JUMPDEST ISZERO PUSH2 0x3B17 JUMPI JUMP JUMPDEST PUSH1 0x40 MLOAD PUSH3 0x461BCD PUSH1 0xE5 SHL DUP2 MSTORE PUSH1 0x20 PUSH1 0x4 DUP3 ADD MSTORE PUSH1 0x14 PUSH1 0x24 DUP3 ADD MSTORE PUSH20 0x141A185CD948191BD95CC81B9BDD08195E1A5CDD PUSH1 0x62 SHL PUSH1 0x44 DUP3 ADD MSTORE PUSH1 0x64 SWAP1 REVERT JUMPDEST SWAP1 PUSH2 0x3BD5 JUMPI PUSH2 0x3B62 DUP2 SLOAD PUSH2 0x3089 JUMP JUMPDEST DUP1 PUSH2 0x3B96 JUMPI JUMPDEST POP PUSH1 0x7 PUSH1 0x0 SWAP2 DUP3 PUSH1 0x1 DUP3 ADD SSTORE DUP3 PUSH1 0x2 DUP3 ADD SSTORE DUP3 PUSH1 0x3 DUP3 ADD SSTORE DUP3 PUSH1 0x4 DUP3 ADD SSTORE DUP3 PUSH1 0x5 DUP3 ADD SSTORE DUP3 PUSH1 0x6 DUP3 ADD SSTORE ADD SSTORE JUMP JUMPDEST PUSH1 0x1F DUP2 GT PUSH1 0x1 EQ PUSH2 0x3BAD JUMPI POP PUSH1 0x0 DUP2 SSTORE JUMPDEST CODESIZE PUSH2 0x3B68 JUMP JUMPDEST PUSH1 0x0 SWAP1 DUP3 DUP3 MSTORE PUSH2 0x3BCC PUSH1 0x1F PUSH1 0x20 DUP5 KECCAK256 SWAP3 ADD PUSH1 0x5 SHR DUP3 ADD PUSH1 0x1 DUP4 ADD PUSH2 0x383F JUMP JUMPDEST DUP2 DUP4 SSTORE SSTORE PUSH2 0x3BA7 JUMP JUMPDEST PUSH4 0x4E487B71 PUSH1 0xE0 SHL PUSH1 0x0 MSTORE PUSH1 0x0 PUSH1 0x4 MSTORE PUSH1 0x24 PUSH1 0x0 REVERT JUMPDEST DUP1 SLOAD DUP3 LT ISZERO PUSH2 0x391C JUMPI PUSH1 0x0 MSTORE PUSH1 0x20 PUSH1 0x0 KECCAK256 ADD SWAP1 PUSH1 0x0 SWAP1 JUMP JUMPDEST PUSH1 0x0 SWAP1 PUSH2 0x108 SLOAD JUMPDEST DUP1 DUP4 LT PUSH2 0x3C1B JUMPI POP PUSH1 0x0 SWAP2 POP DUP2 SWAP1 JUMP JUMPDEST PUSH2 0x3C24 DUP4 PUSH2 0x38FD JUMP JUMPDEST POP PUSH1 0xFF PUSH1 0x7 DUP3 ADD SLOAD AND ISZERO PUSH2 0x3C7C JUMPI PUSH1 0x2 DUP2 ADD SLOAD DUP1 ISZERO ISZERO SWAP1 DUP2 PUSH2 0x3C88 JUMPI JUMPDEST POP PUSH2 0x3C7C JUMPI PUSH1 0x3 ADD SLOAD DUP1 ISZERO ISZERO SWAP1 DUP2 PUSH2 0x3C72 JUMPI JUMPDEST POP PUSH2 0x3C60 JUMPI POP PUSH1 0x1 SWAP2 SWAP1 JUMP JUMPDEST SWAP1 SWAP2 PUSH2 0x3C6B SWAP1 PUSH2 0x3945 JUMP JUMPDEST SWAP2 SWAP1 PUSH2 0x3C0B JUMP JUMPDEST SWAP1 POP TIMESTAMP GT CODESIZE PUSH2 0x3C54 JUMP JUMPDEST POP SWAP1 SWAP2 PUSH2 0x3C6B SWAP1 PUSH2 0x3945 JUMP JUMPDEST SWAP1 POP TIMESTAMP LT CODESIZE PUSH2 0x3C41 JUMP JUMPDEST ISZERO PUSH2 0x3C99 JUMPI JUMP JUMPDEST PUSH1 0x40 MLOAD PUSH3 0x461BCD PUSH1 0xE5 SHL DUP2 MSTORE PUSH1 0x20 PUSH1 0x4 DUP3 ADD MSTORE PUSH1 0xD PUSH1 0x24 DUP3 ADD MSTORE PUSH13 0x24B73B30B634B2103A37B5B2B7 PUSH1 0x99 SHL PUSH1 0x44 DUP3 ADD MSTORE PUSH1 0x64 SWAP1 REVERT JUMPDEST ISZERO PUSH2 0x3CD5 JUMPI JUMP JUMPDEST PUSH1 0x40 MLOAD PUSH3 0x461BCD PUSH1 0xE5 SHL DUP2 MSTORE PUSH1 0x20 PUSH1 0x4 DUP3 ADD MSTORE PUSH1 0xF PUSH1 0x24 DUP3 ADD MSTORE PUSH15 0x2737BA103A37B5B2B71037BBB732B9 PUSH1 0x89 SHL PUSH1 0x44 DUP3 ADD MSTORE PUSH1 0x64 SWAP1 REVERT JUMPDEST PUSH1 0x0 DUP2 DUP2 MSTORE PUSH2 0x103 PUSH1 0x20 SWAP1 DUP2 MSTORE PUSH1 0x40 DUP3 KECCAK256 SWAP2 SWAP5 SWAP3 SWAP4 SWAP1 SWAP3 SWAP1 PUSH1 0x1 PUSH1 0x1 PUSH1 0x40 SHL SUB DUP3 GT PUSH2 0x3E23 JUMPI PUSH2 0x3D46 DUP3 PUSH2 0x3D40 DUP6 SLOAD PUSH2 0x3089 JUMP JUMPDEST DUP6 PUSH2 0x3856 JUMP JUMPDEST DUP6 SWAP1 PUSH1 0x1F DUP4 GT PUSH1 0x1 EQ PUSH2 0x3DBC JUMPI PUSH2 0x107 SWAP5 SWAP4 SWAP3 SWAP2 DUP8 SWAP2 DUP4 PUSH2 0x3DB1 JUMPI JUMPDEST POP POP DUP2 PUSH1 0x1 SHL SWAP2 PUSH1 0x0 NOT SWAP1 PUSH1 0x3 SHL SHR NOT AND OR SWAP1 SSTORE JUMPDEST DUP3 DUP5 MSTORE MSTORE PUSH1 0x40 DUP3 KECCAK256 PUSH1 0x1 PUSH1 0xFF NOT DUP3 SLOAD AND OR SWAP1 SSTORE PUSH32 0xE6BD40D7FBE8D26F44FD9E1BA6D94055A784EB2DE4A192C015F84C86A73D225B CALLER SWAP3 DUP1 LOG3 JUMP JUMPDEST ADD CALLDATALOAD SWAP1 POP CODESIZE DUP1 PUSH2 0x3D62 JUMP JUMPDEST DUP4 DUP8 MSTORE DUP5 DUP8 KECCAK256 SWAP2 PUSH1 0x1F NOT DUP5 AND DUP9 JUMPDEST DUP2 DUP2 LT PUSH2 0x3E0C JUMPI POP SWAP2 PUSH1 0x1 SWAP4 SWAP2 DUP6 PUSH2 0x107 SWAP9 SWAP8 SWAP7 SWAP5 LT PUSH2 0x3DF2 JUMPI JUMPDEST POP POP POP DUP2 SHL ADD SWAP1 SSTORE PUSH2 0x3D77 JUMP JUMPDEST ADD CALLDATALOAD PUSH1 0x0 NOT PUSH1 0x3 DUP5 SWAP1 SHL PUSH1 0xF8 AND SHR NOT AND SWAP1 SSTORE CODESIZE DUP1 DUP1 PUSH2 0x3DE5 JUMP JUMPDEST SWAP2 SWAP4 DUP8 PUSH1 0x1 DUP2 SWAP3 DUP8 DUP8 ADD CALLDATALOAD DUP2 SSTORE ADD SWAP6 ADD SWAP3 ADD PUSH2 0x3DCA JUMP JUMPDEST PUSH4 0x4E487B71 PUSH1 0xE0 SHL DUP7 MSTORE PUSH1 0x41 PUSH1 0x4 MSTORE PUSH1 0x24 DUP7 REVERT JUMPDEST SWAP1 PUSH2 0x3E41 DUP3 PUSH2 0x323A JUMP JUMPDEST PUSH2 0x3E4E PUSH1 0x40 MLOAD SWAP2 DUP3 PUSH2 0x3114 JUMP JUMPDEST DUP3 DUP2 MSTORE DUP1 SWAP3 PUSH2 0x3E5F PUSH1 0x1F NOT SWAP2 PUSH2 0x323A JUMP JUMPDEST ADD SWAP1 PUSH1 0x20 CALLDATASIZE SWAP2 ADD CALLDATACOPY JUMP JUMPDEST DUP1 MLOAD ISZERO PUSH2 0x3FA9 JUMPI PUSH1 0x40 MLOAD SWAP1 PUSH2 0x3E7D DUP3 PUSH2 0x30F9 JUMP JUMPDEST PUSH1 0x40 DUP3 MSTORE PUSH32 0x4142434445464748494A4B4C4D4E4F505152535455565758595A616263646566 PUSH1 0x20 DUP4 ADD MSTORE PUSH32 0x6768696A6B6C6D6E6F707172737475767778797A303132333435363738392B2F PUSH1 0x40 DUP4 ADD MSTORE DUP1 MLOAD PUSH1 0x2 SWAP2 DUP3 DUP3 ADD DUP1 SWAP3 GT PUSH2 0x19AE JUMPI PUSH1 0x3 SWAP2 DUP3 SWAP1 DIV PUSH1 0x1 PUSH1 0x1 PUSH1 0xFE SHL SUB DUP2 AND DUP2 SUB PUSH2 0x19AE JUMPI PUSH2 0x3EFF SWAP1 DUP5 SWAP6 SWAP5 SHL PUSH2 0x3E37 JUMP JUMPDEST SWAP4 PUSH1 0x20 DUP6 ADD SWAP4 DUP3 SWAP2 DUP4 MLOAD DUP5 ADD SWAP1 PUSH1 0x20 DUP3 ADD SWAP3 DUP4 MLOAD SWAP5 PUSH1 0x0 DUP6 MSTORE JUMPDEST DUP4 DUP2 LT PUSH2 0x3F58 JUMPI POP POP POP POP MSTORE MLOAD MOD DUP1 PUSH1 0x1 EQ PUSH2 0x3F45 JUMPI PUSH1 0x2 EQ PUSH2 0x3F3A JUMPI POP SWAP1 JUMP JUMPDEST PUSH1 0x3D SWAP1 PUSH1 0x0 NOT ADD MSTORE8 SWAP1 JUMP JUMPDEST POP PUSH1 0x3D SWAP1 DUP2 PUSH1 0x0 NOT DUP3 ADD MSTORE8 PUSH1 0x1 NOT ADD MSTORE8 SWAP1 JUMP JUMPDEST DUP8 PUSH1 0x4 SWAP2 SWAP10 SWAP3 SWAP4 SWAP5 SWAP10 ADD SWAP2 DUP3 MLOAD PUSH1 0x1 SWAP1 PUSH1 0x3F SWAP1 DUP3 DUP3 DUP3 PUSH1 0x12 SHR AND DUP9 ADD ADD MLOAD DUP5 MSTORE8 DUP3 DUP3 DUP3 PUSH1 0xC SHR AND DUP9 ADD ADD MLOAD DUP4 DUP6 ADD MSTORE8 DUP3 DUP3 DUP3 PUSH1 0x6 SHR AND DUP9 ADD ADD MLOAD DUP9 DUP6 ADD MSTORE8 AND DUP6 ADD ADD MLOAD DUP10 DUP3 ADD MSTORE8 ADD SWAP8 SWAP3 SWAP2 SWAP1 PUSH2 0x3F19 JUMP JUMPDEST POP PUSH1 0x40 MLOAD PUSH2 0x3FB6 DUP2 PUSH2 0x30C3 JUMP JUMPDEST PUSH1 0x0 DUP2 MSTORE SWAP1 JUMP JUMPDEST DUP1 ISZERO ISZERO DUP1 PUSH2 0x44BB JUMPI JUMPDEST PUSH2 0x3FCF SWAP1 PUSH2 0x3C92 JUMP JUMPDEST PUSH1 0xFF SWAP1 DUP2 PUSH1 0xFE SLOAD PUSH1 0x8 SHR AND ISZERO PUSH2 0x4309 JUMPI PUSH1 0x92 PUSH2 0x4127 SWAP3 PUSH2 0x334E SWAP3 PUSH1 0x0 SWAP2 DUP2 DUP4 MSTORE PUSH2 0x4245 PUSH1 0x20 SWAP2 PUSH2 0x103 DUP4 MSTORE PUSH1 0x40 SWAP4 PUSH2 0x4008 DUP6 DUP8 KECCAK256 PUSH2 0x3137 JUMP JUMPDEST SWAP6 DUP2 DUP2 MSTORE PUSH2 0x104 DUP6 MSTORE PUSH2 0x401C DUP7 DUP3 KECCAK256 PUSH2 0x3137 JUMP JUMPDEST SWAP7 DUP3 DUP3 MSTORE PUSH2 0x105 DUP7 MSTORE PUSH2 0x4030 DUP8 DUP4 KECCAK256 PUSH2 0x3137 JUMP JUMPDEST SWAP3 DUP1 DUP4 MSTORE PUSH2 0x106 DUP8 MSTORE DUP8 DUP4 KECCAK256 SLOAD SWAP3 PUSH2 0x4047 DUP3 PUSH2 0x4977 JUMP JUMPDEST SWAP6 DUP6 MLOAD ISZERO PUSH2 0x42C1 JUMPI JUMPDEST DUP3 DUP3 MSTORE PUSH2 0x4069 PUSH2 0x107 SWAP7 DUP8 DUP12 MSTORE DUP3 DUP13 DUP6 KECCAK256 SLOAD AND SWAP1 PUSH2 0x4616 JUMP JUMPDEST SWAP6 DUP4 DUP4 MSTORE DUP1 DUP11 MSTORE DUP2 DUP12 DUP5 KECCAK256 SLOAD AND PUSH1 0x0 EQ PUSH2 0x4288 JUMPI DUP11 MLOAD PUSH2 0x4088 DUP2 PUSH2 0x30F9 JUMP JUMPDEST PUSH1 0x29 DUP2 MSTORE PUSH32 0x556E6971756520386269742050656E6775696E73206F6E204261736520284576 DUP12 DUP3 ADD MSTORE PUSH9 0x6F6C76656420334429 PUSH1 0xB8 SHL DUP13 DUP3 ADD MSTORE SWAP4 JUMPDEST DUP4 MSTORE DUP10 MSTORE SWAP1 DUP10 SWAP1 KECCAK256 SLOAD AND ISZERO PUSH2 0x425E JUMPI PUSH1 0x29 PUSH2 0x4102 PUSH2 0x40FC DUP11 MLOAD PUSH2 0x40E6 DUP2 PUSH2 0x30DE JUMP JUMPDEST PUSH1 0x4 DUP2 MSTORE PUSH4 0x74727565 PUSH1 0xE0 SHL DUP12 DUP3 ADD MSTORE SWAP6 PUSH2 0x44C8 JUMP JUMPDEST SWAP7 PUSH2 0x44C8 JUMP JUMPDEST SWAP9 MLOAD SWAP13 DUP14 DUP1 SWAP12 PUSH9 0x3D913730B6B2911D11 PUSH1 0xB9 SHL DUP12 DUP4 ADD MSTORE DUP11 DUP2 MLOAD SWAP5 DUP6 SWAP4 ADD SWAP2 ADD PUSH2 0x2FE0 JUMP JUMPDEST DUP10 ADD PUSH17 0x1116113232B9B1B934B83A34B7B7111D11 PUSH1 0x79 SHL PUSH1 0x29 DUP3 ADD MSTORE PUSH2 0x4156 DUP3 MLOAD DUP1 SWAP4 DUP11 PUSH1 0x3A DUP6 ADD SWAP2 ADD PUSH2 0x2FE0 JUMP JUMPDEST ADD PUSH11 0x11161134B6B0B3B2911D11 PUSH1 0xA9 SHL PUSH1 0x3A DUP3 ADD MSTORE PUSH2 0x417E DUP3 MLOAD DUP1 SWAP4 DUP10 PUSH1 0x45 DUP6 ADD SWAP2 ADD PUSH2 0x2FE0 JUMP JUMPDEST ADD PUSH17 0x222C2272657665616C6564223A74727565 PUSH1 0x78 SHL PUSH1 0x45 DUP3 ADD MSTORE PUSH14 0x161132BB37B63B32B22F99B2111D PUSH1 0x91 SHL PUSH1 0x56 DUP3 ADD MSTORE PUSH2 0x41C3 DUP3 MLOAD DUP1 SWAP4 DUP9 PUSH1 0x64 DUP6 ADD SWAP2 ADD PUSH2 0x2FE0 JUMP JUMPDEST ADD PUSH14 0x161130BA3A3934B13ABA32B9911D PUSH1 0x91 SHL PUSH1 0x64 DUP3 ADD MSTORE PUSH2 0x41EE DUP3 MLOAD DUP1 SWAP4 DUP8 PUSH1 0x72 DUP6 ADD SWAP2 ADD PUSH2 0x2FE0 JUMP JUMPDEST ADD PUSH16 0x16113930B934BA3CAFB9B1B7B932911D PUSH1 0x81 SHL PUSH1 0x72 DUP3 ADD MSTORE PUSH2 0x421B DUP3 MLOAD DUP1 SWAP4 DUP7 PUSH1 0x82 DUP6 ADD SWAP2 ADD PUSH2 0x2FE0 JUMP JUMPDEST ADD SWAP2 PUSH15 0x16113930B934BA3CAFB930B735911D PUSH1 0x89 SHL PUSH1 0x82 DUP5 ADD MSTORE DUP4 MLOAD SWAP4 DUP5 SWAP2 PUSH1 0x91 DUP6 ADD SWAP2 ADD PUSH2 0x2FE0 JUMP JUMPDEST ADD PUSH1 0x7D PUSH1 0xF8 SHL PUSH1 0x91 DUP3 ADD MSTORE SUB PUSH1 0x72 DUP2 ADD DUP5 MSTORE ADD DUP3 PUSH2 0x3114 JUMP JUMPDEST PUSH1 0x29 PUSH2 0x4102 PUSH2 0x40FC DUP11 MLOAD PUSH2 0x4271 DUP2 PUSH2 0x30DE JUMP JUMPDEST PUSH1 0x5 DUP2 MSTORE PUSH5 0x66616C7365 PUSH1 0xD8 SHL DUP12 DUP3 ADD MSTORE SWAP6 PUSH2 0x44C8 JUMP JUMPDEST DUP11 MLOAD PUSH2 0x4293 DUP2 PUSH2 0x30DE JUMP JUMPDEST PUSH1 0x1C DUP2 MSTORE PUSH28 0x556E6971756520386269742050656E6775696E73206F6E2042617365 PUSH1 0x20 SHL DUP12 DUP3 ADD MSTORE SWAP4 PUSH2 0x40C4 JUMP JUMPDEST SWAP5 POP DUP9 MLOAD PUSH2 0x42CE DUP2 PUSH2 0x30F9 JUMP JUMPDEST PUSH1 0x36 DUP2 MSTORE PUSH1 0x0 DUP1 MLOAD PUSH1 0x20 PUSH2 0x4CC3 DUP4 CODECOPY DUP2 MLOAD SWAP2 MSTORE DUP10 DUP3 ADD MSTORE PUSH22 0x223A224D65746164617461204D697373696E67227D5D PUSH1 0x50 SHL DUP11 DUP3 ADD MSTORE SWAP5 PUSH2 0x4050 JUMP JUMPDEST PUSH2 0x4312 SWAP1 PUSH2 0x44C8 JUMP JUMPDEST PUSH1 0x40 MLOAD DUP1 SWAP3 PUSH1 0x20 SWAP3 PUSH24 0x7B226E616D65223A22386269742050656E6775696E732023 PUSH1 0x40 SHL DUP5 DUP5 ADD MSTORE PUSH2 0x434D DUP2 MLOAD DUP1 SWAP3 DUP7 PUSH1 0x38 DUP8 ADD SWAP2 ADD PUSH2 0x2FE0 JUMP JUMPDEST DUP3 ADD SWAP1 PUSH32 0x222C226465736372697074696F6E223A22556E72657665616C65642038626974 PUSH1 0x38 DUP4 ADD MSTORE PUSH28 0x102832B733BAB4B7399037B7102130B9B291161134B6B0B3B2911D11 PUSH1 0x21 SHL PUSH1 0x58 DUP4 ADD MSTORE PUSH1 0x0 SWAP2 DUP2 SLOAD PUSH2 0x43A9 DUP2 PUSH2 0x3089 JUMP JUMPDEST SWAP3 PUSH1 0x1 SWAP2 DUP1 DUP4 AND SWAP1 DUP2 ISZERO PUSH2 0x4482 JUMPI POP PUSH1 0x1 EQ PUSH2 0x4435 JUMPI JUMPDEST POP POP POP POP SWAP1 DUP2 PUSH1 0x0 DUP1 MLOAD PUSH1 0x20 PUSH2 0x4CC3 DUP4 CODECOPY DUP2 MLOAD SWAP2 MSTORE PUSH2 0x334E SWAP5 PUSH32 0x222C2272657665616C6564223A66616C73652C2261747472696275746573223A PUSH1 0x60 SWAP6 MSTORE DUP3 ADD MSTORE PUSH32 0x223A224E6F2050726F706572747920756E74696C6C2052657665616C227D5D7D PUSH1 0x40 DUP3 ADD MSTORE SUB PUSH1 0x40 DUP2 ADD DUP5 MSTORE ADD DUP3 PUSH2 0x3114 JUMP JUMPDEST PUSH1 0x0 SWAP1 DUP2 MSTORE DUP7 DUP2 KECCAK256 SWAP4 SWAP5 POP SWAP2 SWAP3 JUMPDEST DUP5 DUP4 LT PUSH2 0x446B JUMPI POP POP POP ADD PUSH1 0x74 ADD DUP3 PUSH1 0x0 DUP1 MLOAD PUSH1 0x20 PUSH2 0x4CC3 DUP4 CODECOPY DUP2 MLOAD SWAP2 MSTORE PUSH1 0x60 PUSH2 0x334E PUSH2 0x43C0 JUMP JUMPDEST DUP1 SLOAD DUP5 DUP5 ADD PUSH1 0x74 ADD MSTORE DUP8 SWAP6 POP SWAP2 DUP7 ADD SWAP2 DUP2 ADD PUSH2 0x4443 JUMP JUMPDEST PUSH1 0x60 SWAP8 SWAP7 POP PUSH1 0x74 SWAP4 POP PUSH1 0x0 DUP1 MLOAD PUSH1 0x20 PUSH2 0x4CC3 DUP4 CODECOPY DUP2 MLOAD SWAP2 MSTORE SWAP5 SWAP3 POP PUSH2 0x334E SWAP9 SWAP6 SWAP2 POP PUSH1 0xFF NOT AND DUP4 DUP4 ADD MSTORE DUP1 ISZERO ISZERO MUL ADD ADD SWAP3 SWAP4 DUP3 SWAP6 PUSH2 0x43C0 JUMP JUMPDEST POP PUSH2 0x100 SLOAD DUP2 GT ISZERO PUSH2 0x3FC6 JUMP JUMPDEST PUSH1 0x0 SWAP1 DUP1 PUSH19 0x184F03E93FF9F4DAA797ED6E38ED64BF6A1F01 PUSH1 0x40 SHL DUP1 DUP3 LT ISZERO PUSH2 0x45F7 JUMPI JUMPDEST POP PUSH10 0x4EE2D6D415B85ACEF81 PUSH1 0x20 SHL DUP1 DUP4 LT ISZERO PUSH2 0x45E8 JUMPI JUMPDEST POP PUSH7 0x2386F26FC10000 DUP1 DUP4 LT ISZERO PUSH2 0x45D9 JUMPI JUMPDEST POP PUSH4 0x5F5E100 DUP1 DUP4 LT ISZERO PUSH2 0x45CA JUMPI JUMPDEST POP PUSH2 0x2710 DUP1 DUP4 LT ISZERO PUSH2 0x45BB JUMPI JUMPDEST POP PUSH1 0x64 DUP3 LT ISZERO PUSH2 0x45AB JUMPI JUMPDEST PUSH1 0xA DUP1 SWAP3 LT ISZERO PUSH2 0x45A1 JUMPI JUMPDEST PUSH1 0x1 SWAP1 DUP2 PUSH1 0x21 PUSH2 0x4559 DUP3 DUP8 ADD PUSH2 0x3E37 JUMP JUMPDEST SWAP6 DUP7 ADD ADD SWAP1 JUMPDEST PUSH2 0x456B JUMPI JUMPDEST POP POP POP POP SWAP1 JUMP JUMPDEST PUSH1 0x0 NOT ADD SWAP1 DUP4 SWAP1 PUSH16 0x181899199A1A9B1B9C1CB0B131B232B3 PUSH1 0x81 SHL DUP3 DUP3 MOD BYTE DUP4 MSTORE8 DIV SWAP2 DUP3 ISZERO PUSH2 0x459C JUMPI SWAP2 SWAP1 DUP3 PUSH2 0x455F JUMP JUMPDEST PUSH2 0x4564 JUMP JUMPDEST SWAP2 PUSH1 0x1 ADD SWAP2 PUSH2 0x4548 JUMP JUMPDEST SWAP2 SWAP1 PUSH1 0x64 PUSH1 0x2 SWAP2 DIV SWAP2 ADD SWAP2 PUSH2 0x453D JUMP JUMPDEST PUSH1 0x4 SWAP2 SWAP4 SWAP3 DIV SWAP2 ADD SWAP2 CODESIZE PUSH2 0x4532 JUMP JUMPDEST PUSH1 0x8 SWAP2 SWAP4 SWAP3 DIV SWAP2 ADD SWAP2 CODESIZE PUSH2 0x4525 JUMP JUMPDEST PUSH1 0x10 SWAP2 SWAP4 SWAP3 DIV SWAP2 ADD SWAP2 CODESIZE PUSH2 0x4516 JUMP JUMPDEST PUSH1 0x20 SWAP2 SWAP4 SWAP3 DIV SWAP2 ADD SWAP2 CODESIZE PUSH2 0x4504 JUMP JUMPDEST PUSH1 0x40 SWAP4 POP DUP2 DIV SWAP2 POP CODESIZE PUSH2 0x44EC JUMP JUMPDEST SWAP1 DUP2 MLOAD DUP2 LT ISZERO PUSH2 0x391C JUMPI ADD PUSH1 0x20 ADD SWAP1 JUMP JUMPDEST SWAP1 ISZERO PUSH2 0x334E JUMPI PUSH1 0x40 DUP1 MLOAD SWAP1 PUSH2 0x462A DUP3 PUSH2 0x30DE JUMP JUMPDEST PUSH1 0x18 DUP3 MSTORE PUSH2 0x465A PUSH1 0x20 SWAP3 PUSH24 0x113A3930B4BA2FBA3CB832911D1122BB37B63ABA34B7B711 PUSH1 0x41 SHL DUP5 DUP3 ADD MSTORE DUP5 PUSH2 0x48C7 JUMP JUMPDEST PUSH2 0x48C2 JUMPI DUP3 MLOAD ISZERO DUP1 ISZERO PUSH2 0x489A JUMPI JUMPDEST PUSH2 0x4847 JUMPI DUP3 MLOAD SWAP3 DUP4 JUMPDEST PUSH2 0x47B2 JUMPI JUMPDEST DUP4 ISZERO DUP1 ISZERO PUSH2 0x4782 JUMPI JUMPDEST PUSH2 0x477B JUMPI PUSH1 0x0 NOT DUP5 ADD SWAP4 DUP5 GT PUSH2 0x19AE JUMPI DUP1 MLOAD DUP1 DUP6 GT PUSH2 0x4773 JUMPI JUMPDEST POP PUSH2 0x46A3 DUP5 PUSH2 0x323A JUMP JUMPDEST SWAP4 PUSH2 0x46B0 DUP4 MLOAD SWAP6 DUP7 PUSH2 0x3114 JUMP JUMPDEST DUP1 DUP6 MSTORE PUSH2 0x46BC DUP2 PUSH2 0x323A JUMP JUMPDEST DUP6 DUP6 ADD SWAP3 SWAP1 PUSH1 0x1F NOT ADD CALLDATASIZE DUP5 CALLDATACOPY PUSH1 0x0 SWAP1 DUP2 JUMPDEST DUP4 DUP2 LT PUSH2 0x4743 JUMPI POP POP POP POP SWAP3 PUSH2 0x334E SWAP3 DUP3 PUSH32 0x2C7B2274726169745F74797065223A2245766F6C7574696F6E222C2276616C75 PUSH2 0x4716 SWAP7 PUSH1 0x51 SWAP6 MLOAD SWAP8 DUP9 SWAP6 MLOAD DUP1 SWAP3 DUP7 DUP9 ADD SWAP1 PUSH2 0x2FE0 JUMP JUMPDEST DUP5 ADD SWAP3 DUP4 ADD MSTORE PUSH17 0x65223A2245766F6C766564203344227D5D PUSH1 0x78 SHL SWAP1 DUP3 ADD MSTORE SUB PUSH1 0x31 DUP2 ADD DUP5 MSTORE ADD DUP3 PUSH2 0x3114 JUMP JUMPDEST PUSH2 0x476E SWAP1 PUSH1 0x1 PUSH1 0x1 PUSH1 0xF8 SHL SUB NOT PUSH2 0x475A DUP3 DUP6 PUSH2 0x4605 JUMP JUMPDEST MLOAD AND DUP5 BYTE PUSH2 0x4768 DUP3 DUP12 PUSH2 0x4605 JUMP JUMPDEST MSTORE8 PUSH2 0x3945 JUMP JUMPDEST PUSH2 0x46CD JUMP JUMPDEST SWAP4 POP CODESIZE PUSH2 0x4699 JUMP JUMPDEST SWAP3 POP POP POP SWAP1 JUMP JUMPDEST POP PUSH1 0x0 NOT DUP5 ADD DUP5 DUP2 GT PUSH2 0x19AE JUMPI PUSH1 0x5D PUSH1 0xF8 SHL SWAP1 PUSH1 0x1 PUSH1 0x1 PUSH1 0xF8 SHL SUB NOT SWAP1 PUSH2 0x47A9 SWAP1 DUP5 PUSH2 0x4605 JUMP JUMPDEST MLOAD AND EQ ISZERO PUSH2 0x467F JUMP JUMPDEST SWAP3 PUSH1 0x0 NOT DUP2 ADD SWAP1 DUP1 DUP3 GT PUSH2 0x4832 JUMPI PUSH1 0x1 PUSH1 0x1 PUSH1 0xF8 SHL SUB NOT PUSH2 0x47D3 DUP4 DUP8 PUSH2 0x4605 JUMP JUMPDEST MLOAD AND PUSH1 0x1 PUSH1 0xFD SHL DUP2 EQ SWAP1 DUP2 ISZERO PUSH2 0x4824 JUMPI JUMPDEST DUP2 ISZERO PUSH2 0x4816 JUMPI JUMPDEST DUP2 ISZERO PUSH2 0x4808 JUMPI JUMPDEST POP ISZERO PUSH2 0x4800 JUMPI POP SWAP3 DUP4 PUSH2 0x4671 JUMP JUMPDEST SWAP4 SWAP1 POP PUSH2 0x4676 JUMP JUMPDEST PUSH1 0xD PUSH1 0xF8 SHL EQ SWAP1 POP CODESIZE PUSH2 0x47F2 JUMP JUMPDEST PUSH1 0x5 PUSH1 0xF9 SHL DUP2 EQ SWAP2 POP PUSH2 0x47EB JUMP JUMPDEST PUSH1 0x9 PUSH1 0xF8 SHL DUP2 EQ SWAP2 POP PUSH2 0x47E4 JUMP JUMPDEST PUSH1 0x24 PUSH1 0x0 PUSH4 0x4E487B71 PUSH1 0xE0 SHL DUP2 MSTORE PUSH1 0x11 PUSH1 0x4 MSTORE REVERT JUMPDEST SWAP1 SWAP2 POP PUSH32 0x5B7B2274726169745F74797065223A2245766F6C7574696F6E222C2276616C75 DUP2 MLOAD SWAP3 PUSH2 0x4877 DUP5 PUSH2 0x30F9 JUMP JUMPDEST PUSH1 0x31 DUP5 MSTORE DUP4 ADD MSTORE PUSH17 0x65223A2245766F6C766564203344227D5D PUSH1 0x78 SHL SWAP1 DUP3 ADD MSTORE SWAP1 JUMP JUMPDEST POP PUSH2 0x48BD DUP2 MLOAD PUSH2 0x48A9 DUP2 PUSH2 0x30DE JUMP JUMPDEST PUSH1 0x2 DUP2 MSTORE PUSH2 0x5B5D PUSH1 0xF0 SHL DUP5 DUP3 ADD MSTORE DUP5 PUSH2 0x48C7 JUMP JUMPDEST PUSH2 0x4668 JUMP JUMPDEST POP POP SWAP1 JUMP JUMPDEST SWAP1 DUP1 MLOAD DUP1 ISZERO PUSH2 0x4956 JUMPI DUP3 MLOAD LT PUSH2 0x4970 JUMPI PUSH1 0x0 SWAP1 JUMPDEST PUSH2 0x48E8 DUP4 MLOAD DUP3 MLOAD SWAP1 PUSH2 0x3A41 JUMP JUMPDEST DUP3 GT PUSH2 0x4968 JUMPI PUSH1 0x1 SWAP3 PUSH1 0x0 JUMPDEST DUP3 MLOAD DUP2 LT ISZERO PUSH2 0x495E JUMPI PUSH1 0x1 PUSH1 0x1 PUSH1 0xF8 SHL SUB NOT DUP1 PUSH2 0x491A PUSH2 0x4914 DUP5 DUP9 PUSH2 0x38F0 JUMP JUMPDEST DUP6 PUSH2 0x4605 JUMP JUMPDEST MLOAD AND SWAP1 PUSH2 0x4927 DUP4 DUP7 PUSH2 0x4605 JUMP JUMPDEST MLOAD AND SUB PUSH2 0x493C JUMPI PUSH2 0x4937 SWAP1 PUSH2 0x3945 JUMP JUMPDEST PUSH2 0x48F4 JUMP JUMPDEST POP SWAP3 POP SWAP1 PUSH1 0x0 JUMPDEST PUSH2 0x4956 JUMPI PUSH2 0x4950 SWAP1 PUSH2 0x3945 JUMP JUMPDEST SWAP1 PUSH2 0x48DB JUMP JUMPDEST POP POP POP PUSH1 0x1 SWAP1 JUMP JUMPDEST POP SWAP3 SWAP2 SWAP1 SWAP2 PUSH2 0x4943 JUMP JUMPDEST POP POP POP PUSH1 0x0 SWAP1 JUMP JUMPDEST POP POP PUSH1 0x0 SWAP1 JUMP JUMPDEST DUP1 ISZERO ISZERO DUP1 PUSH2 0x4A1E JUMPI JUMPDEST PUSH2 0x4989 SWAP1 PUSH2 0x3C92 JUMP JUMPDEST PUSH1 0x0 SWAP1 DUP1 DUP3 MSTORE PUSH2 0x106 SWAP2 PUSH1 0x20 SWAP2 DUP4 DUP4 MSTORE PUSH1 0x40 DUP1 DUP4 KECCAK256 SLOAD SWAP3 PUSH1 0x1 SWAP6 DUP7 SWAP6 PUSH2 0x100 SLOAD SWAP7 JUMPDEST DUP8 DUP2 GT ISZERO PUSH2 0x49BE JUMPI POP POP POP POP POP POP POP POP SWAP1 JUMP JUMPDEST DUP6 DUP2 EQ PUSH2 0x49E2 JUMPI DUP1 DUP5 MSTORE DUP3 DUP3 MSTORE DUP5 DUP5 KECCAK256 SLOAD DUP8 DUP1 DUP3 GT SWAP2 DUP3 ISZERO PUSH2 0x4A05 JUMPI JUMPDEST POP POP PUSH2 0x49F0 JUMPI JUMPDEST PUSH2 0x49EB SWAP1 PUSH2 0x3945 JUMP JUMPDEST PUSH2 0x49AB JUMP JUMPDEST SWAP8 PUSH2 0x49FD PUSH2 0x49EB SWAP2 PUSH2 0x3945 JUMP JUMPDEST SWAP9 SWAP1 POP PUSH2 0x49E2 JUMP JUMPDEST EQ SWAP1 POP DUP1 PUSH2 0x4A15 JUMPI JUMPDEST DUP8 CODESIZE PUSH2 0x49DB JUMP JUMPDEST POP DUP6 DUP2 LT PUSH2 0x4A0E JUMP JUMPDEST POP PUSH2 0x100 SLOAD DUP2 GT ISZERO PUSH2 0x4980 JUMP JUMPDEST PUSH2 0x4A33 PUSH2 0x3C03 JUMP JUMPDEST SWAP2 SWAP1 ISZERO PUSH2 0x4A55 JUMPI PUSH2 0x4A43 DUP3 PUSH2 0x38FD JUMP JUMPDEST POP PUSH1 0x1 DUP1 DUP3 ADD SLOAD PUSH1 0x5 SWAP1 SWAP3 ADD SLOAD SWAP1 SWAP4 SWAP3 JUMP JUMPDEST SWAP1 POP PUSH2 0x108 SLOAD PUSH2 0x4A6E JUMPI PUSH1 0xFD SLOAD PUSH1 0x0 SWAP2 PUSH1 0x0 SWAP2 SWAP1 PUSH1 0x0 SWAP1 JUMP JUMPDEST PUSH1 0x40 MLOAD PUSH3 0x461BCD PUSH1 0xE5 SHL DUP2 MSTORE PUSH1 0x20 PUSH1 0x4 DUP3 ADD MSTORE PUSH1 0x14 PUSH1 0x24 DUP3 ADD MSTORE PUSH20 0x4E6F20616374697665206D696E74207068617365 PUSH1 0x60 SHL PUSH1 0x44 DUP3 ADD MSTORE PUSH1 0x64 SWAP1 REVERT JUMPDEST SWAP1 DUP3 LT ISZERO PUSH2 0x391C JUMPI ADD SWAP1 JUMP JUMPDEST SWAP1 PUSH1 0x40 MLOAD SWAP1 PUSH2 0x4AC4 DUP3 PUSH2 0x30DE JUMP JUMPDEST PUSH1 0xB DUP3 MSTORE PUSH11 0x646174613A696D6167652F PUSH1 0xA8 SHL PUSH1 0x20 DUP4 ADD MSTORE PUSH1 0x40 MLOAD SWAP3 PUSH2 0x4AE9 DUP5 PUSH2 0x30DE JUMP JUMPDEST PUSH1 0x8 DUP5 MSTORE PUSH8 0xED8985CD94D8D0B PUSH1 0xC2 SHL PUSH1 0x20 DUP6 ADD MSTORE DUP3 MLOAD PUSH1 0x8 DUP2 ADD DUP1 SWAP2 GT PUSH2 0x19AE JUMPI DUP3 GT ISZERO PUSH2 0x4BF9 JUMPI PUSH1 0x0 JUMPDEST DUP4 MLOAD DUP2 LT ISZERO PUSH2 0x4B5F JUMPI PUSH1 0x1 PUSH1 0x1 PUSH1 0xF8 SHL SUB NOT DUP1 PUSH2 0x4B33 DUP4 DUP7 DUP7 PUSH2 0x4AAA JUMP JUMPDEST CALLDATALOAD AND SWAP1 PUSH2 0x4B40 DUP4 DUP8 PUSH2 0x4605 JUMP JUMPDEST MLOAD AND SUB PUSH2 0x4B55 JUMPI PUSH2 0x4B50 SWAP1 PUSH2 0x3945 JUMP JUMPDEST PUSH2 0x4B15 JUMP JUMPDEST POP POP POP POP POP PUSH1 0x0 SWAP1 JUMP JUMPDEST POP SWAP3 SWAP1 SWAP2 SWAP3 PUSH1 0x0 SWAP4 MLOAD SWAP3 JUMPDEST DUP1 PUSH2 0x4B76 DUP5 MLOAD DUP7 PUSH2 0x38F0 JUMP JUMPDEST GT PUSH2 0x4564 JUMPI PUSH1 0x1 SWAP5 PUSH1 0x0 JUMPDEST DUP5 MLOAD DUP2 LT ISZERO PUSH2 0x4BF0 JUMPI PUSH1 0x1 PUSH1 0x1 PUSH1 0xF8 SHL SUB NOT DUP1 PUSH2 0x4BA8 PUSH2 0x4BA1 DUP5 DUP11 PUSH2 0x38F0 JUMP JUMPDEST DUP7 DUP9 PUSH2 0x4AAA JUMP JUMPDEST CALLDATALOAD AND SWAP1 PUSH2 0x4BB5 DUP4 DUP9 PUSH2 0x4605 JUMP JUMPDEST MLOAD AND SUB PUSH2 0x4BCA JUMPI PUSH2 0x4BC5 SWAP1 PUSH2 0x3945 JUMP JUMPDEST PUSH2 0x4B81 JUMP JUMPDEST POP SWAP4 SWAP1 SWAP5 POP PUSH1 0x0 JUMPDEST PUSH2 0x4BE6 JUMPI PUSH2 0x4BDF SWAP1 PUSH2 0x3945 JUMP JUMPDEST SWAP3 SWAP4 PUSH2 0x4B6A JUMP JUMPDEST POP POP POP POP POP PUSH1 0x1 SWAP1 JUMP JUMPDEST POP SWAP4 SWAP1 SWAP5 PUSH2 0x4BD2 JUMP JUMPDEST POP POP POP POP PUSH1 0x0 SWAP1 JUMP INVALID SWAP14 0xEB 0xBD STOP DUP2 BASEFEE CREATE2 SWAP4 0xB1 0xD1 0xF6 XOR 0xA6 0x4B 0xD SWAP6 PUSH2 0xE522 0xDF LT SGT 0xCD 0xCF 0xD8 0xC7 ADDRESS 0x29 PUSH25 0x119DEF6BD5C950A8D8DF17F772F5AF37CB3655737899CBF903 0x26 0x4B SWAP8 SWAP6 MSIZE 0x2D LOG4 CODECOPY PUSH7 0x1CB766049ABB76 STOP PUSH24 0x328403F9E881E7E0FBAAEB7F8E58341FDB1387F6B4FE3BA0 PUSH32 0x26B83FF96E1F2B6A682F133852F6798A09C465DA95921460CEFB38474024988B 0xE0 SMOD SWAP13 MSTORE8 AND MSIZE EQ SGT PREVRANDAO 0xCD 0x1F 0xD0 LOG4 CALLCODE DUP5 NOT 0x49 PUSH32 0x9722A3DAAFE3B4186F6B6457E0DDF252AD1BE2C89B69C2B068FC378DAA952BA7 CALL PUSH4 0xC4A11628 CREATE2 GAS 0x4D CREATE2 0x23 0xB3 0xEF JUMPDEST PUSH28 0x2274726169745F74797065223A2250726F7065727479222C2276616C PUSH22 0x65EB4EEEC0E38C476C368B8F69450D5C4D716EBACE63 PUSH31 0x90A57446DA575622F0DDF8E1A15ABA9398E019F0B49DF1A4FDE98EE17AE345 0xCB PUSH0 PUSH12 0x5E2C27F5033E8CE7A2646970 PUSH7 0x73582212208DF2 PUSH13 0xF87738F68A99EDAD0E1321C346 0x4E PC SMOD 0xFC SGT 0xC9 0x29 DUP6 SWAP3 DIV EXTCODEHASH 0x22 0xCB EXTCODECOPY DUP7 PUSH26 0x64736F6C63430008140033000000000000000000000000000000 "},"methodIdentifiers":{"MAX_PER_WALLET()":"0f2cdd6c","MAX_SUPPLY()":"32cb6b0c","approve(address,uint256)":"095ea7b3","balanceOf(address)":"70a08231","currentPhaseId()":"40c5b34e","deletePhase(uint256)":"5c86a009","evolveTo3D(uint256,string,string)":"7978d451","evolveTo3DImageOnly(uint256,string)":"d2f40d79","getApproved(uint256)":"081812fc","getPhase(uint256)":"16ef376b","getPhaseWhitelist(uint256)":"a3fa2817","initialize()":"8129fc1c","initializeV2()":"5cd8a76b","isApprovedForAll(address,address)":"e985e9c5","isPhaseWhitelisted(uint256,address)":"dc5d9f42","mint(uint256,string[],string[],string[],uint256[])":"9333174a","mintActive()":"25fd90f3","mintPrice()":"6817c76c","mintedPerWallet(address)":"3a602b4d","name()":"06fdde03","owner()":"8da5cb5b","ownerOf(uint256)":"6352211e","phaseCount()":"e4faf288","phaseMintedPerWallet(uint256,address)":"de006f54","phaseWhitelistCount(uint256)":"e82303ce","placeholderImage()":"448d8c5c","rarityRank(uint256)":"29c1605f","renounceOwnership()":"715018a6","revealed()":"51830227","safeTransferFrom(address,address,uint256)":"42842e0e","safeTransferFrom(address,address,uint256,bytes)":"b88d4fde","setApprovalForAll(address,bool)":"a22cb465","setMaxPerWallet(uint256)":"e268e4d3","setMaxSupply(uint256)":"6f8b44b0","setMintPrice(uint256)":"f4a0a528","setPhaseWhitelist(uint256,address[],bool)":"91d8d68b","setPlaceholderImage(string)":"b75f1aef","setRevealed(bool)":"e0a80853","supportsInterface(bytes4)":"01ffc9a7","symbol()":"95d89b41","toggleMint()":"d3dd5fe0","tokenAttributes(uint256)":"f2824b53","tokenEvolved3D(uint256)":"c1eea4a0","tokenImage(uint256)":"cf348425","tokenMetadataJson(uint256)":"9c30ad85","tokenName(uint256)":"e725f877","tokenRarityScore(uint256)":"7b3d6e56","tokenSeeds(uint256)":"c3753d70","tokenURI(uint256)":"c87b56dd","totalSupply()":"18160ddd","transferFrom(address,address,uint256)":"23b872dd","transferOwnership(address)":"f2fde38b","upsertPhase(uint256,string,uint256,uint256,uint256,uint256,uint256,bool)":"60e6ca6f","withdraw()":"3ccfd60b"}},"storageLayout":{"storage":[{"astId":167,"contract":"contracts/8bitPenguins.sol:EightBitPenguinsUpgradeable","label":"_initialized","offset":0,"slot":"0","type":"t_uint8"},{"astId":170,"contract":"contracts/8bitPenguins.sol:EightBitPenguinsUpgradeable","label":"_initializing","offset":1,"slot":"0","type":"t_bool"},{"astId":1908,"contract":"contracts/8bitPenguins.sol:EightBitPenguinsUpgradeable","label":"__gap","offset":0,"slot":"1","type":"t_array(t_uint256)50_storage"},{"astId":2182,"contract":"contracts/8bitPenguins.sol:EightBitPenguinsUpgradeable","label":"__gap","offset":0,"slot":"51","type":"t_array(t_uint256)50_storage"},{"astId":444,"contract":"contracts/8bitPenguins.sol:EightBitPenguinsUpgradeable","label":"_name","offset":0,"slot":"101","type":"t_string_storage"},{"astId":446,"contract":"contracts/8bitPenguins.sol:EightBitPenguinsUpgradeable","label":"_symbol","offset":0,"slot":"102","type":"t_string_storage"},{"astId":450,"contract":"contracts/8bitPenguins.sol:EightBitPenguinsUpgradeable","label":"_owners","offset":0,"slot":"103","type":"t_mapping(t_uint256,t_address)"},{"astId":454,"contract":"contracts/8bitPenguins.sol:EightBitPenguinsUpgradeable","label":"_balances","offset":0,"slot":"104","type":"t_mapping(t_address,t_uint256)"},{"astId":458,"contract":"contracts/8bitPenguins.sol:EightBitPenguinsUpgradeable","label":"_tokenApprovals","offset":0,"slot":"105","type":"t_mapping(t_uint256,t_address)"},{"astId":464,"contract":"contracts/8bitPenguins.sol:EightBitPenguinsUpgradeable","label":"_operatorApprovals","offset":0,"slot":"106","type":"t_mapping(t_address,t_mapping(t_address,t_bool))"},{"astId":1366,"contract":"contracts/8bitPenguins.sol:EightBitPenguinsUpgradeable","label":"__gap","offset":0,"slot":"107","type":"t_array(t_uint256)44_storage"},{"astId":11,"contract":"contracts/8bitPenguins.sol:EightBitPenguinsUpgradeable","label":"_owner","offset":0,"slot":"151","type":"t_address"},{"astId":131,"contract":"contracts/8bitPenguins.sol:EightBitPenguinsUpgradeable","label":"__gap","offset":0,"slot":"152","type":"t_array(t_uint256)49_storage"},{"astId":344,"contract":"contracts/8bitPenguins.sol:EightBitPenguinsUpgradeable","label":"_status","offset":0,"slot":"201","type":"t_uint256"},{"astId":413,"contract":"contracts/8bitPenguins.sol:EightBitPenguinsUpgradeable","label":"__gap","offset":0,"slot":"202","type":"t_array(t_uint256)49_storage"},{"astId":4455,"contract":"contracts/8bitPenguins.sol:EightBitPenguinsUpgradeable","label":"MAX_SUPPLY","offset":0,"slot":"251","type":"t_uint256"},{"astId":4457,"contract":"contracts/8bitPenguins.sol:EightBitPenguinsUpgradeable","label":"MAX_PER_WALLET","offset":0,"slot":"252","type":"t_uint256"},{"astId":4459,"contract":"contracts/8bitPenguins.sol:EightBitPenguinsUpgradeable","label":"mintPrice","offset":0,"slot":"253","type":"t_uint256"},{"astId":4461,"contract":"contracts/8bitPenguins.sol:EightBitPenguinsUpgradeable","label":"mintActive","offset":0,"slot":"254","type":"t_bool"},{"astId":4463,"contract":"contracts/8bitPenguins.sol:EightBitPenguinsUpgradeable","label":"revealed","offset":1,"slot":"254","type":"t_bool"},{"astId":4465,"contract":"contracts/8bitPenguins.sol:EightBitPenguinsUpgradeable","label":"placeholderImage","offset":0,"slot":"255","type":"t_string_storage"},{"astId":4467,"contract":"contracts/8bitPenguins.sol:EightBitPenguinsUpgradeable","label":"_currentTokenId","offset":0,"slot":"256","type":"t_uint256"},{"astId":4471,"contract":"contracts/8bitPenguins.sol:EightBitPenguinsUpgradeable","label":"tokenSeeds","offset":0,"slot":"257","type":"t_mapping(t_uint256,t_uint256)"},{"astId":4475,"contract":"contracts/8bitPenguins.sol:EightBitPenguinsUpgradeable","label":"mintedPerWallet","offset":0,"slot":"258","type":"t_mapping(t_address,t_uint256)"},{"astId":4479,"contract":"contracts/8bitPenguins.sol:EightBitPenguinsUpgradeable","label":"tokenImage","offset":0,"slot":"259","type":"t_mapping(t_uint256,t_string_storage)"},{"astId":4483,"contract":"contracts/8bitPenguins.sol:EightBitPenguinsUpgradeable","label":"tokenName","offset":0,"slot":"260","type":"t_mapping(t_uint256,t_string_storage)"},{"astId":4487,"contract":"contracts/8bitPenguins.sol:EightBitPenguinsUpgradeable","label":"tokenAttributes","offset":0,"slot":"261","type":"t_mapping(t_uint256,t_string_storage)"},{"astId":4491,"contract":"contracts/8bitPenguins.sol:EightBitPenguinsUpgradeable","label":"tokenRarityScore","offset":0,"slot":"262","type":"t_mapping(t_uint256,t_uint256)"},{"astId":4495,"contract":"contracts/8bitPenguins.sol:EightBitPenguinsUpgradeable","label":"tokenEvolved3D","offset":0,"slot":"263","type":"t_mapping(t_uint256,t_bool)"},{"astId":4499,"contract":"contracts/8bitPenguins.sol:EightBitPenguinsUpgradeable","label":"_mintPhases","offset":0,"slot":"264","type":"t_array(t_struct(MintPhase)4453_storage)dyn_storage"},{"astId":4505,"contract":"contracts/8bitPenguins.sol:EightBitPenguinsUpgradeable","label":"phaseMintedPerWallet","offset":0,"slot":"265","type":"t_mapping(t_uint256,t_mapping(t_address,t_uint256))"},{"astId":4511,"contract":"contracts/8bitPenguins.sol:EightBitPenguinsUpgradeable","label":"_phaseWhitelist","offset":0,"slot":"266","type":"t_mapping(t_uint256,t_mapping(t_address,t_bool))"},{"astId":4516,"contract":"contracts/8bitPenguins.sol:EightBitPenguinsUpgradeable","label":"_phaseWhitelistMembers","offset":0,"slot":"267","type":"t_mapping(t_uint256,t_array(t_address)dyn_storage)"},{"astId":4522,"contract":"contracts/8bitPenguins.sol:EightBitPenguinsUpgradeable","label":"_phaseWhitelistMemberIndex","offset":0,"slot":"268","type":"t_mapping(t_uint256,t_mapping(t_address,t_uint256))"},{"astId":4526,"contract":"contracts/8bitPenguins.sol:EightBitPenguinsUpgradeable","label":"phaseWhitelistCount","offset":0,"slot":"269","type":"t_mapping(t_uint256,t_uint256)"}],"types":{"t_address":{"encoding":"inplace","label":"address","numberOfBytes":"20"},"t_array(t_address)dyn_storage":{"base":"t_address","encoding":"dynamic_array","label":"address[]","numberOfBytes":"32"},"t_array(t_struct(MintPhase)4453_storage)dyn_storage":{"base":"t_struct(MintPhase)4453_storage","encoding":"dynamic_array","label":"struct EightBitPenguinsUpgradeable.MintPhase[]","numberOfBytes":"32"},"t_array(t_uint256)44_storage":{"base":"t_uint256","encoding":"inplace","label":"uint256[44]","numberOfBytes":"1408"},"t_array(t_uint256)49_storage":{"base":"t_uint256","encoding":"inplace","label":"uint256[49]","numberOfBytes":"1568"},"t_array(t_uint256)50_storage":{"base":"t_uint256","encoding":"inplace","label":"uint256[50]","numberOfBytes":"1600"},"t_bool":{"encoding":"inplace","label":"bool","numberOfBytes":"1"},"t_mapping(t_address,t_bool)":{"encoding":"mapping","key":"t_address","label":"mapping(address => bool)","numberOfBytes":"32","value":"t_bool"},"t_mapping(t_address,t_mapping(t_address,t_bool))":{"encoding":"mapping","key":"t_address","label":"mapping(address => mapping(address => bool))","numberOfBytes":"32","value":"t_mapping(t_address,t_bool)"},"t_mapping(t_address,t_uint256)":{"encoding":"mapping","key":"t_address","label":"mapping(address => uint256)","numberOfBytes":"32","value":"t_uint256"},"t_mapping(t_uint256,t_address)":{"encoding":"mapping","key":"t_uint256","label":"mapping(uint256 => address)","numberOfBytes":"32","value":"t_address"},"t_mapping(t_uint256,t_array(t_address)dyn_storage)":{"encoding":"mapping","key":"t_uint256","label":"mapping(uint256 => address[])","numberOfBytes":"32","value":"t_array(t_address)dyn_storage"},"t_mapping(t_uint256,t_bool)":{"encoding":"mapping","key":"t_uint256","label":"mapping(uint256 => bool)","numberOfBytes":"32","value":"t_bool"},"t_mapping(t_uint256,t_mapping(t_address,t_bool))":{"encoding":"mapping","key":"t_uint256","label":"mapping(uint256 => mapping(address => bool))","numberOfBytes":"32","value":"t_mapping(t_address,t_bool)"},"t_mapping(t_uint256,t_mapping(t_address,t_uint256))":{"encoding":"mapping","key":"t_uint256","label":"mapping(uint256 => mapping(address => uint256))","numberOfBytes":"32","value":"t_mapping(t_address,t_uint256)"},"t_mapping(t_uint256,t_string_storage)":{"encoding":"mapping","key":"t_uint256","label":"mapping(uint256 => string)","numberOfBytes":"32","value":"t_string_storage"},"t_mapping(t_uint256,t_uint256)":{"encoding":"mapping","key":"t_uint256","label":"mapping(uint256 => uint256)","numberOfBytes":"32","value":"t_uint256"},"t_string_storage":{"encoding":"bytes","label":"string","numberOfBytes":"32"},"t_struct(MintPhase)4453_storage":{"encoding":"inplace","label":"struct EightBitPenguinsUpgradeable.MintPhase","members":[{"astId":4438,"contract":"contracts/8bitPenguins.sol:EightBitPenguinsUpgradeable","label":"name","offset":0,"slot":"0","type":"t_string_storage"},{"astId":4440,"contract":"contracts/8bitPenguins.sol:EightBitPenguinsUpgradeable","label":"price","offset":0,"slot":"1","type":"t_uint256"},{"astId":4442,"contract":"contracts/8bitPenguins.sol:EightBitPenguinsUpgradeable","label":"startTime","offset":0,"slot":"2","type":"t_uint256"},{"astId":4444,"contract":"contracts/8bitPenguins.sol:EightBitPenguinsUpgradeable","label":"endTime","offset":0,"slot":"3","type":"t_uint256"},{"astId":4446,"contract":"contracts/8bitPenguins.sol:EightBitPenguinsUpgradeable","label":"maxSupply","offset":0,"slot":"4","type":"t_uint256"},{"astId":4448,"contract":"contracts/8bitPenguins.sol:EightBitPenguinsUpgradeable","label":"maxPerWallet","offset":0,"slot":"5","type":"t_uint256"},{"astId":4450,"contract":"contracts/8bitPenguins.sol:EightBitPenguinsUpgradeable","label":"minted","offset":0,"slot":"6","type":"t_uint256"},{"astId":4452,"contract":"contracts/8bitPenguins.sol:EightBitPenguinsUpgradeable","label":"enabled","offset":0,"slot":"7","type":"t_bool"}],"numberOfBytes":"256"},"t_uint256":{"encoding":"inplace","label":"uint256","numberOfBytes":"32"},"t_uint8":{"encoding":"inplace","label":"uint8","numberOfBytes":"1"}}}}}}