{"contracts/8bitPenguins.sol":{"EightBitPenguinsUpgradeable":{"abi":[{"inputs":[],"stateMutability":"nonpayable","type":"constructor"},{"anonymous":false,"inputs":[{"indexed":true,"internalType":"address","name":"owner","type":"address"},{"indexed":true,"internalType":"address","name":"approved","type":"address"},{"indexed":true,"internalType":"uint256","name":"tokenId","type":"uint256"}],"name":"Approval","type":"event"},{"anonymous":false,"inputs":[{"indexed":true,"internalType":"address","name":"owner","type":"address"},{"indexed":true,"internalType":"address","name":"operator","type":"address"},{"indexed":false,"internalType":"bool","name":"approved","type":"bool"}],"name":"ApprovalForAll","type":"event"},{"anonymous":false,"inputs":[{"indexed":false,"internalType":"uint256","name":"_fromTokenId","type":"uint256"},{"indexed":false,"internalType":"uint256","name":"_toTokenId","type":"uint256"}],"name":"BatchMetadataUpdate","type":"event"},{"anonymous":false,"inputs":[{"indexed":false,"internalType":"uint8","name":"version","type":"uint8"}],"name":"Initialized","type":"event"},{"anonymous":false,"inputs":[{"indexed":false,"internalType":"uint256","name":"_tokenId","type":"uint256"}],"name":"MetadataUpdate","type":"event"},{"anonymous":false,"inputs":[{"indexed":false,"internalType":"bool","name":"status","type":"bool"}],"name":"MintStatusChanged","type":"event"},{"anonymous":false,"inputs":[{"indexed":true,"internalType":"address","name":"previousOwner","type":"address"},{"indexed":true,"internalType":"address","name":"newOwner","type":"address"}],"name":"OwnershipTransferred","type":"event"},{"anonymous":false,"inputs":[{"indexed":false,"internalType":"string","name":"image","type":"string"}],"name":"PlaceholderImageChanged","type":"event"},{"anonymous":false,"inputs":[{"indexed":false,"internalType":"bool","name":"status","type":"bool"}],"name":"RevealStatusChanged","type":"event"},{"anonymous":false,"inputs":[{"indexed":true,"internalType":"uint256","name":"tokenId","type":"uint256"},{"indexed":true,"internalType":"address","name":"owner","type":"address"}],"name":"TokenEvolved3D","type":"event"},{"anonymous":false,"inputs":[{"indexed":true,"internalType":"address","name":"from","type":"address"},{"indexed":true,"internalType":"address","name":"to","type":"address"},{"indexed":true,"internalType":"uint256","name":"tokenId","type":"uint256"}],"name":"Transfer","type":"event"},{"inputs":[],"name":"MAX_PER_WALLET","outputs":[{"internalType":"uint256","name":"","type":"uint256"}],"stateMutability":"view","type":"function"},{"inputs":[],"name":"MAX_SUPPLY","outputs":[{"internalType":"uint256","name":"","type":"uint256"}],"stateMutability":"view","type":"function"},{"inputs":[{"internalType":"address","name":"to","type":"address"},{"internalType":"uint256","name":"tokenId","type":"uint256"}],"name":"approve","outputs":[],"stateMutability":"nonpayable","type":"function"},{"inputs":[{"internalType":"address","name":"owner","type":"address"}],"name":"balanceOf","outputs":[{"internalType":"uint256","name":"","type":"uint256"}],"stateMutability":"view","type":"function"},{"inputs":[{"internalType":"uint256","name":"tokenId","type":"uint256"},{"internalType":"string","name":"imageBase64","type":"string"},{"internalType":"string","name":"attributesJson","type":"string"}],"name":"evolveTo3D","outputs":[],"stateMutability":"nonpayable","type":"function"},{"inputs":[{"internalType":"uint256","name":"tokenId","type":"uint256"},{"internalType":"string","name":"imageBase64","type":"string"}],"name":"evolveTo3DImageOnly","outputs":[],"stateMutability":"nonpayable","type":"function"},{"inputs":[{"internalType":"uint256","name":"tokenId","type":"uint256"}],"name":"getApproved","outputs":[{"internalType":"address","name":"","type":"address"}],"stateMutability":"view","type":"function"},{"inputs":[],"name":"initialize","outputs":[],"stateMutability":"nonpayable","type":"function"},{"inputs":[{"internalType":"address","name":"owner","type":"address"},{"internalType":"address","name":"operator","type":"address"}],"name":"isApprovedForAll","outputs":[{"internalType":"bool","name":"","type":"bool"}],"stateMutability":"view","type":"function"},{"inputs":[{"internalType":"uint256","name":"quantity","type":"uint256"},{"internalType":"string[]","name":"imageBase64s","type":"string[]"},{"internalType":"string[]","name":"names","type":"string[]"},{"internalType":"string[]","name":"attributesJson","type":"string[]"},{"internalType":"uint256[]","name":"rarityScores","type":"uint256[]"}],"name":"mint","outputs":[],"stateMutability":"payable","type":"function"},{"inputs":[],"name":"mintActive","outputs":[{"internalType":"bool","name":"","type":"bool"}],"stateMutability":"view","type":"function"},{"inputs":[],"name":"mintPrice","outputs":[{"internalType":"uint256","name":"","type":"uint256"}],"stateMutability":"view","type":"function"},{"inputs":[{"internalType":"address","name":"","type":"address"}],"name":"mintedPerWallet","outputs":[{"internalType":"uint256","name":"","type":"uint256"}],"stateMutability":"view","type":"function"},{"inputs":[],"name":"name","outputs":[{"internalType":"string","name":"","type":"string"}],"stateMutability":"view","type":"function"},{"inputs":[],"name":"owner","outputs":[{"internalType":"address","name":"","type":"address"}],"stateMutability":"view","type":"function"},{"inputs":[{"internalType":"uint256","name":"tokenId","type":"uint256"}],"name":"ownerOf","outputs":[{"internalType":"address","name":"","type":"address"}],"stateMutability":"view","type":"function"},{"inputs":[],"name":"placeholderImage","outputs":[{"internalType":"string","name":"","type":"string"}],"stateMutability":"view","type":"function"},{"inputs":[{"internalType":"uint256","name":"tokenId","type":"uint256"}],"name":"rarityRank","outputs":[{"internalType":"uint256","name":"","type":"uint256"}],"stateMutability":"view","type":"function"},{"inputs":[],"name":"renounceOwnership","outputs":[],"stateMutability":"nonpayable","type":"function"},{"inputs":[],"name":"revealed","outputs":[{"internalType":"bool","name":"","type":"bool"}],"stateMutability":"view","type":"function"},{"inputs":[{"internalType":"address","name":"from","type":"address"},{"internalType":"address","name":"to","type":"address"},{"internalType":"uint256","name":"tokenId","type":"uint256"}],"name":"safeTransferFrom","outputs":[],"stateMutability":"nonpayable","type":"function"},{"inputs":[{"internalType":"address","name":"from","type":"address"},{"internalType":"address","name":"to","type":"address"},{"internalType":"uint256","name":"tokenId","type":"uint256"},{"internalType":"bytes","name":"data","type":"bytes"}],"name":"safeTransferFrom","outputs":[],"stateMutability":"nonpayable","type":"function"},{"inputs":[{"internalType":"address","name":"operator","type":"address"},{"internalType":"bool","name":"approved","type":"bool"}],"name":"setApprovalForAll","outputs":[],"stateMutability":"nonpayable","type":"function"},{"inputs":[{"internalType":"string","name":"image","type":"string"}],"name":"setPlaceholderImage","outputs":[],"stateMutability":"nonpayable","type":"function"},{"inputs":[{"internalType":"bool","name":"status","type":"bool"}],"name":"setRevealed","outputs":[],"stateMutability":"nonpayable","type":"function"},{"inputs":[{"internalType":"bytes4","name":"interfaceId","type":"bytes4"}],"name":"supportsInterface","outputs":[{"internalType":"bool","name":"","type":"bool"}],"stateMutability":"view","type":"function"},{"inputs":[],"name":"symbol","outputs":[{"internalType":"string","name":"","type":"string"}],"stateMutability":"view","type":"function"},{"inputs":[],"name":"toggleMint","outputs":[],"stateMutability":"nonpayable","type":"function"},{"inputs":[{"internalType":"uint256","name":"","type":"uint256"}],"name":"tokenAttributes","outputs":[{"internalType":"string","name":"","type":"string"}],"stateMutability":"view","type":"function"},{"inputs":[{"internalType":"uint256","name":"","type":"uint256"}],"name":"tokenEvolved3D","outputs":[{"internalType":"bool","name":"","type":"bool"}],"stateMutability":"view","type":"function"},{"inputs":[{"internalType":"uint256","name":"","type":"uint256"}],"name":"tokenImage","outputs":[{"internalType":"string","name":"","type":"string"}],"stateMutability":"view","type":"function"},{"inputs":[{"internalType":"uint256","name":"tokenId","type":"uint256"}],"name":"tokenMetadataJson","outputs":[{"internalType":"string","name":"","type":"string"}],"stateMutability":"view","type":"function"},{"inputs":[{"internalType":"uint256","name":"","type":"uint256"}],"name":"tokenName","outputs":[{"internalType":"string","name":"","type":"string"}],"stateMutability":"view","type":"function"},{"inputs":[{"internalType":"uint256","name":"","type":"uint256"}],"name":"tokenRarityScore","outputs":[{"internalType":"uint256","name":"","type":"uint256"}],"stateMutability":"view","type":"function"},{"inputs":[{"internalType":"uint256","name":"","type":"uint256"}],"name":"tokenSeeds","outputs":[{"internalType":"uint256","name":"","type":"uint256"}],"stateMutability":"view","type":"function"},{"inputs":[{"internalType":"uint256","name":"tokenId","type":"uint256"}],"name":"tokenURI","outputs":[{"internalType":"string","name":"","type":"string"}],"stateMutability":"view","type":"function"},{"inputs":[],"name":"totalSupply","outputs":[{"internalType":"uint256","name":"","type":"uint256"}],"stateMutability":"view","type":"function"},{"inputs":[{"internalType":"address","name":"from","type":"address"},{"internalType":"address","name":"to","type":"address"},{"internalType":"uint256","name":"tokenId","type":"uint256"}],"name":"transferFrom","outputs":[],"stateMutability":"nonpayable","type":"function"},{"inputs":[{"internalType":"address","name":"newOwner","type":"address"}],"name":"transferOwnership","outputs":[],"stateMutability":"nonpayable","type":"function"},{"inputs":[],"name":"withdraw","outputs":[],"stateMutability":"nonpayable","type":"function"}],"evm":{"bytecode":{"linkReferences":{},"object":"60808060405234620000c6576000549060ff8260081c1662000074575060ff8082160362000038575b604051613b9d9081620000cc8239f35b60ff90811916176000557f7f26b83ff96e1f2b6a682f133852f6798a09c465da95921460cefb3847402498602060405160ff8152a13862000028565b62461bcd60e51b815260206004820152602760248201527f496e697469616c697a61626c653a20636f6e747261637420697320696e697469604482015266616c697a696e6760c81b6064820152608490fd5b600080fdfe608080604052600436101561001357600080fd5b60003560e01c90816301ffc9a7146120bc5750806306fdde0314612017578063081812fc14611ff9578063095ea7b314611e7f5780630f2cdd6c14611e6157806318160ddd14611e4257806323b872dd14611e1e57806325fd90f314611dfb57806329c1605f14611dd557806332cb6b0c14611db75780633a602b4d14611d7c5780633ccfd60b14611d3857806342842e0e14611d05578063448d8c5c14611c605780635183022714611c3a5780636352211e14611c0a5780636817c76c14611bec57806370a0823114611b55578063715018a614611b0a5780637978d4511461196e5780637b3d6e56146119415780638129fc1c146112ea5780638da5cb5b146112c15780639333174a14610a7d57806395d89b41146109af5780639c30ad8514610990578063a22cb465146108c2578063b75f1aef146106a4578063b88d4fde146105f7578063c1eea4a0146105c5578063c3753d7014610598578063c87b56dd146104ff578063cf348425146104d2578063d2f40d7914610420578063d3dd5fe0146103c5578063e0a8085314610333578063e725f87714610306578063e985e9c5146102b0578063f2824b531461026b5763f2fde38b146101d757600080fd5b34610266576020366003190112610266576101f0612181565b6101f86123ae565b6001600160a01b038116156102125761021090612406565b005b60405162461bcd60e51b815260206004820152602660248201527f4f776e61626c653a206e6577206f776e657220697320746865207a65726f206160448201526564647265737360d01b6064820152608490fd5b600080fd5b34610266576020366003190112610266576004356000526101056020526102ac6102986040600020612290565b60405191829160208352602083019061215c565b0390f35b34610266576040366003190112610266576102c9612181565b6102d1612197565b9060018060a01b03809116600052606a60205260406000209116600052602052602060ff604060002054166040519015158152f35b34610266576020366003190112610266576004356000526101046020526102ac6102986040600020612290565b34610266576020366003190112610266576004358015158091036102665760207f4a9768f4a343b5cd5d5319e6fe71e839c384e1f67a57e74631919d50c5d4d9539161037d6123ae565b60fe5461ff008260081b169061ff0019161760fe55604051908152a161010054806103a457005b6040600080516020613ac883398151915291815190600182526020820152a1005b34610266576000366003190112610266576103de6123ae565b7fb304fe5dd2d3c45e8ec87c1dd1bd2b3a773b3135e84a7b9151f5fb4bf1a06d0e602060fe5460ff8082161516809160ff19161760fe556040519015158152a1005b34610266576040366003190112610266576004356024356001600160401b03811161026657600080516020613b48833981519152916104b76104686020933690600401612336565b90610471612b15565b831515806104c5575b61048390612bb6565b61049f61048f85612484565b6001600160a01b03163314612bf2565b6104b16104ac838361395b565b612a6c565b83612c30565b604051908152a1600160c955005b506101005484111561047a565b34610266576020366003190112610266576004356000526101036020526102ac6102986040600020612290565b34610266576020366003190112610266576102ac6105386105336004358015158061058b575b61052e90612bb6565b612ee1565b612d8d565b610298603d60405180937f646174613a6170706c69636174696f6e2f6a736f6e3b6261736536342c000000602083015261057b8151809260208686019101612139565b810103601d81018452018261226d565b5061010054811115610525565b34610266576020366003190112610266576004356000526101016020526020604060002054604051908152f35b3461026657602036600319011261026657600435600052610107602052602060ff604060002054166040519015158152f35b3461026657608036600319011261026657610610612181565b610618612197565b90606435906044356001600160401b03831161026657366023840112156102665782600401359361064885612393565b92610656604051948561226d565b858452366024878701011161026657600060208761021098602461069f9901838901378601015261068f61068a84336125af565b6124d6565b61069a838383612677565b6128ae565b61258b565b3461026657602080600319360112610266576001600160401b03600435818111610266576106d6903690600401612336565b90916106e06123ae565b811561088057811161086a5760ff906106f982546121e2565b601f811161082f575b50600092601f82116001146107b75760409082600080516020613aa883398151915294956000916107ac575b508360011b906000198560031b1c19161785555b8282519384928884528189850152848401376000828201840152601f01601f19168101030190a160fe5460081c1615806107a0575b61077d57005b6040600080516020613ac8833981519152916101005482519160018352820152a1005b50610100541515610777565b90508101358761072e565b601f1982169383600052856000209460005b87828210610819575050946040929184600080516020613aa88339815191529697106107ff575b5050600183811b018555610742565b820135600019600386901b60f8161c1916905586806107f0565b83850135885560019097019692830192016107c9565b61085a908360005285600020601f840160051c810191878510610860575b601f0160051c0190612935565b84610702565b909150819061084d565b634e487b7160e01b600052604160045260246000fd5b60405162461bcd60e51b815260048101859052601a602482015279141b1858d95a1bdb19195c881a5b5859d9481c995c5d5a5c995960321b6044820152606490fd5b34610266576040366003190112610266576108db612181565b60243590811515809203610266576001600160a01b03169033821461094f5733600052606a602052604060002082600052602052604060002060ff1981541660ff83161790556040519081527f17307eab39ab6107e8899845ad3d59bd9653f200f220920489ca2b5937696c3160203392a3005b60405162461bcd60e51b815260206004820152601960248201527822a9219b99189d1030b8383937bb32903a379031b0b63632b960391b6044820152606490fd5b34610266576020366003190112610266576102ac610298600435612ee1565b34610266576000366003190112610266576040516000906066546109d2816121e2565b808352600191808316908115610a5557506001146109fb575b6102ac836102988187038261226d565b6066600090815260209450917f46501879b8ca8525e8c2fd519e2fbfcfa2ebea26501294aa02cbfcfb12e943545b828410610a4257505050810190910190610298816109eb565b8054858501870152928501928101610a29565b6102ac955061029893506020915091849260ff191682840152151560051b82010193506109eb565b60a0366003190112610266576024356001600160401b03811161026657610aa8903690600401612363565b906044356001600160401b03811161026657610ac8903690600401612363565b906064356001600160401b03811161026657610ae8903690600401612363565b6084356001600160401b03811161026657610b07903690600401612363565b939094610b12612b15565b60ff60fe541615611287576004351561124b5787600435036112065780600435036111c157826004350361117057846004350361111c57610b58600435610100546129e6565b60fb54106110e25733600052610102602052610b7b6004356040600020546129e6565b60fc54106110a457610b9160043560fd54612a09565b34106110685760005b6004358110610bfa57610bb160043560fd54612a09565b803411610bc0575b600160c955005b60008080610bcf819434612b08565b818115610bf1575b3390f115610be55780610bb9565b6040513d6000823e3d90fd5b506108fc610bd7565b610c116104ac610c0b838c8c612a2b565b9061395b565b610c28610c1f828688612a2b565b90501515612ac6565b610c3461010054612a1c565b9081610100556040518260208201523360601b60408201524460548201524260748201526094828183015281528060c081011060018060401b0360c08301111761086a5760c081016040526020815191012082600052610101602052604060002055610ca1818b8b612a2b565b600084815261010360205260409020916001600160401b03821161086a578190610cd582610ccf86546121e2565b8661294c565b600090601f8311600114610ffe57600092610ff3575b50508160011b916000199060031b1c19161790555b610d0b818486612a2b565b600084815261010460205260409020916001600160401b03821161086a578190610d3982610ccf86546121e2565b600090601f8311600114610f8957600092610f7e575b50508160011b916000199060031b1c19161790555b610d6f818688612a2b565b600084815261010560205260409020916001600160401b03821161086a578190610d9d82610ccf86546121e2565b600090601f8311600114610f1457600092610f09575b50508160011b916000199060031b1c19161790555b86811015610ef357816000526101066020528060051b880135604060002055336000526101026020526040600020610e008154612a1c565b905560405191610e0f8361221c565b600083523315610eaf57602081610e9e61069f610eaa96610e47610e41600080516020613b4883398151915297612773565b15612b6b565b610e53610e4185612773565b3360008181526068875260408082208054600101905586825260678852812080546001600160a01b03191683179055859190600080516020613b088339815191528180a48333612790565b604051908152a1612a1c565b610b9a565b606460405162461bcd60e51b815260206004820152602060248201527f4552433732313a206d696e7420746f20746865207a65726f20616464726573736044820152fd5b634e487b7160e01b600052603260045260246000fd5b013590508d80610db3565b909150601f19831691846000528360206000209360005b818110610f63575010610f49575b505050600190811b019055610dc8565b0135600019600384901b60f8161c191690558c8080610f39565b84840135865560019095019460209384019387935001610f2b565b013590508d80610d4f565b9091508360005260206000209160005b601f1985168110610fdb575083601f19811610610fc1575b505050600190811b019055610d64565b0135600019600384901b60f8161c191690558c8080610fb1565b90926020600181928686013581550194019101610f99565b013590508d80610ceb565b9091508360005260206000209160005b601f1985168110611050575083601f19811610611036575b505050600190811b019055610d00565b0135600019600384901b60f8161c191690558c8080611026565b9092602060018192868601358155019401910161100e565b60405162461bcd60e51b8152602060048201526014602482015273125b9cdd59999a58da595b9d081c185e5b595b9d60621b6044820152606490fd5b60405162461bcd60e51b8152602060048201526016602482015275115e18d959591cc81b585e081c195c881dd85b1b195d60521b6044820152606490fd5b60405162461bcd60e51b815260206004820152601260248201527145786365656473206d617820737570706c7960701b6044820152606490fd5b60405162461bcd60e51b815260206004820152602660248201527f4d7573742070726f76696465207261726974792073636f726520666f7220656160448201526518da0813919560d21b6064820152608490fd5b60405162461bcd60e51b8152602060048201526024808201527f4d7573742070726f76696465206174747269627574657320666f7220656163686044820152630813919560e21b6064820152608490fd5b60405162461bcd60e51b815260206004820152601e60248201527f4d7573742070726f76696465206e616d6520666f722065616368204e465400006044820152606490fd5b60405162461bcd60e51b815260206004820152601f60248201527f4d7573742070726f7669646520696d61676520666f722065616368204e4654006044820152606490fd5b60405162461bcd60e51b81526020600482015260146024820152734d757374206d696e74206174206c65617374203160601b6044820152606490fd5b60405162461bcd60e51b81526020600482015260126024820152714d696e74696e67206e6f742061637469766560701b6044820152606490fd5b34610266576000366003190112610266576097546040516001600160a01b039091168152602090f35b346102665760003660031901126102665760005460ff808260081c1615808091611935575b801561191f575b156118c357600192818460ff198316176000556118b1575b5060405161133b81612237565b600d81526020926c386269742050656e6775696e7360981b848301526040519161136483612237565b60059283815264038424954560dc1b868201526113908360005460081c1661138b81612986565b612986565b81516001600160401b03919082811161086a57806113af6065546121e2565b94601f958a878211611879575b5050899086831160011461181457600092611809575b5050600019600383901b1c191690891b176065555b805191821161086a576113fb6066546121e2565b8381116117d2575b5086908383116001146117545791806a3a32bc3a1f1e17b9bb339f60a91b969492600f9694600092611749575b5050600019600383901b1c191690891b176066555b6114598260005460081c1661138b81612986565b61146233612406565b6114768260005460081c1661138b81612986565b8760c955603260fb55603260fc55600060fd5561ffff1960fe541660fe5561149e82546121e2565b818111611727575b50506103d781556000527f272072783d273938272072793d27313232272066696c6c3d272532334338384685600020917f646174613a696d6167652f7376672b786d6c3b757466382c3c73766720786d6c83557f6e733d27687474703a2f2f7777772e77332e6f72672f323030302f7376672720888401557f76696577426f783d273020302034303020343030273e3c72656374207769647460028401557f683d2734303027206865696768743d27343030272066696c6c3d27253233384260038401557f30453241272f3e3c656c6c697073652063783d27323030272063793d2732303860048401558201557f3146272f3e3c656c6c697073652063783d27313836272063793d27313832272060068201557f72783d273532272072793d273730272066696c6c3d272532334546424634352760078201557f2f3e3c656c6c697073652063783d27323132272063793d27323238272072783d60088201557f273736272072793d273834272066696c6c3d2725323338463542313227206f7060098201557f61636974793d27302e3535272f3e3c7465787420783d273230302720793d2733600a8201557f3532272066696c6c3d272532334646464646462720666f6e742d73697a653d27600b8201557f32382720666f6e742d66616d696c793d274a6574427261696e73204d6f6e6f2c600c8201557f6d6f6e6f73706163652720666f6e742d7765696768743d273730302720746578600d8201557f742d616e63686f723d276d6964646c65273e386269742050656e6775696e3c2f600e82015501556116f157005b7f7f26b83ff96e1f2b6a682f133852f6798a09c465da95921460cefb38474024989161ff001960005416600055604051908152a1005b60106117429284600052896000209201851c82019101612935565b87806114a6565b015190508a80611430565b889291601f198316916066600052896000209260005b8b8282106117bc57505091600f97959391856a3a32bc3a1f1e17b9bb339f60a91b9a989694106117a3575b505050811b01606655611445565b015160001960f88460031b161c191690558a8080611795565b8385015186558d9790950194938401930161176a565b6117fa9060666000528860002085808601891c8201928b8710611800575b01881c0190612935565b88611403565b925081926117f0565b015190508a806113d2565b908b9350601f1983169160656000528b6000209260005b8d828210611863575050841161184a575b505050811b016065556113e7565b015160001960f88460031b161c191690558a808061183c565b8385015186558f9790950194938401930161182b565b6118a19160656000528882600020918187018d1c83019387106118a8575b018b1c0190612935565b8b8a6113bc565b92508192611897565b61ffff1916610101176000558361132e565b60405162461bcd60e51b815260206004820152602e60248201527f496e697469616c697a61626c653a20636f6e747261637420697320616c72656160448201526d191e481a5b9a5d1a585b1a5e995960921b6064820152608490fd5b50303b1580156113165750600182841614611316565b5060018284161061130f565b34610266576020366003190112610266576004356000526101066020526020604060002054604051908152f35b34610266576060366003190112610266576004356001600160401b03602435818111610266576119a2903690600401612336565b929091604435818111610266576119c0611a07913690600401612336565b9590946119cb612b15565b84151580611afd575b6119dd90612bb6565b6119e961048f86612484565b6119f66104ac838361395b565b611a01871515612ac6565b84612c30565b816000526020926101058452604060002091851161086a57611a3385611a2d84546121e2565b8461294c565b600090601f8611600114611a8857600080516020613b48833981519152959160009183611a7d575b50508160011b916000199060031b1c1916179055604051908152a1600160c955005b013590508680611a5b565b601f1986169183600052856000209260005b818110611ae65750916001939188600080516020613b48833981519152999410611acc575b505050811b0190556104b7565b0135600019600384901b60f8161c19169055868080611abf565b919387600181928787013581550195019201611a9a565b50610100548511156119d4565b3461026657600036600319011261026657611b236123ae565b609780546001600160a01b031981169091556000906001600160a01b0316600080516020613ae88339815191528280a3005b34610266576020366003190112610266576001600160a01b03611b76612181565b168015611b955760005260686020526020604060002054604051908152f35b60405162461bcd60e51b815260206004820152602960248201527f4552433732313a2061646472657373207a65726f206973206e6f7420612076616044820152683634b21037bbb732b960b91b6064820152608490fd5b3461026657600036600319011261026657602060fd54604051908152f35b34610266576020366003190112610266576020611c28600435612484565b6040516001600160a01b039091168152f35b3461026657600036600319011261026657602060ff60fe5460081c166040519015158152f35b346102665760003660031901126102665760405160009060ff54611c83816121e2565b808352600191808316908115610a555750600114611cab576102ac836102988187038261226d565b60ff600090815260209450917fe08ec2af2cfc251225e1968fd6ca21e4044f129bffa95bac3503be8bdb30a3675b828410611cf257505050810190910190610298816109eb565b8054858501870152928501928101611cd9565b346102665761021061069f611d19366121ad565b9060405192611d278461221c565b6000845261068f61068a84336125af565b3461026657600036600319011261026657611d516123ae565b600080808060018060a01b03609754164790828215611d73575bf115610be557005b506108fc611d6b565b34610266576020366003190112610266576001600160a01b03611d9d612181565b166000526101026020526020604060002054604051908152f35b3461026657600036600319011261026657602060fb54604051908152f35b34610266576020366003190112610266576020611df360043561389b565b604051908152f35b3461026657600036600319011261026657602060ff60fe54166040519015158152f35b3461026657610210611e2f366121ad565b91611e3d61068a84336125af565b612677565b3461026657600036600319011261026657602061010054604051908152f35b3461026657600036600319011261026657602060fc54604051908152f35b3461026657604036600319011261026657611e98612181565b602435906001600160a01b038080611eaf85612484565b16921691808314611faa57803314908115611f85575b5015611f1a57600083815260696020526040902080546001600160a01b03191683179055611ef283612484565b167f8c5be1e5ebec7d5bd14f71427d1e84f3dd0314c0f7b2291e5b200ac8c7c3b925600080a4005b60405162461bcd60e51b815260206004820152603d60248201527f4552433732313a20617070726f76652063616c6c6572206973206e6f7420746f60448201527f6b656e206f776e6572206f7220617070726f76656420666f7220616c6c0000006064820152608490fd5b9050600052606a60205260406000203360005260205260ff6040600020541684611ec5565b60405162461bcd60e51b815260206004820152602160248201527f4552433732313a20617070726f76616c20746f2063757272656e74206f776e656044820152603960f91b6064820152608490fd5b34610266576020366003190112610266576020611c286004356124aa565b346102665760003660031901126102665760405160009060655461203a816121e2565b808352600191808316908115610a555750600114612062576102ac836102988187038261226d565b6065600090815260209450917f8ff97419363ffd7000167f130ef7168fbea05faf9251824ca5043f113cc6a7c75b8284106120a957505050810190910190610298816109eb565b8054858501870152928501928101612090565b34610266576020366003190112610266576004359063ffffffff60e01b82168092036102665781602092159081156120f6575b5015158152f35b6380ac58cd60e01b811491508115612128575b8115612117575b50836120ef565b6301ffc9a760e01b14905083612110565b635b5e139f60e01b81149150612109565b60005b83811061214c5750506000910152565b818101518382015260200161213c565b9060209161217581518092818552858086019101612139565b601f01601f1916010190565b600435906001600160a01b038216820361026657565b602435906001600160a01b038216820361026657565b6060906003190112610266576001600160a01b0390600435828116810361026657916024359081168103610266579060443590565b90600182811c92168015612212575b60208310146121fc57565b634e487b7160e01b600052602260045260246000fd5b91607f16916121f1565b602081019081106001600160401b0382111761086a57604052565b604081019081106001600160401b0382111761086a57604052565b606081019081106001600160401b0382111761086a57604052565b601f909101601f19168101906001600160401b0382119082101761086a57604052565b90604051918260008254926122a4846121e2565b90818452600194858116908160001461231357506001146122d0575b50506122ce9250038361226d565b565b9093915060005260209081600020936000915b8183106122fb5750506122ce935082010138806122c0565b855488840185015294850194879450918301916122e3565b9150506122ce94506020925060ff191682840152151560051b82010138806122c0565b9181601f84011215610266578235916001600160401b038311610266576020838186019501011161026657565b9181601f84011215610266578235916001600160401b038311610266576020808501948460051b01011161026657565b6001600160401b03811161086a57601f01601f191660200190565b6097546001600160a01b031633036123c257565b606460405162461bcd60e51b815260206004820152602060248201527f4f776e61626c653a2063616c6c6572206973206e6f7420746865206f776e65726044820152fd5b609780546001600160a01b039283166001600160a01b031982168117909255909116600080516020613ae8833981519152600080a3565b1561244457565b60405162461bcd60e51b8152602060048201526018602482015277115490cdcc8c4e881a5b9d985b1a59081d1bdad95b88125160421b6044820152606490fd5b6000908152606760205260409020546001600160a01b03166124a781151561243d565b90565b6124bb6124b682612773565b61243d565b6000908152606960205260409020546001600160a01b031690565b156124dd57565b60405162461bcd60e51b815260206004820152602d60248201527f4552433732313a2063616c6c6572206973206e6f7420746f6b656e206f776e6560448201526c1c881bdc88185c1c1c9bdd9959609a1b6064820152608490fd5b60809060208152603260208201527f4552433732313a207472616e7366657220746f206e6f6e20455243373231526560408201527131b2b4bb32b91034b6b83632b6b2b73a32b960711b60608201520190565b1561259257565b60405162461bcd60e51b8152806125ab60048201612538565b0390fd5b906001600160a01b0380806125c384612484565b169316918383149384156125f6575b5083156125e0575b50505090565b6125ec919293506124aa565b16143880806125da565b909350600052606a60205260406000208260005260205260ff6040600020541692386125d2565b1561262457565b60405162461bcd60e51b815260206004820152602560248201527f4552433732313a207472616e736665722066726f6d20696e636f72726563742060448201526437bbb732b960d91b6064820152608490fd5b9061269f9161268584612484565b6001600160a01b039391841692849290918316841461261d565b1691821561272257816126bc916126b586612484565b161461261d565b600080516020613b08833981519152600084815260696020526040812060018060a01b03199081815416905583825260686020526040822060001981540190558482526040822060018154019055858252606760205284604083209182541617905580a4565b60405162461bcd60e51b8152602060048201526024808201527f4552433732313a207472616e7366657220746f20746865207a65726f206164646044820152637265737360e01b6064820152608490fd5b6000908152606760205260409020546001600160a01b0316151590565b91929091803b156128a5576127dd936040519081630a85bd0160e11b9384825233600483015260009687602484015260448301526080606483015281878160209a8b96608483019061215c565b03926001600160a01b03165af1849181612861575b50612850575050503d600014612848573d61280c81612393565b9061281a604051928361226d565b81528091833d92013e5b805191826128455760405162461bcd60e51b8152806125ab60048201612538565b01fd5b506060612824565b6001600160e01b0319161492509050565b9091508581813d831161289e575b612879818361226d565b8101031261289a57516001600160e01b03198116810361289a5790386127f2565b8480fd5b503d61286f565b50915050600190565b92939190803b1561292b57612900946040518092630a85bd0160e11b9485835233600484015260018060a01b03809816602484015260448301526080606483015281806020998a95608483019061215c565b03916000988991165af18491816128615750612850575050503d600014612848573d61280c81612393565b5050915050600190565b818110612940575050565b60008155600101612935565b9190601f811161295b57505050565b6122ce926000526020600020906020601f840160051c8301931061086057601f0160051c0190612935565b1561298d57565b60405162461bcd60e51b815260206004820152602b60248201527f496e697469616c697a61626c653a20636f6e7472616374206973206e6f74206960448201526a6e697469616c697a696e6760a81b6064820152608490fd5b919082018092116129f357565b634e487b7160e01b600052601160045260246000fd5b818102929181159184041417156129f357565b60001981146129f35760010190565b9190811015610ef35760051b81013590601e19813603018212156102665701803591906001600160401b038311610266576020018236038113610266579190565b15612a7357565b60405162461bcd60e51b815260206004820152602560248201527f496d616765206d75737420626520646174613a696d6167652f2a3b62617365366044820152641a1617171760d91b6064820152608490fd5b15612acd57565b60405162461bcd60e51b8152602060048201526013602482015272105d1d1c9a589d5d195cc81c995c5d5a5c9959606a1b6044820152606490fd5b919082039182116129f357565b600260c95414612b2657600260c955565b60405162461bcd60e51b815260206004820152601f60248201527f5265656e7472616e637947756172643a207265656e7472616e742063616c6c006044820152606490fd5b15612b7257565b60405162461bcd60e51b815260206004820152601c60248201527b115490cdcc8c4e881d1bdad95b88185b1c9958591e481b5a5b9d195960221b6044820152606490fd5b15612bbd57565b60405162461bcd60e51b815260206004820152600d60248201526c24b73b30b634b2103a37b5b2b760991b6044820152606490fd5b15612bf957565b60405162461bcd60e51b815260206004820152600f60248201526e2737ba103a37b5b2b71037bbb732b960891b6044820152606490fd5b6000818152610103602090815260408220919492939092906001600160401b038211612d4757612c6a82612c6485546121e2565b8561294c565b8590601f8311600114612ce05761010794939291879183612cd5575b50508160011b916000199060031b1c19161790555b8284525260408220600160ff198254161790557fe6bd40d7fbe8d26f44fd9e1ba6d94055a784eb2de4a192c015f84c86a73d225b339280a3565b013590503880612c86565b83875284872091601f198416885b818110612d3057509160019391856101079897969410612d16575b505050811b019055612c9b565b0135600019600384901b60f8161c19169055388080612d09565b919387600181928787013581550195019201612cee565b634e487b7160e01b86526041600452602486fd5b90612d6582612393565b612d72604051918261226d565b8281528092612d83601f1991612393565b0190602036910137565b805115612ecd5760405190612da182612252565b604082527f4142434445464748494a4b4c4d4e4f505152535455565758595a61626364656660208301527f6768696a6b6c6d6e6f707172737475767778797a303132333435363738392b2f604083015280516002918282018092116129f3576003918290046001600160fe1b03811681036129f357612e23908495941b612d5b565b936020850193829183518401906020820192835194600085525b838110612e7c575050505052510680600114612e6957600214612e5e575090565b603d90600019015390565b50603d9081600019820153600119015390565b87600491999293949901918251600190603f9082828260121c16880101518453828282600c1c16880101518385015382828260061c1688010151888501531685010151898201530197929190612e3d565b50604051612eda8161221c565b6000815290565b801515806133df575b612ef390612bb6565b60ff908160fe5460081c161561322d57609261304b926124a7926000918183526131696020916101038352604093612f2c858720612290565b958181526101048552612f40868220612290565b968282526101058652612f54878320612290565b9280835261010687528783205492612f6b8261389b565b958551156131e5575b828252612f8d61010796878b52828c852054169061353a565b95838352808a52818b842054166000146131ac578a51612fac81612252565b602981527f556e6971756520386269742050656e6775696e73206f6e2042617365202845768b820152686f6c7665642033442960b81b8c820152935b83528952908990205416156131825760296130266130208a5161300a81612237565b60048152637472756560e01b8b820152956133ec565b966133ec565b98519c8d809b683d913730b6b2911d1160b91b8b8301528a8151948593019101612139565b8901701116113232b9b1b934b83a34b7b7111d1160791b602982015261307a825180938a603a85019101612139565b016a11161134b6b0b3b2911d1160a91b603a8201526130a28251809389604585019101612139565b0170222c2272657665616c6564223a7472756560781b60458201526d161132bb37b63b32b22f99b2111d60911b60568201526130e78251809388606485019101612139565b016d161130ba3a3934b13aba32b9911d60911b60648201526131128251809387607285019101612139565b016f16113930b934ba3cafb9b1b7b932911d60811b607282015261313f8251809386608285019101612139565b01916e16113930b934ba3cafb930b735911d60891b60828401528351938491609185019101612139565b01607d60f81b609182015203607281018452018261226d565b60296130266130208a5161319581612237565b600581526466616c736560d81b8b820152956133ec565b8a516131b781612237565b601c81527b556e6971756520386269742050656e6775696e73206f6e204261736560201b8b82015293612fe8565b945088516131f281612252565b60368152600080516020613b288339815191528982015275223a224d65746164617461204d697373696e67227d5d60501b8a82015294612f74565b613236906133ec565b6040518092602092777b226e616d65223a22386269742050656e6775696e73202360401b848401526132718151809286603887019101612139565b8201907f222c226465736372697074696f6e223a22556e72657665616c6564203862697460388301527b102832b733bab4b7399037b7102130b9b291161134b6b0b3b2911d1160211b605883015260009181546132cd816121e2565b926001918083169081156133a65750600114613359575b505050509081600080516020613b288339815191526124a7947f222c2272657665616c6564223a66616c73652c2261747472696275746573223a606095528201527f223a224e6f2050726f706572747920756e74696c6c2052657665616c227d5d7d604082015203604081018452018261226d565b600090815286812093945091925b84831061338f575050500160740182600080516020613b2883398151915260606124a76132e4565b805484840160740152879550918601918101613367565b606097965060749350600080516020613b288339815191529492506124a79895915060ff191683830152801515020101929382956132e4565b5061010054811115612eea565b6000908072184f03e93ff9f4daa797ed6e38ed64bf6a1f0160401b8082101561351b575b506904ee2d6d415b85acef8160201b8083101561350c575b50662386f26fc10000808310156134fd575b506305f5e100808310156134ee575b50612710808310156134df575b5060648210156134cf575b600a809210156134c5575b60019081602161347d828701612d5b565b95860101905b61348f575b5050505090565b600019019083906f181899199a1a9b1b9c1cb0b131b232b360811b8282061a8353049182156134c057919082613483565b613488565b916001019161346c565b9190606460029104910191613461565b60049193920491019138613456565b60089193920491019138613449565b6010919392049101913861343a565b60209193920491019138613428565b604093508104915038613410565b908151811015610ef3570160200190565b90156124a757604080519061354e82612237565b6018825261357e60209277113a3930b4ba2fba3cb832911d1122bb37b63aba34b7b71160411b84820152846137eb565b6137e65782511580156137be575b61376b57825192835b6136d6575b831580156136a6575b61369f5760001984019384116129f3578051808511613697575b506135c784612393565b936135d48351958661226d565b8085526135e081612393565b8585019290601f1901368437600090815b8381106136675750505050926124a792827f2c7b2274726169745f74797065223a2245766f6c7574696f6e222c2276616c7561363a966051955197889551809286880190612139565b8401928301527065223a2245766f6c766564203344227d5d60781b9082015203603181018452018261226d565b613692906001600160f81b031961367e8285613529565b5116841a61368c828b613529565b53612a1c565b6135f1565b9350386135bd565b9250505090565b5060001984018481116129f357605d60f81b906001600160f81b0319906136cd9084613529565b511614156135a3565b92600019810190808211613756576001600160f81b03196136f78387613529565b5116600160fd1b8114908115613748575b811561373a575b811561372c575b501561372457509283613595565b93905061359a565b600d60f81b14905038613716565b600560f91b8114915061370f565b600960f81b81149150613708565b60246000634e487b7160e01b81526011600452fd5b9091507f5b7b2274726169745f74797065223a2245766f6c7574696f6e222c2276616c7581519261379b84612252565b603184528301527065223a2245766f6c766564203344227d5d60781b9082015290565b506137e181516137cd81612237565b60028152615b5d60f01b84820152846137eb565b61358c565b505090565b908051801561387a57825110613894576000905b61380c8351825190612b08565b821161388c5760019260005b8251811015613882576001600160f81b03198061383e61383884886129e6565b85613529565b51169061384b8386613529565b5116036138605761385b90612a1c565b613818565b5092509060005b61387a5761387490612a1c565b906137ff565b505050600190565b5092919091613867565b505050600090565b5050600090565b80151580613942575b6138ad90612bb6565b6000908082526101069160209183835260408083205492600195869561010054965b878111156138e257505050505050505090565b858114613906578084528282528484205487808211918215613929575b5050613914575b61390f90612a1c565b6138cf565b9761392161390f91612a1c565b989050613906565b14905080613939575b87386138ff565b50858110613932565b50610100548111156138a4565b90821015610ef3570190565b906040519061396982612237565b600b82526a646174613a696d6167652f60a81b60208301526040519261398e84612237565b60088452670ed8985cd94d8d0b60c21b60208501528251600881018091116129f357821115613a9e5760005b8351811015613a04576001600160f81b0319806139d883868661394f565b3516906139e58387613529565b5116036139fa576139f590612a1c565b6139ba565b5050505050600090565b509290919260009351925b80613a1b8451866129e6565b116134885760019460005b8451811015613a95576001600160f81b031980613a4d613a46848a6129e6565b868861394f565b351690613a5a8388613529565b511603613a6f57613a6a90612a1c565b613a26565b509390945060005b613a8b57613a8490612a1c565b9293613a0f565b5050505050600190565b50939094613a77565b5050505060009056fe9debbd008148f593b1d1f618a64b0d9561e522df1013cdcfd8c7302978119def6bd5c950a8d8df17f772f5af37cb3655737899cbf903264b9795592da439661c8be0079c531659141344cd1fd0a4f28419497f9722a3daafe3b4186f6b6457e0ddf252ad1be2c89b69c2b068fc378daa952ba7f163c4a11628f55a4df523b3ef5b7b2274726169745f74797065223a2250726f7065727479222c2276616c7565f8e1a15aba9398e019f0b49df1a4fde98ee17ae345cb5f6b5e2c27f5033e8ce7a264697066735822122015ae19095ba2b04454b7c4d733e7004623d6d011687b45e052fffb967f5b1ecc64736f6c63430008140033","opcodes":"PUSH1 0x80 DUP1 PUSH1 0x40 MSTORE CALLVALUE PUSH3 0xC6 JUMPI PUSH1 0x0 SLOAD SWAP1 PUSH1 0xFF DUP3 PUSH1 0x8 SHR AND PUSH3 0x74 JUMPI POP PUSH1 0xFF DUP1 DUP3 AND SUB PUSH3 0x38 JUMPI JUMPDEST PUSH1 0x40 MLOAD PUSH2 0x3B9D SWAP1 DUP2 PUSH3 0xCC DUP3 CODECOPY RETURN JUMPDEST PUSH1 0xFF SWAP1 DUP2 NOT AND OR PUSH1 0x0 SSTORE PUSH32 0x7F26B83FF96E1F2B6A682F133852F6798A09C465DA95921460CEFB3847402498 PUSH1 0x20 PUSH1 0x40 MLOAD PUSH1 0xFF DUP2 MSTORE LOG1 CODESIZE PUSH3 0x28 JUMP JUMPDEST PUSH3 0x461BCD PUSH1 0xE5 SHL DUP2 MSTORE PUSH1 0x20 PUSH1 0x4 DUP3 ADD MSTORE PUSH1 0x27 PUSH1 0x24 DUP3 ADD MSTORE PUSH32 0x496E697469616C697A61626C653A20636F6E747261637420697320696E697469 PUSH1 0x44 DUP3 ADD MSTORE PUSH7 0x616C697A696E67 PUSH1 0xC8 SHL PUSH1 0x64 DUP3 ADD MSTORE PUSH1 0x84 SWAP1 REVERT JUMPDEST PUSH1 0x0 DUP1 REVERT INVALID PUSH1 0x80 DUP1 PUSH1 0x40 MSTORE PUSH1 0x4 CALLDATASIZE LT ISZERO PUSH2 0x13 JUMPI PUSH1 0x0 DUP1 REVERT JUMPDEST PUSH1 0x0 CALLDATALOAD PUSH1 0xE0 SHR SWAP1 DUP2 PUSH4 0x1FFC9A7 EQ PUSH2 0x20BC JUMPI POP DUP1 PUSH4 0x6FDDE03 EQ PUSH2 0x2017 JUMPI DUP1 PUSH4 0x81812FC EQ PUSH2 0x1FF9 JUMPI DUP1 PUSH4 0x95EA7B3 EQ PUSH2 0x1E7F JUMPI DUP1 PUSH4 0xF2CDD6C EQ PUSH2 0x1E61 JUMPI DUP1 PUSH4 0x18160DDD EQ PUSH2 0x1E42 JUMPI DUP1 PUSH4 0x23B872DD EQ PUSH2 0x1E1E JUMPI DUP1 PUSH4 0x25FD90F3 EQ PUSH2 0x1DFB JUMPI DUP1 PUSH4 0x29C1605F EQ PUSH2 0x1DD5 JUMPI DUP1 PUSH4 0x32CB6B0C EQ PUSH2 0x1DB7 JUMPI DUP1 PUSH4 0x3A602B4D EQ PUSH2 0x1D7C JUMPI DUP1 PUSH4 0x3CCFD60B EQ PUSH2 0x1D38 JUMPI DUP1 PUSH4 0x42842E0E EQ PUSH2 0x1D05 JUMPI DUP1 PUSH4 0x448D8C5C EQ PUSH2 0x1C60 JUMPI DUP1 PUSH4 0x51830227 EQ PUSH2 0x1C3A JUMPI DUP1 PUSH4 0x6352211E EQ PUSH2 0x1C0A JUMPI DUP1 PUSH4 0x6817C76C EQ PUSH2 0x1BEC JUMPI DUP1 PUSH4 0x70A08231 EQ PUSH2 0x1B55 JUMPI DUP1 PUSH4 0x715018A6 EQ PUSH2 0x1B0A JUMPI DUP1 PUSH4 0x7978D451 EQ PUSH2 0x196E JUMPI DUP1 PUSH4 0x7B3D6E56 EQ PUSH2 0x1941 JUMPI DUP1 PUSH4 0x8129FC1C EQ PUSH2 0x12EA JUMPI DUP1 PUSH4 0x8DA5CB5B EQ PUSH2 0x12C1 JUMPI DUP1 PUSH4 0x9333174A EQ PUSH2 0xA7D JUMPI DUP1 PUSH4 0x95D89B41 EQ PUSH2 0x9AF JUMPI DUP1 PUSH4 0x9C30AD85 EQ PUSH2 0x990 JUMPI DUP1 PUSH4 0xA22CB465 EQ PUSH2 0x8C2 JUMPI DUP1 PUSH4 0xB75F1AEF EQ PUSH2 0x6A4 JUMPI DUP1 PUSH4 0xB88D4FDE EQ PUSH2 0x5F7 JUMPI DUP1 PUSH4 0xC1EEA4A0 EQ PUSH2 0x5C5 JUMPI DUP1 PUSH4 0xC3753D70 EQ PUSH2 0x598 JUMPI DUP1 PUSH4 0xC87B56DD EQ PUSH2 0x4FF JUMPI DUP1 PUSH4 0xCF348425 EQ PUSH2 0x4D2 JUMPI DUP1 PUSH4 0xD2F40D79 EQ PUSH2 0x420 JUMPI DUP1 PUSH4 0xD3DD5FE0 EQ PUSH2 0x3C5 JUMPI DUP1 PUSH4 0xE0A80853 EQ PUSH2 0x333 JUMPI DUP1 PUSH4 0xE725F877 EQ PUSH2 0x306 JUMPI DUP1 PUSH4 0xE985E9C5 EQ PUSH2 0x2B0 JUMPI DUP1 PUSH4 0xF2824B53 EQ PUSH2 0x26B JUMPI PUSH4 0xF2FDE38B EQ PUSH2 0x1D7 JUMPI PUSH1 0x0 DUP1 REVERT JUMPDEST CALLVALUE PUSH2 0x266 JUMPI PUSH1 0x20 CALLDATASIZE PUSH1 0x3 NOT ADD SLT PUSH2 0x266 JUMPI PUSH2 0x1F0 PUSH2 0x2181 JUMP JUMPDEST PUSH2 0x1F8 PUSH2 0x23AE JUMP JUMPDEST PUSH1 0x1 PUSH1 0x1 PUSH1 0xA0 SHL SUB DUP2 AND ISZERO PUSH2 0x212 JUMPI PUSH2 0x210 SWAP1 PUSH2 0x2406 JUMP JUMPDEST STOP JUMPDEST PUSH1 0x40 MLOAD PUSH3 0x461BCD PUSH1 0xE5 SHL DUP2 MSTORE PUSH1 0x20 PUSH1 0x4 DUP3 ADD MSTORE PUSH1 0x26 PUSH1 0x24 DUP3 ADD MSTORE PUSH32 0x4F776E61626C653A206E6577206F776E657220697320746865207A65726F2061 PUSH1 0x44 DUP3 ADD MSTORE PUSH6 0x646472657373 PUSH1 0xD0 SHL PUSH1 0x64 DUP3 ADD MSTORE PUSH1 0x84 SWAP1 REVERT JUMPDEST PUSH1 0x0 DUP1 REVERT JUMPDEST CALLVALUE PUSH2 0x266 JUMPI PUSH1 0x20 CALLDATASIZE PUSH1 0x3 NOT ADD SLT PUSH2 0x266 JUMPI PUSH1 0x4 CALLDATALOAD PUSH1 0x0 MSTORE PUSH2 0x105 PUSH1 0x20 MSTORE PUSH2 0x2AC PUSH2 0x298 PUSH1 0x40 PUSH1 0x0 KECCAK256 PUSH2 0x2290 JUMP JUMPDEST PUSH1 0x40 MLOAD SWAP2 DUP3 SWAP2 PUSH1 0x20 DUP4 MSTORE PUSH1 0x20 DUP4 ADD SWAP1 PUSH2 0x215C JUMP JUMPDEST SUB SWAP1 RETURN JUMPDEST CALLVALUE PUSH2 0x266 JUMPI PUSH1 0x40 CALLDATASIZE PUSH1 0x3 NOT ADD SLT PUSH2 0x266 JUMPI PUSH2 0x2C9 PUSH2 0x2181 JUMP JUMPDEST PUSH2 0x2D1 PUSH2 0x2197 JUMP JUMPDEST SWAP1 PUSH1 0x1 DUP1 PUSH1 0xA0 SHL SUB DUP1 SWAP2 AND PUSH1 0x0 MSTORE PUSH1 0x6A PUSH1 0x20 MSTORE PUSH1 0x40 PUSH1 0x0 KECCAK256 SWAP2 AND PUSH1 0x0 MSTORE PUSH1 0x20 MSTORE PUSH1 0x20 PUSH1 0xFF PUSH1 0x40 PUSH1 0x0 KECCAK256 SLOAD AND PUSH1 0x40 MLOAD SWAP1 ISZERO ISZERO DUP2 MSTORE RETURN JUMPDEST CALLVALUE PUSH2 0x266 JUMPI PUSH1 0x20 CALLDATASIZE PUSH1 0x3 NOT ADD SLT PUSH2 0x266 JUMPI PUSH1 0x4 CALLDATALOAD PUSH1 0x0 MSTORE PUSH2 0x104 PUSH1 0x20 MSTORE PUSH2 0x2AC PUSH2 0x298 PUSH1 0x40 PUSH1 0x0 KECCAK256 PUSH2 0x2290 JUMP JUMPDEST CALLVALUE PUSH2 0x266 JUMPI PUSH1 0x20 CALLDATASIZE PUSH1 0x3 NOT ADD SLT PUSH2 0x266 JUMPI PUSH1 0x4 CALLDATALOAD DUP1 ISZERO ISZERO DUP1 SWAP2 SUB PUSH2 0x266 JUMPI PUSH1 0x20 PUSH32 0x4A9768F4A343B5CD5D5319E6FE71E839C384E1F67A57E74631919D50C5D4D953 SWAP2 PUSH2 0x37D PUSH2 0x23AE JUMP JUMPDEST PUSH1 0xFE SLOAD PUSH2 0xFF00 DUP3 PUSH1 0x8 SHL AND SWAP1 PUSH2 0xFF00 NOT AND OR PUSH1 0xFE SSTORE PUSH1 0x40 MLOAD SWAP1 DUP2 MSTORE LOG1 PUSH2 0x100 SLOAD DUP1 PUSH2 0x3A4 JUMPI STOP JUMPDEST PUSH1 0x40 PUSH1 0x0 DUP1 MLOAD PUSH1 0x20 PUSH2 0x3AC8 DUP4 CODECOPY DUP2 MLOAD SWAP2 MSTORE SWAP2 DUP2 MLOAD SWAP1 PUSH1 0x1 DUP3 MSTORE PUSH1 0x20 DUP3 ADD MSTORE LOG1 STOP JUMPDEST CALLVALUE PUSH2 0x266 JUMPI PUSH1 0x0 CALLDATASIZE PUSH1 0x3 NOT ADD SLT PUSH2 0x266 JUMPI PUSH2 0x3DE PUSH2 0x23AE JUMP JUMPDEST PUSH32 0xB304FE5DD2D3C45E8EC87C1DD1BD2B3A773B3135E84A7B9151F5FB4BF1A06D0E PUSH1 0x20 PUSH1 0xFE SLOAD PUSH1 0xFF DUP1 DUP3 AND ISZERO AND DUP1 SWAP2 PUSH1 0xFF NOT AND OR PUSH1 0xFE SSTORE PUSH1 0x40 MLOAD SWAP1 ISZERO ISZERO DUP2 MSTORE LOG1 STOP JUMPDEST CALLVALUE PUSH2 0x266 JUMPI PUSH1 0x40 CALLDATASIZE PUSH1 0x3 NOT ADD SLT PUSH2 0x266 JUMPI PUSH1 0x4 CALLDATALOAD PUSH1 0x24 CALLDATALOAD PUSH1 0x1 PUSH1 0x1 PUSH1 0x40 SHL SUB DUP2 GT PUSH2 0x266 JUMPI PUSH1 0x0 DUP1 MLOAD PUSH1 0x20 PUSH2 0x3B48 DUP4 CODECOPY DUP2 MLOAD SWAP2 MSTORE SWAP2 PUSH2 0x4B7 PUSH2 0x468 PUSH1 0x20 SWAP4 CALLDATASIZE SWAP1 PUSH1 0x4 ADD PUSH2 0x2336 JUMP JUMPDEST SWAP1 PUSH2 0x471 PUSH2 0x2B15 JUMP JUMPDEST DUP4 ISZERO ISZERO DUP1 PUSH2 0x4C5 JUMPI JUMPDEST PUSH2 0x483 SWAP1 PUSH2 0x2BB6 JUMP JUMPDEST PUSH2 0x49F PUSH2 0x48F DUP6 PUSH2 0x2484 JUMP JUMPDEST PUSH1 0x1 PUSH1 0x1 PUSH1 0xA0 SHL SUB AND CALLER EQ PUSH2 0x2BF2 JUMP JUMPDEST PUSH2 0x4B1 PUSH2 0x4AC DUP4 DUP4 PUSH2 0x395B JUMP JUMPDEST PUSH2 0x2A6C JUMP JUMPDEST DUP4 PUSH2 0x2C30 JUMP JUMPDEST PUSH1 0x40 MLOAD SWAP1 DUP2 MSTORE LOG1 PUSH1 0x1 PUSH1 0xC9 SSTORE STOP JUMPDEST POP PUSH2 0x100 SLOAD DUP5 GT ISZERO PUSH2 0x47A JUMP JUMPDEST CALLVALUE PUSH2 0x266 JUMPI PUSH1 0x20 CALLDATASIZE PUSH1 0x3 NOT ADD SLT PUSH2 0x266 JUMPI PUSH1 0x4 CALLDATALOAD PUSH1 0x0 MSTORE PUSH2 0x103 PUSH1 0x20 MSTORE PUSH2 0x2AC PUSH2 0x298 PUSH1 0x40 PUSH1 0x0 KECCAK256 PUSH2 0x2290 JUMP JUMPDEST CALLVALUE PUSH2 0x266 JUMPI PUSH1 0x20 CALLDATASIZE PUSH1 0x3 NOT ADD SLT PUSH2 0x266 JUMPI PUSH2 0x2AC PUSH2 0x538 PUSH2 0x533 PUSH1 0x4 CALLDATALOAD DUP1 ISZERO ISZERO DUP1 PUSH2 0x58B JUMPI JUMPDEST PUSH2 0x52E SWAP1 PUSH2 0x2BB6 JUMP JUMPDEST PUSH2 0x2EE1 JUMP JUMPDEST PUSH2 0x2D8D JUMP JUMPDEST PUSH2 0x298 PUSH1 0x3D PUSH1 0x40 MLOAD DUP1 SWAP4 PUSH32 0x646174613A6170706C69636174696F6E2F6A736F6E3B6261736536342C000000 PUSH1 0x20 DUP4 ADD MSTORE PUSH2 0x57B DUP2 MLOAD DUP1 SWAP3 PUSH1 0x20 DUP7 DUP7 ADD SWAP2 ADD PUSH2 0x2139 JUMP JUMPDEST DUP2 ADD SUB PUSH1 0x1D DUP2 ADD DUP5 MSTORE ADD DUP3 PUSH2 0x226D JUMP JUMPDEST POP PUSH2 0x100 SLOAD DUP2 GT ISZERO PUSH2 0x525 JUMP JUMPDEST CALLVALUE PUSH2 0x266 JUMPI PUSH1 0x20 CALLDATASIZE PUSH1 0x3 NOT ADD SLT PUSH2 0x266 JUMPI PUSH1 0x4 CALLDATALOAD PUSH1 0x0 MSTORE PUSH2 0x101 PUSH1 0x20 MSTORE PUSH1 0x20 PUSH1 0x40 PUSH1 0x0 KECCAK256 SLOAD PUSH1 0x40 MLOAD SWAP1 DUP2 MSTORE RETURN JUMPDEST CALLVALUE PUSH2 0x266 JUMPI PUSH1 0x20 CALLDATASIZE PUSH1 0x3 NOT ADD SLT PUSH2 0x266 JUMPI PUSH1 0x4 CALLDATALOAD PUSH1 0x0 MSTORE PUSH2 0x107 PUSH1 0x20 MSTORE PUSH1 0x20 PUSH1 0xFF PUSH1 0x40 PUSH1 0x0 KECCAK256 SLOAD AND PUSH1 0x40 MLOAD SWAP1 ISZERO ISZERO DUP2 MSTORE RETURN JUMPDEST CALLVALUE PUSH2 0x266 JUMPI PUSH1 0x80 CALLDATASIZE PUSH1 0x3 NOT ADD SLT PUSH2 0x266 JUMPI PUSH2 0x610 PUSH2 0x2181 JUMP JUMPDEST PUSH2 0x618 PUSH2 0x2197 JUMP JUMPDEST SWAP1 PUSH1 0x64 CALLDATALOAD SWAP1 PUSH1 0x44 CALLDATALOAD PUSH1 0x1 PUSH1 0x1 PUSH1 0x40 SHL SUB DUP4 GT PUSH2 0x266 JUMPI CALLDATASIZE PUSH1 0x23 DUP5 ADD SLT ISZERO PUSH2 0x266 JUMPI DUP3 PUSH1 0x4 ADD CALLDATALOAD SWAP4 PUSH2 0x648 DUP6 PUSH2 0x2393 JUMP JUMPDEST SWAP3 PUSH2 0x656 PUSH1 0x40 MLOAD SWAP5 DUP6 PUSH2 0x226D JUMP JUMPDEST DUP6 DUP5 MSTORE CALLDATASIZE PUSH1 0x24 DUP8 DUP8 ADD ADD GT PUSH2 0x266 JUMPI PUSH1 0x0 PUSH1 0x20 DUP8 PUSH2 0x210 SWAP9 PUSH1 0x24 PUSH2 0x69F SWAP10 ADD DUP4 DUP10 ADD CALLDATACOPY DUP7 ADD ADD MSTORE PUSH2 0x68F PUSH2 0x68A DUP5 CALLER PUSH2 0x25AF JUMP JUMPDEST PUSH2 0x24D6 JUMP JUMPDEST PUSH2 0x69A DUP4 DUP4 DUP4 PUSH2 0x2677 JUMP JUMPDEST PUSH2 0x28AE JUMP JUMPDEST PUSH2 0x258B JUMP JUMPDEST CALLVALUE PUSH2 0x266 JUMPI PUSH1 0x20 DUP1 PUSH1 0x3 NOT CALLDATASIZE ADD SLT PUSH2 0x266 JUMPI PUSH1 0x1 PUSH1 0x1 PUSH1 0x40 SHL SUB PUSH1 0x4 CALLDATALOAD DUP2 DUP2 GT PUSH2 0x266 JUMPI PUSH2 0x6D6 SWAP1 CALLDATASIZE SWAP1 PUSH1 0x4 ADD PUSH2 0x2336 JUMP JUMPDEST SWAP1 SWAP2 PUSH2 0x6E0 PUSH2 0x23AE JUMP JUMPDEST DUP2 ISZERO PUSH2 0x880 JUMPI DUP2 GT PUSH2 0x86A JUMPI PUSH1 0xFF SWAP1 PUSH2 0x6F9 DUP3 SLOAD PUSH2 0x21E2 JUMP JUMPDEST PUSH1 0x1F DUP2 GT PUSH2 0x82F JUMPI JUMPDEST POP PUSH1 0x0 SWAP3 PUSH1 0x1F DUP3 GT PUSH1 0x1 EQ PUSH2 0x7B7 JUMPI PUSH1 0x40 SWAP1 DUP3 PUSH1 0x0 DUP1 MLOAD PUSH1 0x20 PUSH2 0x3AA8 DUP4 CODECOPY DUP2 MLOAD SWAP2 MSTORE SWAP5 SWAP6 PUSH1 0x0 SWAP2 PUSH2 0x7AC JUMPI JUMPDEST POP DUP4 PUSH1 0x1 SHL SWAP1 PUSH1 0x0 NOT DUP6 PUSH1 0x3 SHL SHR NOT AND OR DUP6 SSTORE JUMPDEST DUP3 DUP3 MLOAD SWAP4 DUP5 SWAP3 DUP9 DUP5 MSTORE DUP2 DUP10 DUP6 ADD MSTORE DUP5 DUP5 ADD CALLDATACOPY PUSH1 0x0 DUP3 DUP3 ADD DUP5 ADD MSTORE PUSH1 0x1F ADD PUSH1 0x1F NOT AND DUP2 ADD SUB ADD SWAP1 LOG1 PUSH1 0xFE SLOAD PUSH1 0x8 SHR AND ISZERO DUP1 PUSH2 0x7A0 JUMPI JUMPDEST PUSH2 0x77D JUMPI STOP JUMPDEST PUSH1 0x40 PUSH1 0x0 DUP1 MLOAD PUSH1 0x20 PUSH2 0x3AC8 DUP4 CODECOPY DUP2 MLOAD SWAP2 MSTORE SWAP2 PUSH2 0x100 SLOAD DUP3 MLOAD SWAP2 PUSH1 0x1 DUP4 MSTORE DUP3 ADD MSTORE LOG1 STOP JUMPDEST POP PUSH2 0x100 SLOAD ISZERO ISZERO PUSH2 0x777 JUMP JUMPDEST SWAP1 POP DUP2 ADD CALLDATALOAD DUP8 PUSH2 0x72E JUMP JUMPDEST PUSH1 0x1F NOT DUP3 AND SWAP4 DUP4 PUSH1 0x0 MSTORE DUP6 PUSH1 0x0 KECCAK256 SWAP5 PUSH1 0x0 JUMPDEST DUP8 DUP3 DUP3 LT PUSH2 0x819 JUMPI POP POP SWAP5 PUSH1 0x40 SWAP3 SWAP2 DUP5 PUSH1 0x0 DUP1 MLOAD PUSH1 0x20 PUSH2 0x3AA8 DUP4 CODECOPY DUP2 MLOAD SWAP2 MSTORE SWAP7 SWAP8 LT PUSH2 0x7FF JUMPI JUMPDEST POP POP PUSH1 0x1 DUP4 DUP2 SHL ADD DUP6 SSTORE PUSH2 0x742 JUMP JUMPDEST DUP3 ADD CALLDATALOAD PUSH1 0x0 NOT PUSH1 0x3 DUP7 SWAP1 SHL PUSH1 0xF8 AND SHR NOT AND SWAP1 SSTORE DUP7 DUP1 PUSH2 0x7F0 JUMP JUMPDEST DUP4 DUP6 ADD CALLDATALOAD DUP9 SSTORE PUSH1 0x1 SWAP1 SWAP8 ADD SWAP7 SWAP3 DUP4 ADD SWAP3 ADD PUSH2 0x7C9 JUMP JUMPDEST PUSH2 0x85A SWAP1 DUP4 PUSH1 0x0 MSTORE DUP6 PUSH1 0x0 KECCAK256 PUSH1 0x1F DUP5 ADD PUSH1 0x5 SHR DUP2 ADD SWAP2 DUP8 DUP6 LT PUSH2 0x860 JUMPI JUMPDEST PUSH1 0x1F ADD PUSH1 0x5 SHR ADD SWAP1 PUSH2 0x2935 JUMP JUMPDEST DUP5 PUSH2 0x702 JUMP JUMPDEST SWAP1 SWAP2 POP DUP2 SWAP1 PUSH2 0x84D JUMP JUMPDEST PUSH4 0x4E487B71 PUSH1 0xE0 SHL PUSH1 0x0 MSTORE PUSH1 0x41 PUSH1 0x4 MSTORE PUSH1 0x24 PUSH1 0x0 REVERT JUMPDEST PUSH1 0x40 MLOAD PUSH3 0x461BCD PUSH1 0xE5 SHL DUP2 MSTORE PUSH1 0x4 DUP2 ADD DUP6 SWAP1 MSTORE PUSH1 0x1A PUSH1 0x24 DUP3 ADD MSTORE PUSH26 0x141B1858D95A1BDB19195C881A5B5859D9481C995C5D5A5C9959 PUSH1 0x32 SHL PUSH1 0x44 DUP3 ADD MSTORE PUSH1 0x64 SWAP1 REVERT JUMPDEST CALLVALUE PUSH2 0x266 JUMPI PUSH1 0x40 CALLDATASIZE PUSH1 0x3 NOT ADD SLT PUSH2 0x266 JUMPI PUSH2 0x8DB PUSH2 0x2181 JUMP JUMPDEST PUSH1 0x24 CALLDATALOAD SWAP1 DUP2 ISZERO ISZERO DUP1 SWAP3 SUB PUSH2 0x266 JUMPI PUSH1 0x1 PUSH1 0x1 PUSH1 0xA0 SHL SUB AND SWAP1 CALLER DUP3 EQ PUSH2 0x94F JUMPI CALLER PUSH1 0x0 MSTORE PUSH1 0x6A PUSH1 0x20 MSTORE PUSH1 0x40 PUSH1 0x0 KECCAK256 DUP3 PUSH1 0x0 MSTORE PUSH1 0x20 MSTORE PUSH1 0x40 PUSH1 0x0 KECCAK256 PUSH1 0xFF NOT DUP2 SLOAD AND PUSH1 0xFF DUP4 AND OR SWAP1 SSTORE PUSH1 0x40 MLOAD SWAP1 DUP2 MSTORE PUSH32 0x17307EAB39AB6107E8899845AD3D59BD9653F200F220920489CA2B5937696C31 PUSH1 0x20 CALLER SWAP3 LOG3 STOP JUMPDEST PUSH1 0x40 MLOAD PUSH3 0x461BCD PUSH1 0xE5 SHL DUP2 MSTORE PUSH1 0x20 PUSH1 0x4 DUP3 ADD MSTORE PUSH1 0x19 PUSH1 0x24 DUP3 ADD MSTORE PUSH25 0x22A9219B99189D1030B8383937BB32903A379031B0B63632B9 PUSH1 0x39 SHL PUSH1 0x44 DUP3 ADD MSTORE PUSH1 0x64 SWAP1 REVERT JUMPDEST CALLVALUE PUSH2 0x266 JUMPI PUSH1 0x20 CALLDATASIZE PUSH1 0x3 NOT ADD SLT PUSH2 0x266 JUMPI PUSH2 0x2AC PUSH2 0x298 PUSH1 0x4 CALLDATALOAD PUSH2 0x2EE1 JUMP JUMPDEST CALLVALUE PUSH2 0x266 JUMPI PUSH1 0x0 CALLDATASIZE PUSH1 0x3 NOT ADD SLT PUSH2 0x266 JUMPI PUSH1 0x40 MLOAD PUSH1 0x0 SWAP1 PUSH1 0x66 SLOAD PUSH2 0x9D2 DUP2 PUSH2 0x21E2 JUMP JUMPDEST DUP1 DUP4 MSTORE PUSH1 0x1 SWAP2 DUP1 DUP4 AND SWAP1 DUP2 ISZERO PUSH2 0xA55 JUMPI POP PUSH1 0x1 EQ PUSH2 0x9FB JUMPI JUMPDEST PUSH2 0x2AC DUP4 PUSH2 0x298 DUP2 DUP8 SUB DUP3 PUSH2 0x226D JUMP JUMPDEST PUSH1 0x66 PUSH1 0x0 SWAP1 DUP2 MSTORE PUSH1 0x20 SWAP5 POP SWAP2 PUSH32 0x46501879B8CA8525E8C2FD519E2FBFCFA2EBEA26501294AA02CBFCFB12E94354 JUMPDEST DUP3 DUP5 LT PUSH2 0xA42 JUMPI POP POP POP DUP2 ADD SWAP1 SWAP2 ADD SWAP1 PUSH2 0x298 DUP2 PUSH2 0x9EB JUMP JUMPDEST DUP1 SLOAD DUP6 DUP6 ADD DUP8 ADD MSTORE SWAP3 DUP6 ADD SWAP3 DUP2 ADD PUSH2 0xA29 JUMP JUMPDEST PUSH2 0x2AC SWAP6 POP PUSH2 0x298 SWAP4 POP PUSH1 0x20 SWAP2 POP SWAP2 DUP5 SWAP3 PUSH1 0xFF NOT AND DUP3 DUP5 ADD MSTORE ISZERO ISZERO PUSH1 0x5 SHL DUP3 ADD ADD SWAP4 POP PUSH2 0x9EB JUMP JUMPDEST PUSH1 0xA0 CALLDATASIZE PUSH1 0x3 NOT ADD SLT PUSH2 0x266 JUMPI PUSH1 0x24 CALLDATALOAD PUSH1 0x1 PUSH1 0x1 PUSH1 0x40 SHL SUB DUP2 GT PUSH2 0x266 JUMPI PUSH2 0xAA8 SWAP1 CALLDATASIZE SWAP1 PUSH1 0x4 ADD PUSH2 0x2363 JUMP JUMPDEST SWAP1 PUSH1 0x44 CALLDATALOAD PUSH1 0x1 PUSH1 0x1 PUSH1 0x40 SHL SUB DUP2 GT PUSH2 0x266 JUMPI PUSH2 0xAC8 SWAP1 CALLDATASIZE SWAP1 PUSH1 0x4 ADD PUSH2 0x2363 JUMP JUMPDEST SWAP1 PUSH1 0x64 CALLDATALOAD PUSH1 0x1 PUSH1 0x1 PUSH1 0x40 SHL SUB DUP2 GT PUSH2 0x266 JUMPI PUSH2 0xAE8 SWAP1 CALLDATASIZE SWAP1 PUSH1 0x4 ADD PUSH2 0x2363 JUMP JUMPDEST PUSH1 0x84 CALLDATALOAD PUSH1 0x1 PUSH1 0x1 PUSH1 0x40 SHL SUB DUP2 GT PUSH2 0x266 JUMPI PUSH2 0xB07 SWAP1 CALLDATASIZE SWAP1 PUSH1 0x4 ADD PUSH2 0x2363 JUMP JUMPDEST SWAP4 SWAP1 SWAP5 PUSH2 0xB12 PUSH2 0x2B15 JUMP JUMPDEST PUSH1 0xFF PUSH1 0xFE SLOAD AND ISZERO PUSH2 0x1287 JUMPI PUSH1 0x4 CALLDATALOAD ISZERO PUSH2 0x124B JUMPI DUP8 PUSH1 0x4 CALLDATALOAD SUB PUSH2 0x1206 JUMPI DUP1 PUSH1 0x4 CALLDATALOAD SUB PUSH2 0x11C1 JUMPI DUP3 PUSH1 0x4 CALLDATALOAD SUB PUSH2 0x1170 JUMPI DUP5 PUSH1 0x4 CALLDATALOAD SUB PUSH2 0x111C JUMPI PUSH2 0xB58 PUSH1 0x4 CALLDATALOAD PUSH2 0x100 SLOAD PUSH2 0x29E6 JUMP JUMPDEST PUSH1 0xFB SLOAD LT PUSH2 0x10E2 JUMPI CALLER PUSH1 0x0 MSTORE PUSH2 0x102 PUSH1 0x20 MSTORE PUSH2 0xB7B PUSH1 0x4 CALLDATALOAD PUSH1 0x40 PUSH1 0x0 KECCAK256 SLOAD PUSH2 0x29E6 JUMP JUMPDEST PUSH1 0xFC SLOAD LT PUSH2 0x10A4 JUMPI PUSH2 0xB91 PUSH1 0x4 CALLDATALOAD PUSH1 0xFD SLOAD PUSH2 0x2A09 JUMP JUMPDEST CALLVALUE LT PUSH2 0x1068 JUMPI PUSH1 0x0 JUMPDEST PUSH1 0x4 CALLDATALOAD DUP2 LT PUSH2 0xBFA JUMPI PUSH2 0xBB1 PUSH1 0x4 CALLDATALOAD PUSH1 0xFD SLOAD PUSH2 0x2A09 JUMP JUMPDEST DUP1 CALLVALUE GT PUSH2 0xBC0 JUMPI JUMPDEST PUSH1 0x1 PUSH1 0xC9 SSTORE STOP JUMPDEST PUSH1 0x0 DUP1 DUP1 PUSH2 0xBCF DUP2 SWAP5 CALLVALUE PUSH2 0x2B08 JUMP JUMPDEST DUP2 DUP2 ISZERO PUSH2 0xBF1 JUMPI JUMPDEST CALLER SWAP1 CALL ISZERO PUSH2 0xBE5 JUMPI DUP1 PUSH2 0xBB9 JUMP JUMPDEST PUSH1 0x40 MLOAD RETURNDATASIZE PUSH1 0x0 DUP3 RETURNDATACOPY RETURNDATASIZE SWAP1 REVERT JUMPDEST POP PUSH2 0x8FC PUSH2 0xBD7 JUMP JUMPDEST PUSH2 0xC11 PUSH2 0x4AC PUSH2 0xC0B DUP4 DUP13 DUP13 PUSH2 0x2A2B JUMP JUMPDEST SWAP1 PUSH2 0x395B JUMP JUMPDEST PUSH2 0xC28 PUSH2 0xC1F DUP3 DUP7 DUP9 PUSH2 0x2A2B JUMP JUMPDEST SWAP1 POP ISZERO ISZERO PUSH2 0x2AC6 JUMP JUMPDEST PUSH2 0xC34 PUSH2 0x100 SLOAD PUSH2 0x2A1C JUMP JUMPDEST SWAP1 DUP2 PUSH2 0x100 SSTORE PUSH1 0x40 MLOAD DUP3 PUSH1 0x20 DUP3 ADD MSTORE CALLER PUSH1 0x60 SHL PUSH1 0x40 DUP3 ADD MSTORE PREVRANDAO PUSH1 0x54 DUP3 ADD MSTORE TIMESTAMP PUSH1 0x74 DUP3 ADD MSTORE PUSH1 0x94 DUP3 DUP2 DUP4 ADD MSTORE DUP2 MSTORE DUP1 PUSH1 0xC0 DUP2 ADD LT PUSH1 0x1 DUP1 PUSH1 0x40 SHL SUB PUSH1 0xC0 DUP4 ADD GT OR PUSH2 0x86A JUMPI PUSH1 0xC0 DUP2 ADD PUSH1 0x40 MSTORE PUSH1 0x20 DUP2 MLOAD SWAP2 ADD KECCAK256 DUP3 PUSH1 0x0 MSTORE PUSH2 0x101 PUSH1 0x20 MSTORE PUSH1 0x40 PUSH1 0x0 KECCAK256 SSTORE PUSH2 0xCA1 DUP2 DUP12 DUP12 PUSH2 0x2A2B JUMP JUMPDEST PUSH1 0x0 DUP5 DUP2 MSTORE PUSH2 0x103 PUSH1 0x20 MSTORE PUSH1 0x40 SWAP1 KECCAK256 SWAP2 PUSH1 0x1 PUSH1 0x1 PUSH1 0x40 SHL SUB DUP3 GT PUSH2 0x86A JUMPI DUP2 SWAP1 PUSH2 0xCD5 DUP3 PUSH2 0xCCF DUP7 SLOAD PUSH2 0x21E2 JUMP JUMPDEST DUP7 PUSH2 0x294C JUMP JUMPDEST PUSH1 0x0 SWAP1 PUSH1 0x1F DUP4 GT PUSH1 0x1 EQ PUSH2 0xFFE JUMPI PUSH1 0x0 SWAP3 PUSH2 0xFF3 JUMPI JUMPDEST POP POP DUP2 PUSH1 0x1 SHL SWAP2 PUSH1 0x0 NOT SWAP1 PUSH1 0x3 SHL SHR NOT AND OR SWAP1 SSTORE JUMPDEST PUSH2 0xD0B DUP2 DUP5 DUP7 PUSH2 0x2A2B JUMP JUMPDEST PUSH1 0x0 DUP5 DUP2 MSTORE PUSH2 0x104 PUSH1 0x20 MSTORE PUSH1 0x40 SWAP1 KECCAK256 SWAP2 PUSH1 0x1 PUSH1 0x1 PUSH1 0x40 SHL SUB DUP3 GT PUSH2 0x86A JUMPI DUP2 SWAP1 PUSH2 0xD39 DUP3 PUSH2 0xCCF DUP7 SLOAD PUSH2 0x21E2 JUMP JUMPDEST PUSH1 0x0 SWAP1 PUSH1 0x1F DUP4 GT PUSH1 0x1 EQ PUSH2 0xF89 JUMPI PUSH1 0x0 SWAP3 PUSH2 0xF7E JUMPI JUMPDEST POP POP DUP2 PUSH1 0x1 SHL SWAP2 PUSH1 0x0 NOT SWAP1 PUSH1 0x3 SHL SHR NOT AND OR SWAP1 SSTORE JUMPDEST PUSH2 0xD6F DUP2 DUP7 DUP9 PUSH2 0x2A2B JUMP JUMPDEST PUSH1 0x0 DUP5 DUP2 MSTORE PUSH2 0x105 PUSH1 0x20 MSTORE PUSH1 0x40 SWAP1 KECCAK256 SWAP2 PUSH1 0x1 PUSH1 0x1 PUSH1 0x40 SHL SUB DUP3 GT PUSH2 0x86A JUMPI DUP2 SWAP1 PUSH2 0xD9D DUP3 PUSH2 0xCCF DUP7 SLOAD PUSH2 0x21E2 JUMP JUMPDEST PUSH1 0x0 SWAP1 PUSH1 0x1F DUP4 GT PUSH1 0x1 EQ PUSH2 0xF14 JUMPI PUSH1 0x0 SWAP3 PUSH2 0xF09 JUMPI JUMPDEST POP POP DUP2 PUSH1 0x1 SHL SWAP2 PUSH1 0x0 NOT SWAP1 PUSH1 0x3 SHL SHR NOT AND OR SWAP1 SSTORE JUMPDEST DUP7 DUP2 LT ISZERO PUSH2 0xEF3 JUMPI DUP2 PUSH1 0x0 MSTORE PUSH2 0x106 PUSH1 0x20 MSTORE DUP1 PUSH1 0x5 SHL DUP9 ADD CALLDATALOAD PUSH1 0x40 PUSH1 0x0 KECCAK256 SSTORE CALLER PUSH1 0x0 MSTORE PUSH2 0x102 PUSH1 0x20 MSTORE PUSH1 0x40 PUSH1 0x0 KECCAK256 PUSH2 0xE00 DUP2 SLOAD PUSH2 0x2A1C JUMP JUMPDEST SWAP1 SSTORE PUSH1 0x40 MLOAD SWAP2 PUSH2 0xE0F DUP4 PUSH2 0x221C JUMP JUMPDEST PUSH1 0x0 DUP4 MSTORE CALLER ISZERO PUSH2 0xEAF JUMPI PUSH1 0x20 DUP2 PUSH2 0xE9E PUSH2 0x69F PUSH2 0xEAA SWAP7 PUSH2 0xE47 PUSH2 0xE41 PUSH1 0x0 DUP1 MLOAD PUSH1 0x20 PUSH2 0x3B48 DUP4 CODECOPY DUP2 MLOAD SWAP2 MSTORE SWAP8 PUSH2 0x2773 JUMP JUMPDEST ISZERO PUSH2 0x2B6B JUMP JUMPDEST PUSH2 0xE53 PUSH2 0xE41 DUP6 PUSH2 0x2773 JUMP JUMPDEST CALLER PUSH1 0x0 DUP2 DUP2 MSTORE PUSH1 0x68 DUP8 MSTORE PUSH1 0x40 DUP1 DUP3 KECCAK256 DUP1 SLOAD PUSH1 0x1 ADD SWAP1 SSTORE DUP7 DUP3 MSTORE PUSH1 0x67 DUP9 MSTORE DUP2 KECCAK256 DUP1 SLOAD PUSH1 0x1 PUSH1 0x1 PUSH1 0xA0 SHL SUB NOT AND DUP4 OR SWAP1 SSTORE DUP6 SWAP2 SWAP1 PUSH1 0x0 DUP1 MLOAD PUSH1 0x20 PUSH2 0x3B08 DUP4 CODECOPY DUP2 MLOAD SWAP2 MSTORE DUP2 DUP1 LOG4 DUP4 CALLER PUSH2 0x2790 JUMP JUMPDEST PUSH1 0x40 MLOAD SWAP1 DUP2 MSTORE LOG1 PUSH2 0x2A1C JUMP JUMPDEST PUSH2 0xB9A JUMP JUMPDEST PUSH1 0x64 PUSH1 0x40 MLOAD PUSH3 0x461BCD PUSH1 0xE5 SHL DUP2 MSTORE PUSH1 0x20 PUSH1 0x4 DUP3 ADD MSTORE PUSH1 0x20 PUSH1 0x24 DUP3 ADD MSTORE PUSH32 0x4552433732313A206D696E7420746F20746865207A65726F2061646472657373 PUSH1 0x44 DUP3 ADD MSTORE REVERT JUMPDEST PUSH4 0x4E487B71 PUSH1 0xE0 SHL PUSH1 0x0 MSTORE PUSH1 0x32 PUSH1 0x4 MSTORE PUSH1 0x24 PUSH1 0x0 REVERT JUMPDEST ADD CALLDATALOAD SWAP1 POP DUP14 DUP1 PUSH2 0xDB3 JUMP JUMPDEST SWAP1 SWAP2 POP PUSH1 0x1F NOT DUP4 AND SWAP2 DUP5 PUSH1 0x0 MSTORE DUP4 PUSH1 0x20 PUSH1 0x0 KECCAK256 SWAP4 PUSH1 0x0 JUMPDEST DUP2 DUP2 LT PUSH2 0xF63 JUMPI POP LT PUSH2 0xF49 JUMPI JUMPDEST POP POP POP PUSH1 0x1 SWAP1 DUP2 SHL ADD SWAP1 SSTORE PUSH2 0xDC8 JUMP JUMPDEST ADD CALLDATALOAD PUSH1 0x0 NOT PUSH1 0x3 DUP5 SWAP1 SHL PUSH1 0xF8 AND SHR NOT AND SWAP1 SSTORE DUP13 DUP1 DUP1 PUSH2 0xF39 JUMP JUMPDEST DUP5 DUP5 ADD CALLDATALOAD DUP7 SSTORE PUSH1 0x1 SWAP1 SWAP6 ADD SWAP5 PUSH1 0x20 SWAP4 DUP5 ADD SWAP4 DUP8 SWAP4 POP ADD PUSH2 0xF2B JUMP JUMPDEST ADD CALLDATALOAD SWAP1 POP DUP14 DUP1 PUSH2 0xD4F JUMP JUMPDEST SWAP1 SWAP2 POP DUP4 PUSH1 0x0 MSTORE PUSH1 0x20 PUSH1 0x0 KECCAK256 SWAP2 PUSH1 0x0 JUMPDEST PUSH1 0x1F NOT DUP6 AND DUP2 LT PUSH2 0xFDB JUMPI POP DUP4 PUSH1 0x1F NOT DUP2 AND LT PUSH2 0xFC1 JUMPI JUMPDEST POP POP POP PUSH1 0x1 SWAP1 DUP2 SHL ADD SWAP1 SSTORE PUSH2 0xD64 JUMP JUMPDEST ADD CALLDATALOAD PUSH1 0x0 NOT PUSH1 0x3 DUP5 SWAP1 SHL PUSH1 0xF8 AND SHR NOT AND SWAP1 SSTORE DUP13 DUP1 DUP1 PUSH2 0xFB1 JUMP JUMPDEST SWAP1 SWAP3 PUSH1 0x20 PUSH1 0x1 DUP2 SWAP3 DUP7 DUP7 ADD CALLDATALOAD DUP2 SSTORE ADD SWAP5 ADD SWAP2 ADD PUSH2 0xF99 JUMP JUMPDEST ADD CALLDATALOAD SWAP1 POP DUP14 DUP1 PUSH2 0xCEB JUMP JUMPDEST SWAP1 SWAP2 POP DUP4 PUSH1 0x0 MSTORE PUSH1 0x20 PUSH1 0x0 KECCAK256 SWAP2 PUSH1 0x0 JUMPDEST PUSH1 0x1F NOT DUP6 AND DUP2 LT PUSH2 0x1050 JUMPI POP DUP4 PUSH1 0x1F NOT DUP2 AND LT PUSH2 0x1036 JUMPI JUMPDEST POP POP POP PUSH1 0x1 SWAP1 DUP2 SHL ADD SWAP1 SSTORE PUSH2 0xD00 JUMP JUMPDEST ADD CALLDATALOAD PUSH1 0x0 NOT PUSH1 0x3 DUP5 SWAP1 SHL PUSH1 0xF8 AND SHR NOT AND SWAP1 SSTORE DUP13 DUP1 DUP1 PUSH2 0x1026 JUMP JUMPDEST SWAP1 SWAP3 PUSH1 0x20 PUSH1 0x1 DUP2 SWAP3 DUP7 DUP7 ADD CALLDATALOAD DUP2 SSTORE ADD SWAP5 ADD SWAP2 ADD PUSH2 0x100E JUMP JUMPDEST PUSH1 0x40 MLOAD PUSH3 0x461BCD PUSH1 0xE5 SHL DUP2 MSTORE PUSH1 0x20 PUSH1 0x4 DUP3 ADD MSTORE PUSH1 0x14 PUSH1 0x24 DUP3 ADD MSTORE PUSH20 0x125B9CDD59999A58DA595B9D081C185E5B595B9D PUSH1 0x62 SHL PUSH1 0x44 DUP3 ADD MSTORE PUSH1 0x64 SWAP1 REVERT JUMPDEST PUSH1 0x40 MLOAD PUSH3 0x461BCD PUSH1 0xE5 SHL DUP2 MSTORE PUSH1 0x20 PUSH1 0x4 DUP3 ADD MSTORE PUSH1 0x16 PUSH1 0x24 DUP3 ADD MSTORE PUSH22 0x115E18D959591CC81B585E081C195C881DD85B1B195D PUSH1 0x52 SHL PUSH1 0x44 DUP3 ADD MSTORE PUSH1 0x64 SWAP1 REVERT JUMPDEST PUSH1 0x40 MLOAD PUSH3 0x461BCD PUSH1 0xE5 SHL DUP2 MSTORE PUSH1 0x20 PUSH1 0x4 DUP3 ADD MSTORE PUSH1 0x12 PUSH1 0x24 DUP3 ADD MSTORE PUSH18 0x45786365656473206D617820737570706C79 PUSH1 0x70 SHL PUSH1 0x44 DUP3 ADD MSTORE PUSH1 0x64 SWAP1 REVERT JUMPDEST PUSH1 0x40 MLOAD PUSH3 0x461BCD PUSH1 0xE5 SHL DUP2 MSTORE PUSH1 0x20 PUSH1 0x4 DUP3 ADD MSTORE PUSH1 0x26 PUSH1 0x24 DUP3 ADD MSTORE PUSH32 0x4D7573742070726F76696465207261726974792073636F726520666F72206561 PUSH1 0x44 DUP3 ADD MSTORE PUSH6 0x18DA08139195 PUSH1 0xD2 SHL PUSH1 0x64 DUP3 ADD MSTORE PUSH1 0x84 SWAP1 REVERT JUMPDEST PUSH1 0x40 MLOAD PUSH3 0x461BCD PUSH1 0xE5 SHL DUP2 MSTORE PUSH1 0x20 PUSH1 0x4 DUP3 ADD MSTORE PUSH1 0x24 DUP1 DUP3 ADD MSTORE PUSH32 0x4D7573742070726F76696465206174747269627574657320666F722065616368 PUSH1 0x44 DUP3 ADD MSTORE PUSH4 0x8139195 PUSH1 0xE2 SHL PUSH1 0x64 DUP3 ADD MSTORE PUSH1 0x84 SWAP1 REVERT JUMPDEST PUSH1 0x40 MLOAD PUSH3 0x461BCD PUSH1 0xE5 SHL DUP2 MSTORE PUSH1 0x20 PUSH1 0x4 DUP3 ADD MSTORE PUSH1 0x1E PUSH1 0x24 DUP3 ADD MSTORE PUSH32 0x4D7573742070726F76696465206E616D6520666F722065616368204E46540000 PUSH1 0x44 DUP3 ADD MSTORE PUSH1 0x64 SWAP1 REVERT JUMPDEST PUSH1 0x40 MLOAD PUSH3 0x461BCD PUSH1 0xE5 SHL DUP2 MSTORE PUSH1 0x20 PUSH1 0x4 DUP3 ADD MSTORE PUSH1 0x1F PUSH1 0x24 DUP3 ADD MSTORE PUSH32 0x4D7573742070726F7669646520696D61676520666F722065616368204E465400 PUSH1 0x44 DUP3 ADD MSTORE PUSH1 0x64 SWAP1 REVERT JUMPDEST PUSH1 0x40 MLOAD PUSH3 0x461BCD PUSH1 0xE5 SHL DUP2 MSTORE PUSH1 0x20 PUSH1 0x4 DUP3 ADD MSTORE PUSH1 0x14 PUSH1 0x24 DUP3 ADD MSTORE PUSH20 0x4D757374206D696E74206174206C656173742031 PUSH1 0x60 SHL PUSH1 0x44 DUP3 ADD MSTORE PUSH1 0x64 SWAP1 REVERT JUMPDEST PUSH1 0x40 MLOAD PUSH3 0x461BCD PUSH1 0xE5 SHL DUP2 MSTORE PUSH1 0x20 PUSH1 0x4 DUP3 ADD MSTORE PUSH1 0x12 PUSH1 0x24 DUP3 ADD MSTORE PUSH18 0x4D696E74696E67206E6F7420616374697665 PUSH1 0x70 SHL PUSH1 0x44 DUP3 ADD MSTORE PUSH1 0x64 SWAP1 REVERT JUMPDEST CALLVALUE PUSH2 0x266 JUMPI PUSH1 0x0 CALLDATASIZE PUSH1 0x3 NOT ADD SLT PUSH2 0x266 JUMPI PUSH1 0x97 SLOAD PUSH1 0x40 MLOAD PUSH1 0x1 PUSH1 0x1 PUSH1 0xA0 SHL SUB SWAP1 SWAP2 AND DUP2 MSTORE PUSH1 0x20 SWAP1 RETURN JUMPDEST CALLVALUE PUSH2 0x266 JUMPI PUSH1 0x0 CALLDATASIZE PUSH1 0x3 NOT ADD SLT PUSH2 0x266 JUMPI PUSH1 0x0 SLOAD PUSH1 0xFF DUP1 DUP3 PUSH1 0x8 SHR AND ISZERO DUP1 DUP1 SWAP2 PUSH2 0x1935 JUMPI JUMPDEST DUP1 ISZERO PUSH2 0x191F JUMPI JUMPDEST ISZERO PUSH2 0x18C3 JUMPI PUSH1 0x1 SWAP3 DUP2 DUP5 PUSH1 0xFF NOT DUP4 AND OR PUSH1 0x0 SSTORE PUSH2 0x18B1 JUMPI JUMPDEST POP PUSH1 0x40 MLOAD PUSH2 0x133B DUP2 PUSH2 0x2237 JUMP JUMPDEST PUSH1 0xD DUP2 MSTORE PUSH1 0x20 SWAP3 PUSH13 0x386269742050656E6775696E73 PUSH1 0x98 SHL DUP5 DUP4 ADD MSTORE PUSH1 0x40 MLOAD SWAP2 PUSH2 0x1364 DUP4 PUSH2 0x2237 JUMP JUMPDEST PUSH1 0x5 SWAP3 DUP4 DUP2 MSTORE PUSH5 0x384249545 PUSH1 0xDC SHL DUP7 DUP3 ADD MSTORE PUSH2 0x1390 DUP4 PUSH1 0x0 SLOAD PUSH1 0x8 SHR AND PUSH2 0x138B DUP2 PUSH2 0x2986 JUMP JUMPDEST PUSH2 0x2986 JUMP JUMPDEST DUP2 MLOAD PUSH1 0x1 PUSH1 0x1 PUSH1 0x40 SHL SUB SWAP2 SWAP1 DUP3 DUP2 GT PUSH2 0x86A JUMPI DUP1 PUSH2 0x13AF PUSH1 0x65 SLOAD PUSH2 0x21E2 JUMP JUMPDEST SWAP5 PUSH1 0x1F SWAP6 DUP11 DUP8 DUP3 GT PUSH2 0x1879 JUMPI JUMPDEST POP POP DUP10 SWAP1 DUP7 DUP4 GT PUSH1 0x1 EQ PUSH2 0x1814 JUMPI PUSH1 0x0 SWAP3 PUSH2 0x1809 JUMPI JUMPDEST POP POP PUSH1 0x0 NOT PUSH1 0x3 DUP4 SWAP1 SHL SHR NOT AND SWAP1 DUP10 SHL OR PUSH1 0x65 SSTORE JUMPDEST DUP1 MLOAD SWAP2 DUP3 GT PUSH2 0x86A JUMPI PUSH2 0x13FB PUSH1 0x66 SLOAD PUSH2 0x21E2 JUMP JUMPDEST DUP4 DUP2 GT PUSH2 0x17D2 JUMPI JUMPDEST POP DUP7 SWAP1 DUP4 DUP4 GT PUSH1 0x1 EQ PUSH2 0x1754 JUMPI SWAP2 DUP1 PUSH11 0x3A32BC3A1F1E17B9BB339F PUSH1 0xA9 SHL SWAP7 SWAP5 SWAP3 PUSH1 0xF SWAP7 SWAP5 PUSH1 0x0 SWAP3 PUSH2 0x1749 JUMPI JUMPDEST POP POP PUSH1 0x0 NOT PUSH1 0x3 DUP4 SWAP1 SHL SHR NOT AND SWAP1 DUP10 SHL OR PUSH1 0x66 SSTORE JUMPDEST PUSH2 0x1459 DUP3 PUSH1 0x0 SLOAD PUSH1 0x8 SHR AND PUSH2 0x138B DUP2 PUSH2 0x2986 JUMP JUMPDEST PUSH2 0x1462 CALLER PUSH2 0x2406 JUMP JUMPDEST PUSH2 0x1476 DUP3 PUSH1 0x0 SLOAD PUSH1 0x8 SHR AND PUSH2 0x138B DUP2 PUSH2 0x2986 JUMP JUMPDEST DUP8 PUSH1 0xC9 SSTORE PUSH1 0x32 PUSH1 0xFB SSTORE PUSH1 0x32 PUSH1 0xFC SSTORE PUSH1 0x0 PUSH1 0xFD SSTORE PUSH2 0xFFFF NOT PUSH1 0xFE SLOAD AND PUSH1 0xFE SSTORE PUSH2 0x149E DUP3 SLOAD PUSH2 0x21E2 JUMP JUMPDEST DUP2 DUP2 GT PUSH2 0x1727 JUMPI JUMPDEST POP POP PUSH2 0x3D7 DUP2 SSTORE PUSH1 0x0 MSTORE PUSH32 0x272072783D273938272072793D27313232272066696C6C3D2725323343383846 DUP6 PUSH1 0x0 KECCAK256 SWAP2 PUSH32 0x646174613A696D6167652F7376672B786D6C3B757466382C3C73766720786D6C DUP4 SSTORE PUSH32 0x6E733D27687474703A2F2F7777772E77332E6F72672F323030302F7376672720 DUP9 DUP5 ADD SSTORE PUSH32 0x76696577426F783D273020302034303020343030273E3C726563742077696474 PUSH1 0x2 DUP5 ADD SSTORE PUSH32 0x683D2734303027206865696768743D27343030272066696C6C3D272532333842 PUSH1 0x3 DUP5 ADD SSTORE PUSH32 0x30453241272F3E3C656C6C697073652063783D27323030272063793D27323038 PUSH1 0x4 DUP5 ADD SSTORE DUP3 ADD SSTORE PUSH32 0x3146272F3E3C656C6C697073652063783D27313836272063793D273138322720 PUSH1 0x6 DUP3 ADD SSTORE PUSH32 0x72783D273532272072793D273730272066696C6C3D2725323345464246343527 PUSH1 0x7 DUP3 ADD SSTORE PUSH32 0x2F3E3C656C6C697073652063783D27323132272063793D27323238272072783D PUSH1 0x8 DUP3 ADD SSTORE PUSH32 0x273736272072793D273834272066696C6C3D2725323338463542313227206F70 PUSH1 0x9 DUP3 ADD SSTORE PUSH32 0x61636974793D27302E3535272F3E3C7465787420783D273230302720793D2733 PUSH1 0xA DUP3 ADD SSTORE PUSH32 0x3532272066696C6C3D272532334646464646462720666F6E742D73697A653D27 PUSH1 0xB DUP3 ADD SSTORE PUSH32 0x32382720666F6E742D66616D696C793D274A6574427261696E73204D6F6E6F2C PUSH1 0xC DUP3 ADD SSTORE PUSH32 0x6D6F6E6F73706163652720666F6E742D7765696768743D273730302720746578 PUSH1 0xD DUP3 ADD SSTORE PUSH32 0x742D616E63686F723D276D6964646C65273E386269742050656E6775696E3C2F PUSH1 0xE DUP3 ADD SSTORE ADD SSTORE PUSH2 0x16F1 JUMPI STOP JUMPDEST PUSH32 0x7F26B83FF96E1F2B6A682F133852F6798A09C465DA95921460CEFB3847402498 SWAP2 PUSH2 0xFF00 NOT PUSH1 0x0 SLOAD AND PUSH1 0x0 SSTORE PUSH1 0x40 MLOAD SWAP1 DUP2 MSTORE LOG1 STOP JUMPDEST PUSH1 0x10 PUSH2 0x1742 SWAP3 DUP5 PUSH1 0x0 MSTORE DUP10 PUSH1 0x0 KECCAK256 SWAP3 ADD DUP6 SHR DUP3 ADD SWAP2 ADD PUSH2 0x2935 JUMP JUMPDEST DUP8 DUP1 PUSH2 0x14A6 JUMP JUMPDEST ADD MLOAD SWAP1 POP DUP11 DUP1 PUSH2 0x1430 JUMP JUMPDEST DUP9 SWAP3 SWAP2 PUSH1 0x1F NOT DUP4 AND SWAP2 PUSH1 0x66 PUSH1 0x0 MSTORE DUP10 PUSH1 0x0 KECCAK256 SWAP3 PUSH1 0x0 JUMPDEST DUP12 DUP3 DUP3 LT PUSH2 0x17BC JUMPI POP POP SWAP2 PUSH1 0xF SWAP8 SWAP6 SWAP4 SWAP2 DUP6 PUSH11 0x3A32BC3A1F1E17B9BB339F PUSH1 0xA9 SHL SWAP11 SWAP9 SWAP7 SWAP5 LT PUSH2 0x17A3 JUMPI JUMPDEST POP POP POP DUP2 SHL ADD PUSH1 0x66 SSTORE PUSH2 0x1445 JUMP JUMPDEST ADD MLOAD PUSH1 0x0 NOT PUSH1 0xF8 DUP5 PUSH1 0x3 SHL AND SHR NOT AND SWAP1 SSTORE DUP11 DUP1 DUP1 PUSH2 0x1795 JUMP JUMPDEST DUP4 DUP6 ADD MLOAD DUP7 SSTORE DUP14 SWAP8 SWAP1 SWAP6 ADD SWAP5 SWAP4 DUP5 ADD SWAP4 ADD PUSH2 0x176A JUMP JUMPDEST PUSH2 0x17FA SWAP1 PUSH1 0x66 PUSH1 0x0 MSTORE DUP9 PUSH1 0x0 KECCAK256 DUP6 DUP1 DUP7 ADD DUP10 SHR DUP3 ADD SWAP3 DUP12 DUP8 LT PUSH2 0x1800 JUMPI JUMPDEST ADD DUP9 SHR ADD SWAP1 PUSH2 0x2935 JUMP JUMPDEST DUP9 PUSH2 0x1403 JUMP JUMPDEST SWAP3 POP DUP2 SWAP3 PUSH2 0x17F0 JUMP JUMPDEST ADD MLOAD SWAP1 POP DUP11 DUP1 PUSH2 0x13D2 JUMP JUMPDEST SWAP1 DUP12 SWAP4 POP PUSH1 0x1F NOT DUP4 AND SWAP2 PUSH1 0x65 PUSH1 0x0 MSTORE DUP12 PUSH1 0x0 KECCAK256 SWAP3 PUSH1 0x0 JUMPDEST DUP14 DUP3 DUP3 LT PUSH2 0x1863 JUMPI POP POP DUP5 GT PUSH2 0x184A JUMPI JUMPDEST POP POP POP DUP2 SHL ADD PUSH1 0x65 SSTORE PUSH2 0x13E7 JUMP JUMPDEST ADD MLOAD PUSH1 0x0 NOT PUSH1 0xF8 DUP5 PUSH1 0x3 SHL AND SHR NOT AND SWAP1 SSTORE DUP11 DUP1 DUP1 PUSH2 0x183C JUMP JUMPDEST DUP4 DUP6 ADD MLOAD DUP7 SSTORE DUP16 SWAP8 SWAP1 SWAP6 ADD SWAP5 SWAP4 DUP5 ADD SWAP4 ADD PUSH2 0x182B JUMP JUMPDEST PUSH2 0x18A1 SWAP2 PUSH1 0x65 PUSH1 0x0 MSTORE DUP9 DUP3 PUSH1 0x0 KECCAK256 SWAP2 DUP2 DUP8 ADD DUP14 SHR DUP4 ADD SWAP4 DUP8 LT PUSH2 0x18A8 JUMPI JUMPDEST ADD DUP12 SHR ADD SWAP1 PUSH2 0x2935 JUMP JUMPDEST DUP12 DUP11 PUSH2 0x13BC JUMP JUMPDEST SWAP3 POP DUP2 SWAP3 PUSH2 0x1897 JUMP JUMPDEST PUSH2 0xFFFF NOT AND PUSH2 0x101 OR PUSH1 0x0 SSTORE DUP4 PUSH2 0x132E JUMP JUMPDEST PUSH1 0x40 MLOAD PUSH3 0x461BCD PUSH1 0xE5 SHL DUP2 MSTORE PUSH1 0x20 PUSH1 0x4 DUP3 ADD MSTORE PUSH1 0x2E PUSH1 0x24 DUP3 ADD MSTORE PUSH32 0x496E697469616C697A61626C653A20636F6E747261637420697320616C726561 PUSH1 0x44 DUP3 ADD MSTORE PUSH14 0x191E481A5B9A5D1A585B1A5E9959 PUSH1 0x92 SHL PUSH1 0x64 DUP3 ADD MSTORE PUSH1 0x84 SWAP1 REVERT JUMPDEST POP ADDRESS EXTCODESIZE ISZERO DUP1 ISZERO PUSH2 0x1316 JUMPI POP PUSH1 0x1 DUP3 DUP5 AND EQ PUSH2 0x1316 JUMP JUMPDEST POP PUSH1 0x1 DUP3 DUP5 AND LT PUSH2 0x130F JUMP JUMPDEST CALLVALUE PUSH2 0x266 JUMPI PUSH1 0x20 CALLDATASIZE PUSH1 0x3 NOT ADD SLT PUSH2 0x266 JUMPI PUSH1 0x4 CALLDATALOAD PUSH1 0x0 MSTORE PUSH2 0x106 PUSH1 0x20 MSTORE PUSH1 0x20 PUSH1 0x40 PUSH1 0x0 KECCAK256 SLOAD PUSH1 0x40 MLOAD SWAP1 DUP2 MSTORE RETURN JUMPDEST CALLVALUE PUSH2 0x266 JUMPI PUSH1 0x60 CALLDATASIZE PUSH1 0x3 NOT ADD SLT PUSH2 0x266 JUMPI PUSH1 0x4 CALLDATALOAD PUSH1 0x1 PUSH1 0x1 PUSH1 0x40 SHL SUB PUSH1 0x24 CALLDATALOAD DUP2 DUP2 GT PUSH2 0x266 JUMPI PUSH2 0x19A2 SWAP1 CALLDATASIZE SWAP1 PUSH1 0x4 ADD PUSH2 0x2336 JUMP JUMPDEST SWAP3 SWAP1 SWAP2 PUSH1 0x44 CALLDATALOAD DUP2 DUP2 GT PUSH2 0x266 JUMPI PUSH2 0x19C0 PUSH2 0x1A07 SWAP2 CALLDATASIZE SWAP1 PUSH1 0x4 ADD PUSH2 0x2336 JUMP JUMPDEST SWAP6 SWAP1 SWAP5 PUSH2 0x19CB PUSH2 0x2B15 JUMP JUMPDEST DUP5 ISZERO ISZERO DUP1 PUSH2 0x1AFD JUMPI JUMPDEST PUSH2 0x19DD SWAP1 PUSH2 0x2BB6 JUMP JUMPDEST PUSH2 0x19E9 PUSH2 0x48F DUP7 PUSH2 0x2484 JUMP JUMPDEST PUSH2 0x19F6 PUSH2 0x4AC DUP4 DUP4 PUSH2 0x395B JUMP JUMPDEST PUSH2 0x1A01 DUP8 ISZERO ISZERO PUSH2 0x2AC6 JUMP JUMPDEST DUP5 PUSH2 0x2C30 JUMP JUMPDEST DUP2 PUSH1 0x0 MSTORE PUSH1 0x20 SWAP3 PUSH2 0x105 DUP5 MSTORE PUSH1 0x40 PUSH1 0x0 KECCAK256 SWAP2 DUP6 GT PUSH2 0x86A JUMPI PUSH2 0x1A33 DUP6 PUSH2 0x1A2D DUP5 SLOAD PUSH2 0x21E2 JUMP JUMPDEST DUP5 PUSH2 0x294C JUMP JUMPDEST PUSH1 0x0 SWAP1 PUSH1 0x1F DUP7 GT PUSH1 0x1 EQ PUSH2 0x1A88 JUMPI PUSH1 0x0 DUP1 MLOAD PUSH1 0x20 PUSH2 0x3B48 DUP4 CODECOPY DUP2 MLOAD SWAP2 MSTORE SWAP6 SWAP2 PUSH1 0x0 SWAP2 DUP4 PUSH2 0x1A7D JUMPI JUMPDEST POP POP DUP2 PUSH1 0x1 SHL SWAP2 PUSH1 0x0 NOT SWAP1 PUSH1 0x3 SHL SHR NOT AND OR SWAP1 SSTORE PUSH1 0x40 MLOAD SWAP1 DUP2 MSTORE LOG1 PUSH1 0x1 PUSH1 0xC9 SSTORE STOP JUMPDEST ADD CALLDATALOAD SWAP1 POP DUP7 DUP1 PUSH2 0x1A5B JUMP JUMPDEST PUSH1 0x1F NOT DUP7 AND SWAP2 DUP4 PUSH1 0x0 MSTORE DUP6 PUSH1 0x0 KECCAK256 SWAP3 PUSH1 0x0 JUMPDEST DUP2 DUP2 LT PUSH2 0x1AE6 JUMPI POP SWAP2 PUSH1 0x1 SWAP4 SWAP2 DUP9 PUSH1 0x0 DUP1 MLOAD PUSH1 0x20 PUSH2 0x3B48 DUP4 CODECOPY DUP2 MLOAD SWAP2 MSTORE SWAP10 SWAP5 LT PUSH2 0x1ACC JUMPI JUMPDEST POP POP POP DUP2 SHL ADD SWAP1 SSTORE PUSH2 0x4B7 JUMP JUMPDEST ADD CALLDATALOAD PUSH1 0x0 NOT PUSH1 0x3 DUP5 SWAP1 SHL PUSH1 0xF8 AND SHR NOT AND SWAP1 SSTORE DUP7 DUP1 DUP1 PUSH2 0x1ABF JUMP JUMPDEST SWAP2 SWAP4 DUP8 PUSH1 0x1 DUP2 SWAP3 DUP8 DUP8 ADD CALLDATALOAD DUP2 SSTORE ADD SWAP6 ADD SWAP3 ADD PUSH2 0x1A9A JUMP JUMPDEST POP PUSH2 0x100 SLOAD DUP6 GT ISZERO PUSH2 0x19D4 JUMP JUMPDEST CALLVALUE PUSH2 0x266 JUMPI PUSH1 0x0 CALLDATASIZE PUSH1 0x3 NOT ADD SLT PUSH2 0x266 JUMPI PUSH2 0x1B23 PUSH2 0x23AE JUMP JUMPDEST PUSH1 0x97 DUP1 SLOAD PUSH1 0x1 PUSH1 0x1 PUSH1 0xA0 SHL SUB NOT DUP2 AND SWAP1 SWAP2 SSTORE PUSH1 0x0 SWAP1 PUSH1 0x1 PUSH1 0x1 PUSH1 0xA0 SHL SUB AND PUSH1 0x0 DUP1 MLOAD PUSH1 0x20 PUSH2 0x3AE8 DUP4 CODECOPY DUP2 MLOAD SWAP2 MSTORE DUP3 DUP1 LOG3 STOP JUMPDEST CALLVALUE PUSH2 0x266 JUMPI PUSH1 0x20 CALLDATASIZE PUSH1 0x3 NOT ADD SLT PUSH2 0x266 JUMPI PUSH1 0x1 PUSH1 0x1 PUSH1 0xA0 SHL SUB PUSH2 0x1B76 PUSH2 0x2181 JUMP JUMPDEST AND DUP1 ISZERO PUSH2 0x1B95 JUMPI PUSH1 0x0 MSTORE PUSH1 0x68 PUSH1 0x20 MSTORE PUSH1 0x20 PUSH1 0x40 PUSH1 0x0 KECCAK256 SLOAD PUSH1 0x40 MLOAD SWAP1 DUP2 MSTORE RETURN JUMPDEST PUSH1 0x40 MLOAD PUSH3 0x461BCD PUSH1 0xE5 SHL DUP2 MSTORE PUSH1 0x20 PUSH1 0x4 DUP3 ADD MSTORE PUSH1 0x29 PUSH1 0x24 DUP3 ADD MSTORE PUSH32 0x4552433732313A2061646472657373207A65726F206973206E6F742061207661 PUSH1 0x44 DUP3 ADD MSTORE PUSH9 0x3634B21037BBB732B9 PUSH1 0xB9 SHL PUSH1 0x64 DUP3 ADD MSTORE PUSH1 0x84 SWAP1 REVERT JUMPDEST CALLVALUE PUSH2 0x266 JUMPI PUSH1 0x0 CALLDATASIZE PUSH1 0x3 NOT ADD SLT PUSH2 0x266 JUMPI PUSH1 0x20 PUSH1 0xFD SLOAD PUSH1 0x40 MLOAD SWAP1 DUP2 MSTORE RETURN JUMPDEST CALLVALUE PUSH2 0x266 JUMPI PUSH1 0x20 CALLDATASIZE PUSH1 0x3 NOT ADD SLT PUSH2 0x266 JUMPI PUSH1 0x20 PUSH2 0x1C28 PUSH1 0x4 CALLDATALOAD PUSH2 0x2484 JUMP JUMPDEST PUSH1 0x40 MLOAD PUSH1 0x1 PUSH1 0x1 PUSH1 0xA0 SHL SUB SWAP1 SWAP2 AND DUP2 MSTORE RETURN JUMPDEST CALLVALUE PUSH2 0x266 JUMPI PUSH1 0x0 CALLDATASIZE PUSH1 0x3 NOT ADD SLT PUSH2 0x266 JUMPI PUSH1 0x20 PUSH1 0xFF PUSH1 0xFE SLOAD PUSH1 0x8 SHR AND PUSH1 0x40 MLOAD SWAP1 ISZERO ISZERO DUP2 MSTORE RETURN JUMPDEST CALLVALUE PUSH2 0x266 JUMPI PUSH1 0x0 CALLDATASIZE PUSH1 0x3 NOT ADD SLT PUSH2 0x266 JUMPI PUSH1 0x40 MLOAD PUSH1 0x0 SWAP1 PUSH1 0xFF SLOAD PUSH2 0x1C83 DUP2 PUSH2 0x21E2 JUMP JUMPDEST DUP1 DUP4 MSTORE PUSH1 0x1 SWAP2 DUP1 DUP4 AND SWAP1 DUP2 ISZERO PUSH2 0xA55 JUMPI POP PUSH1 0x1 EQ PUSH2 0x1CAB JUMPI PUSH2 0x2AC DUP4 PUSH2 0x298 DUP2 DUP8 SUB DUP3 PUSH2 0x226D JUMP JUMPDEST PUSH1 0xFF PUSH1 0x0 SWAP1 DUP2 MSTORE PUSH1 0x20 SWAP5 POP SWAP2 PUSH32 0xE08EC2AF2CFC251225E1968FD6CA21E4044F129BFFA95BAC3503BE8BDB30A367 JUMPDEST DUP3 DUP5 LT PUSH2 0x1CF2 JUMPI POP POP POP DUP2 ADD SWAP1 SWAP2 ADD SWAP1 PUSH2 0x298 DUP2 PUSH2 0x9EB JUMP JUMPDEST DUP1 SLOAD DUP6 DUP6 ADD DUP8 ADD MSTORE SWAP3 DUP6 ADD SWAP3 DUP2 ADD PUSH2 0x1CD9 JUMP JUMPDEST CALLVALUE PUSH2 0x266 JUMPI PUSH2 0x210 PUSH2 0x69F PUSH2 0x1D19 CALLDATASIZE PUSH2 0x21AD JUMP JUMPDEST SWAP1 PUSH1 0x40 MLOAD SWAP3 PUSH2 0x1D27 DUP5 PUSH2 0x221C JUMP JUMPDEST PUSH1 0x0 DUP5 MSTORE PUSH2 0x68F PUSH2 0x68A DUP5 CALLER PUSH2 0x25AF JUMP JUMPDEST CALLVALUE PUSH2 0x266 JUMPI PUSH1 0x0 CALLDATASIZE PUSH1 0x3 NOT ADD SLT PUSH2 0x266 JUMPI PUSH2 0x1D51 PUSH2 0x23AE JUMP JUMPDEST PUSH1 0x0 DUP1 DUP1 DUP1 PUSH1 0x1 DUP1 PUSH1 0xA0 SHL SUB PUSH1 0x97 SLOAD AND SELFBALANCE SWAP1 DUP3 DUP3 ISZERO PUSH2 0x1D73 JUMPI JUMPDEST CALL ISZERO PUSH2 0xBE5 JUMPI STOP JUMPDEST POP PUSH2 0x8FC PUSH2 0x1D6B JUMP JUMPDEST CALLVALUE PUSH2 0x266 JUMPI PUSH1 0x20 CALLDATASIZE PUSH1 0x3 NOT ADD SLT PUSH2 0x266 JUMPI PUSH1 0x1 PUSH1 0x1 PUSH1 0xA0 SHL SUB PUSH2 0x1D9D PUSH2 0x2181 JUMP JUMPDEST AND PUSH1 0x0 MSTORE PUSH2 0x102 PUSH1 0x20 MSTORE PUSH1 0x20 PUSH1 0x40 PUSH1 0x0 KECCAK256 SLOAD PUSH1 0x40 MLOAD SWAP1 DUP2 MSTORE RETURN JUMPDEST CALLVALUE PUSH2 0x266 JUMPI PUSH1 0x0 CALLDATASIZE PUSH1 0x3 NOT ADD SLT PUSH2 0x266 JUMPI PUSH1 0x20 PUSH1 0xFB SLOAD PUSH1 0x40 MLOAD SWAP1 DUP2 MSTORE RETURN JUMPDEST CALLVALUE PUSH2 0x266 JUMPI PUSH1 0x20 CALLDATASIZE PUSH1 0x3 NOT ADD SLT PUSH2 0x266 JUMPI PUSH1 0x20 PUSH2 0x1DF3 PUSH1 0x4 CALLDATALOAD PUSH2 0x389B JUMP JUMPDEST PUSH1 0x40 MLOAD SWAP1 DUP2 MSTORE RETURN JUMPDEST CALLVALUE PUSH2 0x266 JUMPI PUSH1 0x0 CALLDATASIZE PUSH1 0x3 NOT ADD SLT PUSH2 0x266 JUMPI PUSH1 0x20 PUSH1 0xFF PUSH1 0xFE SLOAD AND PUSH1 0x40 MLOAD SWAP1 ISZERO ISZERO DUP2 MSTORE RETURN JUMPDEST CALLVALUE PUSH2 0x266 JUMPI PUSH2 0x210 PUSH2 0x1E2F CALLDATASIZE PUSH2 0x21AD JUMP JUMPDEST SWAP2 PUSH2 0x1E3D PUSH2 0x68A DUP5 CALLER PUSH2 0x25AF JUMP JUMPDEST PUSH2 0x2677 JUMP JUMPDEST CALLVALUE PUSH2 0x266 JUMPI PUSH1 0x0 CALLDATASIZE PUSH1 0x3 NOT ADD SLT PUSH2 0x266 JUMPI PUSH1 0x20 PUSH2 0x100 SLOAD PUSH1 0x40 MLOAD SWAP1 DUP2 MSTORE RETURN JUMPDEST CALLVALUE PUSH2 0x266 JUMPI PUSH1 0x0 CALLDATASIZE PUSH1 0x3 NOT ADD SLT PUSH2 0x266 JUMPI PUSH1 0x20 PUSH1 0xFC SLOAD PUSH1 0x40 MLOAD SWAP1 DUP2 MSTORE RETURN JUMPDEST CALLVALUE PUSH2 0x266 JUMPI PUSH1 0x40 CALLDATASIZE PUSH1 0x3 NOT ADD SLT PUSH2 0x266 JUMPI PUSH2 0x1E98 PUSH2 0x2181 JUMP JUMPDEST PUSH1 0x24 CALLDATALOAD SWAP1 PUSH1 0x1 PUSH1 0x1 PUSH1 0xA0 SHL SUB DUP1 DUP1 PUSH2 0x1EAF DUP6 PUSH2 0x2484 JUMP JUMPDEST AND SWAP3 AND SWAP2 DUP1 DUP4 EQ PUSH2 0x1FAA JUMPI DUP1 CALLER EQ SWAP1 DUP2 ISZERO PUSH2 0x1F85 JUMPI JUMPDEST POP ISZERO PUSH2 0x1F1A JUMPI PUSH1 0x0 DUP4 DUP2 MSTORE PUSH1 0x69 PUSH1 0x20 MSTORE PUSH1 0x40 SWAP1 KECCAK256 DUP1 SLOAD PUSH1 0x1 PUSH1 0x1 PUSH1 0xA0 SHL SUB NOT AND DUP4 OR SWAP1 SSTORE PUSH2 0x1EF2 DUP4 PUSH2 0x2484 JUMP JUMPDEST AND PUSH32 0x8C5BE1E5EBEC7D5BD14F71427D1E84F3DD0314C0F7B2291E5B200AC8C7C3B925 PUSH1 0x0 DUP1 LOG4 STOP JUMPDEST PUSH1 0x40 MLOAD PUSH3 0x461BCD PUSH1 0xE5 SHL DUP2 MSTORE PUSH1 0x20 PUSH1 0x4 DUP3 ADD MSTORE PUSH1 0x3D PUSH1 0x24 DUP3 ADD MSTORE PUSH32 0x4552433732313A20617070726F76652063616C6C6572206973206E6F7420746F PUSH1 0x44 DUP3 ADD MSTORE PUSH32 0x6B656E206F776E6572206F7220617070726F76656420666F7220616C6C000000 PUSH1 0x64 DUP3 ADD MSTORE PUSH1 0x84 SWAP1 REVERT JUMPDEST SWAP1 POP PUSH1 0x0 MSTORE PUSH1 0x6A PUSH1 0x20 MSTORE PUSH1 0x40 PUSH1 0x0 KECCAK256 CALLER PUSH1 0x0 MSTORE PUSH1 0x20 MSTORE PUSH1 0xFF PUSH1 0x40 PUSH1 0x0 KECCAK256 SLOAD AND DUP5 PUSH2 0x1EC5 JUMP JUMPDEST PUSH1 0x40 MLOAD PUSH3 0x461BCD PUSH1 0xE5 SHL DUP2 MSTORE PUSH1 0x20 PUSH1 0x4 DUP3 ADD MSTORE PUSH1 0x21 PUSH1 0x24 DUP3 ADD MSTORE PUSH32 0x4552433732313A20617070726F76616C20746F2063757272656E74206F776E65 PUSH1 0x44 DUP3 ADD MSTORE PUSH1 0x39 PUSH1 0xF9 SHL PUSH1 0x64 DUP3 ADD MSTORE PUSH1 0x84 SWAP1 REVERT JUMPDEST CALLVALUE PUSH2 0x266 JUMPI PUSH1 0x20 CALLDATASIZE PUSH1 0x3 NOT ADD SLT PUSH2 0x266 JUMPI PUSH1 0x20 PUSH2 0x1C28 PUSH1 0x4 CALLDATALOAD PUSH2 0x24AA JUMP JUMPDEST CALLVALUE PUSH2 0x266 JUMPI PUSH1 0x0 CALLDATASIZE PUSH1 0x3 NOT ADD SLT PUSH2 0x266 JUMPI PUSH1 0x40 MLOAD PUSH1 0x0 SWAP1 PUSH1 0x65 SLOAD PUSH2 0x203A DUP2 PUSH2 0x21E2 JUMP JUMPDEST DUP1 DUP4 MSTORE PUSH1 0x1 SWAP2 DUP1 DUP4 AND SWAP1 DUP2 ISZERO PUSH2 0xA55 JUMPI POP PUSH1 0x1 EQ PUSH2 0x2062 JUMPI PUSH2 0x2AC DUP4 PUSH2 0x298 DUP2 DUP8 SUB DUP3 PUSH2 0x226D JUMP JUMPDEST PUSH1 0x65 PUSH1 0x0 SWAP1 DUP2 MSTORE PUSH1 0x20 SWAP5 POP SWAP2 PUSH32 0x8FF97419363FFD7000167F130EF7168FBEA05FAF9251824CA5043F113CC6A7C7 JUMPDEST DUP3 DUP5 LT PUSH2 0x20A9 JUMPI POP POP POP DUP2 ADD SWAP1 SWAP2 ADD SWAP1 PUSH2 0x298 DUP2 PUSH2 0x9EB JUMP JUMPDEST DUP1 SLOAD DUP6 DUP6 ADD DUP8 ADD MSTORE SWAP3 DUP6 ADD SWAP3 DUP2 ADD PUSH2 0x2090 JUMP JUMPDEST CALLVALUE PUSH2 0x266 JUMPI PUSH1 0x20 CALLDATASIZE PUSH1 0x3 NOT ADD SLT PUSH2 0x266 JUMPI PUSH1 0x4 CALLDATALOAD SWAP1 PUSH4 0xFFFFFFFF PUSH1 0xE0 SHL DUP3 AND DUP1 SWAP3 SUB PUSH2 0x266 JUMPI DUP2 PUSH1 0x20 SWAP3 ISZERO SWAP1 DUP2 ISZERO PUSH2 0x20F6 JUMPI JUMPDEST POP ISZERO ISZERO DUP2 MSTORE RETURN JUMPDEST PUSH4 0x80AC58CD PUSH1 0xE0 SHL DUP2 EQ SWAP2 POP DUP2 ISZERO PUSH2 0x2128 JUMPI JUMPDEST DUP2 ISZERO PUSH2 0x2117 JUMPI JUMPDEST POP DUP4 PUSH2 0x20EF JUMP JUMPDEST PUSH4 0x1FFC9A7 PUSH1 0xE0 SHL EQ SWAP1 POP DUP4 PUSH2 0x2110 JUMP JUMPDEST PUSH4 0x5B5E139F PUSH1 0xE0 SHL DUP2 EQ SWAP2 POP PUSH2 0x2109 JUMP JUMPDEST PUSH1 0x0 JUMPDEST DUP4 DUP2 LT PUSH2 0x214C JUMPI POP POP PUSH1 0x0 SWAP2 ADD MSTORE JUMP JUMPDEST DUP2 DUP2 ADD MLOAD DUP4 DUP3 ADD MSTORE PUSH1 0x20 ADD PUSH2 0x213C JUMP JUMPDEST SWAP1 PUSH1 0x20 SWAP2 PUSH2 0x2175 DUP2 MLOAD DUP1 SWAP3 DUP2 DUP6 MSTORE DUP6 DUP1 DUP7 ADD SWAP2 ADD PUSH2 0x2139 JUMP JUMPDEST PUSH1 0x1F ADD PUSH1 0x1F NOT AND ADD ADD SWAP1 JUMP JUMPDEST PUSH1 0x4 CALLDATALOAD SWAP1 PUSH1 0x1 PUSH1 0x1 PUSH1 0xA0 SHL SUB DUP3 AND DUP3 SUB PUSH2 0x266 JUMPI JUMP JUMPDEST PUSH1 0x24 CALLDATALOAD SWAP1 PUSH1 0x1 PUSH1 0x1 PUSH1 0xA0 SHL SUB DUP3 AND DUP3 SUB PUSH2 0x266 JUMPI JUMP JUMPDEST PUSH1 0x60 SWAP1 PUSH1 0x3 NOT ADD SLT PUSH2 0x266 JUMPI PUSH1 0x1 PUSH1 0x1 PUSH1 0xA0 SHL SUB SWAP1 PUSH1 0x4 CALLDATALOAD DUP3 DUP2 AND DUP2 SUB PUSH2 0x266 JUMPI SWAP2 PUSH1 0x24 CALLDATALOAD SWAP1 DUP2 AND DUP2 SUB PUSH2 0x266 JUMPI SWAP1 PUSH1 0x44 CALLDATALOAD SWAP1 JUMP JUMPDEST SWAP1 PUSH1 0x1 DUP3 DUP2 SHR SWAP3 AND DUP1 ISZERO PUSH2 0x2212 JUMPI JUMPDEST PUSH1 0x20 DUP4 LT EQ PUSH2 0x21FC JUMPI JUMP JUMPDEST PUSH4 0x4E487B71 PUSH1 0xE0 SHL PUSH1 0x0 MSTORE PUSH1 0x22 PUSH1 0x4 MSTORE PUSH1 0x24 PUSH1 0x0 REVERT JUMPDEST SWAP2 PUSH1 0x7F AND SWAP2 PUSH2 0x21F1 JUMP JUMPDEST PUSH1 0x20 DUP2 ADD SWAP1 DUP2 LT PUSH1 0x1 PUSH1 0x1 PUSH1 0x40 SHL SUB DUP3 GT OR PUSH2 0x86A JUMPI PUSH1 0x40 MSTORE JUMP JUMPDEST PUSH1 0x40 DUP2 ADD SWAP1 DUP2 LT PUSH1 0x1 PUSH1 0x1 PUSH1 0x40 SHL SUB DUP3 GT OR PUSH2 0x86A JUMPI PUSH1 0x40 MSTORE JUMP JUMPDEST PUSH1 0x60 DUP2 ADD SWAP1 DUP2 LT PUSH1 0x1 PUSH1 0x1 PUSH1 0x40 SHL SUB DUP3 GT OR PUSH2 0x86A JUMPI PUSH1 0x40 MSTORE JUMP JUMPDEST PUSH1 0x1F SWAP1 SWAP2 ADD PUSH1 0x1F NOT AND DUP2 ADD SWAP1 PUSH1 0x1 PUSH1 0x1 PUSH1 0x40 SHL SUB DUP3 GT SWAP1 DUP3 LT OR PUSH2 0x86A JUMPI PUSH1 0x40 MSTORE JUMP JUMPDEST SWAP1 PUSH1 0x40 MLOAD SWAP2 DUP3 PUSH1 0x0 DUP3 SLOAD SWAP3 PUSH2 0x22A4 DUP5 PUSH2 0x21E2 JUMP JUMPDEST SWAP1 DUP2 DUP5 MSTORE PUSH1 0x1 SWAP5 DUP6 DUP2 AND SWAP1 DUP2 PUSH1 0x0 EQ PUSH2 0x2313 JUMPI POP PUSH1 0x1 EQ PUSH2 0x22D0 JUMPI JUMPDEST POP POP PUSH2 0x22CE SWAP3 POP SUB DUP4 PUSH2 0x226D JUMP JUMPDEST JUMP JUMPDEST SWAP1 SWAP4 SWAP2 POP PUSH1 0x0 MSTORE PUSH1 0x20 SWAP1 DUP2 PUSH1 0x0 KECCAK256 SWAP4 PUSH1 0x0 SWAP2 JUMPDEST DUP2 DUP4 LT PUSH2 0x22FB JUMPI POP POP PUSH2 0x22CE SWAP4 POP DUP3 ADD ADD CODESIZE DUP1 PUSH2 0x22C0 JUMP JUMPDEST DUP6 SLOAD DUP9 DUP5 ADD DUP6 ADD MSTORE SWAP5 DUP6 ADD SWAP5 DUP8 SWAP5 POP SWAP2 DUP4 ADD SWAP2 PUSH2 0x22E3 JUMP JUMPDEST SWAP2 POP POP PUSH2 0x22CE SWAP5 POP PUSH1 0x20 SWAP3 POP PUSH1 0xFF NOT AND DUP3 DUP5 ADD MSTORE ISZERO ISZERO PUSH1 0x5 SHL DUP3 ADD ADD CODESIZE DUP1 PUSH2 0x22C0 JUMP JUMPDEST SWAP2 DUP2 PUSH1 0x1F DUP5 ADD SLT ISZERO PUSH2 0x266 JUMPI DUP3 CALLDATALOAD SWAP2 PUSH1 0x1 PUSH1 0x1 PUSH1 0x40 SHL SUB DUP4 GT PUSH2 0x266 JUMPI PUSH1 0x20 DUP4 DUP2 DUP7 ADD SWAP6 ADD ADD GT PUSH2 0x266 JUMPI JUMP JUMPDEST SWAP2 DUP2 PUSH1 0x1F DUP5 ADD SLT ISZERO PUSH2 0x266 JUMPI DUP3 CALLDATALOAD SWAP2 PUSH1 0x1 PUSH1 0x1 PUSH1 0x40 SHL SUB DUP4 GT PUSH2 0x266 JUMPI PUSH1 0x20 DUP1 DUP6 ADD SWAP5 DUP5 PUSH1 0x5 SHL ADD ADD GT PUSH2 0x266 JUMPI JUMP JUMPDEST PUSH1 0x1 PUSH1 0x1 PUSH1 0x40 SHL SUB DUP2 GT PUSH2 0x86A JUMPI PUSH1 0x1F ADD PUSH1 0x1F NOT AND PUSH1 0x20 ADD SWAP1 JUMP JUMPDEST PUSH1 0x97 SLOAD PUSH1 0x1 PUSH1 0x1 PUSH1 0xA0 SHL SUB AND CALLER SUB PUSH2 0x23C2 JUMPI JUMP JUMPDEST PUSH1 0x64 PUSH1 0x40 MLOAD PUSH3 0x461BCD PUSH1 0xE5 SHL DUP2 MSTORE PUSH1 0x20 PUSH1 0x4 DUP3 ADD MSTORE PUSH1 0x20 PUSH1 0x24 DUP3 ADD MSTORE PUSH32 0x4F776E61626C653A2063616C6C6572206973206E6F7420746865206F776E6572 PUSH1 0x44 DUP3 ADD MSTORE REVERT JUMPDEST PUSH1 0x97 DUP1 SLOAD PUSH1 0x1 PUSH1 0x1 PUSH1 0xA0 SHL SUB SWAP3 DUP4 AND PUSH1 0x1 PUSH1 0x1 PUSH1 0xA0 SHL SUB NOT DUP3 AND DUP2 OR SWAP1 SWAP3 SSTORE SWAP1 SWAP2 AND PUSH1 0x0 DUP1 MLOAD PUSH1 0x20 PUSH2 0x3AE8 DUP4 CODECOPY DUP2 MLOAD SWAP2 MSTORE PUSH1 0x0 DUP1 LOG3 JUMP JUMPDEST ISZERO PUSH2 0x2444 JUMPI JUMP JUMPDEST PUSH1 0x40 MLOAD PUSH3 0x461BCD PUSH1 0xE5 SHL DUP2 MSTORE PUSH1 0x20 PUSH1 0x4 DUP3 ADD MSTORE PUSH1 0x18 PUSH1 0x24 DUP3 ADD MSTORE PUSH24 0x115490CDCC8C4E881A5B9D985B1A59081D1BDAD95B881251 PUSH1 0x42 SHL PUSH1 0x44 DUP3 ADD MSTORE PUSH1 0x64 SWAP1 REVERT JUMPDEST PUSH1 0x0 SWAP1 DUP2 MSTORE PUSH1 0x67 PUSH1 0x20 MSTORE PUSH1 0x40 SWAP1 KECCAK256 SLOAD PUSH1 0x1 PUSH1 0x1 PUSH1 0xA0 SHL SUB AND PUSH2 0x24A7 DUP2 ISZERO ISZERO PUSH2 0x243D JUMP JUMPDEST SWAP1 JUMP JUMPDEST PUSH2 0x24BB PUSH2 0x24B6 DUP3 PUSH2 0x2773 JUMP JUMPDEST PUSH2 0x243D JUMP JUMPDEST PUSH1 0x0 SWAP1 DUP2 MSTORE PUSH1 0x69 PUSH1 0x20 MSTORE PUSH1 0x40 SWAP1 KECCAK256 SLOAD PUSH1 0x1 PUSH1 0x1 PUSH1 0xA0 SHL SUB AND SWAP1 JUMP JUMPDEST ISZERO PUSH2 0x24DD JUMPI JUMP JUMPDEST PUSH1 0x40 MLOAD PUSH3 0x461BCD PUSH1 0xE5 SHL DUP2 MSTORE PUSH1 0x20 PUSH1 0x4 DUP3 ADD MSTORE PUSH1 0x2D PUSH1 0x24 DUP3 ADD MSTORE PUSH32 0x4552433732313A2063616C6C6572206973206E6F7420746F6B656E206F776E65 PUSH1 0x44 DUP3 ADD MSTORE PUSH13 0x1C881BDC88185C1C1C9BDD9959 PUSH1 0x9A SHL PUSH1 0x64 DUP3 ADD MSTORE PUSH1 0x84 SWAP1 REVERT JUMPDEST PUSH1 0x80 SWAP1 PUSH1 0x20 DUP2 MSTORE PUSH1 0x32 PUSH1 0x20 DUP3 ADD MSTORE PUSH32 0x4552433732313A207472616E7366657220746F206E6F6E204552433732315265 PUSH1 0x40 DUP3 ADD MSTORE PUSH18 0x31B2B4BB32B91034B6B83632B6B2B73A32B9 PUSH1 0x71 SHL PUSH1 0x60 DUP3 ADD MSTORE ADD SWAP1 JUMP JUMPDEST ISZERO PUSH2 0x2592 JUMPI JUMP JUMPDEST PUSH1 0x40 MLOAD PUSH3 0x461BCD PUSH1 0xE5 SHL DUP2 MSTORE DUP1 PUSH2 0x25AB PUSH1 0x4 DUP3 ADD PUSH2 0x2538 JUMP JUMPDEST SUB SWAP1 REVERT JUMPDEST SWAP1 PUSH1 0x1 PUSH1 0x1 PUSH1 0xA0 SHL SUB DUP1 DUP1 PUSH2 0x25C3 DUP5 PUSH2 0x2484 JUMP JUMPDEST AND SWAP4 AND SWAP2 DUP4 DUP4 EQ SWAP4 DUP5 ISZERO PUSH2 0x25F6 JUMPI JUMPDEST POP DUP4 ISZERO PUSH2 0x25E0 JUMPI JUMPDEST POP POP POP SWAP1 JUMP JUMPDEST PUSH2 0x25EC SWAP2 SWAP3 SWAP4 POP PUSH2 0x24AA JUMP JUMPDEST AND EQ CODESIZE DUP1 DUP1 PUSH2 0x25DA JUMP JUMPDEST SWAP1 SWAP4 POP PUSH1 0x0 MSTORE PUSH1 0x6A PUSH1 0x20 MSTORE PUSH1 0x40 PUSH1 0x0 KECCAK256 DUP3 PUSH1 0x0 MSTORE PUSH1 0x20 MSTORE PUSH1 0xFF PUSH1 0x40 PUSH1 0x0 KECCAK256 SLOAD AND SWAP3 CODESIZE PUSH2 0x25D2 JUMP JUMPDEST ISZERO PUSH2 0x2624 JUMPI JUMP JUMPDEST PUSH1 0x40 MLOAD PUSH3 0x461BCD PUSH1 0xE5 SHL DUP2 MSTORE PUSH1 0x20 PUSH1 0x4 DUP3 ADD MSTORE PUSH1 0x25 PUSH1 0x24 DUP3 ADD MSTORE PUSH32 0x4552433732313A207472616E736665722066726F6D20696E636F727265637420 PUSH1 0x44 DUP3 ADD MSTORE PUSH5 0x37BBB732B9 PUSH1 0xD9 SHL PUSH1 0x64 DUP3 ADD MSTORE PUSH1 0x84 SWAP1 REVERT JUMPDEST SWAP1 PUSH2 0x269F SWAP2 PUSH2 0x2685 DUP5 PUSH2 0x2484 JUMP JUMPDEST PUSH1 0x1 PUSH1 0x1 PUSH1 0xA0 SHL SUB SWAP4 SWAP2 DUP5 AND SWAP3 DUP5 SWAP3 SWAP1 SWAP2 DUP4 AND DUP5 EQ PUSH2 0x261D JUMP JUMPDEST AND SWAP2 DUP3 ISZERO PUSH2 0x2722 JUMPI DUP2 PUSH2 0x26BC SWAP2 PUSH2 0x26B5 DUP7 PUSH2 0x2484 JUMP JUMPDEST AND EQ PUSH2 0x261D JUMP JUMPDEST PUSH1 0x0 DUP1 MLOAD PUSH1 0x20 PUSH2 0x3B08 DUP4 CODECOPY DUP2 MLOAD SWAP2 MSTORE PUSH1 0x0 DUP5 DUP2 MSTORE PUSH1 0x69 PUSH1 0x20 MSTORE PUSH1 0x40 DUP2 KECCAK256 PUSH1 0x1 DUP1 PUSH1 0xA0 SHL SUB NOT SWAP1 DUP2 DUP2 SLOAD AND SWAP1 SSTORE DUP4 DUP3 MSTORE PUSH1 0x68 PUSH1 0x20 MSTORE PUSH1 0x40 DUP3 KECCAK256 PUSH1 0x0 NOT DUP2 SLOAD ADD SWAP1 SSTORE DUP5 DUP3 MSTORE PUSH1 0x40 DUP3 KECCAK256 PUSH1 0x1 DUP2 SLOAD ADD SWAP1 SSTORE DUP6 DUP3 MSTORE PUSH1 0x67 PUSH1 0x20 MSTORE DUP5 PUSH1 0x40 DUP4 KECCAK256 SWAP2 DUP3 SLOAD AND OR SWAP1 SSTORE DUP1 LOG4 JUMP JUMPDEST PUSH1 0x40 MLOAD PUSH3 0x461BCD PUSH1 0xE5 SHL DUP2 MSTORE PUSH1 0x20 PUSH1 0x4 DUP3 ADD MSTORE PUSH1 0x24 DUP1 DUP3 ADD MSTORE PUSH32 0x4552433732313A207472616E7366657220746F20746865207A65726F20616464 PUSH1 0x44 DUP3 ADD MSTORE PUSH4 0x72657373 PUSH1 0xE0 SHL PUSH1 0x64 DUP3 ADD MSTORE PUSH1 0x84 SWAP1 REVERT JUMPDEST PUSH1 0x0 SWAP1 DUP2 MSTORE PUSH1 0x67 PUSH1 0x20 MSTORE PUSH1 0x40 SWAP1 KECCAK256 SLOAD PUSH1 0x1 PUSH1 0x1 PUSH1 0xA0 SHL SUB AND ISZERO ISZERO SWAP1 JUMP JUMPDEST SWAP2 SWAP3 SWAP1 SWAP2 DUP1 EXTCODESIZE ISZERO PUSH2 0x28A5 JUMPI PUSH2 0x27DD SWAP4 PUSH1 0x40 MLOAD SWAP1 DUP2 PUSH4 0xA85BD01 PUSH1 0xE1 SHL SWAP4 DUP5 DUP3 MSTORE CALLER PUSH1 0x4 DUP4 ADD MSTORE PUSH1 0x0 SWAP7 DUP8 PUSH1 0x24 DUP5 ADD MSTORE PUSH1 0x44 DUP4 ADD MSTORE PUSH1 0x80 PUSH1 0x64 DUP4 ADD MSTORE DUP2 DUP8 DUP2 PUSH1 0x20 SWAP11 DUP12 SWAP7 PUSH1 0x84 DUP4 ADD SWAP1 PUSH2 0x215C JUMP JUMPDEST SUB SWAP3 PUSH1 0x1 PUSH1 0x1 PUSH1 0xA0 SHL SUB AND GAS CALL DUP5 SWAP2 DUP2 PUSH2 0x2861 JUMPI JUMPDEST POP PUSH2 0x2850 JUMPI POP POP POP RETURNDATASIZE PUSH1 0x0 EQ PUSH2 0x2848 JUMPI RETURNDATASIZE PUSH2 0x280C DUP2 PUSH2 0x2393 JUMP JUMPDEST SWAP1 PUSH2 0x281A PUSH1 0x40 MLOAD SWAP3 DUP4 PUSH2 0x226D JUMP JUMPDEST DUP2 MSTORE DUP1 SWAP2 DUP4 RETURNDATASIZE SWAP3 ADD RETURNDATACOPY JUMPDEST DUP1 MLOAD SWAP2 DUP3 PUSH2 0x2845 JUMPI PUSH1 0x40 MLOAD PUSH3 0x461BCD PUSH1 0xE5 SHL DUP2 MSTORE DUP1 PUSH2 0x25AB PUSH1 0x4 DUP3 ADD PUSH2 0x2538 JUMP JUMPDEST ADD REVERT JUMPDEST POP PUSH1 0x60 PUSH2 0x2824 JUMP JUMPDEST PUSH1 0x1 PUSH1 0x1 PUSH1 0xE0 SHL SUB NOT AND EQ SWAP3 POP SWAP1 POP JUMP JUMPDEST SWAP1 SWAP2 POP DUP6 DUP2 DUP2 RETURNDATASIZE DUP4 GT PUSH2 0x289E JUMPI JUMPDEST PUSH2 0x2879 DUP2 DUP4 PUSH2 0x226D JUMP JUMPDEST DUP2 ADD SUB SLT PUSH2 0x289A JUMPI MLOAD PUSH1 0x1 PUSH1 0x1 PUSH1 0xE0 SHL SUB NOT DUP2 AND DUP2 SUB PUSH2 0x289A JUMPI SWAP1 CODESIZE PUSH2 0x27F2 JUMP JUMPDEST DUP5 DUP1 REVERT JUMPDEST POP RETURNDATASIZE PUSH2 0x286F JUMP JUMPDEST POP SWAP2 POP POP PUSH1 0x1 SWAP1 JUMP JUMPDEST SWAP3 SWAP4 SWAP2 SWAP1 DUP1 EXTCODESIZE ISZERO PUSH2 0x292B JUMPI PUSH2 0x2900 SWAP5 PUSH1 0x40 MLOAD DUP1 SWAP3 PUSH4 0xA85BD01 PUSH1 0xE1 SHL SWAP5 DUP6 DUP4 MSTORE CALLER PUSH1 0x4 DUP5 ADD MSTORE PUSH1 0x1 DUP1 PUSH1 0xA0 SHL SUB DUP1 SWAP9 AND PUSH1 0x24 DUP5 ADD MSTORE PUSH1 0x44 DUP4 ADD MSTORE PUSH1 0x80 PUSH1 0x64 DUP4 ADD MSTORE DUP2 DUP1 PUSH1 0x20 SWAP10 DUP11 SWAP6 PUSH1 0x84 DUP4 ADD SWAP1 PUSH2 0x215C JUMP JUMPDEST SUB SWAP2 PUSH1 0x0 SWAP9 DUP10 SWAP2 AND GAS CALL DUP5 SWAP2 DUP2 PUSH2 0x2861 JUMPI POP PUSH2 0x2850 JUMPI POP POP POP RETURNDATASIZE PUSH1 0x0 EQ PUSH2 0x2848 JUMPI RETURNDATASIZE PUSH2 0x280C DUP2 PUSH2 0x2393 JUMP JUMPDEST POP POP SWAP2 POP POP PUSH1 0x1 SWAP1 JUMP JUMPDEST DUP2 DUP2 LT PUSH2 0x2940 JUMPI POP POP JUMP JUMPDEST PUSH1 0x0 DUP2 SSTORE PUSH1 0x1 ADD PUSH2 0x2935 JUMP JUMPDEST SWAP2 SWAP1 PUSH1 0x1F DUP2 GT PUSH2 0x295B JUMPI POP POP POP JUMP JUMPDEST PUSH2 0x22CE SWAP3 PUSH1 0x0 MSTORE PUSH1 0x20 PUSH1 0x0 KECCAK256 SWAP1 PUSH1 0x20 PUSH1 0x1F DUP5 ADD PUSH1 0x5 SHR DUP4 ADD SWAP4 LT PUSH2 0x860 JUMPI PUSH1 0x1F ADD PUSH1 0x5 SHR ADD SWAP1 PUSH2 0x2935 JUMP JUMPDEST ISZERO PUSH2 0x298D JUMPI JUMP JUMPDEST PUSH1 0x40 MLOAD PUSH3 0x461BCD PUSH1 0xE5 SHL DUP2 MSTORE PUSH1 0x20 PUSH1 0x4 DUP3 ADD MSTORE PUSH1 0x2B PUSH1 0x24 DUP3 ADD MSTORE PUSH32 0x496E697469616C697A61626C653A20636F6E7472616374206973206E6F742069 PUSH1 0x44 DUP3 ADD MSTORE PUSH11 0x6E697469616C697A696E67 PUSH1 0xA8 SHL PUSH1 0x64 DUP3 ADD MSTORE PUSH1 0x84 SWAP1 REVERT JUMPDEST SWAP2 SWAP1 DUP3 ADD DUP1 SWAP3 GT PUSH2 0x29F3 JUMPI JUMP JUMPDEST PUSH4 0x4E487B71 PUSH1 0xE0 SHL PUSH1 0x0 MSTORE PUSH1 0x11 PUSH1 0x4 MSTORE PUSH1 0x24 PUSH1 0x0 REVERT JUMPDEST DUP2 DUP2 MUL SWAP3 SWAP2 DUP2 ISZERO SWAP2 DUP5 DIV EQ OR ISZERO PUSH2 0x29F3 JUMPI JUMP JUMPDEST PUSH1 0x0 NOT DUP2 EQ PUSH2 0x29F3 JUMPI PUSH1 0x1 ADD SWAP1 JUMP JUMPDEST SWAP2 SWAP1 DUP2 LT ISZERO PUSH2 0xEF3 JUMPI PUSH1 0x5 SHL DUP2 ADD CALLDATALOAD SWAP1 PUSH1 0x1E NOT DUP2 CALLDATASIZE SUB ADD DUP3 SLT ISZERO PUSH2 0x266 JUMPI ADD DUP1 CALLDATALOAD SWAP2 SWAP1 PUSH1 0x1 PUSH1 0x1 PUSH1 0x40 SHL SUB DUP4 GT PUSH2 0x266 JUMPI PUSH1 0x20 ADD DUP3 CALLDATASIZE SUB DUP2 SGT PUSH2 0x266 JUMPI SWAP2 SWAP1 JUMP JUMPDEST ISZERO PUSH2 0x2A73 JUMPI JUMP JUMPDEST PUSH1 0x40 MLOAD PUSH3 0x461BCD PUSH1 0xE5 SHL DUP2 MSTORE PUSH1 0x20 PUSH1 0x4 DUP3 ADD MSTORE PUSH1 0x25 PUSH1 0x24 DUP3 ADD MSTORE PUSH32 0x496D616765206D75737420626520646174613A696D6167652F2A3B6261736536 PUSH1 0x44 DUP3 ADD MSTORE PUSH5 0x1A16171717 PUSH1 0xD9 SHL PUSH1 0x64 DUP3 ADD MSTORE PUSH1 0x84 SWAP1 REVERT JUMPDEST ISZERO PUSH2 0x2ACD JUMPI JUMP JUMPDEST PUSH1 0x40 MLOAD PUSH3 0x461BCD PUSH1 0xE5 SHL DUP2 MSTORE PUSH1 0x20 PUSH1 0x4 DUP3 ADD MSTORE PUSH1 0x13 PUSH1 0x24 DUP3 ADD MSTORE PUSH19 0x105D1D1C9A589D5D195CC81C995C5D5A5C9959 PUSH1 0x6A SHL PUSH1 0x44 DUP3 ADD MSTORE PUSH1 0x64 SWAP1 REVERT JUMPDEST SWAP2 SWAP1 DUP3 SUB SWAP2 DUP3 GT PUSH2 0x29F3 JUMPI JUMP JUMPDEST PUSH1 0x2 PUSH1 0xC9 SLOAD EQ PUSH2 0x2B26 JUMPI PUSH1 0x2 PUSH1 0xC9 SSTORE JUMP JUMPDEST PUSH1 0x40 MLOAD PUSH3 0x461BCD PUSH1 0xE5 SHL DUP2 MSTORE PUSH1 0x20 PUSH1 0x4 DUP3 ADD MSTORE PUSH1 0x1F PUSH1 0x24 DUP3 ADD MSTORE PUSH32 0x5265656E7472616E637947756172643A207265656E7472616E742063616C6C00 PUSH1 0x44 DUP3 ADD MSTORE PUSH1 0x64 SWAP1 REVERT JUMPDEST ISZERO PUSH2 0x2B72 JUMPI JUMP JUMPDEST PUSH1 0x40 MLOAD PUSH3 0x461BCD PUSH1 0xE5 SHL DUP2 MSTORE PUSH1 0x20 PUSH1 0x4 DUP3 ADD MSTORE PUSH1 0x1C PUSH1 0x24 DUP3 ADD MSTORE PUSH28 0x115490CDCC8C4E881D1BDAD95B88185B1C9958591E481B5A5B9D1959 PUSH1 0x22 SHL PUSH1 0x44 DUP3 ADD MSTORE PUSH1 0x64 SWAP1 REVERT JUMPDEST ISZERO PUSH2 0x2BBD JUMPI JUMP JUMPDEST PUSH1 0x40 MLOAD PUSH3 0x461BCD PUSH1 0xE5 SHL DUP2 MSTORE PUSH1 0x20 PUSH1 0x4 DUP3 ADD MSTORE PUSH1 0xD PUSH1 0x24 DUP3 ADD MSTORE PUSH13 0x24B73B30B634B2103A37B5B2B7 PUSH1 0x99 SHL PUSH1 0x44 DUP3 ADD MSTORE PUSH1 0x64 SWAP1 REVERT JUMPDEST ISZERO PUSH2 0x2BF9 JUMPI JUMP JUMPDEST PUSH1 0x40 MLOAD PUSH3 0x461BCD PUSH1 0xE5 SHL DUP2 MSTORE PUSH1 0x20 PUSH1 0x4 DUP3 ADD MSTORE PUSH1 0xF PUSH1 0x24 DUP3 ADD MSTORE PUSH15 0x2737BA103A37B5B2B71037BBB732B9 PUSH1 0x89 SHL PUSH1 0x44 DUP3 ADD MSTORE PUSH1 0x64 SWAP1 REVERT JUMPDEST PUSH1 0x0 DUP2 DUP2 MSTORE PUSH2 0x103 PUSH1 0x20 SWAP1 DUP2 MSTORE PUSH1 0x40 DUP3 KECCAK256 SWAP2 SWAP5 SWAP3 SWAP4 SWAP1 SWAP3 SWAP1 PUSH1 0x1 PUSH1 0x1 PUSH1 0x40 SHL SUB DUP3 GT PUSH2 0x2D47 JUMPI PUSH2 0x2C6A DUP3 PUSH2 0x2C64 DUP6 SLOAD PUSH2 0x21E2 JUMP JUMPDEST DUP6 PUSH2 0x294C JUMP JUMPDEST DUP6 SWAP1 PUSH1 0x1F DUP4 GT PUSH1 0x1 EQ PUSH2 0x2CE0 JUMPI PUSH2 0x107 SWAP5 SWAP4 SWAP3 SWAP2 DUP8 SWAP2 DUP4 PUSH2 0x2CD5 JUMPI JUMPDEST POP POP DUP2 PUSH1 0x1 SHL SWAP2 PUSH1 0x0 NOT SWAP1 PUSH1 0x3 SHL SHR NOT AND OR SWAP1 SSTORE JUMPDEST DUP3 DUP5 MSTORE MSTORE PUSH1 0x40 DUP3 KECCAK256 PUSH1 0x1 PUSH1 0xFF NOT DUP3 SLOAD AND OR SWAP1 SSTORE PUSH32 0xE6BD40D7FBE8D26F44FD9E1BA6D94055A784EB2DE4A192C015F84C86A73D225B CALLER SWAP3 DUP1 LOG3 JUMP JUMPDEST ADD CALLDATALOAD SWAP1 POP CODESIZE DUP1 PUSH2 0x2C86 JUMP JUMPDEST DUP4 DUP8 MSTORE DUP5 DUP8 KECCAK256 SWAP2 PUSH1 0x1F NOT DUP5 AND DUP9 JUMPDEST DUP2 DUP2 LT PUSH2 0x2D30 JUMPI POP SWAP2 PUSH1 0x1 SWAP4 SWAP2 DUP6 PUSH2 0x107 SWAP9 SWAP8 SWAP7 SWAP5 LT PUSH2 0x2D16 JUMPI JUMPDEST POP POP POP DUP2 SHL ADD SWAP1 SSTORE PUSH2 0x2C9B JUMP JUMPDEST ADD CALLDATALOAD PUSH1 0x0 NOT PUSH1 0x3 DUP5 SWAP1 SHL PUSH1 0xF8 AND SHR NOT AND SWAP1 SSTORE CODESIZE DUP1 DUP1 PUSH2 0x2D09 JUMP JUMPDEST SWAP2 SWAP4 DUP8 PUSH1 0x1 DUP2 SWAP3 DUP8 DUP8 ADD CALLDATALOAD DUP2 SSTORE ADD SWAP6 ADD SWAP3 ADD PUSH2 0x2CEE JUMP JUMPDEST PUSH4 0x4E487B71 PUSH1 0xE0 SHL DUP7 MSTORE PUSH1 0x41 PUSH1 0x4 MSTORE PUSH1 0x24 DUP7 REVERT JUMPDEST SWAP1 PUSH2 0x2D65 DUP3 PUSH2 0x2393 JUMP JUMPDEST PUSH2 0x2D72 PUSH1 0x40 MLOAD SWAP2 DUP3 PUSH2 0x226D JUMP JUMPDEST DUP3 DUP2 MSTORE DUP1 SWAP3 PUSH2 0x2D83 PUSH1 0x1F NOT SWAP2 PUSH2 0x2393 JUMP JUMPDEST ADD SWAP1 PUSH1 0x20 CALLDATASIZE SWAP2 ADD CALLDATACOPY JUMP JUMPDEST DUP1 MLOAD ISZERO PUSH2 0x2ECD JUMPI PUSH1 0x40 MLOAD SWAP1 PUSH2 0x2DA1 DUP3 PUSH2 0x2252 JUMP JUMPDEST PUSH1 0x40 DUP3 MSTORE PUSH32 0x4142434445464748494A4B4C4D4E4F505152535455565758595A616263646566 PUSH1 0x20 DUP4 ADD MSTORE PUSH32 0x6768696A6B6C6D6E6F707172737475767778797A303132333435363738392B2F PUSH1 0x40 DUP4 ADD MSTORE DUP1 MLOAD PUSH1 0x2 SWAP2 DUP3 DUP3 ADD DUP1 SWAP3 GT PUSH2 0x29F3 JUMPI PUSH1 0x3 SWAP2 DUP3 SWAP1 DIV PUSH1 0x1 PUSH1 0x1 PUSH1 0xFE SHL SUB DUP2 AND DUP2 SUB PUSH2 0x29F3 JUMPI PUSH2 0x2E23 SWAP1 DUP5 SWAP6 SWAP5 SHL PUSH2 0x2D5B JUMP JUMPDEST SWAP4 PUSH1 0x20 DUP6 ADD SWAP4 DUP3 SWAP2 DUP4 MLOAD DUP5 ADD SWAP1 PUSH1 0x20 DUP3 ADD SWAP3 DUP4 MLOAD SWAP5 PUSH1 0x0 DUP6 MSTORE JUMPDEST DUP4 DUP2 LT PUSH2 0x2E7C JUMPI POP POP POP POP MSTORE MLOAD MOD DUP1 PUSH1 0x1 EQ PUSH2 0x2E69 JUMPI PUSH1 0x2 EQ PUSH2 0x2E5E JUMPI POP SWAP1 JUMP JUMPDEST PUSH1 0x3D SWAP1 PUSH1 0x0 NOT ADD MSTORE8 SWAP1 JUMP JUMPDEST POP PUSH1 0x3D SWAP1 DUP2 PUSH1 0x0 NOT DUP3 ADD MSTORE8 PUSH1 0x1 NOT ADD MSTORE8 SWAP1 JUMP JUMPDEST DUP8 PUSH1 0x4 SWAP2 SWAP10 SWAP3 SWAP4 SWAP5 SWAP10 ADD SWAP2 DUP3 MLOAD PUSH1 0x1 SWAP1 PUSH1 0x3F SWAP1 DUP3 DUP3 DUP3 PUSH1 0x12 SHR AND DUP9 ADD ADD MLOAD DUP5 MSTORE8 DUP3 DUP3 DUP3 PUSH1 0xC SHR AND DUP9 ADD ADD MLOAD DUP4 DUP6 ADD MSTORE8 DUP3 DUP3 DUP3 PUSH1 0x6 SHR AND DUP9 ADD ADD MLOAD DUP9 DUP6 ADD MSTORE8 AND DUP6 ADD ADD MLOAD DUP10 DUP3 ADD MSTORE8 ADD SWAP8 SWAP3 SWAP2 SWAP1 PUSH2 0x2E3D JUMP JUMPDEST POP PUSH1 0x40 MLOAD PUSH2 0x2EDA DUP2 PUSH2 0x221C JUMP JUMPDEST PUSH1 0x0 DUP2 MSTORE SWAP1 JUMP JUMPDEST DUP1 ISZERO ISZERO DUP1 PUSH2 0x33DF JUMPI JUMPDEST PUSH2 0x2EF3 SWAP1 PUSH2 0x2BB6 JUMP JUMPDEST PUSH1 0xFF SWAP1 DUP2 PUSH1 0xFE SLOAD PUSH1 0x8 SHR AND ISZERO PUSH2 0x322D JUMPI PUSH1 0x92 PUSH2 0x304B SWAP3 PUSH2 0x24A7 SWAP3 PUSH1 0x0 SWAP2 DUP2 DUP4 MSTORE PUSH2 0x3169 PUSH1 0x20 SWAP2 PUSH2 0x103 DUP4 MSTORE PUSH1 0x40 SWAP4 PUSH2 0x2F2C DUP6 DUP8 KECCAK256 PUSH2 0x2290 JUMP JUMPDEST SWAP6 DUP2 DUP2 MSTORE PUSH2 0x104 DUP6 MSTORE PUSH2 0x2F40 DUP7 DUP3 KECCAK256 PUSH2 0x2290 JUMP JUMPDEST SWAP7 DUP3 DUP3 MSTORE PUSH2 0x105 DUP7 MSTORE PUSH2 0x2F54 DUP8 DUP4 KECCAK256 PUSH2 0x2290 JUMP JUMPDEST SWAP3 DUP1 DUP4 MSTORE PUSH2 0x106 DUP8 MSTORE DUP8 DUP4 KECCAK256 SLOAD SWAP3 PUSH2 0x2F6B DUP3 PUSH2 0x389B JUMP JUMPDEST SWAP6 DUP6 MLOAD ISZERO PUSH2 0x31E5 JUMPI JUMPDEST DUP3 DUP3 MSTORE PUSH2 0x2F8D PUSH2 0x107 SWAP7 DUP8 DUP12 MSTORE DUP3 DUP13 DUP6 KECCAK256 SLOAD AND SWAP1 PUSH2 0x353A JUMP JUMPDEST SWAP6 DUP4 DUP4 MSTORE DUP1 DUP11 MSTORE DUP2 DUP12 DUP5 KECCAK256 SLOAD AND PUSH1 0x0 EQ PUSH2 0x31AC JUMPI DUP11 MLOAD PUSH2 0x2FAC DUP2 PUSH2 0x2252 JUMP JUMPDEST PUSH1 0x29 DUP2 MSTORE PUSH32 0x556E6971756520386269742050656E6775696E73206F6E204261736520284576 DUP12 DUP3 ADD MSTORE PUSH9 0x6F6C76656420334429 PUSH1 0xB8 SHL DUP13 DUP3 ADD MSTORE SWAP4 JUMPDEST DUP4 MSTORE DUP10 MSTORE SWAP1 DUP10 SWAP1 KECCAK256 SLOAD AND ISZERO PUSH2 0x3182 JUMPI PUSH1 0x29 PUSH2 0x3026 PUSH2 0x3020 DUP11 MLOAD PUSH2 0x300A DUP2 PUSH2 0x2237 JUMP JUMPDEST PUSH1 0x4 DUP2 MSTORE PUSH4 0x74727565 PUSH1 0xE0 SHL DUP12 DUP3 ADD MSTORE SWAP6 PUSH2 0x33EC JUMP JUMPDEST SWAP7 PUSH2 0x33EC JUMP JUMPDEST SWAP9 MLOAD SWAP13 DUP14 DUP1 SWAP12 PUSH9 0x3D913730B6B2911D11 PUSH1 0xB9 SHL DUP12 DUP4 ADD MSTORE DUP11 DUP2 MLOAD SWAP5 DUP6 SWAP4 ADD SWAP2 ADD PUSH2 0x2139 JUMP JUMPDEST DUP10 ADD PUSH17 0x1116113232B9B1B934B83A34B7B7111D11 PUSH1 0x79 SHL PUSH1 0x29 DUP3 ADD MSTORE PUSH2 0x307A DUP3 MLOAD DUP1 SWAP4 DUP11 PUSH1 0x3A DUP6 ADD SWAP2 ADD PUSH2 0x2139 JUMP JUMPDEST ADD PUSH11 0x11161134B6B0B3B2911D11 PUSH1 0xA9 SHL PUSH1 0x3A DUP3 ADD MSTORE PUSH2 0x30A2 DUP3 MLOAD DUP1 SWAP4 DUP10 PUSH1 0x45 DUP6 ADD SWAP2 ADD PUSH2 0x2139 JUMP JUMPDEST ADD PUSH17 0x222C2272657665616C6564223A74727565 PUSH1 0x78 SHL PUSH1 0x45 DUP3 ADD MSTORE PUSH14 0x161132BB37B63B32B22F99B2111D PUSH1 0x91 SHL PUSH1 0x56 DUP3 ADD MSTORE PUSH2 0x30E7 DUP3 MLOAD DUP1 SWAP4 DUP9 PUSH1 0x64 DUP6 ADD SWAP2 ADD PUSH2 0x2139 JUMP JUMPDEST ADD PUSH14 0x161130BA3A3934B13ABA32B9911D PUSH1 0x91 SHL PUSH1 0x64 DUP3 ADD MSTORE PUSH2 0x3112 DUP3 MLOAD DUP1 SWAP4 DUP8 PUSH1 0x72 DUP6 ADD SWAP2 ADD PUSH2 0x2139 JUMP JUMPDEST ADD PUSH16 0x16113930B934BA3CAFB9B1B7B932911D PUSH1 0x81 SHL PUSH1 0x72 DUP3 ADD MSTORE PUSH2 0x313F DUP3 MLOAD DUP1 SWAP4 DUP7 PUSH1 0x82 DUP6 ADD SWAP2 ADD PUSH2 0x2139 JUMP JUMPDEST ADD SWAP2 PUSH15 0x16113930B934BA3CAFB930B735911D PUSH1 0x89 SHL PUSH1 0x82 DUP5 ADD MSTORE DUP4 MLOAD SWAP4 DUP5 SWAP2 PUSH1 0x91 DUP6 ADD SWAP2 ADD PUSH2 0x2139 JUMP JUMPDEST ADD PUSH1 0x7D PUSH1 0xF8 SHL PUSH1 0x91 DUP3 ADD MSTORE SUB PUSH1 0x72 DUP2 ADD DUP5 MSTORE ADD DUP3 PUSH2 0x226D JUMP JUMPDEST PUSH1 0x29 PUSH2 0x3026 PUSH2 0x3020 DUP11 MLOAD PUSH2 0x3195 DUP2 PUSH2 0x2237 JUMP JUMPDEST PUSH1 0x5 DUP2 MSTORE PUSH5 0x66616C7365 PUSH1 0xD8 SHL DUP12 DUP3 ADD MSTORE SWAP6 PUSH2 0x33EC JUMP JUMPDEST DUP11 MLOAD PUSH2 0x31B7 DUP2 PUSH2 0x2237 JUMP JUMPDEST PUSH1 0x1C DUP2 MSTORE PUSH28 0x556E6971756520386269742050656E6775696E73206F6E2042617365 PUSH1 0x20 SHL DUP12 DUP3 ADD MSTORE SWAP4 PUSH2 0x2FE8 JUMP JUMPDEST SWAP5 POP DUP9 MLOAD PUSH2 0x31F2 DUP2 PUSH2 0x2252 JUMP JUMPDEST PUSH1 0x36 DUP2 MSTORE PUSH1 0x0 DUP1 MLOAD PUSH1 0x20 PUSH2 0x3B28 DUP4 CODECOPY DUP2 MLOAD SWAP2 MSTORE DUP10 DUP3 ADD MSTORE PUSH22 0x223A224D65746164617461204D697373696E67227D5D PUSH1 0x50 SHL DUP11 DUP3 ADD MSTORE SWAP5 PUSH2 0x2F74 JUMP JUMPDEST PUSH2 0x3236 SWAP1 PUSH2 0x33EC JUMP JUMPDEST PUSH1 0x40 MLOAD DUP1 SWAP3 PUSH1 0x20 SWAP3 PUSH24 0x7B226E616D65223A22386269742050656E6775696E732023 PUSH1 0x40 SHL DUP5 DUP5 ADD MSTORE PUSH2 0x3271 DUP2 MLOAD DUP1 SWAP3 DUP7 PUSH1 0x38 DUP8 ADD SWAP2 ADD PUSH2 0x2139 JUMP JUMPDEST DUP3 ADD SWAP1 PUSH32 0x222C226465736372697074696F6E223A22556E72657665616C65642038626974 PUSH1 0x38 DUP4 ADD MSTORE PUSH28 0x102832B733BAB4B7399037B7102130B9B291161134B6B0B3B2911D11 PUSH1 0x21 SHL PUSH1 0x58 DUP4 ADD MSTORE PUSH1 0x0 SWAP2 DUP2 SLOAD PUSH2 0x32CD DUP2 PUSH2 0x21E2 JUMP JUMPDEST SWAP3 PUSH1 0x1 SWAP2 DUP1 DUP4 AND SWAP1 DUP2 ISZERO PUSH2 0x33A6 JUMPI POP PUSH1 0x1 EQ PUSH2 0x3359 JUMPI JUMPDEST POP POP POP POP SWAP1 DUP2 PUSH1 0x0 DUP1 MLOAD PUSH1 0x20 PUSH2 0x3B28 DUP4 CODECOPY DUP2 MLOAD SWAP2 MSTORE PUSH2 0x24A7 SWAP5 PUSH32 0x222C2272657665616C6564223A66616C73652C2261747472696275746573223A PUSH1 0x60 SWAP6 MSTORE DUP3 ADD MSTORE PUSH32 0x223A224E6F2050726F706572747920756E74696C6C2052657665616C227D5D7D PUSH1 0x40 DUP3 ADD MSTORE SUB PUSH1 0x40 DUP2 ADD DUP5 MSTORE ADD DUP3 PUSH2 0x226D JUMP JUMPDEST PUSH1 0x0 SWAP1 DUP2 MSTORE DUP7 DUP2 KECCAK256 SWAP4 SWAP5 POP SWAP2 SWAP3 JUMPDEST DUP5 DUP4 LT PUSH2 0x338F JUMPI POP POP POP ADD PUSH1 0x74 ADD DUP3 PUSH1 0x0 DUP1 MLOAD PUSH1 0x20 PUSH2 0x3B28 DUP4 CODECOPY DUP2 MLOAD SWAP2 MSTORE PUSH1 0x60 PUSH2 0x24A7 PUSH2 0x32E4 JUMP JUMPDEST DUP1 SLOAD DUP5 DUP5 ADD PUSH1 0x74 ADD MSTORE DUP8 SWAP6 POP SWAP2 DUP7 ADD SWAP2 DUP2 ADD PUSH2 0x3367 JUMP JUMPDEST PUSH1 0x60 SWAP8 SWAP7 POP PUSH1 0x74 SWAP4 POP PUSH1 0x0 DUP1 MLOAD PUSH1 0x20 PUSH2 0x3B28 DUP4 CODECOPY DUP2 MLOAD SWAP2 MSTORE SWAP5 SWAP3 POP PUSH2 0x24A7 SWAP9 SWAP6 SWAP2 POP PUSH1 0xFF NOT AND DUP4 DUP4 ADD MSTORE DUP1 ISZERO ISZERO MUL ADD ADD SWAP3 SWAP4 DUP3 SWAP6 PUSH2 0x32E4 JUMP JUMPDEST POP PUSH2 0x100 SLOAD DUP2 GT ISZERO PUSH2 0x2EEA JUMP JUMPDEST PUSH1 0x0 SWAP1 DUP1 PUSH19 0x184F03E93FF9F4DAA797ED6E38ED64BF6A1F01 PUSH1 0x40 SHL DUP1 DUP3 LT ISZERO PUSH2 0x351B JUMPI JUMPDEST POP PUSH10 0x4EE2D6D415B85ACEF81 PUSH1 0x20 SHL DUP1 DUP4 LT ISZERO PUSH2 0x350C JUMPI JUMPDEST POP PUSH7 0x2386F26FC10000 DUP1 DUP4 LT ISZERO PUSH2 0x34FD JUMPI JUMPDEST POP PUSH4 0x5F5E100 DUP1 DUP4 LT ISZERO PUSH2 0x34EE JUMPI JUMPDEST POP PUSH2 0x2710 DUP1 DUP4 LT ISZERO PUSH2 0x34DF JUMPI JUMPDEST POP PUSH1 0x64 DUP3 LT ISZERO PUSH2 0x34CF JUMPI JUMPDEST PUSH1 0xA DUP1 SWAP3 LT ISZERO PUSH2 0x34C5 JUMPI JUMPDEST PUSH1 0x1 SWAP1 DUP2 PUSH1 0x21 PUSH2 0x347D DUP3 DUP8 ADD PUSH2 0x2D5B JUMP JUMPDEST SWAP6 DUP7 ADD ADD SWAP1 JUMPDEST PUSH2 0x348F JUMPI JUMPDEST POP POP POP POP SWAP1 JUMP JUMPDEST PUSH1 0x0 NOT ADD SWAP1 DUP4 SWAP1 PUSH16 0x181899199A1A9B1B9C1CB0B131B232B3 PUSH1 0x81 SHL DUP3 DUP3 MOD BYTE DUP4 MSTORE8 DIV SWAP2 DUP3 ISZERO PUSH2 0x34C0 JUMPI SWAP2 SWAP1 DUP3 PUSH2 0x3483 JUMP JUMPDEST PUSH2 0x3488 JUMP JUMPDEST SWAP2 PUSH1 0x1 ADD SWAP2 PUSH2 0x346C JUMP JUMPDEST SWAP2 SWAP1 PUSH1 0x64 PUSH1 0x2 SWAP2 DIV SWAP2 ADD SWAP2 PUSH2 0x3461 JUMP JUMPDEST PUSH1 0x4 SWAP2 SWAP4 SWAP3 DIV SWAP2 ADD SWAP2 CODESIZE PUSH2 0x3456 JUMP JUMPDEST PUSH1 0x8 SWAP2 SWAP4 SWAP3 DIV SWAP2 ADD SWAP2 CODESIZE PUSH2 0x3449 JUMP JUMPDEST PUSH1 0x10 SWAP2 SWAP4 SWAP3 DIV SWAP2 ADD SWAP2 CODESIZE PUSH2 0x343A JUMP JUMPDEST PUSH1 0x20 SWAP2 SWAP4 SWAP3 DIV SWAP2 ADD SWAP2 CODESIZE PUSH2 0x3428 JUMP JUMPDEST PUSH1 0x40 SWAP4 POP DUP2 DIV SWAP2 POP CODESIZE PUSH2 0x3410 JUMP JUMPDEST SWAP1 DUP2 MLOAD DUP2 LT ISZERO PUSH2 0xEF3 JUMPI ADD PUSH1 0x20 ADD SWAP1 JUMP JUMPDEST SWAP1 ISZERO PUSH2 0x24A7 JUMPI PUSH1 0x40 DUP1 MLOAD SWAP1 PUSH2 0x354E DUP3 PUSH2 0x2237 JUMP JUMPDEST PUSH1 0x18 DUP3 MSTORE PUSH2 0x357E PUSH1 0x20 SWAP3 PUSH24 0x113A3930B4BA2FBA3CB832911D1122BB37B63ABA34B7B711 PUSH1 0x41 SHL DUP5 DUP3 ADD MSTORE DUP5 PUSH2 0x37EB JUMP JUMPDEST PUSH2 0x37E6 JUMPI DUP3 MLOAD ISZERO DUP1 ISZERO PUSH2 0x37BE JUMPI JUMPDEST PUSH2 0x376B JUMPI DUP3 MLOAD SWAP3 DUP4 JUMPDEST PUSH2 0x36D6 JUMPI JUMPDEST DUP4 ISZERO DUP1 ISZERO PUSH2 0x36A6 JUMPI JUMPDEST PUSH2 0x369F JUMPI PUSH1 0x0 NOT DUP5 ADD SWAP4 DUP5 GT PUSH2 0x29F3 JUMPI DUP1 MLOAD DUP1 DUP6 GT PUSH2 0x3697 JUMPI JUMPDEST POP PUSH2 0x35C7 DUP5 PUSH2 0x2393 JUMP JUMPDEST SWAP4 PUSH2 0x35D4 DUP4 MLOAD SWAP6 DUP7 PUSH2 0x226D JUMP JUMPDEST DUP1 DUP6 MSTORE PUSH2 0x35E0 DUP2 PUSH2 0x2393 JUMP JUMPDEST DUP6 DUP6 ADD SWAP3 SWAP1 PUSH1 0x1F NOT ADD CALLDATASIZE DUP5 CALLDATACOPY PUSH1 0x0 SWAP1 DUP2 JUMPDEST DUP4 DUP2 LT PUSH2 0x3667 JUMPI POP POP POP POP SWAP3 PUSH2 0x24A7 SWAP3 DUP3 PUSH32 0x2C7B2274726169745F74797065223A2245766F6C7574696F6E222C2276616C75 PUSH2 0x363A SWAP7 PUSH1 0x51 SWAP6 MLOAD SWAP8 DUP9 SWAP6 MLOAD DUP1 SWAP3 DUP7 DUP9 ADD SWAP1 PUSH2 0x2139 JUMP JUMPDEST DUP5 ADD SWAP3 DUP4 ADD MSTORE PUSH17 0x65223A2245766F6C766564203344227D5D PUSH1 0x78 SHL SWAP1 DUP3 ADD MSTORE SUB PUSH1 0x31 DUP2 ADD DUP5 MSTORE ADD DUP3 PUSH2 0x226D JUMP JUMPDEST PUSH2 0x3692 SWAP1 PUSH1 0x1 PUSH1 0x1 PUSH1 0xF8 SHL SUB NOT PUSH2 0x367E DUP3 DUP6 PUSH2 0x3529 JUMP JUMPDEST MLOAD AND DUP5 BYTE PUSH2 0x368C DUP3 DUP12 PUSH2 0x3529 JUMP JUMPDEST MSTORE8 PUSH2 0x2A1C JUMP JUMPDEST PUSH2 0x35F1 JUMP JUMPDEST SWAP4 POP CODESIZE PUSH2 0x35BD JUMP JUMPDEST SWAP3 POP POP POP SWAP1 JUMP JUMPDEST POP PUSH1 0x0 NOT DUP5 ADD DUP5 DUP2 GT PUSH2 0x29F3 JUMPI PUSH1 0x5D PUSH1 0xF8 SHL SWAP1 PUSH1 0x1 PUSH1 0x1 PUSH1 0xF8 SHL SUB NOT SWAP1 PUSH2 0x36CD SWAP1 DUP5 PUSH2 0x3529 JUMP JUMPDEST MLOAD AND EQ ISZERO PUSH2 0x35A3 JUMP JUMPDEST SWAP3 PUSH1 0x0 NOT DUP2 ADD SWAP1 DUP1 DUP3 GT PUSH2 0x3756 JUMPI PUSH1 0x1 PUSH1 0x1 PUSH1 0xF8 SHL SUB NOT PUSH2 0x36F7 DUP4 DUP8 PUSH2 0x3529 JUMP JUMPDEST MLOAD AND PUSH1 0x1 PUSH1 0xFD SHL DUP2 EQ SWAP1 DUP2 ISZERO PUSH2 0x3748 JUMPI JUMPDEST DUP2 ISZERO PUSH2 0x373A JUMPI JUMPDEST DUP2 ISZERO PUSH2 0x372C JUMPI JUMPDEST POP ISZERO PUSH2 0x3724 JUMPI POP SWAP3 DUP4 PUSH2 0x3595 JUMP JUMPDEST SWAP4 SWAP1 POP PUSH2 0x359A JUMP JUMPDEST PUSH1 0xD PUSH1 0xF8 SHL EQ SWAP1 POP CODESIZE PUSH2 0x3716 JUMP JUMPDEST PUSH1 0x5 PUSH1 0xF9 SHL DUP2 EQ SWAP2 POP PUSH2 0x370F JUMP JUMPDEST PUSH1 0x9 PUSH1 0xF8 SHL DUP2 EQ SWAP2 POP PUSH2 0x3708 JUMP JUMPDEST PUSH1 0x24 PUSH1 0x0 PUSH4 0x4E487B71 PUSH1 0xE0 SHL DUP2 MSTORE PUSH1 0x11 PUSH1 0x4 MSTORE REVERT JUMPDEST SWAP1 SWAP2 POP PUSH32 0x5B7B2274726169745F74797065223A2245766F6C7574696F6E222C2276616C75 DUP2 MLOAD SWAP3 PUSH2 0x379B DUP5 PUSH2 0x2252 JUMP JUMPDEST PUSH1 0x31 DUP5 MSTORE DUP4 ADD MSTORE PUSH17 0x65223A2245766F6C766564203344227D5D PUSH1 0x78 SHL SWAP1 DUP3 ADD MSTORE SWAP1 JUMP JUMPDEST POP PUSH2 0x37E1 DUP2 MLOAD PUSH2 0x37CD DUP2 PUSH2 0x2237 JUMP JUMPDEST PUSH1 0x2 DUP2 MSTORE PUSH2 0x5B5D PUSH1 0xF0 SHL DUP5 DUP3 ADD MSTORE DUP5 PUSH2 0x37EB JUMP JUMPDEST PUSH2 0x358C JUMP JUMPDEST POP POP SWAP1 JUMP JUMPDEST SWAP1 DUP1 MLOAD DUP1 ISZERO PUSH2 0x387A JUMPI DUP3 MLOAD LT PUSH2 0x3894 JUMPI PUSH1 0x0 SWAP1 JUMPDEST PUSH2 0x380C DUP4 MLOAD DUP3 MLOAD SWAP1 PUSH2 0x2B08 JUMP JUMPDEST DUP3 GT PUSH2 0x388C JUMPI PUSH1 0x1 SWAP3 PUSH1 0x0 JUMPDEST DUP3 MLOAD DUP2 LT ISZERO PUSH2 0x3882 JUMPI PUSH1 0x1 PUSH1 0x1 PUSH1 0xF8 SHL SUB NOT DUP1 PUSH2 0x383E PUSH2 0x3838 DUP5 DUP9 PUSH2 0x29E6 JUMP JUMPDEST DUP6 PUSH2 0x3529 JUMP JUMPDEST MLOAD AND SWAP1 PUSH2 0x384B DUP4 DUP7 PUSH2 0x3529 JUMP JUMPDEST MLOAD AND SUB PUSH2 0x3860 JUMPI PUSH2 0x385B SWAP1 PUSH2 0x2A1C JUMP JUMPDEST PUSH2 0x3818 JUMP JUMPDEST POP SWAP3 POP SWAP1 PUSH1 0x0 JUMPDEST PUSH2 0x387A JUMPI PUSH2 0x3874 SWAP1 PUSH2 0x2A1C JUMP JUMPDEST SWAP1 PUSH2 0x37FF JUMP JUMPDEST POP POP POP PUSH1 0x1 SWAP1 JUMP JUMPDEST POP SWAP3 SWAP2 SWAP1 SWAP2 PUSH2 0x3867 JUMP JUMPDEST POP POP POP PUSH1 0x0 SWAP1 JUMP JUMPDEST POP POP PUSH1 0x0 SWAP1 JUMP JUMPDEST DUP1 ISZERO ISZERO DUP1 PUSH2 0x3942 JUMPI JUMPDEST PUSH2 0x38AD SWAP1 PUSH2 0x2BB6 JUMP JUMPDEST PUSH1 0x0 SWAP1 DUP1 DUP3 MSTORE PUSH2 0x106 SWAP2 PUSH1 0x20 SWAP2 DUP4 DUP4 MSTORE PUSH1 0x40 DUP1 DUP4 KECCAK256 SLOAD SWAP3 PUSH1 0x1 SWAP6 DUP7 SWAP6 PUSH2 0x100 SLOAD SWAP7 JUMPDEST DUP8 DUP2 GT ISZERO PUSH2 0x38E2 JUMPI POP POP POP POP POP POP POP POP SWAP1 JUMP JUMPDEST DUP6 DUP2 EQ PUSH2 0x3906 JUMPI DUP1 DUP5 MSTORE DUP3 DUP3 MSTORE DUP5 DUP5 KECCAK256 SLOAD DUP8 DUP1 DUP3 GT SWAP2 DUP3 ISZERO PUSH2 0x3929 JUMPI JUMPDEST POP POP PUSH2 0x3914 JUMPI JUMPDEST PUSH2 0x390F SWAP1 PUSH2 0x2A1C JUMP JUMPDEST PUSH2 0x38CF JUMP JUMPDEST SWAP8 PUSH2 0x3921 PUSH2 0x390F SWAP2 PUSH2 0x2A1C JUMP JUMPDEST SWAP9 SWAP1 POP PUSH2 0x3906 JUMP JUMPDEST EQ SWAP1 POP DUP1 PUSH2 0x3939 JUMPI JUMPDEST DUP8 CODESIZE PUSH2 0x38FF JUMP JUMPDEST POP DUP6 DUP2 LT PUSH2 0x3932 JUMP JUMPDEST POP PUSH2 0x100 SLOAD DUP2 GT ISZERO PUSH2 0x38A4 JUMP JUMPDEST SWAP1 DUP3 LT ISZERO PUSH2 0xEF3 JUMPI ADD SWAP1 JUMP JUMPDEST SWAP1 PUSH1 0x40 MLOAD SWAP1 PUSH2 0x3969 DUP3 PUSH2 0x2237 JUMP JUMPDEST PUSH1 0xB DUP3 MSTORE PUSH11 0x646174613A696D6167652F PUSH1 0xA8 SHL PUSH1 0x20 DUP4 ADD MSTORE PUSH1 0x40 MLOAD SWAP3 PUSH2 0x398E DUP5 PUSH2 0x2237 JUMP JUMPDEST PUSH1 0x8 DUP5 MSTORE PUSH8 0xED8985CD94D8D0B PUSH1 0xC2 SHL PUSH1 0x20 DUP6 ADD MSTORE DUP3 MLOAD PUSH1 0x8 DUP2 ADD DUP1 SWAP2 GT PUSH2 0x29F3 JUMPI DUP3 GT ISZERO PUSH2 0x3A9E JUMPI PUSH1 0x0 JUMPDEST DUP4 MLOAD DUP2 LT ISZERO PUSH2 0x3A04 JUMPI PUSH1 0x1 PUSH1 0x1 PUSH1 0xF8 SHL SUB NOT DUP1 PUSH2 0x39D8 DUP4 DUP7 DUP7 PUSH2 0x394F JUMP JUMPDEST CALLDATALOAD AND SWAP1 PUSH2 0x39E5 DUP4 DUP8 PUSH2 0x3529 JUMP JUMPDEST MLOAD AND SUB PUSH2 0x39FA JUMPI PUSH2 0x39F5 SWAP1 PUSH2 0x2A1C JUMP JUMPDEST PUSH2 0x39BA JUMP JUMPDEST POP POP POP POP POP PUSH1 0x0 SWAP1 JUMP JUMPDEST POP SWAP3 SWAP1 SWAP2 SWAP3 PUSH1 0x0 SWAP4 MLOAD SWAP3 JUMPDEST DUP1 PUSH2 0x3A1B DUP5 MLOAD DUP7 PUSH2 0x29E6 JUMP JUMPDEST GT PUSH2 0x3488 JUMPI PUSH1 0x1 SWAP5 PUSH1 0x0 JUMPDEST DUP5 MLOAD DUP2 LT ISZERO PUSH2 0x3A95 JUMPI PUSH1 0x1 PUSH1 0x1 PUSH1 0xF8 SHL SUB NOT DUP1 PUSH2 0x3A4D PUSH2 0x3A46 DUP5 DUP11 PUSH2 0x29E6 JUMP JUMPDEST DUP7 DUP9 PUSH2 0x394F JUMP JUMPDEST CALLDATALOAD AND SWAP1 PUSH2 0x3A5A DUP4 DUP9 PUSH2 0x3529 JUMP JUMPDEST MLOAD AND SUB PUSH2 0x3A6F JUMPI PUSH2 0x3A6A SWAP1 PUSH2 0x2A1C JUMP JUMPDEST PUSH2 0x3A26 JUMP JUMPDEST POP SWAP4 SWAP1 SWAP5 POP PUSH1 0x0 JUMPDEST PUSH2 0x3A8B JUMPI PUSH2 0x3A84 SWAP1 PUSH2 0x2A1C JUMP JUMPDEST SWAP3 SWAP4 PUSH2 0x3A0F JUMP JUMPDEST POP POP POP POP POP PUSH1 0x1 SWAP1 JUMP JUMPDEST POP SWAP4 SWAP1 SWAP5 PUSH2 0x3A77 JUMP JUMPDEST POP POP POP POP PUSH1 0x0 SWAP1 JUMP INVALID SWAP14 0xEB 0xBD STOP DUP2 BASEFEE CREATE2 SWAP4 0xB1 0xD1 0xF6 XOR 0xA6 0x4B 0xD SWAP6 PUSH2 0xE522 0xDF LT SGT 0xCD 0xCF 0xD8 0xC7 ADDRESS 0x29 PUSH25 0x119DEF6BD5C950A8D8DF17F772F5AF37CB3655737899CBF903 0x26 0x4B SWAP8 SWAP6 MSIZE 0x2D LOG4 CODECOPY PUSH7 0x1C8BE0079C5316 MSIZE EQ SGT PREVRANDAO 0xCD 0x1F 0xD0 LOG4 CALLCODE DUP5 NOT 0x49 PUSH32 0x9722A3DAAFE3B4186F6B6457E0DDF252AD1BE2C89B69C2B068FC378DAA952BA7 CALL PUSH4 0xC4A11628 CREATE2 GAS 0x4D CREATE2 0x23 0xB3 0xEF JUMPDEST PUSH28 0x2274726169745F74797065223A2250726F7065727479222C2276616C PUSH22 0x65F8E1A15ABA9398E019F0B49DF1A4FDE98EE17AE345 0xCB PUSH0 PUSH12 0x5E2C27F5033E8CE7A2646970 PUSH7 0x735822122015AE NOT MULMOD JUMPDEST LOG2 0xB0 PREVRANDAO SLOAD 0xB7 0xC4 0xD7 CALLER 0xE7 STOP CHAINID 0x23 0xD6 0xD0 GT PUSH9 0x7B45E052FFFB967F5B 0x1E 0xCC PUSH5 0x736F6C6343 STOP ADDMOD EQ STOP CALLER "},"methodIdentifiers":{"MAX_PER_WALLET()":"0f2cdd6c","MAX_SUPPLY()":"32cb6b0c","approve(address,uint256)":"095ea7b3","balanceOf(address)":"70a08231","evolveTo3D(uint256,string,string)":"7978d451","evolveTo3DImageOnly(uint256,string)":"d2f40d79","getApproved(uint256)":"081812fc","initialize()":"8129fc1c","isApprovedForAll(address,address)":"e985e9c5","mint(uint256,string[],string[],string[],uint256[])":"9333174a","mintActive()":"25fd90f3","mintPrice()":"6817c76c","mintedPerWallet(address)":"3a602b4d","name()":"06fdde03","owner()":"8da5cb5b","ownerOf(uint256)":"6352211e","placeholderImage()":"448d8c5c","rarityRank(uint256)":"29c1605f","renounceOwnership()":"715018a6","revealed()":"51830227","safeTransferFrom(address,address,uint256)":"42842e0e","safeTransferFrom(address,address,uint256,bytes)":"b88d4fde","setApprovalForAll(address,bool)":"a22cb465","setPlaceholderImage(string)":"b75f1aef","setRevealed(bool)":"e0a80853","supportsInterface(bytes4)":"01ffc9a7","symbol()":"95d89b41","toggleMint()":"d3dd5fe0","tokenAttributes(uint256)":"f2824b53","tokenEvolved3D(uint256)":"c1eea4a0","tokenImage(uint256)":"cf348425","tokenMetadataJson(uint256)":"9c30ad85","tokenName(uint256)":"e725f877","tokenRarityScore(uint256)":"7b3d6e56","tokenSeeds(uint256)":"c3753d70","tokenURI(uint256)":"c87b56dd","totalSupply()":"18160ddd","transferFrom(address,address,uint256)":"23b872dd","transferOwnership(address)":"f2fde38b","withdraw()":"3ccfd60b"}},"storageLayout":{"storage":[{"astId":167,"contract":"contracts/8bitPenguins.sol:EightBitPenguinsUpgradeable","label":"_initialized","offset":0,"slot":"0","type":"t_uint8"},{"astId":170,"contract":"contracts/8bitPenguins.sol:EightBitPenguinsUpgradeable","label":"_initializing","offset":1,"slot":"0","type":"t_bool"},{"astId":1908,"contract":"contracts/8bitPenguins.sol:EightBitPenguinsUpgradeable","label":"__gap","offset":0,"slot":"1","type":"t_array(t_uint256)50_storage"},{"astId":2182,"contract":"contracts/8bitPenguins.sol:EightBitPenguinsUpgradeable","label":"__gap","offset":0,"slot":"51","type":"t_array(t_uint256)50_storage"},{"astId":444,"contract":"contracts/8bitPenguins.sol:EightBitPenguinsUpgradeable","label":"_name","offset":0,"slot":"101","type":"t_string_storage"},{"astId":446,"contract":"contracts/8bitPenguins.sol:EightBitPenguinsUpgradeable","label":"_symbol","offset":0,"slot":"102","type":"t_string_storage"},{"astId":450,"contract":"contracts/8bitPenguins.sol:EightBitPenguinsUpgradeable","label":"_owners","offset":0,"slot":"103","type":"t_mapping(t_uint256,t_address)"},{"astId":454,"contract":"contracts/8bitPenguins.sol:EightBitPenguinsUpgradeable","label":"_balances","offset":0,"slot":"104","type":"t_mapping(t_address,t_uint256)"},{"astId":458,"contract":"contracts/8bitPenguins.sol:EightBitPenguinsUpgradeable","label":"_tokenApprovals","offset":0,"slot":"105","type":"t_mapping(t_uint256,t_address)"},{"astId":464,"contract":"contracts/8bitPenguins.sol:EightBitPenguinsUpgradeable","label":"_operatorApprovals","offset":0,"slot":"106","type":"t_mapping(t_address,t_mapping(t_address,t_bool))"},{"astId":1366,"contract":"contracts/8bitPenguins.sol:EightBitPenguinsUpgradeable","label":"__gap","offset":0,"slot":"107","type":"t_array(t_uint256)44_storage"},{"astId":11,"contract":"contracts/8bitPenguins.sol:EightBitPenguinsUpgradeable","label":"_owner","offset":0,"slot":"151","type":"t_address"},{"astId":131,"contract":"contracts/8bitPenguins.sol:EightBitPenguinsUpgradeable","label":"__gap","offset":0,"slot":"152","type":"t_array(t_uint256)49_storage"},{"astId":344,"contract":"contracts/8bitPenguins.sol:EightBitPenguinsUpgradeable","label":"_status","offset":0,"slot":"201","type":"t_uint256"},{"astId":413,"contract":"contracts/8bitPenguins.sol:EightBitPenguinsUpgradeable","label":"__gap","offset":0,"slot":"202","type":"t_array(t_uint256)49_storage"},{"astId":4438,"contract":"contracts/8bitPenguins.sol:EightBitPenguinsUpgradeable","label":"MAX_SUPPLY","offset":0,"slot":"251","type":"t_uint256"},{"astId":4440,"contract":"contracts/8bitPenguins.sol:EightBitPenguinsUpgradeable","label":"MAX_PER_WALLET","offset":0,"slot":"252","type":"t_uint256"},{"astId":4442,"contract":"contracts/8bitPenguins.sol:EightBitPenguinsUpgradeable","label":"mintPrice","offset":0,"slot":"253","type":"t_uint256"},{"astId":4444,"contract":"contracts/8bitPenguins.sol:EightBitPenguinsUpgradeable","label":"mintActive","offset":0,"slot":"254","type":"t_bool"},{"astId":4446,"contract":"contracts/8bitPenguins.sol:EightBitPenguinsUpgradeable","label":"revealed","offset":1,"slot":"254","type":"t_bool"},{"astId":4448,"contract":"contracts/8bitPenguins.sol:EightBitPenguinsUpgradeable","label":"placeholderImage","offset":0,"slot":"255","type":"t_string_storage"},{"astId":4450,"contract":"contracts/8bitPenguins.sol:EightBitPenguinsUpgradeable","label":"_currentTokenId","offset":0,"slot":"256","type":"t_uint256"},{"astId":4454,"contract":"contracts/8bitPenguins.sol:EightBitPenguinsUpgradeable","label":"tokenSeeds","offset":0,"slot":"257","type":"t_mapping(t_uint256,t_uint256)"},{"astId":4458,"contract":"contracts/8bitPenguins.sol:EightBitPenguinsUpgradeable","label":"mintedPerWallet","offset":0,"slot":"258","type":"t_mapping(t_address,t_uint256)"},{"astId":4462,"contract":"contracts/8bitPenguins.sol:EightBitPenguinsUpgradeable","label":"tokenImage","offset":0,"slot":"259","type":"t_mapping(t_uint256,t_string_storage)"},{"astId":4466,"contract":"contracts/8bitPenguins.sol:EightBitPenguinsUpgradeable","label":"tokenName","offset":0,"slot":"260","type":"t_mapping(t_uint256,t_string_storage)"},{"astId":4470,"contract":"contracts/8bitPenguins.sol:EightBitPenguinsUpgradeable","label":"tokenAttributes","offset":0,"slot":"261","type":"t_mapping(t_uint256,t_string_storage)"},{"astId":4474,"contract":"contracts/8bitPenguins.sol:EightBitPenguinsUpgradeable","label":"tokenRarityScore","offset":0,"slot":"262","type":"t_mapping(t_uint256,t_uint256)"},{"astId":4478,"contract":"contracts/8bitPenguins.sol:EightBitPenguinsUpgradeable","label":"tokenEvolved3D","offset":0,"slot":"263","type":"t_mapping(t_uint256,t_bool)"}],"types":{"t_address":{"encoding":"inplace","label":"address","numberOfBytes":"20"},"t_array(t_uint256)44_storage":{"base":"t_uint256","encoding":"inplace","label":"uint256[44]","numberOfBytes":"1408"},"t_array(t_uint256)49_storage":{"base":"t_uint256","encoding":"inplace","label":"uint256[49]","numberOfBytes":"1568"},"t_array(t_uint256)50_storage":{"base":"t_uint256","encoding":"inplace","label":"uint256[50]","numberOfBytes":"1600"},"t_bool":{"encoding":"inplace","label":"bool","numberOfBytes":"1"},"t_mapping(t_address,t_bool)":{"encoding":"mapping","key":"t_address","label":"mapping(address => bool)","numberOfBytes":"32","value":"t_bool"},"t_mapping(t_address,t_mapping(t_address,t_bool))":{"encoding":"mapping","key":"t_address","label":"mapping(address => mapping(address => bool))","numberOfBytes":"32","value":"t_mapping(t_address,t_bool)"},"t_mapping(t_address,t_uint256)":{"encoding":"mapping","key":"t_address","label":"mapping(address => uint256)","numberOfBytes":"32","value":"t_uint256"},"t_mapping(t_uint256,t_address)":{"encoding":"mapping","key":"t_uint256","label":"mapping(uint256 => address)","numberOfBytes":"32","value":"t_address"},"t_mapping(t_uint256,t_bool)":{"encoding":"mapping","key":"t_uint256","label":"mapping(uint256 => bool)","numberOfBytes":"32","value":"t_bool"},"t_mapping(t_uint256,t_string_storage)":{"encoding":"mapping","key":"t_uint256","label":"mapping(uint256 => string)","numberOfBytes":"32","value":"t_string_storage"},"t_mapping(t_uint256,t_uint256)":{"encoding":"mapping","key":"t_uint256","label":"mapping(uint256 => uint256)","numberOfBytes":"32","value":"t_uint256"},"t_string_storage":{"encoding":"bytes","label":"string","numberOfBytes":"32"},"t_uint256":{"encoding":"inplace","label":"uint256","numberOfBytes":"32"},"t_uint8":{"encoding":"inplace","label":"uint8","numberOfBytes":"1"}}}}}}