{
  "_format": "hh-sol-artifact-1",
  "contractName": "EightBitPenguinsUpgradeable",
  "sourceName": "contracts/8bitPenguins.sol",
  "abi": [
    {
      "inputs": [],
      "stateMutability": "nonpayable",
      "type": "constructor"
    },
    {
      "anonymous": false,
      "inputs": [
        {
          "indexed": true,
          "internalType": "address",
          "name": "owner",
          "type": "address"
        },
        {
          "indexed": true,
          "internalType": "address",
          "name": "approved",
          "type": "address"
        },
        {
          "indexed": true,
          "internalType": "uint256",
          "name": "tokenId",
          "type": "uint256"
        }
      ],
      "name": "Approval",
      "type": "event"
    },
    {
      "anonymous": false,
      "inputs": [
        {
          "indexed": true,
          "internalType": "address",
          "name": "owner",
          "type": "address"
        },
        {
          "indexed": true,
          "internalType": "address",
          "name": "operator",
          "type": "address"
        },
        {
          "indexed": false,
          "internalType": "bool",
          "name": "approved",
          "type": "bool"
        }
      ],
      "name": "ApprovalForAll",
      "type": "event"
    },
    {
      "anonymous": false,
      "inputs": [
        {
          "indexed": false,
          "internalType": "uint256",
          "name": "_fromTokenId",
          "type": "uint256"
        },
        {
          "indexed": false,
          "internalType": "uint256",
          "name": "_toTokenId",
          "type": "uint256"
        }
      ],
      "name": "BatchMetadataUpdate",
      "type": "event"
    },
    {
      "anonymous": false,
      "inputs": [
        {
          "indexed": false,
          "internalType": "uint8",
          "name": "version",
          "type": "uint8"
        }
      ],
      "name": "Initialized",
      "type": "event"
    },
    {
      "anonymous": false,
      "inputs": [
        {
          "indexed": false,
          "internalType": "uint256",
          "name": "maxPerWallet",
          "type": "uint256"
        }
      ],
      "name": "MaxPerWalletChanged",
      "type": "event"
    },
    {
      "anonymous": false,
      "inputs": [
        {
          "indexed": false,
          "internalType": "uint256",
          "name": "maxSupply",
          "type": "uint256"
        }
      ],
      "name": "MaxSupplyChanged",
      "type": "event"
    },
    {
      "anonymous": false,
      "inputs": [
        {
          "indexed": false,
          "internalType": "uint256",
          "name": "_tokenId",
          "type": "uint256"
        }
      ],
      "name": "MetadataUpdate",
      "type": "event"
    },
    {
      "anonymous": false,
      "inputs": [
        {
          "indexed": false,
          "internalType": "uint256",
          "name": "price",
          "type": "uint256"
        }
      ],
      "name": "MintPriceChanged",
      "type": "event"
    },
    {
      "anonymous": false,
      "inputs": [
        {
          "indexed": false,
          "internalType": "bool",
          "name": "status",
          "type": "bool"
        }
      ],
      "name": "MintStatusChanged",
      "type": "event"
    },
    {
      "anonymous": false,
      "inputs": [
        {
          "indexed": true,
          "internalType": "address",
          "name": "previousOwner",
          "type": "address"
        },
        {
          "indexed": true,
          "internalType": "address",
          "name": "newOwner",
          "type": "address"
        }
      ],
      "name": "OwnershipTransferred",
      "type": "event"
    },
    {
      "anonymous": false,
      "inputs": [
        {
          "indexed": true,
          "internalType": "uint256",
          "name": "phaseId",
          "type": "uint256"
        }
      ],
      "name": "PhaseRemoved",
      "type": "event"
    },
    {
      "anonymous": false,
      "inputs": [
        {
          "indexed": true,
          "internalType": "uint256",
          "name": "phaseId",
          "type": "uint256"
        },
        {
          "indexed": false,
          "internalType": "string",
          "name": "name",
          "type": "string"
        },
        {
          "indexed": false,
          "internalType": "uint256",
          "name": "price",
          "type": "uint256"
        },
        {
          "indexed": false,
          "internalType": "uint256",
          "name": "startTime",
          "type": "uint256"
        },
        {
          "indexed": false,
          "internalType": "uint256",
          "name": "endTime",
          "type": "uint256"
        },
        {
          "indexed": false,
          "internalType": "uint256",
          "name": "maxSupply",
          "type": "uint256"
        },
        {
          "indexed": false,
          "internalType": "uint256",
          "name": "maxPerWallet",
          "type": "uint256"
        },
        {
          "indexed": false,
          "internalType": "bool",
          "name": "enabled",
          "type": "bool"
        }
      ],
      "name": "PhaseUpserted",
      "type": "event"
    },
    {
      "anonymous": false,
      "inputs": [
        {
          "indexed": true,
          "internalType": "uint256",
          "name": "phaseId",
          "type": "uint256"
        },
        {
          "indexed": true,
          "internalType": "address",
          "name": "account",
          "type": "address"
        },
        {
          "indexed": false,
          "internalType": "bool",
          "name": "allowed",
          "type": "bool"
        }
      ],
      "name": "PhaseWhitelistUpdated",
      "type": "event"
    },
    {
      "anonymous": false,
      "inputs": [
        {
          "indexed": false,
          "internalType": "string",
          "name": "image",
          "type": "string"
        }
      ],
      "name": "PlaceholderImageChanged",
      "type": "event"
    },
    {
      "anonymous": false,
      "inputs": [
        {
          "indexed": false,
          "internalType": "bool",
          "name": "status",
          "type": "bool"
        }
      ],
      "name": "RevealStatusChanged",
      "type": "event"
    },
    {
      "anonymous": false,
      "inputs": [
        {
          "indexed": true,
          "internalType": "uint256",
          "name": "tokenId",
          "type": "uint256"
        },
        {
          "indexed": true,
          "internalType": "address",
          "name": "owner",
          "type": "address"
        }
      ],
      "name": "TokenEvolved3D",
      "type": "event"
    },
    {
      "anonymous": false,
      "inputs": [
        {
          "indexed": true,
          "internalType": "address",
          "name": "from",
          "type": "address"
        },
        {
          "indexed": true,
          "internalType": "address",
          "name": "to",
          "type": "address"
        },
        {
          "indexed": true,
          "internalType": "uint256",
          "name": "tokenId",
          "type": "uint256"
        }
      ],
      "name": "Transfer",
      "type": "event"
    },
    {
      "inputs": [],
      "name": "MAX_PER_WALLET",
      "outputs": [
        {
          "internalType": "uint256",
          "name": "",
          "type": "uint256"
        }
      ],
      "stateMutability": "view",
      "type": "function"
    },
    {
      "inputs": [],
      "name": "MAX_SUPPLY",
      "outputs": [
        {
          "internalType": "uint256",
          "name": "",
          "type": "uint256"
        }
      ],
      "stateMutability": "view",
      "type": "function"
    },
    {
      "inputs": [
        {
          "internalType": "address",
          "name": "to",
          "type": "address"
        },
        {
          "internalType": "uint256",
          "name": "tokenId",
          "type": "uint256"
        }
      ],
      "name": "approve",
      "outputs": [],
      "stateMutability": "nonpayable",
      "type": "function"
    },
    {
      "inputs": [
        {
          "internalType": "address",
          "name": "owner",
          "type": "address"
        }
      ],
      "name": "balanceOf",
      "outputs": [
        {
          "internalType": "uint256",
          "name": "",
          "type": "uint256"
        }
      ],
      "stateMutability": "view",
      "type": "function"
    },
    {
      "inputs": [],
      "name": "currentPhaseId",
      "outputs": [
        {
          "internalType": "bool",
          "name": "exists",
          "type": "bool"
        },
        {
          "internalType": "uint256",
          "name": "phaseId",
          "type": "uint256"
        }
      ],
      "stateMutability": "view",
      "type": "function"
    },
    {
      "inputs": [
        {
          "internalType": "uint256",
          "name": "phaseId",
          "type": "uint256"
        }
      ],
      "name": "deletePhase",
      "outputs": [],
      "stateMutability": "nonpayable",
      "type": "function"
    },
    {
      "inputs": [
        {
          "internalType": "uint256",
          "name": "tokenId",
          "type": "uint256"
        },
        {
          "internalType": "string",
          "name": "imageBase64",
          "type": "string"
        },
        {
          "internalType": "string",
          "name": "attributesJson",
          "type": "string"
        }
      ],
      "name": "evolveTo3D",
      "outputs": [],
      "stateMutability": "nonpayable",
      "type": "function"
    },
    {
      "inputs": [
        {
          "internalType": "uint256",
          "name": "tokenId",
          "type": "uint256"
        },
        {
          "internalType": "string",
          "name": "imageBase64",
          "type": "string"
        }
      ],
      "name": "evolveTo3DImageOnly",
      "outputs": [],
      "stateMutability": "nonpayable",
      "type": "function"
    },
    {
      "inputs": [
        {
          "internalType": "uint256",
          "name": "tokenId",
          "type": "uint256"
        }
      ],
      "name": "getApproved",
      "outputs": [
        {
          "internalType": "address",
          "name": "",
          "type": "address"
        }
      ],
      "stateMutability": "view",
      "type": "function"
    },
    {
      "inputs": [
        {
          "internalType": "uint256",
          "name": "phaseId",
          "type": "uint256"
        }
      ],
      "name": "getPhase",
      "outputs": [
        {
          "internalType": "string",
          "name": "name_",
          "type": "string"
        },
        {
          "internalType": "uint256",
          "name": "price",
          "type": "uint256"
        },
        {
          "internalType": "uint256",
          "name": "startTime",
          "type": "uint256"
        },
        {
          "internalType": "uint256",
          "name": "endTime",
          "type": "uint256"
        },
        {
          "internalType": "uint256",
          "name": "maxSupply_",
          "type": "uint256"
        },
        {
          "internalType": "uint256",
          "name": "maxPerWallet_",
          "type": "uint256"
        },
        {
          "internalType": "uint256",
          "name": "minted",
          "type": "uint256"
        },
        {
          "internalType": "bool",
          "name": "enabled",
          "type": "bool"
        }
      ],
      "stateMutability": "view",
      "type": "function"
    },
    {
      "inputs": [
        {
          "internalType": "uint256",
          "name": "phaseId",
          "type": "uint256"
        }
      ],
      "name": "getPhaseWhitelist",
      "outputs": [
        {
          "internalType": "address[]",
          "name": "",
          "type": "address[]"
        }
      ],
      "stateMutability": "view",
      "type": "function"
    },
    {
      "inputs": [],
      "name": "initialize",
      "outputs": [],
      "stateMutability": "nonpayable",
      "type": "function"
    },
    {
      "inputs": [],
      "name": "initializeV2",
      "outputs": [],
      "stateMutability": "nonpayable",
      "type": "function"
    },
    {
      "inputs": [
        {
          "internalType": "address",
          "name": "owner",
          "type": "address"
        },
        {
          "internalType": "address",
          "name": "operator",
          "type": "address"
        }
      ],
      "name": "isApprovedForAll",
      "outputs": [
        {
          "internalType": "bool",
          "name": "",
          "type": "bool"
        }
      ],
      "stateMutability": "view",
      "type": "function"
    },
    {
      "inputs": [
        {
          "internalType": "uint256",
          "name": "phaseId",
          "type": "uint256"
        },
        {
          "internalType": "address",
          "name": "account",
          "type": "address"
        }
      ],
      "name": "isPhaseWhitelisted",
      "outputs": [
        {
          "internalType": "bool",
          "name": "",
          "type": "bool"
        }
      ],
      "stateMutability": "view",
      "type": "function"
    },
    {
      "inputs": [
        {
          "internalType": "uint256",
          "name": "quantity",
          "type": "uint256"
        },
        {
          "internalType": "string[]",
          "name": "imageBase64s",
          "type": "string[]"
        },
        {
          "internalType": "string[]",
          "name": "names",
          "type": "string[]"
        },
        {
          "internalType": "string[]",
          "name": "attributesJson",
          "type": "string[]"
        },
        {
          "internalType": "uint256[]",
          "name": "rarityScores",
          "type": "uint256[]"
        }
      ],
      "name": "mint",
      "outputs": [],
      "stateMutability": "payable",
      "type": "function"
    },
    {
      "inputs": [],
      "name": "mintActive",
      "outputs": [
        {
          "internalType": "bool",
          "name": "",
          "type": "bool"
        }
      ],
      "stateMutability": "view",
      "type": "function"
    },
    {
      "inputs": [],
      "name": "mintPrice",
      "outputs": [
        {
          "internalType": "uint256",
          "name": "",
          "type": "uint256"
        }
      ],
      "stateMutability": "view",
      "type": "function"
    },
    {
      "inputs": [
        {
          "internalType": "address",
          "name": "",
          "type": "address"
        }
      ],
      "name": "mintedPerWallet",
      "outputs": [
        {
          "internalType": "uint256",
          "name": "",
          "type": "uint256"
        }
      ],
      "stateMutability": "view",
      "type": "function"
    },
    {
      "inputs": [],
      "name": "name",
      "outputs": [
        {
          "internalType": "string",
          "name": "",
          "type": "string"
        }
      ],
      "stateMutability": "view",
      "type": "function"
    },
    {
      "inputs": [],
      "name": "owner",
      "outputs": [
        {
          "internalType": "address",
          "name": "",
          "type": "address"
        }
      ],
      "stateMutability": "view",
      "type": "function"
    },
    {
      "inputs": [
        {
          "internalType": "uint256",
          "name": "tokenId",
          "type": "uint256"
        }
      ],
      "name": "ownerOf",
      "outputs": [
        {
          "internalType": "address",
          "name": "",
          "type": "address"
        }
      ],
      "stateMutability": "view",
      "type": "function"
    },
    {
      "inputs": [],
      "name": "phaseCount",
      "outputs": [
        {
          "internalType": "uint256",
          "name": "",
          "type": "uint256"
        }
      ],
      "stateMutability": "view",
      "type": "function"
    },
    {
      "inputs": [
        {
          "internalType": "uint256",
          "name": "",
          "type": "uint256"
        },
        {
          "internalType": "address",
          "name": "",
          "type": "address"
        }
      ],
      "name": "phaseMintedPerWallet",
      "outputs": [
        {
          "internalType": "uint256",
          "name": "",
          "type": "uint256"
        }
      ],
      "stateMutability": "view",
      "type": "function"
    },
    {
      "inputs": [
        {
          "internalType": "uint256",
          "name": "",
          "type": "uint256"
        }
      ],
      "name": "phaseWhitelistCount",
      "outputs": [
        {
          "internalType": "uint256",
          "name": "",
          "type": "uint256"
        }
      ],
      "stateMutability": "view",
      "type": "function"
    },
    {
      "inputs": [],
      "name": "placeholderImage",
      "outputs": [
        {
          "internalType": "string",
          "name": "",
          "type": "string"
        }
      ],
      "stateMutability": "view",
      "type": "function"
    },
    {
      "inputs": [
        {
          "internalType": "uint256",
          "name": "tokenId",
          "type": "uint256"
        }
      ],
      "name": "rarityRank",
      "outputs": [
        {
          "internalType": "uint256",
          "name": "",
          "type": "uint256"
        }
      ],
      "stateMutability": "view",
      "type": "function"
    },
    {
      "inputs": [],
      "name": "renounceOwnership",
      "outputs": [],
      "stateMutability": "nonpayable",
      "type": "function"
    },
    {
      "inputs": [],
      "name": "revealed",
      "outputs": [
        {
          "internalType": "bool",
          "name": "",
          "type": "bool"
        }
      ],
      "stateMutability": "view",
      "type": "function"
    },
    {
      "inputs": [
        {
          "internalType": "address",
          "name": "from",
          "type": "address"
        },
        {
          "internalType": "address",
          "name": "to",
          "type": "address"
        },
        {
          "internalType": "uint256",
          "name": "tokenId",
          "type": "uint256"
        }
      ],
      "name": "safeTransferFrom",
      "outputs": [],
      "stateMutability": "nonpayable",
      "type": "function"
    },
    {
      "inputs": [
        {
          "internalType": "address",
          "name": "from",
          "type": "address"
        },
        {
          "internalType": "address",
          "name": "to",
          "type": "address"
        },
        {
          "internalType": "uint256",
          "name": "tokenId",
          "type": "uint256"
        },
        {
          "internalType": "bytes",
          "name": "data",
          "type": "bytes"
        }
      ],
      "name": "safeTransferFrom",
      "outputs": [],
      "stateMutability": "nonpayable",
      "type": "function"
    },
    {
      "inputs": [
        {
          "internalType": "address",
          "name": "operator",
          "type": "address"
        },
        {
          "internalType": "bool",
          "name": "approved",
          "type": "bool"
        }
      ],
      "name": "setApprovalForAll",
      "outputs": [],
      "stateMutability": "nonpayable",
      "type": "function"
    },
    {
      "inputs": [
        {
          "internalType": "uint256",
          "name": "maxPerWallet_",
          "type": "uint256"
        }
      ],
      "name": "setMaxPerWallet",
      "outputs": [],
      "stateMutability": "nonpayable",
      "type": "function"
    },
    {
      "inputs": [
        {
          "internalType": "uint256",
          "name": "maxSupply_",
          "type": "uint256"
        }
      ],
      "name": "setMaxSupply",
      "outputs": [],
      "stateMutability": "nonpayable",
      "type": "function"
    },
    {
      "inputs": [
        {
          "internalType": "uint256",
          "name": "price",
          "type": "uint256"
        }
      ],
      "name": "setMintPrice",
      "outputs": [],
      "stateMutability": "nonpayable",
      "type": "function"
    },
    {
      "inputs": [
        {
          "internalType": "uint256",
          "name": "phaseId",
          "type": "uint256"
        },
        {
          "internalType": "address[]",
          "name": "accounts",
          "type": "address[]"
        },
        {
          "internalType": "bool",
          "name": "allowed",
          "type": "bool"
        }
      ],
      "name": "setPhaseWhitelist",
      "outputs": [],
      "stateMutability": "nonpayable",
      "type": "function"
    },
    {
      "inputs": [
        {
          "internalType": "string",
          "name": "image",
          "type": "string"
        }
      ],
      "name": "setPlaceholderImage",
      "outputs": [],
      "stateMutability": "nonpayable",
      "type": "function"
    },
    {
      "inputs": [
        {
          "internalType": "bool",
          "name": "status",
          "type": "bool"
        }
      ],
      "name": "setRevealed",
      "outputs": [],
      "stateMutability": "nonpayable",
      "type": "function"
    },
    {
      "inputs": [
        {
          "internalType": "bytes4",
          "name": "interfaceId",
          "type": "bytes4"
        }
      ],
      "name": "supportsInterface",
      "outputs": [
        {
          "internalType": "bool",
          "name": "",
          "type": "bool"
        }
      ],
      "stateMutability": "view",
      "type": "function"
    },
    {
      "inputs": [],
      "name": "symbol",
      "outputs": [
        {
          "internalType": "string",
          "name": "",
          "type": "string"
        }
      ],
      "stateMutability": "view",
      "type": "function"
    },
    {
      "inputs": [],
      "name": "toggleMint",
      "outputs": [],
      "stateMutability": "nonpayable",
      "type": "function"
    },
    {
      "inputs": [
        {
          "internalType": "uint256",
          "name": "",
          "type": "uint256"
        }
      ],
      "name": "tokenAttributes",
      "outputs": [
        {
          "internalType": "string",
          "name": "",
          "type": "string"
        }
      ],
      "stateMutability": "view",
      "type": "function"
    },
    {
      "inputs": [
        {
          "internalType": "uint256",
          "name": "",
          "type": "uint256"
        }
      ],
      "name": "tokenEvolved3D",
      "outputs": [
        {
          "internalType": "bool",
          "name": "",
          "type": "bool"
        }
      ],
      "stateMutability": "view",
      "type": "function"
    },
    {
      "inputs": [
        {
          "internalType": "uint256",
          "name": "",
          "type": "uint256"
        }
      ],
      "name": "tokenImage",
      "outputs": [
        {
          "internalType": "string",
          "name": "",
          "type": "string"
        }
      ],
      "stateMutability": "view",
      "type": "function"
    },
    {
      "inputs": [
        {
          "internalType": "uint256",
          "name": "tokenId",
          "type": "uint256"
        }
      ],
      "name": "tokenMetadataJson",
      "outputs": [
        {
          "internalType": "string",
          "name": "",
          "type": "string"
        }
      ],
      "stateMutability": "view",
      "type": "function"
    },
    {
      "inputs": [
        {
          "internalType": "uint256",
          "name": "",
          "type": "uint256"
        }
      ],
      "name": "tokenName",
      "outputs": [
        {
          "internalType": "string",
          "name": "",
          "type": "string"
        }
      ],
      "stateMutability": "view",
      "type": "function"
    },
    {
      "inputs": [
        {
          "internalType": "uint256",
          "name": "",
          "type": "uint256"
        }
      ],
      "name": "tokenRarityScore",
      "outputs": [
        {
          "internalType": "uint256",
          "name": "",
          "type": "uint256"
        }
      ],
      "stateMutability": "view",
      "type": "function"
    },
    {
      "inputs": [
        {
          "internalType": "uint256",
          "name": "",
          "type": "uint256"
        }
      ],
      "name": "tokenSeeds",
      "outputs": [
        {
          "internalType": "uint256",
          "name": "",
          "type": "uint256"
        }
      ],
      "stateMutability": "view",
      "type": "function"
    },
    {
      "inputs": [
        {
          "internalType": "uint256",
          "name": "tokenId",
          "type": "uint256"
        }
      ],
      "name": "tokenURI",
      "outputs": [
        {
          "internalType": "string",
          "name": "",
          "type": "string"
        }
      ],
      "stateMutability": "view",
      "type": "function"
    },
    {
      "inputs": [],
      "name": "totalSupply",
      "outputs": [
        {
          "internalType": "uint256",
          "name": "",
          "type": "uint256"
        }
      ],
      "stateMutability": "view",
      "type": "function"
    },
    {
      "inputs": [
        {
          "internalType": "address",
          "name": "from",
          "type": "address"
        },
        {
          "internalType": "address",
          "name": "to",
          "type": "address"
        },
        {
          "internalType": "uint256",
          "name": "tokenId",
          "type": "uint256"
        }
      ],
      "name": "transferFrom",
      "outputs": [],
      "stateMutability": "nonpayable",
      "type": "function"
    },
    {
      "inputs": [
        {
          "internalType": "address",
          "name": "newOwner",
          "type": "address"
        }
      ],
      "name": "transferOwnership",
      "outputs": [],
      "stateMutability": "nonpayable",
      "type": "function"
    },
    {
      "inputs": [
        {
          "internalType": "uint256",
          "name": "phaseId",
          "type": "uint256"
        },
        {
          "internalType": "string",
          "name": "name_",
          "type": "string"
        },
        {
          "internalType": "uint256",
          "name": "price",
          "type": "uint256"
        },
        {
          "internalType": "uint256",
          "name": "startTime",
          "type": "uint256"
        },
        {
          "internalType": "uint256",
          "name": "endTime",
          "type": "uint256"
        },
        {
          "internalType": "uint256",
          "name": "maxSupply_",
          "type": "uint256"
        },
        {
          "internalType": "uint256",
          "name": "maxPerWallet_",
          "type": "uint256"
        },
        {
          "internalType": "bool",
          "name": "enabled",
          "type": "bool"
        }
      ],
      "name": "upsertPhase",
      "outputs": [],
      "stateMutability": "nonpayable",
      "type": "function"
    },
    {
      "inputs": [],
      "name": "withdraw",
      "outputs": [],
      "stateMutability": "nonpayable",
      "type": "function"
    }
  ],
  "bytecode": "0x60808060405234620000c6576000549060ff8260081c1662000074575060ff8082160362000038575b604051614d589081620000cc8239f35b60ff90811916176000557f7f26b83ff96e1f2b6a682f133852f6798a09c465da95921460cefb3847402498602060405160ff8152a13862000028565b62461bcd60e51b815260206004820152602760248201527f496e697469616c697a61626c653a20636f6e747261637420697320696e697469604482015266616c697a696e6760c81b6064820152608490fd5b600080fdfe608080604052600436101561001357600080fd5b60003560e01c90816301ffc9a714612f635750806306fdde0314612ebe578063081812fc14612ea0578063095ea7b314612d265780630f2cdd6c14612d0857806316ef376b14612c6957806318160ddd14612c4a57806323b872dd14612c2657806325fd90f314612c0357806329c1605f14612bdd57806332cb6b0c14612bbf5780633a602b4d14612b845780633ccfd60b14612b4057806340c5b34e14612b1757806342842e0e14612ae4578063448d8c5c14612a3f5780635183022714612a195780635c86a009146128c75780635cd8a76b1461286a57806360e6ca6f146125d45780636352211e146125a45780636817c76c146125865780636f8b44b0146124ac57806370a0823114612415578063715018a6146123ca5780637978d4511461222e5780637b3d6e56146122015780638129fc1c14611c145780638da5cb5b14611beb57806391d8d68b146117e45780639333174a14610da157806395d89b4114610cd35780639c30ad8514610cb4578063a22cb46514610bdd578063a3fa281714610b16578063b75f1aef14610910578063b88d4fde14610863578063c1eea4a014610831578063c3753d7014610804578063c87b56dd1461076b578063cf3484251461073e578063d2f40d791461068c578063d3dd5fe014610631578063dc5d9f42146105d4578063de006f541461058b578063e0a80853146104f9578063e268e4d314610465578063e4faf28814610446578063e725f87714610419578063e82303ce146103ec578063e985e9c514610396578063f2824b5314610351578063f2fde38b146102c25763f4a0a5281461027157600080fd5b346102bd5760203660031901126102bd577f25b1f9f6b6e61dfca5575239769e4450ed2e49176670837f5d1a82a9a2fc693f60206004356102b0613255565b8060fd55604051908152a1005b600080fd5b346102bd5760203660031901126102bd576102db613028565b6102e3613255565b6001600160a01b038116156102fd576102fb906132ad565b005b60405162461bcd60e51b815260206004820152602660248201527f4f776e61626c653a206e6577206f776e657220697320746865207a65726f206160448201526564647265737360d01b6064820152608490fd5b346102bd5760203660031901126102bd5760043560005261010560205261039261037e6040600020613137565b604051918291602083526020830190613003565b0390f35b346102bd5760403660031901126102bd576103af613028565b6103b761303e565b9060018060a01b03809116600052606a60205260406000209116600052602052602060ff604060002054166040519015158152f35b346102bd5760203660031901126102bd5760043560005261010d6020526020604060002054604051908152f35b346102bd5760203660031901126102bd5760043560005261010460205261039261037e6040600020613137565b346102bd5760003660031901126102bd57602061010854604051908152f35b346102bd5760203660031901126102bd57600435610481613255565b80156104b7576020817ec836a17ed3a6a59dce35376ae3c2777797dc03f39f463153c0fea5b65f06839260fc55604051908152a1005b60405162461bcd60e51b815260206004820152601a60248201527904d6178207065722077616c6c6574206d757374206265203e20360341b6044820152606490fd5b346102bd5760203660031901126102bd576004358015158091036102bd5760207f4a9768f4a343b5cd5d5319e6fe71e839c384e1f67a57e74631919d50c5d4d95391610543613255565b60fe5461ff008260081b169061ff0019161760fe55604051908152a1610100548061056a57005b6040600080516020614c2383398151915291815190600182526020820152a1005b346102bd5760403660031901126102bd576105a461303e565b60043560005261010960205260406000209060018060a01b03166000526020526020604060002054604051908152f35b346102bd5760403660031901126102bd576004356105f061303e565b906105ff610108548210613b10565b60005261010a60205260406000209060018060a01b0316600052602052602060ff604060002054166040519015158152f35b346102bd5760003660031901126102bd5761064a613255565b7fb304fe5dd2d3c45e8ec87c1dd1bd2b3a773b3135e84a7b9151f5fb4bf1a06d0e602060fe5460ff8082161516809160ff19161760fe556040519015158152a1005b346102bd5760403660031901126102bd576004356024356001600160401b0381116102bd57600080516020614d03833981519152916107236106d460209336906004016131dd565b906106dd613a4e565b83151580610731575b6106ef90613c92565b61070b6106fb8561332b565b6001600160a01b03163314613cce565b61071d6107188383614ab6565b613995565b83613d0c565b604051908152a1600160c955005b50610100548411156106e6565b346102bd5760203660031901126102bd5760043560005261010360205261039261037e6040600020613137565b346102bd5760203660031901126102bd576103926107a461079f600435801515806107f7575b61079a90613c92565b613fbd565b613e69565b61037e603d60405180937f646174613a6170706c69636174696f6e2f6a736f6e3b6261736536342c00000060208301526107e78151809260208686019101612fe0565b810103601d810184520182613114565b5061010054811115610791565b346102bd5760203660031901126102bd576004356000526101016020526020604060002054604051908152f35b346102bd5760203660031901126102bd57600435600052610107602052602060ff604060002054166040519015158152f35b346102bd5760803660031901126102bd5761087c613028565b61088461303e565b90606435906044356001600160401b0383116102bd57366023840112156102bd578260040135936108b48561323a565b926108c26040519485613114565b85845236602487870101116102bd5760006020876102fb98602461090b990183890137860101526108fb6108f68433613456565b61337d565b61090683838361351e565b613755565b613432565b346102bd576020806003193601126102bd576001600160401b036004358181116102bd576109429036906004016131dd565b9161094b613255565b8215610ad4578211610abe5760ff906109648254613089565b601f8111610a83575b50600092601f8111600114610a105780600080516020614c038339815191529394600091610a05575b508160011b906000198360031b1c19161784555b6109bf60405192839287845287840191613aef565b0390a160fe5460081c1615806109f9575b6109d657005b6040600080516020614c23833981519152916101005482519160018352820152a1005b506101005415156109d0565b905082013586610996565b601f1981169383600052856000209060005b87878210610a6d57505082600080516020614c03833981519152959610610a53575b5050600181811b0184556109aa565b830135600019600384901b60f8161c191690558580610a44565b6001839482939488013581550193019101610a22565b610aae908360005285600020601f860160051c810191878710610ab4575b601f0160051c019061383f565b8461096d565b9091508190610aa1565b634e487b7160e01b600052604160045260246000fd5b60405162461bcd60e51b815260048101859052601a602482015279141b1858d95a1bdb19195c881a5b5859d9481c995c5d5a5c995960321b6044820152606490fd5b346102bd576020806003193601126102bd57600435610b39610108548210613b10565b60005261010b8152604060002060405190818382549182815201908192600052846000209060005b86828210610bc0578686610b7782880383613114565b604051928392818401908285525180915260408401929160005b828110610ba057505050500390f35b83516001600160a01b031685528695509381019392810192600101610b91565b83546001600160a01b031685529093019260019283019201610b61565b346102bd5760403660031901126102bd57610bf6613028565b60243590811515908183036102bd576001600160a01b031691338314610c7357610c459033600052606a60205260406000208460005260205260406000209060ff801983541691151516179055565b6040519081527f17307eab39ab6107e8899845ad3d59bd9653f200f220920489ca2b5937696c3160203392a3005b60405162461bcd60e51b815260206004820152601960248201527822a9219b99189d1030b8383937bb32903a379031b0b63632b960391b6044820152606490fd5b346102bd5760203660031901126102bd5761039261037e600435613fbd565b346102bd5760003660031901126102bd57604051600090606654610cf681613089565b808352600191808316908115610d795750600114610d1f575b6103928361037e81870382613114565b6066600090815260209450917f46501879b8ca8525e8c2fd519e2fbfcfa2ebea26501294aa02cbfcfb12e943545b828410610d665750505081019091019061037e81610d0f565b8054858501870152928501928101610d4d565b610392955061037e93506020915091849260ff191682840152151560051b8201019350610d0f565b60a03660031901126102bd576024356001600160401b0381116102bd57610dcc90369060040161320a565b906044356001600160401b0381116102bd57610dec90369060040161320a565b906064356001600160401b0381116102bd57610e0c90369060040161320a565b93906084356001600160401b0381116102bd57610e2d90369060040161320a565b9091610e37613a4e565b610e3f614a2b565b60ff60fe9b9499939a929b5416156117aa576004351561176e578b600435036117295781600435036116e457836004350361169357856004350361163f57610e8c600435610100546138f0565b60fb54106116055733600052610102602052610eaf6004356040600020546138f0565b60fc54106115c05788611417575b50610eca6004358b613932565b34106113db5760005b6004358110610f8557610ef18b8b8b610f3a575b5060043590613932565b803411610f00575b600160c955005b60008080610f0f819434613a41565b818115610f31575b3390f115610f255780610ef9565b6040513d6000823e3d90fd5b506108fc610f17565b6006610f45826138fd565b5001610f5460043582546138f0565b90556000526101096020526040600020336000526020526040600020610f7d60043582546138f0565b905582610ee7565b610f9c610718610f96838f8c613954565b90614ab6565b610fb3610faa828688613954565b905015156139ef565b610fbf61010054613945565b9081610100556040518260208201523360601b60408201524460548201524260748201526094828183015281528060c081011060018060401b0360c083011117610abe57818e8260c061102d940160405260208151910120856000526101016020526040600020558b613954565b600084815261010360205260409020916001600160401b038211610abe5781906110618261105b8654613089565b86613856565b600090601f831160011461137157600092611366575b50508160011b916000199060031b1c19161790555b611097818486613954565b600084815261010460205260409020916001600160401b038211610abe5781906110c58261105b8654613089565b600090601f83116001146112fc576000926112f1575b50508160011b916000199060031b1c19161790555b6110fb818688613954565b600084815261010560205260409020916001600160401b038211610abe5781906111298261105b8654613089565b600090601f83116001146112875760009261127c575b50508160011b916000199060031b1c19161790555b61115f81888a613a31565b35826000526101066020526040600020553360005261010260205260406000206111898154613945565b905560405191611198836130c3565b6000835233156112385760208161122761090b611233966111d06111ca600080516020614d038339815191529761361a565b15613aa4565b6111dc6111ca8561361a565b3360008181526068875260408082208054600101905586825260678852812080546001600160a01b03191683179055859190600080516020614ca38339815191528180a48333613637565b604051908152a1613945565b610ed3565b606460405162461bcd60e51b815260206004820152602060248201527f4552433732313a206d696e7420746f20746865207a65726f20616464726573736044820152fd5b01359050388061113f565b9091508360005260206000209160005b601f19851681106112d9575083601f198116106112bf575b505050600190811b019055611154565b0135600019600384901b60f8161c191690558f80806112af565b90926020600181928686013581550194019101611297565b0135905038806110db565b9091508360005260206000209160005b601f198516811061134e575083601f19811610611334575b505050600190811b0190556110f0565b0135600019600384901b60f8161c191690558f8080611324565b9092602060018192868601358155019401910161130c565b013590503880611077565b9091508360005260206000209160005b601f19851681106113c3575083601f198116106113a9575b505050600190811b01905561108c565b0135600019600384901b60f8161c191690558f8080611399565b90926020600181928686013581550194019101611381565b60405162461bcd60e51b8152602060048201526014602482015273125b9cdd59999a58da595b9d081c185e5b595b9d60621b6044820152606490fd5b6114208a6138fd565b5060ff6007820154161561158a578a60005261010d60205260406000205461152a575b600481015490816114cd575b50508015610ebd578960005261010960205260406000203360005260205261147e6004356040600020546138f0565b11611489578b610ebd565b60405162461bcd60e51b815260206004820152601c60248201527b115e18d959591cc81c1a185cd9481b585e081c195c881dd85b1b195d60221b6044820152606490fd5b6114de9060066004359101546138f0565b116114ea578c8061144f565b60405162461bcd60e51b815260206004820152601860248201527745786365656473207068617365206d617820737570706c7960401b6044820152606490fd5b61010a60205260406000203360005260205260ff604060002054166114435760405162461bcd60e51b81526020600482015260196024820152784e6f742077686974656c697374656420666f7220706861736560381b6044820152606490fd5b60405162461bcd60e51b815260206004820152600e60248201526d141a185cd948191a5cd8589b195960921b6044820152606490fd5b60405162461bcd60e51b815260206004820152601d60248201527f4578636565647320676c6f62616c206d6178207065722077616c6c65740000006044820152606490fd5b60405162461bcd60e51b815260206004820152601260248201527145786365656473206d617820737570706c7960701b6044820152606490fd5b60405162461bcd60e51b815260206004820152602660248201527f4d7573742070726f76696465207261726974792073636f726520666f7220656160448201526518da0813919560d21b6064820152608490fd5b60405162461bcd60e51b8152602060048201526024808201527f4d7573742070726f76696465206174747269627574657320666f7220656163686044820152630813919560e21b6064820152608490fd5b60405162461bcd60e51b815260206004820152601e60248201527f4d7573742070726f76696465206e616d6520666f722065616368204e465400006044820152606490fd5b60405162461bcd60e51b815260206004820152601f60248201527f4d7573742070726f7669646520696d61676520666f722065616368204e4654006044820152606490fd5b60405162461bcd60e51b81526020600482015260146024820152734d757374206d696e74206174206c65617374203160601b6044820152606490fd5b60405162461bcd60e51b81526020600482015260126024820152714d696e74696e67206e6f742061637469766560701b6044820152606490fd5b346102bd5760603660031901126102bd576024356001600160401b0381116102bd5761181490369060040161320a565b6044351515604435036102bd57611829613255565b6118396101085460043510613b10565b60005b81811061184557005b611850818385613a31565b35906001600160a01b03821682036102bd576001600160a01b03821615611baa5760043560005261010a80602052604060002060018060a01b03841660005260205260ff60406000205416604435604435611ba2575b156119c45750600435600052602052604060002060018060a01b03831660005260205260406000206001908160ff1982541617905560043560005261010b8060205260406000208054600160401b811015610abe5761190e8161192d93868994018155613beb565b90919082549060031b9160018060a01b03809116831b921b1916179055565b60043560005260205260406000205461010c602052604060002060018060a01b03851660005260205260406000205560043560005261010d60205260406000209283548281018091116119ae576119a9945560405191825260018060a01b031690600080516020614c43833981519152602060043592a3613945565b61183c565b634e487b7160e01b600052601160045260246000fd5b604435159081611b9a575b506119e0575b506119a99150613945565b6004356000818152602092835260408082206001600160a01b038716808452908552818320805460ff1916905592825261010c84528082209282529190925290205480611a7f575b5060043560005261010d602052604060002091825460001981019081116119ae57909255604051600081526119a9926001600160a01b03169060043590600080516020614c4383398151915290602090a3846119d5565b60043560005261010b6020526040600020805490818303611b1d575b50505060043560005261010b602052604060002080548015611b07576000190190611ac68282613beb565b81549060018060a01b039060031b1b191690555560043560005261010c602052604060002060018060a01b0383166000526020526000604081205584611a28565b634e487b7160e01b600052603160045260246000fd5b816000198101116119ae57611b36916000190190613beb565b60018060a01b0391549060031b1c1660043560005261010b6020526040600020826000198101116119ae578161190e611b7492600019860190613beb565b60043560005261010c602052604060002090600052602052604060002055848080611a9b565b9050866119cf565b5080156118a6565b60405162461bcd60e51b8152602060048201526019602482015278496e76616c69642077686974656c697374206164647265737360381b6044820152606490fd5b346102bd5760003660031901126102bd576097546040516001600160a01b039091168152602090f35b346102bd5760003660031901126102bd5760005460ff808260081c16158080916121f5575b80156121df575b611c49906137dc565b600192818460ff198316176000556121cd575b50604051611c69816130de565b600d81526020926c386269742050656e6775696e7360981b8483015260405191611c92836130de565b60059283815264038424954560dc1b86820152611cbe8360005460081c16611cb981613890565b613890565b81516001600160401b039190828111610abe5780611cdd606554613089565b94601f958a878211612195575b5050899086831160011461213057600092612125575b5050600019600383901b1c191690891b176065555b8051918211610abe57611d29606654613089565b8381116120ee575b5086908383116001146120705791806a3a32bc3a1f1e17b9bb339f60a91b969492600f9694600092612065575b5050600019600383901b1c191690891b176066555b611d878260005460081c16611cb981613890565b611d90336132ad565b611da48260005460081c16611cb981613890565b8760c955603260fb55603260fc55600060fd5561ffff1960fe541660fe55611dcc8254613089565b818111612043575b50506103d781556000527f272072783d273938272072793d27313232272066696c6c3d272532334338384685600020917f646174613a696d6167652f7376672b786d6c3b757466382c3c73766720786d6c83557f6e733d27687474703a2f2f7777772e77332e6f72672f323030302f7376672720888401557f76696577426f783d273020302034303020343030273e3c72656374207769647460028401557f683d2734303027206865696768743d27343030272066696c6c3d27253233384260038401557f30453241272f3e3c656c6c697073652063783d27323030272063793d2732303860048401558201557f3146272f3e3c656c6c697073652063783d27313836272063793d27313832272060068201557f72783d273532272072793d273730272066696c6c3d272532334546424634352760078201557f2f3e3c656c6c697073652063783d27323132272063793d27323238272072783d60088201557f273736272072793d273834272066696c6c3d2725323338463542313227206f7060098201557f61636974793d27302e3535272f3e3c7465787420783d273230302720793d2733600a8201557f3532272066696c6c3d272532334646464646462720666f6e742d73697a653d27600b8201557f32382720666f6e742d66616d696c793d274a6574427261696e73204d6f6e6f2c600c8201557f6d6f6e6f73706163652720666f6e742d7765696768743d273730302720746578600d8201557f742d616e63686f723d276d6964646c65273e386269742050656e6775696e3c2f600e820155015561201f57005b600080516020614c638339815191529161ff001960005416600055604051908152a1005b601061205e9284600052896000209201851c8201910161383f565b8780611dd4565b015190508a80611d5e565b889291601f198316916066600052896000209260005b8b8282106120d857505091600f97959391856a3a32bc3a1f1e17b9bb339f60a91b9a989694106120bf575b505050811b01606655611d73565b015160001960f88460031b161c191690558a80806120b1565b8385015186558d97909501949384019301612086565b6121169060666000528860002085808601891c8201928b871061211c575b01881c019061383f565b88611d31565b9250819261210c565b015190508a80611d00565b908b9350601f1983169160656000528b6000209260005b8d82821061217f5750508411612166575b505050811b01606555611d15565b015160001960f88460031b161c191690558a8080612158565b8385015186558f97909501949384019301612147565b6121bd9160656000528882600020918187018d1c83019387106121c4575b018b1c019061383f565b8b8a611cea565b925081926121b3565b61ffff19166101011760005583611c5c565b50303b158015611c405750828216600114611c40565b50600182841610611c39565b346102bd5760203660031901126102bd576004356000526101066020526020604060002054604051908152f35b346102bd5760603660031901126102bd576004356001600160401b036024358181116102bd576122629036906004016131dd565b9290916044358181116102bd576122806122c79136906004016131dd565b95909461228b613a4e565b841515806123bd575b61229d90613c92565b6122a96106fb8661332b565b6122b66107188383614ab6565b6122c18715156139ef565b84613d0c565b8160005260209261010584526040600020918511610abe576122f3856122ed8454613089565b84613856565b600090601f861160011461234857600080516020614d0383398151915295916000918361233d575b50508160011b916000199060031b1c1916179055604051908152a1600160c955005b01359050868061231b565b601f1986169183600052856000209260005b8181106123a65750916001939188600080516020614d0383398151915299941061238c575b505050811b019055610723565b0135600019600384901b60f8161c1916905586808061237f565b91938760018192878701358155019501920161235a565b5061010054851115612294565b346102bd5760003660031901126102bd576123e3613255565b609780546001600160a01b031981169091556000906001600160a01b0316600080516020614c838339815191528280a3005b346102bd5760203660031901126102bd576001600160a01b03612436613028565b1680156124555760005260686020526020604060002054604051908152f35b60405162461bcd60e51b815260206004820152602960248201527f4552433732313a2061646472657373207a65726f206973206e6f7420612076616044820152683634b21037bbb732b960b91b6064820152608490fd5b346102bd5760203660031901126102bd576004356124c8613255565b610100548110612547578015612509576020817f28a10a2e0b5582da7164754cb994f6214b8af6aa7f7e003305fbc09e7106c5139260fb55604051908152a1005b60405162461bcd60e51b815260206004820152601660248201527504d617820737570706c79206d757374206265203e20360541b6044820152606490fd5b60405162461bcd60e51b815260206004820152601760248201527613585e081cdd5c1c1b1e4818995b1bddc81b5a5b9d1959604a1b6044820152606490fd5b346102bd5760003660031901126102bd57602060fd54604051908152f35b346102bd5760203660031901126102bd5760206125c260043561332b565b6040516001600160a01b039091168152f35b346102bd576101003660031901126102bd576001600160401b036004356024358281116102bd576126099036906004016131dd565b60e435938415158086036102bd5761261f613255565b821561282f576084359182158015612825575b801561281a575b156127de5761010880548781036127cd57600160401b811015610abe57612665916001820190556138fd565b50505b612671866138fd565b50908411610abe5761268d846126878354613089565b83613856565b600096601f85116001146127535784600080516020614ce38339815191529798600091612748575b508560011b906000198760031b1c19161782555b6044359384600184015560643580600285015581600385015561270d60a43593846004870155600760c43596876005820155019060ff801983541691151516179055565b61272460405198899860e08a5260e08a0191613aef565b95602088015260408701526060860152608085015260a084015260c08301520390a2005b9050860135896126b5565b81600052602097886000209860005b601f19881681106127b657505097600080516020614ce3833981519152979886601f1981161061279c575b5050600185811b0182556126c9565b870135600019600388901b60f8161c19169055888061278d565b828901358b556001909a0199918101918101612762565b6127d991508710613b10565b612668565b60405162461bcd60e51b8152602060048201526014602482015273496e76616c69642070686173652077696e646f7760601b6044820152606490fd5b506064358311612639565b5060643515612632565b60405162461bcd60e51b8152602060048201526013602482015272141a185cd9481b985b59481c995c5d5a5c9959606a1b6044820152606490fd5b346102bd5760003660031901126102bd57600260005460ff8160081c1615806128bb575b612897906137dc565b61ffff191617600055600080516020614c63833981519152602060405160028152a1005b5060ff8116821161288e565b346102bd576020806003193601126102bd57600435906128e5613255565b6101089081549081156129e057600019918083019081116119ae57840361299c578360005261010d81526000604081205561010b81526040600020908154906000835581612981575b50505061294361293d846138fd565b90613b53565b81548015611b0757019061295961293d836138fd565b557f3ae6bd42f8622e3894ef16a2193a204de29ee6392703e402f31749d92b1735e8600080a2005b612994926000526000209081019061383f565b83808061292e565b6064906040519062461bcd60e51b82526004820152601e60248201527f4f6e6c79206c6173742070686173652063616e2062652064656c6574656400006044820152fd5b6064906040519062461bcd60e51b8252600482015260126024820152714e6f20706861736520746f2064656c65746560701b6044820152fd5b346102bd5760003660031901126102bd57602060ff60fe5460081c166040519015158152f35b346102bd5760003660031901126102bd5760405160009060ff54612a6281613089565b808352600191808316908115610d795750600114612a8a576103928361037e81870382613114565b60ff600090815260209450917fe08ec2af2cfc251225e1968fd6ca21e4044f129bffa95bac3503be8bdb30a3675b828410612ad15750505081019091019061037e81610d0f565b8054858501870152928501928101612ab8565b346102bd576102fb61090b612af836613054565b9060405192612b06846130c3565b600084526108fb6108f68433613456565b346102bd5760003660031901126102bd576040612b32613c03565b825191151582526020820152f35b346102bd5760003660031901126102bd57612b59613255565b600080808060018060a01b03609754164790828215612b7b575bf115610f2557005b506108fc612b73565b346102bd5760203660031901126102bd576001600160a01b03612ba5613028565b166000526101026020526020604060002054604051908152f35b346102bd5760003660031901126102bd57602060fb54604051908152f35b346102bd5760203660031901126102bd576020612bfb600435614977565b604051908152f35b346102bd5760003660031901126102bd57602060ff60fe54166040519015158152f35b346102bd576102fb612c3736613054565b91612c456108f68433613456565b61351e565b346102bd5760003660031901126102bd57602061010054604051908152f35b346102bd5760203660031901126102bd57612cde612c96600435612c91610108548210613b10565b6138fd565b50600181015460028201549160038101546004820154600583015490600684015492612cc960ff60078701541695613137565b96604051988998610100808b528a0190613003565b96602089015260408801526060870152608086015260a085015260c0840152151560e08301520390f35b346102bd5760003660031901126102bd57602060fc54604051908152f35b346102bd5760403660031901126102bd57612d3f613028565b602435906001600160a01b038080612d568561332b565b16921691808314612e5157803314908115612e2c575b5015612dc157600083815260696020526040902080546001600160a01b03191683179055612d998361332b565b167f8c5be1e5ebec7d5bd14f71427d1e84f3dd0314c0f7b2291e5b200ac8c7c3b925600080a4005b60405162461bcd60e51b815260206004820152603d60248201527f4552433732313a20617070726f76652063616c6c6572206973206e6f7420746f60448201527f6b656e206f776e6572206f7220617070726f76656420666f7220616c6c0000006064820152608490fd5b9050600052606a60205260406000203360005260205260ff6040600020541684612d6c565b60405162461bcd60e51b815260206004820152602160248201527f4552433732313a20617070726f76616c20746f2063757272656e74206f776e656044820152603960f91b6064820152608490fd5b346102bd5760203660031901126102bd5760206125c2600435613351565b346102bd5760003660031901126102bd57604051600090606554612ee181613089565b808352600191808316908115610d795750600114612f09576103928361037e81870382613114565b6065600090815260209450917f8ff97419363ffd7000167f130ef7168fbea05faf9251824ca5043f113cc6a7c75b828410612f505750505081019091019061037e81610d0f565b8054858501870152928501928101612f37565b346102bd5760203660031901126102bd576004359063ffffffff60e01b82168092036102bd578160209215908115612f9d575b5015158152f35b6380ac58cd60e01b811491508115612fcf575b8115612fbe575b5083612f96565b6301ffc9a760e01b14905083612fb7565b635b5e139f60e01b81149150612fb0565b60005b838110612ff35750506000910152565b8181015183820152602001612fe3565b9060209161301c81518092818552858086019101612fe0565b601f01601f1916010190565b600435906001600160a01b03821682036102bd57565b602435906001600160a01b03821682036102bd57565b60609060031901126102bd576001600160a01b039060043582811681036102bd579160243590811681036102bd579060443590565b90600182811c921680156130b9575b60208310146130a357565b634e487b7160e01b600052602260045260246000fd5b91607f1691613098565b602081019081106001600160401b03821117610abe57604052565b604081019081106001600160401b03821117610abe57604052565b606081019081106001600160401b03821117610abe57604052565b601f909101601f19168101906001600160401b03821190821017610abe57604052565b906040519182600082549261314b84613089565b9081845260019485811690816000146131ba5750600114613177575b505061317592500383613114565b565b9093915060005260209081600020936000915b8183106131a257505061317593508201013880613167565b8554888401850152948501948794509183019161318a565b91505061317594506020925060ff191682840152151560051b8201013880613167565b9181601f840112156102bd578235916001600160401b0383116102bd57602083818601950101116102bd57565b9181601f840112156102bd578235916001600160401b0383116102bd576020808501948460051b0101116102bd57565b6001600160401b038111610abe57601f01601f191660200190565b6097546001600160a01b0316330361326957565b606460405162461bcd60e51b815260206004820152602060248201527f4f776e61626c653a2063616c6c6572206973206e6f7420746865206f776e65726044820152fd5b609780546001600160a01b039283166001600160a01b031982168117909255909116600080516020614c83833981519152600080a3565b156132eb57565b60405162461bcd60e51b8152602060048201526018602482015277115490cdcc8c4e881a5b9d985b1a59081d1bdad95b88125160421b6044820152606490fd5b6000908152606760205260409020546001600160a01b031661334e8115156132e4565b90565b61336261335d8261361a565b6132e4565b6000908152606960205260409020546001600160a01b031690565b1561338457565b60405162461bcd60e51b815260206004820152602d60248201527f4552433732313a2063616c6c6572206973206e6f7420746f6b656e206f776e6560448201526c1c881bdc88185c1c1c9bdd9959609a1b6064820152608490fd5b60809060208152603260208201527f4552433732313a207472616e7366657220746f206e6f6e20455243373231526560408201527131b2b4bb32b91034b6b83632b6b2b73a32b960711b60608201520190565b1561343957565b60405162461bcd60e51b815280613452600482016133df565b0390fd5b906001600160a01b03808061346a8461332b565b1693169183831493841561349d575b508315613487575b50505090565b61349391929350613351565b1614388080613481565b909350600052606a60205260406000208260005260205260ff604060002054169238613479565b156134cb57565b60405162461bcd60e51b815260206004820152602560248201527f4552433732313a207472616e736665722066726f6d20696e636f72726563742060448201526437bbb732b960d91b6064820152608490fd5b906135469161352c8461332b565b6001600160a01b03939184169284929091831684146134c4565b169182156135c957816135639161355c8661332b565b16146134c4565b600080516020614ca3833981519152600084815260696020526040812060018060a01b03199081815416905583825260686020526040822060001981540190558482526040822060018154019055858252606760205284604083209182541617905580a4565b60405162461bcd60e51b8152602060048201526024808201527f4552433732313a207472616e7366657220746f20746865207a65726f206164646044820152637265737360e01b6064820152608490fd5b6000908152606760205260409020546001600160a01b0316151590565b91929091803b1561374c57613684936040519081630a85bd0160e11b9384825233600483015260009687602484015260448301526080606483015281878160209a8b966084830190613003565b03926001600160a01b03165af1849181613708575b506136f7575050503d6000146136ef573d6136b38161323a565b906136c16040519283613114565b81528091833d92013e5b805191826136ec5760405162461bcd60e51b815280613452600482016133df565b01fd5b5060606136cb565b6001600160e01b0319161492509050565b9091508581813d8311613745575b6137208183613114565b8101031261374157516001600160e01b031981168103613741579038613699565b8480fd5b503d613716565b50915050600190565b92939190803b156137d2576137a7946040518092630a85bd0160e11b9485835233600484015260018060a01b03809816602484015260448301526080606483015281806020998a956084830190613003565b03916000988991165af184918161370857506136f7575050503d6000146136ef573d6136b38161323a565b5050915050600190565b156137e357565b60405162461bcd60e51b815260206004820152602e60248201527f496e697469616c697a61626c653a20636f6e747261637420697320616c72656160448201526d191e481a5b9a5d1a585b1a5e995960921b6064820152608490fd5b81811061384a575050565b6000815560010161383f565b9190601f811161386557505050565b613175926000526020600020906020601f840160051c83019310610ab457601f0160051c019061383f565b1561389757565b60405162461bcd60e51b815260206004820152602b60248201527f496e697469616c697a61626c653a20636f6e7472616374206973206e6f74206960448201526a6e697469616c697a696e6760a81b6064820152608490fd5b919082018092116119ae57565b610108805482101561391c5760005260206000209060031b0190600090565b634e487b7160e01b600052603260045260246000fd5b818102929181159184041417156119ae57565b60001981146119ae5760010190565b919081101561391c5760051b81013590601e19813603018212156102bd5701803591906001600160401b0383116102bd5760200182360381136102bd579190565b1561399c57565b60405162461bcd60e51b815260206004820152602560248201527f496d616765206d75737420626520646174613a696d6167652f2a3b62617365366044820152641a1617171760d91b6064820152608490fd5b156139f657565b60405162461bcd60e51b8152602060048201526013602482015272105d1d1c9a589d5d195cc81c995c5d5a5c9959606a1b6044820152606490fd5b919081101561391c5760051b0190565b919082039182116119ae57565b600260c95414613a5f57600260c955565b60405162461bcd60e51b815260206004820152601f60248201527f5265656e7472616e637947756172643a207265656e7472616e742063616c6c006044820152606490fd5b15613aab57565b60405162461bcd60e51b815260206004820152601c60248201527b115490cdcc8c4e881d1bdad95b88185b1c9958591e481b5a5b9d195960221b6044820152606490fd5b908060209392818452848401376000828201840152601f01601f1916010190565b15613b1757565b60405162461bcd60e51b8152602060048201526014602482015273141a185cd948191bd95cc81b9bdd08195e1a5cdd60621b6044820152606490fd5b90613bd557613b628154613089565b80613b96575b5060076000918260018201558260028201558260038201558260048201558260058201558260068201550155565b601f8111600114613bad5750600081555b38613b68565b600090828252613bcc601f60208420920160051c82016001830161383f565b81835555613ba7565b634e487b7160e01b600052600060045260246000fd5b805482101561391c5760005260206000200190600090565b600090610108545b808310613c1b5750600091508190565b613c24836138fd565b5060ff60078201541615613c7c5760028101548015159081613c88575b50613c7c57600301548015159081613c72575b50613c60575060019190565b9091613c6b90613945565b9190613c0b565b9050421138613c54565b509091613c6b90613945565b9050421038613c41565b15613c9957565b60405162461bcd60e51b815260206004820152600d60248201526c24b73b30b634b2103a37b5b2b760991b6044820152606490fd5b15613cd557565b60405162461bcd60e51b815260206004820152600f60248201526e2737ba103a37b5b2b71037bbb732b960891b6044820152606490fd5b6000818152610103602090815260408220919492939092906001600160401b038211613e2357613d4682613d408554613089565b85613856565b8590601f8311600114613dbc5761010794939291879183613db1575b50508160011b916000199060031b1c19161790555b8284525260408220600160ff198254161790557fe6bd40d7fbe8d26f44fd9e1ba6d94055a784eb2de4a192c015f84c86a73d225b339280a3565b013590503880613d62565b83875284872091601f198416885b818110613e0c57509160019391856101079897969410613df2575b505050811b019055613d77565b0135600019600384901b60f8161c19169055388080613de5565b919387600181928787013581550195019201613dca565b634e487b7160e01b86526041600452602486fd5b90613e418261323a565b613e4e6040519182613114565b8281528092613e5f601f199161323a565b0190602036910137565b805115613fa95760405190613e7d826130f9565b604082527f4142434445464748494a4b4c4d4e4f505152535455565758595a61626364656660208301527f6768696a6b6c6d6e6f707172737475767778797a303132333435363738392b2f604083015280516002918282018092116119ae576003918290046001600160fe1b03811681036119ae57613eff908495941b613e37565b936020850193829183518401906020820192835194600085525b838110613f58575050505052510680600114613f4557600214613f3a575090565b603d90600019015390565b50603d9081600019820153600119015390565b87600491999293949901918251600190603f9082828260121c16880101518453828282600c1c16880101518385015382828260061c1688010151888501531685010151898201530197929190613f19565b50604051613fb6816130c3565b6000815290565b801515806144bb575b613fcf90613c92565b60ff908160fe5460081c16156143095760926141279261334e926000918183526142456020916101038352604093614008858720613137565b95818152610104855261401c868220613137565b968282526101058652614030878320613137565b928083526101068752878320549261404782614977565b958551156142c1575b82825261406961010796878b52828c8520541690614616565b95838352808a52818b84205416600014614288578a51614088816130f9565b602981527f556e6971756520386269742050656e6775696e73206f6e2042617365202845768b820152686f6c7665642033442960b81b8c820152935b835289529089902054161561425e5760296141026140fc8a516140e6816130de565b60048152637472756560e01b8b820152956144c8565b966144c8565b98519c8d809b683d913730b6b2911d1160b91b8b8301528a8151948593019101612fe0565b8901701116113232b9b1b934b83a34b7b7111d1160791b6029820152614156825180938a603a85019101612fe0565b016a11161134b6b0b3b2911d1160a91b603a82015261417e8251809389604585019101612fe0565b0170222c2272657665616c6564223a7472756560781b60458201526d161132bb37b63b32b22f99b2111d60911b60568201526141c38251809388606485019101612fe0565b016d161130ba3a3934b13aba32b9911d60911b60648201526141ee8251809387607285019101612fe0565b016f16113930b934ba3cafb9b1b7b932911d60811b607282015261421b8251809386608285019101612fe0565b01916e16113930b934ba3cafb930b735911d60891b60828401528351938491609185019101612fe0565b01607d60f81b6091820152036072810184520182613114565b60296141026140fc8a51614271816130de565b600581526466616c736560d81b8b820152956144c8565b8a51614293816130de565b601c81527b556e6971756520386269742050656e6775696e73206f6e204261736560201b8b820152936140c4565b945088516142ce816130f9565b60368152600080516020614cc38339815191528982015275223a224d65746164617461204d697373696e67227d5d60501b8a82015294614050565b614312906144c8565b6040518092602092777b226e616d65223a22386269742050656e6775696e73202360401b8484015261434d8151809286603887019101612fe0565b8201907f222c226465736372697074696f6e223a22556e72657665616c6564203862697460388301527b102832b733bab4b7399037b7102130b9b291161134b6b0b3b2911d1160211b605883015260009181546143a981613089565b926001918083169081156144825750600114614435575b505050509081600080516020614cc383398151915261334e947f222c2272657665616c6564223a66616c73652c2261747472696275746573223a606095528201527f223a224e6f2050726f706572747920756e74696c6c2052657665616c227d5d7d6040820152036040810184520182613114565b600090815286812093945091925b84831061446b575050500160740182600080516020614cc3833981519152606061334e6143c0565b805484840160740152879550918601918101614443565b606097965060749350600080516020614cc383398151915294925061334e9895915060ff191683830152801515020101929382956143c0565b5061010054811115613fc6565b6000908072184f03e93ff9f4daa797ed6e38ed64bf6a1f0160401b808210156145f7575b506904ee2d6d415b85acef8160201b808310156145e8575b50662386f26fc10000808310156145d9575b506305f5e100808310156145ca575b50612710808310156145bb575b5060648210156145ab575b600a809210156145a1575b600190816021614559828701613e37565b95860101905b61456b575b5050505090565b600019019083906f181899199a1a9b1b9c1cb0b131b232b360811b8282061a83530491821561459c5791908261455f565b614564565b9160010191614548565b919060646002910491019161453d565b60049193920491019138614532565b60089193920491019138614525565b60109193920491019138614516565b60209193920491019138614504565b6040935081049150386144ec565b90815181101561391c570160200190565b901561334e57604080519061462a826130de565b6018825261465a60209277113a3930b4ba2fba3cb832911d1122bb37b63aba34b7b71160411b84820152846148c7565b6148c257825115801561489a575b61484757825192835b6147b2575b83158015614782575b61477b5760001984019384116119ae578051808511614773575b506146a38461323a565b936146b083519586613114565b8085526146bc8161323a565b8585019290601f1901368437600090815b83811061474357505050509261334e92827f2c7b2274726169745f74797065223a2245766f6c7574696f6e222c2276616c75614716966051955197889551809286880190612fe0565b8401928301527065223a2245766f6c766564203344227d5d60781b90820152036031810184520182613114565b61476e906001600160f81b031961475a8285614605565b5116841a614768828b614605565b53613945565b6146cd565b935038614699565b9250505090565b5060001984018481116119ae57605d60f81b906001600160f81b0319906147a99084614605565b5116141561467f565b92600019810190808211614832576001600160f81b03196147d38387614605565b5116600160fd1b8114908115614824575b8115614816575b8115614808575b501561480057509283614671565b939050614676565b600d60f81b149050386147f2565b600560f91b811491506147eb565b600960f81b811491506147e4565b60246000634e487b7160e01b81526011600452fd5b9091507f5b7b2274726169745f74797065223a2245766f6c7574696f6e222c2276616c75815192614877846130f9565b603184528301527065223a2245766f6c766564203344227d5d60781b9082015290565b506148bd81516148a9816130de565b60028152615b5d60f01b84820152846148c7565b614668565b505090565b908051801561495657825110614970576000905b6148e88351825190613a41565b82116149685760019260005b825181101561495e576001600160f81b03198061491a61491484886138f0565b85614605565b5116906149278386614605565b51160361493c5761493790613945565b6148f4565b5092509060005b6149565761495090613945565b906148db565b505050600190565b5092919091614943565b505050600090565b5050600090565b80151580614a1e575b61498990613c92565b6000908082526101069160209183835260408083205492600195869561010054965b878111156149be57505050505050505090565b8581146149e2578084528282528484205487808211918215614a05575b50506149f0575b6149eb90613945565b6149ab565b976149fd6149eb91613945565b9890506149e2565b14905080614a15575b87386149db565b50858110614a0e565b5061010054811115614980565b614a33613c03565b919015614a5557614a43826138fd565b50600180820154600590920154909392565b905061010854614a6e5760fd5460009160009190600090565b60405162461bcd60e51b81526020600482015260146024820152734e6f20616374697665206d696e7420706861736560601b6044820152606490fd5b9082101561391c570190565b9060405190614ac4826130de565b600b82526a646174613a696d6167652f60a81b602083015260405192614ae9846130de565b60088452670ed8985cd94d8d0b60c21b60208501528251600881018091116119ae57821115614bf95760005b8351811015614b5f576001600160f81b031980614b33838686614aaa565b351690614b408387614605565b511603614b5557614b5090613945565b614b15565b5050505050600090565b509290919260009351925b80614b768451866138f0565b116145645760019460005b8451811015614bf0576001600160f81b031980614ba8614ba1848a6138f0565b8688614aaa565b351690614bb58388614605565b511603614bca57614bc590613945565b614b81565b509390945060005b614be657614bdf90613945565b9293614b6a565b5050505050600190565b50939094614bd2565b5050505060009056fe9debbd008148f593b1d1f618a64b0d9561e522df1013cdcfd8c7302978119def6bd5c950a8d8df17f772f5af37cb3655737899cbf903264b9795592da439661cb766049abb760077328403f9e881e7e0fbaaeb7f8e58341fdb1387f6b4fe3ba07f26b83ff96e1f2b6a682f133852f6798a09c465da95921460cefb38474024988be0079c531659141344cd1fd0a4f28419497f9722a3daafe3b4186f6b6457e0ddf252ad1be2c89b69c2b068fc378daa952ba7f163c4a11628f55a4df523b3ef5b7b2274726169745f74797065223a2250726f7065727479222c2276616c7565eb4eeec0e38c476c368b8f69450d5c4d716ebace637e90a57446da575622f0ddf8e1a15aba9398e019f0b49df1a4fde98ee17ae345cb5f6b5e2c27f5033e8ce7a26469706673582212209388e8992b00ad366dbccfd1df8ea039d74f85700049b8faa5539c53f4923c3264736f6c63430008140033",
  "linkReferences": {},
  "deployedLinkReferences": {}
}