{
  "_format": "hh-sol-artifact-1",
  "contractName": "EightBitPenguinsUpgradeable",
  "sourceName": "contracts/8bitPenguins.sol",
  "abi": [
    {
      "inputs": [],
      "stateMutability": "nonpayable",
      "type": "constructor"
    },
    {
      "anonymous": false,
      "inputs": [
        {
          "indexed": true,
          "internalType": "address",
          "name": "owner",
          "type": "address"
        },
        {
          "indexed": true,
          "internalType": "address",
          "name": "approved",
          "type": "address"
        },
        {
          "indexed": true,
          "internalType": "uint256",
          "name": "tokenId",
          "type": "uint256"
        }
      ],
      "name": "Approval",
      "type": "event"
    },
    {
      "anonymous": false,
      "inputs": [
        {
          "indexed": true,
          "internalType": "address",
          "name": "owner",
          "type": "address"
        },
        {
          "indexed": true,
          "internalType": "address",
          "name": "operator",
          "type": "address"
        },
        {
          "indexed": false,
          "internalType": "bool",
          "name": "approved",
          "type": "bool"
        }
      ],
      "name": "ApprovalForAll",
      "type": "event"
    },
    {
      "anonymous": false,
      "inputs": [
        {
          "indexed": false,
          "internalType": "uint256",
          "name": "_fromTokenId",
          "type": "uint256"
        },
        {
          "indexed": false,
          "internalType": "uint256",
          "name": "_toTokenId",
          "type": "uint256"
        }
      ],
      "name": "BatchMetadataUpdate",
      "type": "event"
    },
    {
      "anonymous": false,
      "inputs": [
        {
          "indexed": false,
          "internalType": "uint8",
          "name": "version",
          "type": "uint8"
        }
      ],
      "name": "Initialized",
      "type": "event"
    },
    {
      "anonymous": false,
      "inputs": [
        {
          "indexed": false,
          "internalType": "uint256",
          "name": "maxPerWallet",
          "type": "uint256"
        }
      ],
      "name": "MaxPerWalletChanged",
      "type": "event"
    },
    {
      "anonymous": false,
      "inputs": [
        {
          "indexed": false,
          "internalType": "uint256",
          "name": "maxSupply",
          "type": "uint256"
        }
      ],
      "name": "MaxSupplyChanged",
      "type": "event"
    },
    {
      "anonymous": false,
      "inputs": [
        {
          "indexed": false,
          "internalType": "uint256",
          "name": "_tokenId",
          "type": "uint256"
        }
      ],
      "name": "MetadataUpdate",
      "type": "event"
    },
    {
      "anonymous": false,
      "inputs": [
        {
          "indexed": false,
          "internalType": "uint256",
          "name": "price",
          "type": "uint256"
        }
      ],
      "name": "MintPriceChanged",
      "type": "event"
    },
    {
      "anonymous": false,
      "inputs": [
        {
          "indexed": false,
          "internalType": "bool",
          "name": "status",
          "type": "bool"
        }
      ],
      "name": "MintStatusChanged",
      "type": "event"
    },
    {
      "anonymous": false,
      "inputs": [
        {
          "indexed": true,
          "internalType": "address",
          "name": "previousOwner",
          "type": "address"
        },
        {
          "indexed": true,
          "internalType": "address",
          "name": "newOwner",
          "type": "address"
        }
      ],
      "name": "OwnershipTransferred",
      "type": "event"
    },
    {
      "anonymous": false,
      "inputs": [
        {
          "indexed": true,
          "internalType": "uint256",
          "name": "phaseId",
          "type": "uint256"
        }
      ],
      "name": "PhaseRemoved",
      "type": "event"
    },
    {
      "anonymous": false,
      "inputs": [
        {
          "indexed": true,
          "internalType": "uint256",
          "name": "phaseId",
          "type": "uint256"
        },
        {
          "indexed": false,
          "internalType": "string",
          "name": "name",
          "type": "string"
        },
        {
          "indexed": false,
          "internalType": "uint256",
          "name": "price",
          "type": "uint256"
        },
        {
          "indexed": false,
          "internalType": "uint256",
          "name": "startTime",
          "type": "uint256"
        },
        {
          "indexed": false,
          "internalType": "uint256",
          "name": "endTime",
          "type": "uint256"
        },
        {
          "indexed": false,
          "internalType": "uint256",
          "name": "maxSupply",
          "type": "uint256"
        },
        {
          "indexed": false,
          "internalType": "uint256",
          "name": "maxPerWallet",
          "type": "uint256"
        },
        {
          "indexed": false,
          "internalType": "bool",
          "name": "enabled",
          "type": "bool"
        }
      ],
      "name": "PhaseUpserted",
      "type": "event"
    },
    {
      "anonymous": false,
      "inputs": [
        {
          "indexed": false,
          "internalType": "string",
          "name": "image",
          "type": "string"
        }
      ],
      "name": "PlaceholderImageChanged",
      "type": "event"
    },
    {
      "anonymous": false,
      "inputs": [
        {
          "indexed": false,
          "internalType": "bool",
          "name": "status",
          "type": "bool"
        }
      ],
      "name": "RevealStatusChanged",
      "type": "event"
    },
    {
      "anonymous": false,
      "inputs": [
        {
          "indexed": true,
          "internalType": "uint256",
          "name": "tokenId",
          "type": "uint256"
        },
        {
          "indexed": true,
          "internalType": "address",
          "name": "owner",
          "type": "address"
        }
      ],
      "name": "TokenEvolved3D",
      "type": "event"
    },
    {
      "anonymous": false,
      "inputs": [
        {
          "indexed": true,
          "internalType": "address",
          "name": "from",
          "type": "address"
        },
        {
          "indexed": true,
          "internalType": "address",
          "name": "to",
          "type": "address"
        },
        {
          "indexed": true,
          "internalType": "uint256",
          "name": "tokenId",
          "type": "uint256"
        }
      ],
      "name": "Transfer",
      "type": "event"
    },
    {
      "inputs": [],
      "name": "MAX_PER_WALLET",
      "outputs": [
        {
          "internalType": "uint256",
          "name": "",
          "type": "uint256"
        }
      ],
      "stateMutability": "view",
      "type": "function"
    },
    {
      "inputs": [],
      "name": "MAX_SUPPLY",
      "outputs": [
        {
          "internalType": "uint256",
          "name": "",
          "type": "uint256"
        }
      ],
      "stateMutability": "view",
      "type": "function"
    },
    {
      "inputs": [
        {
          "internalType": "address",
          "name": "to",
          "type": "address"
        },
        {
          "internalType": "uint256",
          "name": "tokenId",
          "type": "uint256"
        }
      ],
      "name": "approve",
      "outputs": [],
      "stateMutability": "nonpayable",
      "type": "function"
    },
    {
      "inputs": [
        {
          "internalType": "address",
          "name": "owner",
          "type": "address"
        }
      ],
      "name": "balanceOf",
      "outputs": [
        {
          "internalType": "uint256",
          "name": "",
          "type": "uint256"
        }
      ],
      "stateMutability": "view",
      "type": "function"
    },
    {
      "inputs": [],
      "name": "currentPhaseId",
      "outputs": [
        {
          "internalType": "bool",
          "name": "exists",
          "type": "bool"
        },
        {
          "internalType": "uint256",
          "name": "phaseId",
          "type": "uint256"
        }
      ],
      "stateMutability": "view",
      "type": "function"
    },
    {
      "inputs": [
        {
          "internalType": "uint256",
          "name": "phaseId",
          "type": "uint256"
        }
      ],
      "name": "deletePhase",
      "outputs": [],
      "stateMutability": "nonpayable",
      "type": "function"
    },
    {
      "inputs": [
        {
          "internalType": "uint256",
          "name": "tokenId",
          "type": "uint256"
        },
        {
          "internalType": "string",
          "name": "imageBase64",
          "type": "string"
        },
        {
          "internalType": "string",
          "name": "attributesJson",
          "type": "string"
        }
      ],
      "name": "evolveTo3D",
      "outputs": [],
      "stateMutability": "nonpayable",
      "type": "function"
    },
    {
      "inputs": [
        {
          "internalType": "uint256",
          "name": "tokenId",
          "type": "uint256"
        },
        {
          "internalType": "string",
          "name": "imageBase64",
          "type": "string"
        }
      ],
      "name": "evolveTo3DImageOnly",
      "outputs": [],
      "stateMutability": "nonpayable",
      "type": "function"
    },
    {
      "inputs": [
        {
          "internalType": "uint256",
          "name": "tokenId",
          "type": "uint256"
        }
      ],
      "name": "getApproved",
      "outputs": [
        {
          "internalType": "address",
          "name": "",
          "type": "address"
        }
      ],
      "stateMutability": "view",
      "type": "function"
    },
    {
      "inputs": [
        {
          "internalType": "uint256",
          "name": "phaseId",
          "type": "uint256"
        }
      ],
      "name": "getPhase",
      "outputs": [
        {
          "internalType": "string",
          "name": "name_",
          "type": "string"
        },
        {
          "internalType": "uint256",
          "name": "price",
          "type": "uint256"
        },
        {
          "internalType": "uint256",
          "name": "startTime",
          "type": "uint256"
        },
        {
          "internalType": "uint256",
          "name": "endTime",
          "type": "uint256"
        },
        {
          "internalType": "uint256",
          "name": "maxSupply_",
          "type": "uint256"
        },
        {
          "internalType": "uint256",
          "name": "maxPerWallet_",
          "type": "uint256"
        },
        {
          "internalType": "uint256",
          "name": "minted",
          "type": "uint256"
        },
        {
          "internalType": "bool",
          "name": "enabled",
          "type": "bool"
        }
      ],
      "stateMutability": "view",
      "type": "function"
    },
    {
      "inputs": [],
      "name": "initialize",
      "outputs": [],
      "stateMutability": "nonpayable",
      "type": "function"
    },
    {
      "inputs": [],
      "name": "initializeV2",
      "outputs": [],
      "stateMutability": "nonpayable",
      "type": "function"
    },
    {
      "inputs": [
        {
          "internalType": "address",
          "name": "owner",
          "type": "address"
        },
        {
          "internalType": "address",
          "name": "operator",
          "type": "address"
        }
      ],
      "name": "isApprovedForAll",
      "outputs": [
        {
          "internalType": "bool",
          "name": "",
          "type": "bool"
        }
      ],
      "stateMutability": "view",
      "type": "function"
    },
    {
      "inputs": [
        {
          "internalType": "uint256",
          "name": "quantity",
          "type": "uint256"
        },
        {
          "internalType": "string[]",
          "name": "imageBase64s",
          "type": "string[]"
        },
        {
          "internalType": "string[]",
          "name": "names",
          "type": "string[]"
        },
        {
          "internalType": "string[]",
          "name": "attributesJson",
          "type": "string[]"
        },
        {
          "internalType": "uint256[]",
          "name": "rarityScores",
          "type": "uint256[]"
        }
      ],
      "name": "mint",
      "outputs": [],
      "stateMutability": "payable",
      "type": "function"
    },
    {
      "inputs": [],
      "name": "mintActive",
      "outputs": [
        {
          "internalType": "bool",
          "name": "",
          "type": "bool"
        }
      ],
      "stateMutability": "view",
      "type": "function"
    },
    {
      "inputs": [],
      "name": "mintPrice",
      "outputs": [
        {
          "internalType": "uint256",
          "name": "",
          "type": "uint256"
        }
      ],
      "stateMutability": "view",
      "type": "function"
    },
    {
      "inputs": [
        {
          "internalType": "address",
          "name": "",
          "type": "address"
        }
      ],
      "name": "mintedPerWallet",
      "outputs": [
        {
          "internalType": "uint256",
          "name": "",
          "type": "uint256"
        }
      ],
      "stateMutability": "view",
      "type": "function"
    },
    {
      "inputs": [],
      "name": "name",
      "outputs": [
        {
          "internalType": "string",
          "name": "",
          "type": "string"
        }
      ],
      "stateMutability": "view",
      "type": "function"
    },
    {
      "inputs": [],
      "name": "owner",
      "outputs": [
        {
          "internalType": "address",
          "name": "",
          "type": "address"
        }
      ],
      "stateMutability": "view",
      "type": "function"
    },
    {
      "inputs": [
        {
          "internalType": "uint256",
          "name": "tokenId",
          "type": "uint256"
        }
      ],
      "name": "ownerOf",
      "outputs": [
        {
          "internalType": "address",
          "name": "",
          "type": "address"
        }
      ],
      "stateMutability": "view",
      "type": "function"
    },
    {
      "inputs": [],
      "name": "phaseCount",
      "outputs": [
        {
          "internalType": "uint256",
          "name": "",
          "type": "uint256"
        }
      ],
      "stateMutability": "view",
      "type": "function"
    },
    {
      "inputs": [
        {
          "internalType": "uint256",
          "name": "",
          "type": "uint256"
        },
        {
          "internalType": "address",
          "name": "",
          "type": "address"
        }
      ],
      "name": "phaseMintedPerWallet",
      "outputs": [
        {
          "internalType": "uint256",
          "name": "",
          "type": "uint256"
        }
      ],
      "stateMutability": "view",
      "type": "function"
    },
    {
      "inputs": [],
      "name": "placeholderImage",
      "outputs": [
        {
          "internalType": "string",
          "name": "",
          "type": "string"
        }
      ],
      "stateMutability": "view",
      "type": "function"
    },
    {
      "inputs": [
        {
          "internalType": "uint256",
          "name": "tokenId",
          "type": "uint256"
        }
      ],
      "name": "rarityRank",
      "outputs": [
        {
          "internalType": "uint256",
          "name": "",
          "type": "uint256"
        }
      ],
      "stateMutability": "view",
      "type": "function"
    },
    {
      "inputs": [],
      "name": "renounceOwnership",
      "outputs": [],
      "stateMutability": "nonpayable",
      "type": "function"
    },
    {
      "inputs": [],
      "name": "revealed",
      "outputs": [
        {
          "internalType": "bool",
          "name": "",
          "type": "bool"
        }
      ],
      "stateMutability": "view",
      "type": "function"
    },
    {
      "inputs": [
        {
          "internalType": "address",
          "name": "from",
          "type": "address"
        },
        {
          "internalType": "address",
          "name": "to",
          "type": "address"
        },
        {
          "internalType": "uint256",
          "name": "tokenId",
          "type": "uint256"
        }
      ],
      "name": "safeTransferFrom",
      "outputs": [],
      "stateMutability": "nonpayable",
      "type": "function"
    },
    {
      "inputs": [
        {
          "internalType": "address",
          "name": "from",
          "type": "address"
        },
        {
          "internalType": "address",
          "name": "to",
          "type": "address"
        },
        {
          "internalType": "uint256",
          "name": "tokenId",
          "type": "uint256"
        },
        {
          "internalType": "bytes",
          "name": "data",
          "type": "bytes"
        }
      ],
      "name": "safeTransferFrom",
      "outputs": [],
      "stateMutability": "nonpayable",
      "type": "function"
    },
    {
      "inputs": [
        {
          "internalType": "address",
          "name": "operator",
          "type": "address"
        },
        {
          "internalType": "bool",
          "name": "approved",
          "type": "bool"
        }
      ],
      "name": "setApprovalForAll",
      "outputs": [],
      "stateMutability": "nonpayable",
      "type": "function"
    },
    {
      "inputs": [
        {
          "internalType": "uint256",
          "name": "maxPerWallet_",
          "type": "uint256"
        }
      ],
      "name": "setMaxPerWallet",
      "outputs": [],
      "stateMutability": "nonpayable",
      "type": "function"
    },
    {
      "inputs": [
        {
          "internalType": "uint256",
          "name": "maxSupply_",
          "type": "uint256"
        }
      ],
      "name": "setMaxSupply",
      "outputs": [],
      "stateMutability": "nonpayable",
      "type": "function"
    },
    {
      "inputs": [
        {
          "internalType": "uint256",
          "name": "price",
          "type": "uint256"
        }
      ],
      "name": "setMintPrice",
      "outputs": [],
      "stateMutability": "nonpayable",
      "type": "function"
    },
    {
      "inputs": [
        {
          "internalType": "string",
          "name": "image",
          "type": "string"
        }
      ],
      "name": "setPlaceholderImage",
      "outputs": [],
      "stateMutability": "nonpayable",
      "type": "function"
    },
    {
      "inputs": [
        {
          "internalType": "bool",
          "name": "status",
          "type": "bool"
        }
      ],
      "name": "setRevealed",
      "outputs": [],
      "stateMutability": "nonpayable",
      "type": "function"
    },
    {
      "inputs": [
        {
          "internalType": "bytes4",
          "name": "interfaceId",
          "type": "bytes4"
        }
      ],
      "name": "supportsInterface",
      "outputs": [
        {
          "internalType": "bool",
          "name": "",
          "type": "bool"
        }
      ],
      "stateMutability": "view",
      "type": "function"
    },
    {
      "inputs": [],
      "name": "symbol",
      "outputs": [
        {
          "internalType": "string",
          "name": "",
          "type": "string"
        }
      ],
      "stateMutability": "view",
      "type": "function"
    },
    {
      "inputs": [],
      "name": "toggleMint",
      "outputs": [],
      "stateMutability": "nonpayable",
      "type": "function"
    },
    {
      "inputs": [
        {
          "internalType": "uint256",
          "name": "",
          "type": "uint256"
        }
      ],
      "name": "tokenAttributes",
      "outputs": [
        {
          "internalType": "string",
          "name": "",
          "type": "string"
        }
      ],
      "stateMutability": "view",
      "type": "function"
    },
    {
      "inputs": [
        {
          "internalType": "uint256",
          "name": "",
          "type": "uint256"
        }
      ],
      "name": "tokenEvolved3D",
      "outputs": [
        {
          "internalType": "bool",
          "name": "",
          "type": "bool"
        }
      ],
      "stateMutability": "view",
      "type": "function"
    },
    {
      "inputs": [
        {
          "internalType": "uint256",
          "name": "",
          "type": "uint256"
        }
      ],
      "name": "tokenImage",
      "outputs": [
        {
          "internalType": "string",
          "name": "",
          "type": "string"
        }
      ],
      "stateMutability": "view",
      "type": "function"
    },
    {
      "inputs": [
        {
          "internalType": "uint256",
          "name": "tokenId",
          "type": "uint256"
        }
      ],
      "name": "tokenMetadataJson",
      "outputs": [
        {
          "internalType": "string",
          "name": "",
          "type": "string"
        }
      ],
      "stateMutability": "view",
      "type": "function"
    },
    {
      "inputs": [
        {
          "internalType": "uint256",
          "name": "",
          "type": "uint256"
        }
      ],
      "name": "tokenName",
      "outputs": [
        {
          "internalType": "string",
          "name": "",
          "type": "string"
        }
      ],
      "stateMutability": "view",
      "type": "function"
    },
    {
      "inputs": [
        {
          "internalType": "uint256",
          "name": "",
          "type": "uint256"
        }
      ],
      "name": "tokenRarityScore",
      "outputs": [
        {
          "internalType": "uint256",
          "name": "",
          "type": "uint256"
        }
      ],
      "stateMutability": "view",
      "type": "function"
    },
    {
      "inputs": [
        {
          "internalType": "uint256",
          "name": "",
          "type": "uint256"
        }
      ],
      "name": "tokenSeeds",
      "outputs": [
        {
          "internalType": "uint256",
          "name": "",
          "type": "uint256"
        }
      ],
      "stateMutability": "view",
      "type": "function"
    },
    {
      "inputs": [
        {
          "internalType": "uint256",
          "name": "tokenId",
          "type": "uint256"
        }
      ],
      "name": "tokenURI",
      "outputs": [
        {
          "internalType": "string",
          "name": "",
          "type": "string"
        }
      ],
      "stateMutability": "view",
      "type": "function"
    },
    {
      "inputs": [],
      "name": "totalSupply",
      "outputs": [
        {
          "internalType": "uint256",
          "name": "",
          "type": "uint256"
        }
      ],
      "stateMutability": "view",
      "type": "function"
    },
    {
      "inputs": [
        {
          "internalType": "address",
          "name": "from",
          "type": "address"
        },
        {
          "internalType": "address",
          "name": "to",
          "type": "address"
        },
        {
          "internalType": "uint256",
          "name": "tokenId",
          "type": "uint256"
        }
      ],
      "name": "transferFrom",
      "outputs": [],
      "stateMutability": "nonpayable",
      "type": "function"
    },
    {
      "inputs": [
        {
          "internalType": "address",
          "name": "newOwner",
          "type": "address"
        }
      ],
      "name": "transferOwnership",
      "outputs": [],
      "stateMutability": "nonpayable",
      "type": "function"
    },
    {
      "inputs": [
        {
          "internalType": "uint256",
          "name": "phaseId",
          "type": "uint256"
        },
        {
          "internalType": "string",
          "name": "name_",
          "type": "string"
        },
        {
          "internalType": "uint256",
          "name": "price",
          "type": "uint256"
        },
        {
          "internalType": "uint256",
          "name": "startTime",
          "type": "uint256"
        },
        {
          "internalType": "uint256",
          "name": "endTime",
          "type": "uint256"
        },
        {
          "internalType": "uint256",
          "name": "maxSupply_",
          "type": "uint256"
        },
        {
          "internalType": "uint256",
          "name": "maxPerWallet_",
          "type": "uint256"
        },
        {
          "internalType": "bool",
          "name": "enabled",
          "type": "bool"
        }
      ],
      "name": "upsertPhase",
      "outputs": [],
      "stateMutability": "nonpayable",
      "type": "function"
    },
    {
      "inputs": [],
      "name": "withdraw",
      "outputs": [],
      "stateMutability": "nonpayable",
      "type": "function"
    }
  ],
  "bytecode": "0x60808060405234620000c6576000549060ff8260081c1662000074575060ff8082160362000038575b6040516146fe9081620000cc8239f35b60ff90811916176000557f7f26b83ff96e1f2b6a682f133852f6798a09c465da95921460cefb3847402498602060405160ff8152a13862000028565b62461bcd60e51b815260206004820152602760248201527f496e697469616c697a61626c653a20636f6e747261637420697320696e697469604482015266616c697a696e6760c81b6064820152608490fd5b600080fdfe608080604052600436101561001357600080fd5b60003560e01c90816301ffc9a7146129675750806306fdde03146128c2578063081812fc146128a4578063095ea7b31461272a5780630f2cdd6c1461270c57806316ef376b1461266d57806318160ddd1461264e57806323b872dd1461262a57806325fd90f31461260757806329c1605f146125e157806332cb6b0c146125c35780633a602b4d146125885780633ccfd60b1461254457806340c5b34e1461251b57806342842e0e146124e8578063448d8c5c14612443578063518302271461241d5780635c86a009146122e75780635cd8a76b1461228a57806360e6ca6f14611ff45780636352211e14611fc45780636817c76c14611fa65780636f8b44b014611ecc57806370a0823114611e35578063715018a614611dea5780637978d45114611c4e5780637b3d6e5614611c215780638129fc1c146116345780638da5cb5b1461160b5780639333174a14610c2457806395d89b4114610b565780639c30ad8514610b37578063a22cb46514610a60578063b75f1aef1461085a578063b88d4fde146107ad578063c1eea4a01461077b578063c3753d701461074e578063c87b56dd146106b5578063cf34842514610688578063d2f40d79146105d6578063d3dd5fe01461057b578063de006f5414610532578063e0a80853146104a0578063e268e4d31461040c578063e4faf288146103ed578063e725f877146103c0578063e985e9c51461036a578063f2824b5314610325578063f2fde38b146102965763f4a0a5281461024557600080fd5b34610291576020366003190112610291577f25b1f9f6b6e61dfca5575239769e4450ed2e49176670837f5d1a82a9a2fc693f6020600435610284612c59565b8060fd55604051908152a1005b600080fd5b34610291576020366003190112610291576102af612a2c565b6102b7612c59565b6001600160a01b038116156102d1576102cf90612cb1565b005b60405162461bcd60e51b815260206004820152602660248201527f4f776e61626c653a206e6577206f776e657220697320746865207a65726f206160448201526564647265737360d01b6064820152608490fd5b34610291576020366003190112610291576004356000526101056020526103666103526040600020612b3b565b604051918291602083526020830190612a07565b0390f35b3461029157604036600319011261029157610383612a2c565b61038b612a42565b9060018060a01b03809116600052606a60205260406000209116600052602052602060ff604060002054166040519015158152f35b34610291576020366003190112610291576004356000526101046020526103666103526040600020612b3b565b3461029157600036600319011261029157602061010854604051908152f35b3461029157602036600319011261029157600435610428612c59565b801561045e576020817ec836a17ed3a6a59dce35376ae3c2777797dc03f39f463153c0fea5b65f06839260fc55604051908152a1005b60405162461bcd60e51b815260206004820152601a60248201527904d6178207065722077616c6c6574206d757374206265203e20360341b6044820152606490fd5b34610291576020366003190112610291576004358015158091036102915760207f4a9768f4a343b5cd5d5319e6fe71e839c384e1f67a57e74631919d50c5d4d953916104ea612c59565b60fe5461ff008260081b169061ff0019161760fe55604051908152a1610100548061051157005b60406000805160206145e983398151915291815190600182526020820152a1005b346102915760403660031901126102915761054b612a42565b60043560005261010960205260406000209060018060a01b03166000526020526020604060002054604051908152f35b3461029157600036600319011261029157610594612c59565b7fb304fe5dd2d3c45e8ec87c1dd1bd2b3a773b3135e84a7b9151f5fb4bf1a06d0e602060fe5460ff8082161516809160ff19161760fe556040519015158152a1005b34610291576040366003190112610291576004356024356001600160401b038111610291576000805160206146a98339815191529161066d61061e6020933690600401612be1565b9061062761342c565b8315158061067b575b61063990613658565b61065561064585612d2f565b6001600160a01b03163314613694565b610667610662838361447c565b613383565b836136d2565b604051908152a1600160c955005b5061010054841115610630565b34610291576020366003190112610291576004356000526101036020526103666103526040600020612b3b565b34610291576020366003190112610291576103666106ee6106e960043580151580610741575b6106e490613658565b613983565b61382f565b610352603d60405180937f646174613a6170706c69636174696f6e2f6a736f6e3b6261736536342c000000602083015261073181518092602086860191016129e4565b810103601d810184520182612b18565b50610100548111156106db565b34610291576020366003190112610291576004356000526101016020526020604060002054604051908152f35b3461029157602036600319011261029157600435600052610107602052602060ff604060002054166040519015158152f35b34610291576080366003190112610291576107c6612a2c565b6107ce612a42565b90606435906044356001600160401b0383116102915736602384011215610291578260040135936107fe85612c3e565b9261080c6040519485612b18565b85845236602487870101116102915760006020876102cf986024610855990183890137860101526108456108408433612e5a565b612d81565b610850838383612f22565b613159565b612e36565b3461029157602080600319360112610291576001600160401b036004358181116102915761088c903690600401612be1565b91610895612c59565b8215610a1e578211610a085760ff906108ae8254612a8d565b601f81116109cd575b50600092601f811160011461095a57806000805160206145c9833981519152939460009161094f575b508160011b906000198360031b1c19161784555b610909604051928392878452878401916134cd565b0390a160fe5460081c161580610943575b61092057005b60406000805160206145e9833981519152916101005482519160018352820152a1005b5061010054151561091a565b9050820135866108e0565b601f1981169383600052856000209060005b878782106109b7575050826000805160206145c983398151915295961061099d575b5050600181811b0184556108f4565b830135600019600384901b60f8161c19169055858061098e565b600183948293948801358155019301910161096c565b6109f8908360005285600020601f860160051c8101918787106109fe575b601f0160051c0190613243565b846108b7565b90915081906109eb565b634e487b7160e01b600052604160045260246000fd5b60405162461bcd60e51b815260048101859052601a602482015279141b1858d95a1bdb19195c881a5b5859d9481c995c5d5a5c995960321b6044820152606490fd5b3461029157604036600319011261029157610a79612a2c565b6024359081151590818303610291576001600160a01b031691338314610af657610ac89033600052606a60205260406000208460005260205260406000209060ff801983541691151516179055565b6040519081527f17307eab39ab6107e8899845ad3d59bd9653f200f220920489ca2b5937696c3160203392a3005b60405162461bcd60e51b815260206004820152601960248201527822a9219b99189d1030b8383937bb32903a379031b0b63632b960391b6044820152606490fd5b3461029157602036600319011261029157610366610352600435613983565b3461029157600036600319011261029157604051600090606654610b7981612a8d565b808352600191808316908115610bfc5750600114610ba2575b6103668361035281870382612b18565b6066600090815260209450917f46501879b8ca8525e8c2fd519e2fbfcfa2ebea26501294aa02cbfcfb12e943545b828410610be95750505081019091019061035281610b92565b8054858501870152928501928101610bd0565b610366955061035293506020915091849260ff191682840152151560051b8201019350610b92565b60a0366003190112610291576024356001600160401b03811161029157610c4f903690600401612c0e565b906044356001600160401b03811161029157610c6f903690600401612c0e565b906064356001600160401b03811161029157610c8f903690600401612c0e565b93906084356001600160401b03811161029157610cb0903690600401612c0e565b9091610cba61342c565b610cc26143f1565b60ff60fe9b9499939a929b5416156115d15760043515611595578b6004350361155057816004350361150b5783600435036114ba57856004350361146657610d0f600435610100546132f4565b60fb541061142c5733600052610102602052610d326004356040600020546132f4565b60fc54106113e757886112b3575b50610d4d6004358b613320565b34106112775760005b6004358110610e0857610d748b8b8b610dbd575b5060043590613320565b803411610d83575b600160c955005b60008080610d9281943461341f565b818115610db4575b3390f115610da85780610d7c565b6040513d6000823e3d90fd5b506108fc610d9a565b6006610dc882613301565b5001610dd760043582546132f4565b90556000526101096020526040600020336000526020526040600020610e0060043582546132f4565b905582610d6a565b610e1f610662610e19838f8c613342565b9061447c565b610e36610e2d828688613342565b905015156133dd565b610e4261010054613333565b9081610100556040518260208201523360601b60408201524460548201524260748201526094828183015281528060c081011060018060401b0360c083011117610a0857818e8260c0610eb0940160405260208151910120856000526101016020526040600020558b613342565b600084815261010360205260409020916001600160401b038211610a08578190610ee482610ede8654612a8d565b8661325a565b600090601f831160011461120d57600092611202575b50508160011b916000199060031b1c19161790555b610f1a818486613342565b600084815261010460205260409020916001600160401b038211610a08578190610f4882610ede8654612a8d565b600090601f83116001146111985760009261118d575b50508160011b916000199060031b1c19161790555b610f7e818688613342565b600084815261010560205260409020916001600160401b038211610a08578190610fac82610ede8654612a8d565b600090601f831160011461112357600092611118575b50508160011b916000199060031b1c19161790555b8681101561110257816000526101066020528060051b88013560406000205533600052610102602052604060002061100f8154613333565b90556040519161101e83612ac7565b6000835233156110be576020816110ad6108556110b9966110566110506000805160206146a98339815191529761301e565b15613482565b6110626110508561301e565b3360008181526068875260408082208054600101905586825260678852812080546001600160a01b031916831790558591906000805160206146498339815191528180a4833361303b565b604051908152a1613333565b610d56565b606460405162461bcd60e51b815260206004820152602060248201527f4552433732313a206d696e7420746f20746865207a65726f20616464726573736044820152fd5b634e487b7160e01b600052603260045260246000fd5b013590503880610fc2565b9091508360005260206000209160005b601f1985168110611175575083601f1981161061115b575b505050600190811b019055610fd7565b0135600019600384901b60f8161c191690558f808061114b565b90926020600181928686013581550194019101611133565b013590503880610f5e565b9091508360005260206000209160005b601f19851681106111ea575083601f198116106111d0575b505050600190811b019055610f73565b0135600019600384901b60f8161c191690558f80806111c0565b909260206001819286860135815501940191016111a8565b013590503880610efa565b9091508360005260206000209160005b601f198516811061125f575083601f19811610611245575b505050600190811b019055610f0f565b0135600019600384901b60f8161c191690558f8080611235565b9092602060018192868601358155019401910161121d565b60405162461bcd60e51b8152602060048201526014602482015273125b9cdd59999a58da595b9d081c185e5b595b9d60621b6044820152606490fd5b6112bc8a613301565b5060ff600782015416156113b15760048101549081611354575b50508015610d4057896000526101096020526040600020336000526020526113056004356040600020546132f4565b11611310578b610d40565b60405162461bcd60e51b815260206004820152601c60248201527b115e18d959591cc81c1a185cd9481b585e081c195c881dd85b1b195d60221b6044820152606490fd5b6113659060066004359101546132f4565b11611371578c806112d6565b60405162461bcd60e51b815260206004820152601860248201527745786365656473207068617365206d617820737570706c7960401b6044820152606490fd5b60405162461bcd60e51b815260206004820152600e60248201526d141a185cd948191a5cd8589b195960921b6044820152606490fd5b60405162461bcd60e51b815260206004820152601d60248201527f4578636565647320676c6f62616c206d6178207065722077616c6c65740000006044820152606490fd5b60405162461bcd60e51b815260206004820152601260248201527145786365656473206d617820737570706c7960701b6044820152606490fd5b60405162461bcd60e51b815260206004820152602660248201527f4d7573742070726f76696465207261726974792073636f726520666f7220656160448201526518da0813919560d21b6064820152608490fd5b60405162461bcd60e51b8152602060048201526024808201527f4d7573742070726f76696465206174747269627574657320666f7220656163686044820152630813919560e21b6064820152608490fd5b60405162461bcd60e51b815260206004820152601e60248201527f4d7573742070726f76696465206e616d6520666f722065616368204e465400006044820152606490fd5b60405162461bcd60e51b815260206004820152601f60248201527f4d7573742070726f7669646520696d61676520666f722065616368204e4654006044820152606490fd5b60405162461bcd60e51b81526020600482015260146024820152734d757374206d696e74206174206c65617374203160601b6044820152606490fd5b60405162461bcd60e51b81526020600482015260126024820152714d696e74696e67206e6f742061637469766560701b6044820152606490fd5b34610291576000366003190112610291576097546040516001600160a01b039091168152602090f35b346102915760003660031901126102915760005460ff808260081c1615808091611c15575b8015611bff575b611669906131e0565b600192818460ff19831617600055611bed575b5060405161168981612ae2565b600d81526020926c386269742050656e6775696e7360981b84830152604051916116b283612ae2565b60059283815264038424954560dc1b868201526116de8360005460081c166116d981613294565b613294565b81516001600160401b039190828111610a0857806116fd606554612a8d565b94601f958a878211611bb5575b50508990868311600114611b5057600092611b45575b5050600019600383901b1c191690891b176065555b8051918211610a0857611749606654612a8d565b838111611b0e575b508690838311600114611a905791806a3a32bc3a1f1e17b9bb339f60a91b969492600f9694600092611a85575b5050600019600383901b1c191690891b176066555b6117a78260005460081c166116d981613294565b6117b033612cb1565b6117c48260005460081c166116d981613294565b8760c955603260fb55603260fc55600060fd5561ffff1960fe541660fe556117ec8254612a8d565b818111611a63575b50506103d781556000527f272072783d273938272072793d27313232272066696c6c3d272532334338384685600020917f646174613a696d6167652f7376672b786d6c3b757466382c3c73766720786d6c83557f6e733d27687474703a2f2f7777772e77332e6f72672f323030302f7376672720888401557f76696577426f783d273020302034303020343030273e3c72656374207769647460028401557f683d2734303027206865696768743d27343030272066696c6c3d27253233384260038401557f30453241272f3e3c656c6c697073652063783d27323030272063793d2732303860048401558201557f3146272f3e3c656c6c697073652063783d27313836272063793d27313832272060068201557f72783d273532272072793d273730272066696c6c3d272532334546424634352760078201557f2f3e3c656c6c697073652063783d27323132272063793d27323238272072783d60088201557f273736272072793d273834272066696c6c3d2725323338463542313227206f7060098201557f61636974793d27302e3535272f3e3c7465787420783d273230302720793d2733600a8201557f3532272066696c6c3d272532334646464646462720666f6e742d73697a653d27600b8201557f32382720666f6e742d66616d696c793d274a6574427261696e73204d6f6e6f2c600c8201557f6d6f6e6f73706163652720666f6e742d7765696768743d273730302720746578600d8201557f742d616e63686f723d276d6964646c65273e386269742050656e6775696e3c2f600e8201550155611a3f57005b6000805160206146098339815191529161ff001960005416600055604051908152a1005b6010611a7e9284600052896000209201851c82019101613243565b87806117f4565b015190508a8061177e565b889291601f198316916066600052896000209260005b8b828210611af857505091600f97959391856a3a32bc3a1f1e17b9bb339f60a91b9a98969410611adf575b505050811b01606655611793565b015160001960f88460031b161c191690558a8080611ad1565b8385015186558d97909501949384019301611aa6565b611b369060666000528860002085808601891c8201928b8710611b3c575b01881c0190613243565b88611751565b92508192611b2c565b015190508a80611720565b908b9350601f1983169160656000528b6000209260005b8d828210611b9f5750508411611b86575b505050811b01606555611735565b015160001960f88460031b161c191690558a8080611b78565b8385015186558f97909501949384019301611b67565b611bdd9160656000528882600020918187018d1c8301938710611be4575b018b1c0190613243565b8b8a61170a565b92508192611bd3565b61ffff1916610101176000558361167c565b50303b1580156116605750828216600114611660565b50600182841610611659565b34610291576020366003190112610291576004356000526101066020526020604060002054604051908152f35b34610291576060366003190112610291576004356001600160401b0360243581811161029157611c82903690600401612be1565b92909160443581811161029157611ca0611ce7913690600401612be1565b959094611cab61342c565b84151580611ddd575b611cbd90613658565b611cc961064586612d2f565b611cd6610662838361447c565b611ce18715156133dd565b846136d2565b8160005260209261010584526040600020918511610a0857611d1385611d0d8454612a8d565b8461325a565b600090601f8611600114611d68576000805160206146a9833981519152959160009183611d5d575b50508160011b916000199060031b1c1916179055604051908152a1600160c955005b013590508680611d3b565b601f1986169183600052856000209260005b818110611dc657509160019391886000805160206146a9833981519152999410611dac575b505050811b01905561066d565b0135600019600384901b60f8161c19169055868080611d9f565b919387600181928787013581550195019201611d7a565b5061010054851115611cb4565b3461029157600036600319011261029157611e03612c59565b609780546001600160a01b031981169091556000906001600160a01b03166000805160206146298339815191528280a3005b34610291576020366003190112610291576001600160a01b03611e56612a2c565b168015611e755760005260686020526020604060002054604051908152f35b60405162461bcd60e51b815260206004820152602960248201527f4552433732313a2061646472657373207a65726f206973206e6f7420612076616044820152683634b21037bbb732b960b91b6064820152608490fd5b3461029157602036600319011261029157600435611ee8612c59565b610100548110611f67578015611f29576020817f28a10a2e0b5582da7164754cb994f6214b8af6aa7f7e003305fbc09e7106c5139260fb55604051908152a1005b60405162461bcd60e51b815260206004820152601660248201527504d617820737570706c79206d757374206265203e20360541b6044820152606490fd5b60405162461bcd60e51b815260206004820152601760248201527613585e081cdd5c1c1b1e4818995b1bddc81b5a5b9d1959604a1b6044820152606490fd5b3461029157600036600319011261029157602060fd54604051908152f35b34610291576020366003190112610291576020611fe2600435612d2f565b6040516001600160a01b039091168152f35b3461029157610100366003190112610291576001600160401b0360043560243582811161029157612029903690600401612be1565b60e435938415158086036102915761203f612c59565b821561224f576084359182158015612245575b801561223a575b156121fe5761010880548781036121ed57600160401b811015610a085761208591600182019055613301565b50505b61209186613301565b50908411610a08576120ad846120a78354612a8d565b8361325a565b600096601f851160011461217357846000805160206146898339815191529798600091612168575b508560011b906000198760031b1c19161782555b6044359384600184015560643580600285015581600385015561212d60a43593846004870155600760c43596876005820155019060ff801983541691151516179055565b61214460405198899860e08a5260e08a01916134cd565b95602088015260408701526060860152608085015260a084015260c08301520390a2005b9050860135896120d5565b81600052602097886000209860005b601f19881681106121d657505097600080516020614689833981519152979886601f198116106121bc575b5050600185811b0182556120e9565b870135600019600388901b60f8161c1916905588806121ad565b828901358b556001909a0199918101918101612182565b6121f9915087106134ee565b612088565b60405162461bcd60e51b8152602060048201526014602482015273496e76616c69642070686173652077696e646f7760601b6044820152606490fd5b506064358311612059565b5060643515612052565b60405162461bcd60e51b8152602060048201526013602482015272141a185cd9481b985b59481c995c5d5a5c9959606a1b6044820152606490fd5b3461029157600036600319011261029157600260005460ff8160081c1615806122db575b6122b7906131e0565b61ffff191617600055600080516020614609833981519152602060405160028152a1005b5060ff811682116122ae565b3461029157602036600319011261029157600435612303612c59565b610108805480156123e357600019908082019081116123cd5783036123885761233461232e84613301565b90613531565b8154801561237257019061234a61232e83613301565b557f3ae6bd42f8622e3894ef16a2193a204de29ee6392703e402f31749d92b1735e8600080a2005b634e487b7160e01b600052603160045260246000fd5b60405162461bcd60e51b815260206004820152601e60248201527f4f6e6c79206c6173742070686173652063616e2062652064656c6574656400006044820152606490fd5b634e487b7160e01b600052601160045260246000fd5b60405162461bcd60e51b81526020600482015260126024820152714e6f20706861736520746f2064656c65746560701b6044820152606490fd5b3461029157600036600319011261029157602060ff60fe5460081c166040519015158152f35b346102915760003660031901126102915760405160009060ff5461246681612a8d565b808352600191808316908115610bfc575060011461248e576103668361035281870382612b18565b60ff600090815260209450917fe08ec2af2cfc251225e1968fd6ca21e4044f129bffa95bac3503be8bdb30a3675b8284106124d55750505081019091019061035281610b92565b80548585018701529285019281016124bc565b34610291576102cf6108556124fc36612a58565b906040519261250a84612ac7565b600084526108456108408433612e5a565b346102915760003660031901126102915760406125366135c9565b825191151582526020820152f35b346102915760003660031901126102915761255d612c59565b600080808060018060a01b0360975416479082821561257f575bf115610da857005b506108fc612577565b34610291576020366003190112610291576001600160a01b036125a9612a2c565b166000526101026020526020604060002054604051908152f35b3461029157600036600319011261029157602060fb54604051908152f35b346102915760203660031901126102915760206125ff60043561433d565b604051908152f35b3461029157600036600319011261029157602060ff60fe54166040519015158152f35b34610291576102cf61263b36612a58565b916126496108408433612e5a565b612f22565b3461029157600036600319011261029157602061010054604051908152f35b34610291576020366003190112610291576126e261269a6004356126956101085482106134ee565b613301565b506001810154600282015491600381015460048201546005830154906006840154926126cd60ff60078701541695612b3b565b96604051988998610100808b528a0190612a07565b96602089015260408801526060870152608086015260a085015260c0840152151560e08301520390f35b3461029157600036600319011261029157602060fc54604051908152f35b3461029157604036600319011261029157612743612a2c565b602435906001600160a01b03808061275a85612d2f565b1692169180831461285557803314908115612830575b50156127c557600083815260696020526040902080546001600160a01b0319168317905561279d83612d2f565b167f8c5be1e5ebec7d5bd14f71427d1e84f3dd0314c0f7b2291e5b200ac8c7c3b925600080a4005b60405162461bcd60e51b815260206004820152603d60248201527f4552433732313a20617070726f76652063616c6c6572206973206e6f7420746f60448201527f6b656e206f776e6572206f7220617070726f76656420666f7220616c6c0000006064820152608490fd5b9050600052606a60205260406000203360005260205260ff6040600020541684612770565b60405162461bcd60e51b815260206004820152602160248201527f4552433732313a20617070726f76616c20746f2063757272656e74206f776e656044820152603960f91b6064820152608490fd5b34610291576020366003190112610291576020611fe2600435612d55565b34610291576000366003190112610291576040516000906065546128e581612a8d565b808352600191808316908115610bfc575060011461290d576103668361035281870382612b18565b6065600090815260209450917f8ff97419363ffd7000167f130ef7168fbea05faf9251824ca5043f113cc6a7c75b8284106129545750505081019091019061035281610b92565b805485850187015292850192810161293b565b34610291576020366003190112610291576004359063ffffffff60e01b82168092036102915781602092159081156129a1575b5015158152f35b6380ac58cd60e01b8114915081156129d3575b81156129c2575b508361299a565b6301ffc9a760e01b149050836129bb565b635b5e139f60e01b811491506129b4565b60005b8381106129f75750506000910152565b81810151838201526020016129e7565b90602091612a20815180928185528580860191016129e4565b601f01601f1916010190565b600435906001600160a01b038216820361029157565b602435906001600160a01b038216820361029157565b6060906003190112610291576001600160a01b0390600435828116810361029157916024359081168103610291579060443590565b90600182811c92168015612abd575b6020831014612aa757565b634e487b7160e01b600052602260045260246000fd5b91607f1691612a9c565b602081019081106001600160401b03821117610a0857604052565b604081019081106001600160401b03821117610a0857604052565b606081019081106001600160401b03821117610a0857604052565b601f909101601f19168101906001600160401b03821190821017610a0857604052565b9060405191826000825492612b4f84612a8d565b908184526001948581169081600014612bbe5750600114612b7b575b5050612b7992500383612b18565b565b9093915060005260209081600020936000915b818310612ba6575050612b7993508201013880612b6b565b85548884018501529485019487945091830191612b8e565b915050612b7994506020925060ff191682840152151560051b8201013880612b6b565b9181601f84011215610291578235916001600160401b038311610291576020838186019501011161029157565b9181601f84011215610291578235916001600160401b038311610291576020808501948460051b01011161029157565b6001600160401b038111610a0857601f01601f191660200190565b6097546001600160a01b03163303612c6d57565b606460405162461bcd60e51b815260206004820152602060248201527f4f776e61626c653a2063616c6c6572206973206e6f7420746865206f776e65726044820152fd5b609780546001600160a01b039283166001600160a01b031982168117909255909116600080516020614629833981519152600080a3565b15612cef57565b60405162461bcd60e51b8152602060048201526018602482015277115490cdcc8c4e881a5b9d985b1a59081d1bdad95b88125160421b6044820152606490fd5b6000908152606760205260409020546001600160a01b0316612d52811515612ce8565b90565b612d66612d618261301e565b612ce8565b6000908152606960205260409020546001600160a01b031690565b15612d8857565b60405162461bcd60e51b815260206004820152602d60248201527f4552433732313a2063616c6c6572206973206e6f7420746f6b656e206f776e6560448201526c1c881bdc88185c1c1c9bdd9959609a1b6064820152608490fd5b60809060208152603260208201527f4552433732313a207472616e7366657220746f206e6f6e20455243373231526560408201527131b2b4bb32b91034b6b83632b6b2b73a32b960711b60608201520190565b15612e3d57565b60405162461bcd60e51b815280612e5660048201612de3565b0390fd5b906001600160a01b038080612e6e84612d2f565b16931691838314938415612ea1575b508315612e8b575b50505090565b612e9791929350612d55565b1614388080612e85565b909350600052606a60205260406000208260005260205260ff604060002054169238612e7d565b15612ecf57565b60405162461bcd60e51b815260206004820152602560248201527f4552433732313a207472616e736665722066726f6d20696e636f72726563742060448201526437bbb732b960d91b6064820152608490fd5b90612f4a91612f3084612d2f565b6001600160a01b0393918416928492909183168414612ec8565b16918215612fcd5781612f6791612f6086612d2f565b1614612ec8565b600080516020614649833981519152600084815260696020526040812060018060a01b03199081815416905583825260686020526040822060001981540190558482526040822060018154019055858252606760205284604083209182541617905580a4565b60405162461bcd60e51b8152602060048201526024808201527f4552433732313a207472616e7366657220746f20746865207a65726f206164646044820152637265737360e01b6064820152608490fd5b6000908152606760205260409020546001600160a01b0316151590565b91929091803b1561315057613088936040519081630a85bd0160e11b9384825233600483015260009687602484015260448301526080606483015281878160209a8b966084830190612a07565b03926001600160a01b03165af184918161310c575b506130fb575050503d6000146130f3573d6130b781612c3e565b906130c56040519283612b18565b81528091833d92013e5b805191826130f05760405162461bcd60e51b815280612e5660048201612de3565b01fd5b5060606130cf565b6001600160e01b0319161492509050565b9091508581813d8311613149575b6131248183612b18565b8101031261314557516001600160e01b03198116810361314557903861309d565b8480fd5b503d61311a565b50915050600190565b92939190803b156131d6576131ab946040518092630a85bd0160e11b9485835233600484015260018060a01b03809816602484015260448301526080606483015281806020998a956084830190612a07565b03916000988991165af184918161310c57506130fb575050503d6000146130f3573d6130b781612c3e565b5050915050600190565b156131e757565b60405162461bcd60e51b815260206004820152602e60248201527f496e697469616c697a61626c653a20636f6e747261637420697320616c72656160448201526d191e481a5b9a5d1a585b1a5e995960921b6064820152608490fd5b81811061324e575050565b60008155600101613243565b9190601f811161326957505050565b612b79926000526020600020906020601f840160051c830193106109fe57601f0160051c0190613243565b1561329b57565b60405162461bcd60e51b815260206004820152602b60248201527f496e697469616c697a61626c653a20636f6e7472616374206973206e6f74206960448201526a6e697469616c697a696e6760a81b6064820152608490fd5b919082018092116123cd57565b61010880548210156111025760005260206000209060031b0190600090565b818102929181159184041417156123cd57565b60001981146123cd5760010190565b91908110156111025760051b81013590601e19813603018212156102915701803591906001600160401b038311610291576020018236038113610291579190565b1561338a57565b60405162461bcd60e51b815260206004820152602560248201527f496d616765206d75737420626520646174613a696d6167652f2a3b62617365366044820152641a1617171760d91b6064820152608490fd5b156133e457565b60405162461bcd60e51b8152602060048201526013602482015272105d1d1c9a589d5d195cc81c995c5d5a5c9959606a1b6044820152606490fd5b919082039182116123cd57565b600260c9541461343d57600260c955565b60405162461bcd60e51b815260206004820152601f60248201527f5265656e7472616e637947756172643a207265656e7472616e742063616c6c006044820152606490fd5b1561348957565b60405162461bcd60e51b815260206004820152601c60248201527b115490cdcc8c4e881d1bdad95b88185b1c9958591e481b5a5b9d195960221b6044820152606490fd5b908060209392818452848401376000828201840152601f01601f1916010190565b156134f557565b60405162461bcd60e51b8152602060048201526014602482015273141a185cd948191bd95cc81b9bdd08195e1a5cdd60621b6044820152606490fd5b906135b3576135408154612a8d565b80613574575b5060076000918260018201558260028201558260038201558260048201558260058201558260068201550155565b601f811160011461358b5750600081555b38613546565b6000908282526135aa601f60208420920160051c820160018301613243565b81835555613585565b634e487b7160e01b600052600060045260246000fd5b600090610108545b8083106135e15750600091508190565b6135ea83613301565b5060ff60078201541615613642576002810154801515908161364e575b5061364257600301548015159081613638575b50613626575060019190565b909161363190613333565b91906135d1565b905042113861361a565b50909161363190613333565b9050421038613607565b1561365f57565b60405162461bcd60e51b815260206004820152600d60248201526c24b73b30b634b2103a37b5b2b760991b6044820152606490fd5b1561369b57565b60405162461bcd60e51b815260206004820152600f60248201526e2737ba103a37b5b2b71037bbb732b960891b6044820152606490fd5b6000818152610103602090815260408220919492939092906001600160401b0382116137e95761370c826137068554612a8d565b8561325a565b8590601f83116001146137825761010794939291879183613777575b50508160011b916000199060031b1c19161790555b8284525260408220600160ff198254161790557fe6bd40d7fbe8d26f44fd9e1ba6d94055a784eb2de4a192c015f84c86a73d225b339280a3565b013590503880613728565b83875284872091601f198416885b8181106137d2575091600193918561010798979694106137b8575b505050811b01905561373d565b0135600019600384901b60f8161c191690553880806137ab565b919387600181928787013581550195019201613790565b634e487b7160e01b86526041600452602486fd5b9061380782612c3e565b6138146040519182612b18565b8281528092613825601f1991612c3e565b0190602036910137565b80511561396f576040519061384382612afd565b604082527f4142434445464748494a4b4c4d4e4f505152535455565758595a61626364656660208301527f6768696a6b6c6d6e6f707172737475767778797a303132333435363738392b2f604083015280516002918282018092116123cd576003918290046001600160fe1b03811681036123cd576138c5908495941b6137fd565b936020850193829183518401906020820192835194600085525b83811061391e57505050505251068060011461390b57600214613900575090565b603d90600019015390565b50603d9081600019820153600119015390565b87600491999293949901918251600190603f9082828260121c16880101518453828282600c1c16880101518385015382828260061c16880101518885015316850101518982015301979291906138df565b5060405161397c81612ac7565b6000815290565b80151580613e81575b61399590613658565b60ff908160fe5460081c1615613ccf576092613aed92612d5292600091818352613c0b60209161010383526040936139ce858720612b3b565b9581815261010485526139e2868220612b3b565b9682825261010586526139f6878320612b3b565b9280835261010687528783205492613a0d8261433d565b95855115613c87575b828252613a2f61010796878b52828c8520541690613fdc565b95838352808a52818b84205416600014613c4e578a51613a4e81612afd565b602981527f556e6971756520386269742050656e6775696e73206f6e2042617365202845768b820152686f6c7665642033442960b81b8c820152935b8352895290899020541615613c24576029613ac8613ac28a51613aac81612ae2565b60048152637472756560e01b8b82015295613e8e565b96613e8e565b98519c8d809b683d913730b6b2911d1160b91b8b8301528a81519485930191016129e4565b8901701116113232b9b1b934b83a34b7b7111d1160791b6029820152613b1c825180938a603a850191016129e4565b016a11161134b6b0b3b2911d1160a91b603a820152613b4482518093896045850191016129e4565b0170222c2272657665616c6564223a7472756560781b60458201526d161132bb37b63b32b22f99b2111d60911b6056820152613b8982518093886064850191016129e4565b016d161130ba3a3934b13aba32b9911d60911b6064820152613bb482518093876072850191016129e4565b016f16113930b934ba3cafb9b1b7b932911d60811b6072820152613be182518093866082850191016129e4565b01916e16113930b934ba3cafb930b735911d60891b608284015283519384916091850191016129e4565b01607d60f81b6091820152036072810184520182612b18565b6029613ac8613ac28a51613c3781612ae2565b600581526466616c736560d81b8b82015295613e8e565b8a51613c5981612ae2565b601c81527b556e6971756520386269742050656e6775696e73206f6e204261736560201b8b82015293613a8a565b94508851613c9481612afd565b603681526000805160206146698339815191528982015275223a224d65746164617461204d697373696e67227d5d60501b8a82015294613a16565b613cd890613e8e565b6040518092602092777b226e616d65223a22386269742050656e6775696e73202360401b84840152613d1381518092866038870191016129e4565b8201907f222c226465736372697074696f6e223a22556e72657665616c6564203862697460388301527b102832b733bab4b7399037b7102130b9b291161134b6b0b3b2911d1160211b60588301526000918154613d6f81612a8d565b92600191808316908115613e485750600114613dfb575b505050509081600080516020614669833981519152612d52947f222c2272657665616c6564223a66616c73652c2261747472696275746573223a606095528201527f223a224e6f2050726f706572747920756e74696c6c2052657665616c227d5d7d6040820152036040810184520182612b18565b600090815286812093945091925b848310613e315750505001607401826000805160206146698339815191526060612d52613d86565b805484840160740152879550918601918101613e09565b606097965060749350600080516020614669833981519152949250612d529895915060ff19168383015280151502010192938295613d86565b506101005481111561398c565b6000908072184f03e93ff9f4daa797ed6e38ed64bf6a1f0160401b80821015613fbd575b506904ee2d6d415b85acef8160201b80831015613fae575b50662386f26fc1000080831015613f9f575b506305f5e10080831015613f90575b5061271080831015613f81575b506064821015613f71575b600a80921015613f67575b600190816021613f1f8287016137fd565b95860101905b613f31575b5050505090565b600019019083906f181899199a1a9b1b9c1cb0b131b232b360811b8282061a835304918215613f6257919082613f25565b613f2a565b9160010191613f0e565b9190606460029104910191613f03565b60049193920491019138613ef8565b60089193920491019138613eeb565b60109193920491019138613edc565b60209193920491019138613eca565b604093508104915038613eb2565b908151811015611102570160200190565b9015612d52576040805190613ff082612ae2565b6018825261402060209277113a3930b4ba2fba3cb832911d1122bb37b63aba34b7b71160411b848201528461428d565b614288578251158015614260575b61420d57825192835b614178575b83158015614148575b6141415760001984019384116123cd578051808511614139575b5061406984612c3e565b9361407683519586612b18565b80855261408281612c3e565b8585019290601f1901368437600090815b838110614109575050505092612d5292827f2c7b2274726169745f74797065223a2245766f6c7574696f6e222c2276616c756140dc9660519551978895518092868801906129e4565b8401928301527065223a2245766f6c766564203344227d5d60781b90820152036031810184520182612b18565b614134906001600160f81b03196141208285613fcb565b5116841a61412e828b613fcb565b53613333565b614093565b93503861405f565b9250505090565b5060001984018481116123cd57605d60f81b906001600160f81b03199061416f9084613fcb565b51161415614045565b926000198101908082116141f8576001600160f81b03196141998387613fcb565b5116600160fd1b81149081156141ea575b81156141dc575b81156141ce575b50156141c657509283614037565b93905061403c565b600d60f81b149050386141b8565b600560f91b811491506141b1565b600960f81b811491506141aa565b60246000634e487b7160e01b81526011600452fd5b9091507f5b7b2274726169745f74797065223a2245766f6c7574696f6e222c2276616c7581519261423d84612afd565b603184528301527065223a2245766f6c766564203344227d5d60781b9082015290565b50614283815161426f81612ae2565b60028152615b5d60f01b848201528461428d565b61402e565b505090565b908051801561431c57825110614336576000905b6142ae835182519061341f565b821161432e5760019260005b8251811015614324576001600160f81b0319806142e06142da84886132f4565b85613fcb565b5116906142ed8386613fcb565b511603614302576142fd90613333565b6142ba565b5092509060005b61431c5761431690613333565b906142a1565b505050600190565b5092919091614309565b505050600090565b5050600090565b801515806143e4575b61434f90613658565b6000908082526101069160209183835260408083205492600195869561010054965b8781111561438457505050505050505090565b8581146143a85780845282825284842054878082119182156143cb575b50506143b6575b6143b190613333565b614371565b976143c36143b191613333565b9890506143a8565b149050806143db575b87386143a1565b508581106143d4565b5061010054811115614346565b6143f96135c9565b91901561441b5761440982613301565b50600180820154600590920154909392565b9050610108546144345760fd5460009160009190600090565b60405162461bcd60e51b81526020600482015260146024820152734e6f20616374697665206d696e7420706861736560601b6044820152606490fd5b90821015611102570190565b906040519061448a82612ae2565b600b82526a646174613a696d6167652f60a81b6020830152604051926144af84612ae2565b60088452670ed8985cd94d8d0b60c21b60208501528251600881018091116123cd578211156145bf5760005b8351811015614525576001600160f81b0319806144f9838686614470565b3516906145068387613fcb565b51160361451b5761451690613333565b6144db565b5050505050600090565b509290919260009351925b8061453c8451866132f4565b11613f2a5760019460005b84518110156145b6576001600160f81b03198061456e614567848a6132f4565b8688614470565b35169061457b8388613fcb565b5116036145905761458b90613333565b614547565b509390945060005b6145ac576145a590613333565b9293614530565b5050505050600190565b50939094614598565b5050505060009056fe9debbd008148f593b1d1f618a64b0d9561e522df1013cdcfd8c7302978119def6bd5c950a8d8df17f772f5af37cb3655737899cbf903264b9795592da439661c7f26b83ff96e1f2b6a682f133852f6798a09c465da95921460cefb38474024988be0079c531659141344cd1fd0a4f28419497f9722a3daafe3b4186f6b6457e0ddf252ad1be2c89b69c2b068fc378daa952ba7f163c4a11628f55a4df523b3ef5b7b2274726169745f74797065223a2250726f7065727479222c2276616c7565eb4eeec0e38c476c368b8f69450d5c4d716ebace637e90a57446da575622f0ddf8e1a15aba9398e019f0b49df1a4fde98ee17ae345cb5f6b5e2c27f5033e8ce7a26469706673582212200886ab16bedd93853496df5a06ef005f39d5bc577a1600817d8e404fca0d5df664736f6c63430008140033",
  "linkReferences": {},
  "deployedLinkReferences": {}
}