{
  "_format": "hh-sol-artifact-1",
  "contractName": "EightBitPenguinsUpgradeable",
  "sourceName": "contracts/8bitPenguins.sol",
  "abi": [
    {
      "inputs": [],
      "stateMutability": "nonpayable",
      "type": "constructor"
    },
    {
      "anonymous": false,
      "inputs": [
        {
          "indexed": true,
          "internalType": "address",
          "name": "owner",
          "type": "address"
        },
        {
          "indexed": true,
          "internalType": "address",
          "name": "approved",
          "type": "address"
        },
        {
          "indexed": true,
          "internalType": "uint256",
          "name": "tokenId",
          "type": "uint256"
        }
      ],
      "name": "Approval",
      "type": "event"
    },
    {
      "anonymous": false,
      "inputs": [
        {
          "indexed": true,
          "internalType": "address",
          "name": "owner",
          "type": "address"
        },
        {
          "indexed": true,
          "internalType": "address",
          "name": "operator",
          "type": "address"
        },
        {
          "indexed": false,
          "internalType": "bool",
          "name": "approved",
          "type": "bool"
        }
      ],
      "name": "ApprovalForAll",
      "type": "event"
    },
    {
      "anonymous": false,
      "inputs": [
        {
          "indexed": false,
          "internalType": "uint256",
          "name": "_fromTokenId",
          "type": "uint256"
        },
        {
          "indexed": false,
          "internalType": "uint256",
          "name": "_toTokenId",
          "type": "uint256"
        }
      ],
      "name": "BatchMetadataUpdate",
      "type": "event"
    },
    {
      "anonymous": false,
      "inputs": [
        {
          "indexed": false,
          "internalType": "uint8",
          "name": "version",
          "type": "uint8"
        }
      ],
      "name": "Initialized",
      "type": "event"
    },
    {
      "anonymous": false,
      "inputs": [
        {
          "indexed": false,
          "internalType": "uint256",
          "name": "_tokenId",
          "type": "uint256"
        }
      ],
      "name": "MetadataUpdate",
      "type": "event"
    },
    {
      "anonymous": false,
      "inputs": [
        {
          "indexed": false,
          "internalType": "bool",
          "name": "status",
          "type": "bool"
        }
      ],
      "name": "MintStatusChanged",
      "type": "event"
    },
    {
      "anonymous": false,
      "inputs": [
        {
          "indexed": true,
          "internalType": "address",
          "name": "previousOwner",
          "type": "address"
        },
        {
          "indexed": true,
          "internalType": "address",
          "name": "newOwner",
          "type": "address"
        }
      ],
      "name": "OwnershipTransferred",
      "type": "event"
    },
    {
      "anonymous": false,
      "inputs": [
        {
          "indexed": false,
          "internalType": "string",
          "name": "image",
          "type": "string"
        }
      ],
      "name": "PlaceholderImageChanged",
      "type": "event"
    },
    {
      "anonymous": false,
      "inputs": [
        {
          "indexed": false,
          "internalType": "bool",
          "name": "status",
          "type": "bool"
        }
      ],
      "name": "RevealStatusChanged",
      "type": "event"
    },
    {
      "anonymous": false,
      "inputs": [
        {
          "indexed": true,
          "internalType": "uint256",
          "name": "tokenId",
          "type": "uint256"
        },
        {
          "indexed": true,
          "internalType": "address",
          "name": "owner",
          "type": "address"
        }
      ],
      "name": "TokenEvolved3D",
      "type": "event"
    },
    {
      "anonymous": false,
      "inputs": [
        {
          "indexed": true,
          "internalType": "address",
          "name": "from",
          "type": "address"
        },
        {
          "indexed": true,
          "internalType": "address",
          "name": "to",
          "type": "address"
        },
        {
          "indexed": true,
          "internalType": "uint256",
          "name": "tokenId",
          "type": "uint256"
        }
      ],
      "name": "Transfer",
      "type": "event"
    },
    {
      "inputs": [],
      "name": "MAX_PER_WALLET",
      "outputs": [
        {
          "internalType": "uint256",
          "name": "",
          "type": "uint256"
        }
      ],
      "stateMutability": "view",
      "type": "function"
    },
    {
      "inputs": [],
      "name": "MAX_SUPPLY",
      "outputs": [
        {
          "internalType": "uint256",
          "name": "",
          "type": "uint256"
        }
      ],
      "stateMutability": "view",
      "type": "function"
    },
    {
      "inputs": [
        {
          "internalType": "address",
          "name": "to",
          "type": "address"
        },
        {
          "internalType": "uint256",
          "name": "tokenId",
          "type": "uint256"
        }
      ],
      "name": "approve",
      "outputs": [],
      "stateMutability": "nonpayable",
      "type": "function"
    },
    {
      "inputs": [
        {
          "internalType": "address",
          "name": "owner",
          "type": "address"
        }
      ],
      "name": "balanceOf",
      "outputs": [
        {
          "internalType": "uint256",
          "name": "",
          "type": "uint256"
        }
      ],
      "stateMutability": "view",
      "type": "function"
    },
    {
      "inputs": [
        {
          "internalType": "uint256",
          "name": "tokenId",
          "type": "uint256"
        },
        {
          "internalType": "string",
          "name": "imageBase64",
          "type": "string"
        },
        {
          "internalType": "string",
          "name": "attributesJson",
          "type": "string"
        }
      ],
      "name": "evolveTo3D",
      "outputs": [],
      "stateMutability": "nonpayable",
      "type": "function"
    },
    {
      "inputs": [
        {
          "internalType": "uint256",
          "name": "tokenId",
          "type": "uint256"
        },
        {
          "internalType": "string",
          "name": "imageBase64",
          "type": "string"
        }
      ],
      "name": "evolveTo3DImageOnly",
      "outputs": [],
      "stateMutability": "nonpayable",
      "type": "function"
    },
    {
      "inputs": [
        {
          "internalType": "uint256",
          "name": "tokenId",
          "type": "uint256"
        }
      ],
      "name": "getApproved",
      "outputs": [
        {
          "internalType": "address",
          "name": "",
          "type": "address"
        }
      ],
      "stateMutability": "view",
      "type": "function"
    },
    {
      "inputs": [],
      "name": "initialize",
      "outputs": [],
      "stateMutability": "nonpayable",
      "type": "function"
    },
    {
      "inputs": [
        {
          "internalType": "address",
          "name": "owner",
          "type": "address"
        },
        {
          "internalType": "address",
          "name": "operator",
          "type": "address"
        }
      ],
      "name": "isApprovedForAll",
      "outputs": [
        {
          "internalType": "bool",
          "name": "",
          "type": "bool"
        }
      ],
      "stateMutability": "view",
      "type": "function"
    },
    {
      "inputs": [
        {
          "internalType": "uint256",
          "name": "quantity",
          "type": "uint256"
        },
        {
          "internalType": "string[]",
          "name": "imageBase64s",
          "type": "string[]"
        },
        {
          "internalType": "string[]",
          "name": "names",
          "type": "string[]"
        },
        {
          "internalType": "string[]",
          "name": "attributesJson",
          "type": "string[]"
        },
        {
          "internalType": "uint256[]",
          "name": "rarityScores",
          "type": "uint256[]"
        }
      ],
      "name": "mint",
      "outputs": [],
      "stateMutability": "payable",
      "type": "function"
    },
    {
      "inputs": [],
      "name": "mintActive",
      "outputs": [
        {
          "internalType": "bool",
          "name": "",
          "type": "bool"
        }
      ],
      "stateMutability": "view",
      "type": "function"
    },
    {
      "inputs": [],
      "name": "mintPrice",
      "outputs": [
        {
          "internalType": "uint256",
          "name": "",
          "type": "uint256"
        }
      ],
      "stateMutability": "view",
      "type": "function"
    },
    {
      "inputs": [
        {
          "internalType": "address",
          "name": "",
          "type": "address"
        }
      ],
      "name": "mintedPerWallet",
      "outputs": [
        {
          "internalType": "uint256",
          "name": "",
          "type": "uint256"
        }
      ],
      "stateMutability": "view",
      "type": "function"
    },
    {
      "inputs": [],
      "name": "name",
      "outputs": [
        {
          "internalType": "string",
          "name": "",
          "type": "string"
        }
      ],
      "stateMutability": "view",
      "type": "function"
    },
    {
      "inputs": [],
      "name": "owner",
      "outputs": [
        {
          "internalType": "address",
          "name": "",
          "type": "address"
        }
      ],
      "stateMutability": "view",
      "type": "function"
    },
    {
      "inputs": [
        {
          "internalType": "uint256",
          "name": "tokenId",
          "type": "uint256"
        }
      ],
      "name": "ownerOf",
      "outputs": [
        {
          "internalType": "address",
          "name": "",
          "type": "address"
        }
      ],
      "stateMutability": "view",
      "type": "function"
    },
    {
      "inputs": [],
      "name": "placeholderImage",
      "outputs": [
        {
          "internalType": "string",
          "name": "",
          "type": "string"
        }
      ],
      "stateMutability": "view",
      "type": "function"
    },
    {
      "inputs": [
        {
          "internalType": "uint256",
          "name": "tokenId",
          "type": "uint256"
        }
      ],
      "name": "rarityRank",
      "outputs": [
        {
          "internalType": "uint256",
          "name": "",
          "type": "uint256"
        }
      ],
      "stateMutability": "view",
      "type": "function"
    },
    {
      "inputs": [],
      "name": "renounceOwnership",
      "outputs": [],
      "stateMutability": "nonpayable",
      "type": "function"
    },
    {
      "inputs": [],
      "name": "revealed",
      "outputs": [
        {
          "internalType": "bool",
          "name": "",
          "type": "bool"
        }
      ],
      "stateMutability": "view",
      "type": "function"
    },
    {
      "inputs": [
        {
          "internalType": "address",
          "name": "from",
          "type": "address"
        },
        {
          "internalType": "address",
          "name": "to",
          "type": "address"
        },
        {
          "internalType": "uint256",
          "name": "tokenId",
          "type": "uint256"
        }
      ],
      "name": "safeTransferFrom",
      "outputs": [],
      "stateMutability": "nonpayable",
      "type": "function"
    },
    {
      "inputs": [
        {
          "internalType": "address",
          "name": "from",
          "type": "address"
        },
        {
          "internalType": "address",
          "name": "to",
          "type": "address"
        },
        {
          "internalType": "uint256",
          "name": "tokenId",
          "type": "uint256"
        },
        {
          "internalType": "bytes",
          "name": "data",
          "type": "bytes"
        }
      ],
      "name": "safeTransferFrom",
      "outputs": [],
      "stateMutability": "nonpayable",
      "type": "function"
    },
    {
      "inputs": [
        {
          "internalType": "address",
          "name": "operator",
          "type": "address"
        },
        {
          "internalType": "bool",
          "name": "approved",
          "type": "bool"
        }
      ],
      "name": "setApprovalForAll",
      "outputs": [],
      "stateMutability": "nonpayable",
      "type": "function"
    },
    {
      "inputs": [
        {
          "internalType": "string",
          "name": "image",
          "type": "string"
        }
      ],
      "name": "setPlaceholderImage",
      "outputs": [],
      "stateMutability": "nonpayable",
      "type": "function"
    },
    {
      "inputs": [
        {
          "internalType": "bool",
          "name": "status",
          "type": "bool"
        }
      ],
      "name": "setRevealed",
      "outputs": [],
      "stateMutability": "nonpayable",
      "type": "function"
    },
    {
      "inputs": [
        {
          "internalType": "bytes4",
          "name": "interfaceId",
          "type": "bytes4"
        }
      ],
      "name": "supportsInterface",
      "outputs": [
        {
          "internalType": "bool",
          "name": "",
          "type": "bool"
        }
      ],
      "stateMutability": "view",
      "type": "function"
    },
    {
      "inputs": [],
      "name": "symbol",
      "outputs": [
        {
          "internalType": "string",
          "name": "",
          "type": "string"
        }
      ],
      "stateMutability": "view",
      "type": "function"
    },
    {
      "inputs": [],
      "name": "toggleMint",
      "outputs": [],
      "stateMutability": "nonpayable",
      "type": "function"
    },
    {
      "inputs": [
        {
          "internalType": "uint256",
          "name": "",
          "type": "uint256"
        }
      ],
      "name": "tokenAttributes",
      "outputs": [
        {
          "internalType": "string",
          "name": "",
          "type": "string"
        }
      ],
      "stateMutability": "view",
      "type": "function"
    },
    {
      "inputs": [
        {
          "internalType": "uint256",
          "name": "",
          "type": "uint256"
        }
      ],
      "name": "tokenEvolved3D",
      "outputs": [
        {
          "internalType": "bool",
          "name": "",
          "type": "bool"
        }
      ],
      "stateMutability": "view",
      "type": "function"
    },
    {
      "inputs": [
        {
          "internalType": "uint256",
          "name": "",
          "type": "uint256"
        }
      ],
      "name": "tokenImage",
      "outputs": [
        {
          "internalType": "string",
          "name": "",
          "type": "string"
        }
      ],
      "stateMutability": "view",
      "type": "function"
    },
    {
      "inputs": [
        {
          "internalType": "uint256",
          "name": "tokenId",
          "type": "uint256"
        }
      ],
      "name": "tokenMetadataJson",
      "outputs": [
        {
          "internalType": "string",
          "name": "",
          "type": "string"
        }
      ],
      "stateMutability": "view",
      "type": "function"
    },
    {
      "inputs": [
        {
          "internalType": "uint256",
          "name": "",
          "type": "uint256"
        }
      ],
      "name": "tokenName",
      "outputs": [
        {
          "internalType": "string",
          "name": "",
          "type": "string"
        }
      ],
      "stateMutability": "view",
      "type": "function"
    },
    {
      "inputs": [
        {
          "internalType": "uint256",
          "name": "",
          "type": "uint256"
        }
      ],
      "name": "tokenRarityScore",
      "outputs": [
        {
          "internalType": "uint256",
          "name": "",
          "type": "uint256"
        }
      ],
      "stateMutability": "view",
      "type": "function"
    },
    {
      "inputs": [
        {
          "internalType": "uint256",
          "name": "",
          "type": "uint256"
        }
      ],
      "name": "tokenSeeds",
      "outputs": [
        {
          "internalType": "uint256",
          "name": "",
          "type": "uint256"
        }
      ],
      "stateMutability": "view",
      "type": "function"
    },
    {
      "inputs": [
        {
          "internalType": "uint256",
          "name": "tokenId",
          "type": "uint256"
        }
      ],
      "name": "tokenURI",
      "outputs": [
        {
          "internalType": "string",
          "name": "",
          "type": "string"
        }
      ],
      "stateMutability": "view",
      "type": "function"
    },
    {
      "inputs": [],
      "name": "totalSupply",
      "outputs": [
        {
          "internalType": "uint256",
          "name": "",
          "type": "uint256"
        }
      ],
      "stateMutability": "view",
      "type": "function"
    },
    {
      "inputs": [
        {
          "internalType": "address",
          "name": "from",
          "type": "address"
        },
        {
          "internalType": "address",
          "name": "to",
          "type": "address"
        },
        {
          "internalType": "uint256",
          "name": "tokenId",
          "type": "uint256"
        }
      ],
      "name": "transferFrom",
      "outputs": [],
      "stateMutability": "nonpayable",
      "type": "function"
    },
    {
      "inputs": [
        {
          "internalType": "address",
          "name": "newOwner",
          "type": "address"
        }
      ],
      "name": "transferOwnership",
      "outputs": [],
      "stateMutability": "nonpayable",
      "type": "function"
    },
    {
      "inputs": [],
      "name": "withdraw",
      "outputs": [],
      "stateMutability": "nonpayable",
      "type": "function"
    }
  ],
  "bytecode": "0x60808060405234620000c6576000549060ff8260081c1662000074575060ff8082160362000038575b604051613b9d9081620000cc8239f35b60ff90811916176000557f7f26b83ff96e1f2b6a682f133852f6798a09c465da95921460cefb3847402498602060405160ff8152a13862000028565b62461bcd60e51b815260206004820152602760248201527f496e697469616c697a61626c653a20636f6e747261637420697320696e697469604482015266616c697a696e6760c81b6064820152608490fd5b600080fdfe608080604052600436101561001357600080fd5b60003560e01c90816301ffc9a7146120bc5750806306fdde0314612017578063081812fc14611ff9578063095ea7b314611e7f5780630f2cdd6c14611e6157806318160ddd14611e4257806323b872dd14611e1e57806325fd90f314611dfb57806329c1605f14611dd557806332cb6b0c14611db75780633a602b4d14611d7c5780633ccfd60b14611d3857806342842e0e14611d05578063448d8c5c14611c605780635183022714611c3a5780636352211e14611c0a5780636817c76c14611bec57806370a0823114611b55578063715018a614611b0a5780637978d4511461196e5780637b3d6e56146119415780638129fc1c146112ea5780638da5cb5b146112c15780639333174a14610a7d57806395d89b41146109af5780639c30ad8514610990578063a22cb465146108c2578063b75f1aef146106a4578063b88d4fde146105f7578063c1eea4a0146105c5578063c3753d7014610598578063c87b56dd146104ff578063cf348425146104d2578063d2f40d7914610420578063d3dd5fe0146103c5578063e0a8085314610333578063e725f87714610306578063e985e9c5146102b0578063f2824b531461026b5763f2fde38b146101d757600080fd5b34610266576020366003190112610266576101f0612181565b6101f86123ae565b6001600160a01b038116156102125761021090612406565b005b60405162461bcd60e51b815260206004820152602660248201527f4f776e61626c653a206e6577206f776e657220697320746865207a65726f206160448201526564647265737360d01b6064820152608490fd5b600080fd5b34610266576020366003190112610266576004356000526101056020526102ac6102986040600020612290565b60405191829160208352602083019061215c565b0390f35b34610266576040366003190112610266576102c9612181565b6102d1612197565b9060018060a01b03809116600052606a60205260406000209116600052602052602060ff604060002054166040519015158152f35b34610266576020366003190112610266576004356000526101046020526102ac6102986040600020612290565b34610266576020366003190112610266576004358015158091036102665760207f4a9768f4a343b5cd5d5319e6fe71e839c384e1f67a57e74631919d50c5d4d9539161037d6123ae565b60fe5461ff008260081b169061ff0019161760fe55604051908152a161010054806103a457005b6040600080516020613ac883398151915291815190600182526020820152a1005b34610266576000366003190112610266576103de6123ae565b7fb304fe5dd2d3c45e8ec87c1dd1bd2b3a773b3135e84a7b9151f5fb4bf1a06d0e602060fe5460ff8082161516809160ff19161760fe556040519015158152a1005b34610266576040366003190112610266576004356024356001600160401b03811161026657600080516020613b48833981519152916104b76104686020933690600401612336565b90610471612b15565b831515806104c5575b61048390612bb6565b61049f61048f85612484565b6001600160a01b03163314612bf2565b6104b16104ac838361395b565b612a6c565b83612c30565b604051908152a1600160c955005b506101005484111561047a565b34610266576020366003190112610266576004356000526101036020526102ac6102986040600020612290565b34610266576020366003190112610266576102ac6105386105336004358015158061058b575b61052e90612bb6565b612ee1565b612d8d565b610298603d60405180937f646174613a6170706c69636174696f6e2f6a736f6e3b6261736536342c000000602083015261057b8151809260208686019101612139565b810103601d81018452018261226d565b5061010054811115610525565b34610266576020366003190112610266576004356000526101016020526020604060002054604051908152f35b3461026657602036600319011261026657600435600052610107602052602060ff604060002054166040519015158152f35b3461026657608036600319011261026657610610612181565b610618612197565b90606435906044356001600160401b03831161026657366023840112156102665782600401359361064885612393565b92610656604051948561226d565b858452366024878701011161026657600060208761021098602461069f9901838901378601015261068f61068a84336125af565b6124d6565b61069a838383612677565b6128ae565b61258b565b3461026657602080600319360112610266576001600160401b03600435818111610266576106d6903690600401612336565b90916106e06123ae565b811561088057811161086a5760ff906106f982546121e2565b601f811161082f575b50600092601f82116001146107b75760409082600080516020613aa883398151915294956000916107ac575b508360011b906000198560031b1c19161785555b8282519384928884528189850152848401376000828201840152601f01601f19168101030190a160fe5460081c1615806107a0575b61077d57005b6040600080516020613ac8833981519152916101005482519160018352820152a1005b50610100541515610777565b90508101358761072e565b601f1982169383600052856000209460005b87828210610819575050946040929184600080516020613aa88339815191529697106107ff575b5050600183811b018555610742565b820135600019600386901b60f8161c1916905586806107f0565b83850135885560019097019692830192016107c9565b61085a908360005285600020601f840160051c810191878510610860575b601f0160051c0190612935565b84610702565b909150819061084d565b634e487b7160e01b600052604160045260246000fd5b60405162461bcd60e51b815260048101859052601a602482015279141b1858d95a1bdb19195c881a5b5859d9481c995c5d5a5c995960321b6044820152606490fd5b34610266576040366003190112610266576108db612181565b60243590811515809203610266576001600160a01b03169033821461094f5733600052606a602052604060002082600052602052604060002060ff1981541660ff83161790556040519081527f17307eab39ab6107e8899845ad3d59bd9653f200f220920489ca2b5937696c3160203392a3005b60405162461bcd60e51b815260206004820152601960248201527822a9219b99189d1030b8383937bb32903a379031b0b63632b960391b6044820152606490fd5b34610266576020366003190112610266576102ac610298600435612ee1565b34610266576000366003190112610266576040516000906066546109d2816121e2565b808352600191808316908115610a5557506001146109fb575b6102ac836102988187038261226d565b6066600090815260209450917f46501879b8ca8525e8c2fd519e2fbfcfa2ebea26501294aa02cbfcfb12e943545b828410610a4257505050810190910190610298816109eb565b8054858501870152928501928101610a29565b6102ac955061029893506020915091849260ff191682840152151560051b82010193506109eb565b60a0366003190112610266576024356001600160401b03811161026657610aa8903690600401612363565b906044356001600160401b03811161026657610ac8903690600401612363565b906064356001600160401b03811161026657610ae8903690600401612363565b6084356001600160401b03811161026657610b07903690600401612363565b939094610b12612b15565b60ff60fe541615611287576004351561124b5787600435036112065780600435036111c157826004350361117057846004350361111c57610b58600435610100546129e6565b60fb54106110e25733600052610102602052610b7b6004356040600020546129e6565b60fc54106110a457610b9160043560fd54612a09565b34106110685760005b6004358110610bfa57610bb160043560fd54612a09565b803411610bc0575b600160c955005b60008080610bcf819434612b08565b818115610bf1575b3390f115610be55780610bb9565b6040513d6000823e3d90fd5b506108fc610bd7565b610c116104ac610c0b838c8c612a2b565b9061395b565b610c28610c1f828688612a2b565b90501515612ac6565b610c3461010054612a1c565b9081610100556040518260208201523360601b60408201524460548201524260748201526094828183015281528060c081011060018060401b0360c08301111761086a5760c081016040526020815191012082600052610101602052604060002055610ca1818b8b612a2b565b600084815261010360205260409020916001600160401b03821161086a578190610cd582610ccf86546121e2565b8661294c565b600090601f8311600114610ffe57600092610ff3575b50508160011b916000199060031b1c19161790555b610d0b818486612a2b565b600084815261010460205260409020916001600160401b03821161086a578190610d3982610ccf86546121e2565b600090601f8311600114610f8957600092610f7e575b50508160011b916000199060031b1c19161790555b610d6f818688612a2b565b600084815261010560205260409020916001600160401b03821161086a578190610d9d82610ccf86546121e2565b600090601f8311600114610f1457600092610f09575b50508160011b916000199060031b1c19161790555b86811015610ef357816000526101066020528060051b880135604060002055336000526101026020526040600020610e008154612a1c565b905560405191610e0f8361221c565b600083523315610eaf57602081610e9e61069f610eaa96610e47610e41600080516020613b4883398151915297612773565b15612b6b565b610e53610e4185612773565b3360008181526068875260408082208054600101905586825260678852812080546001600160a01b03191683179055859190600080516020613b088339815191528180a48333612790565b604051908152a1612a1c565b610b9a565b606460405162461bcd60e51b815260206004820152602060248201527f4552433732313a206d696e7420746f20746865207a65726f20616464726573736044820152fd5b634e487b7160e01b600052603260045260246000fd5b013590508d80610db3565b909150601f19831691846000528360206000209360005b818110610f63575010610f49575b505050600190811b019055610dc8565b0135600019600384901b60f8161c191690558c8080610f39565b84840135865560019095019460209384019387935001610f2b565b013590508d80610d4f565b9091508360005260206000209160005b601f1985168110610fdb575083601f19811610610fc1575b505050600190811b019055610d64565b0135600019600384901b60f8161c191690558c8080610fb1565b90926020600181928686013581550194019101610f99565b013590508d80610ceb565b9091508360005260206000209160005b601f1985168110611050575083601f19811610611036575b505050600190811b019055610d00565b0135600019600384901b60f8161c191690558c8080611026565b9092602060018192868601358155019401910161100e565b60405162461bcd60e51b8152602060048201526014602482015273125b9cdd59999a58da595b9d081c185e5b595b9d60621b6044820152606490fd5b60405162461bcd60e51b8152602060048201526016602482015275115e18d959591cc81b585e081c195c881dd85b1b195d60521b6044820152606490fd5b60405162461bcd60e51b815260206004820152601260248201527145786365656473206d617820737570706c7960701b6044820152606490fd5b60405162461bcd60e51b815260206004820152602660248201527f4d7573742070726f76696465207261726974792073636f726520666f7220656160448201526518da0813919560d21b6064820152608490fd5b60405162461bcd60e51b8152602060048201526024808201527f4d7573742070726f76696465206174747269627574657320666f7220656163686044820152630813919560e21b6064820152608490fd5b60405162461bcd60e51b815260206004820152601e60248201527f4d7573742070726f76696465206e616d6520666f722065616368204e465400006044820152606490fd5b60405162461bcd60e51b815260206004820152601f60248201527f4d7573742070726f7669646520696d61676520666f722065616368204e4654006044820152606490fd5b60405162461bcd60e51b81526020600482015260146024820152734d757374206d696e74206174206c65617374203160601b6044820152606490fd5b60405162461bcd60e51b81526020600482015260126024820152714d696e74696e67206e6f742061637469766560701b6044820152606490fd5b34610266576000366003190112610266576097546040516001600160a01b039091168152602090f35b346102665760003660031901126102665760005460ff808260081c1615808091611935575b801561191f575b156118c357600192818460ff198316176000556118b1575b5060405161133b81612237565b600d81526020926c386269742050656e6775696e7360981b848301526040519161136483612237565b60059283815264038424954560dc1b868201526113908360005460081c1661138b81612986565b612986565b81516001600160401b03919082811161086a57806113af6065546121e2565b94601f958a878211611879575b5050899086831160011461181457600092611809575b5050600019600383901b1c191690891b176065555b805191821161086a576113fb6066546121e2565b8381116117d2575b5086908383116001146117545791806a3a32bc3a1f1e17b9bb339f60a91b969492600f9694600092611749575b5050600019600383901b1c191690891b176066555b6114598260005460081c1661138b81612986565b61146233612406565b6114768260005460081c1661138b81612986565b8760c955603260fb55603260fc55600060fd5561ffff1960fe541660fe5561149e82546121e2565b818111611727575b50506103d781556000527f272072783d273938272072793d27313232272066696c6c3d272532334338384685600020917f646174613a696d6167652f7376672b786d6c3b757466382c3c73766720786d6c83557f6e733d27687474703a2f2f7777772e77332e6f72672f323030302f7376672720888401557f76696577426f783d273020302034303020343030273e3c72656374207769647460028401557f683d2734303027206865696768743d27343030272066696c6c3d27253233384260038401557f30453241272f3e3c656c6c697073652063783d27323030272063793d2732303860048401558201557f3146272f3e3c656c6c697073652063783d27313836272063793d27313832272060068201557f72783d273532272072793d273730272066696c6c3d272532334546424634352760078201557f2f3e3c656c6c697073652063783d27323132272063793d27323238272072783d60088201557f273736272072793d273834272066696c6c3d2725323338463542313227206f7060098201557f61636974793d27302e3535272f3e3c7465787420783d273230302720793d2733600a8201557f3532272066696c6c3d272532334646464646462720666f6e742d73697a653d27600b8201557f32382720666f6e742d66616d696c793d274a6574427261696e73204d6f6e6f2c600c8201557f6d6f6e6f73706163652720666f6e742d7765696768743d273730302720746578600d8201557f742d616e63686f723d276d6964646c65273e386269742050656e6775696e3c2f600e82015501556116f157005b7f7f26b83ff96e1f2b6a682f133852f6798a09c465da95921460cefb38474024989161ff001960005416600055604051908152a1005b60106117429284600052896000209201851c82019101612935565b87806114a6565b015190508a80611430565b889291601f198316916066600052896000209260005b8b8282106117bc57505091600f97959391856a3a32bc3a1f1e17b9bb339f60a91b9a989694106117a3575b505050811b01606655611445565b015160001960f88460031b161c191690558a8080611795565b8385015186558d9790950194938401930161176a565b6117fa9060666000528860002085808601891c8201928b8710611800575b01881c0190612935565b88611403565b925081926117f0565b015190508a806113d2565b908b9350601f1983169160656000528b6000209260005b8d828210611863575050841161184a575b505050811b016065556113e7565b015160001960f88460031b161c191690558a808061183c565b8385015186558f9790950194938401930161182b565b6118a19160656000528882600020918187018d1c83019387106118a8575b018b1c0190612935565b8b8a6113bc565b92508192611897565b61ffff1916610101176000558361132e565b60405162461bcd60e51b815260206004820152602e60248201527f496e697469616c697a61626c653a20636f6e747261637420697320616c72656160448201526d191e481a5b9a5d1a585b1a5e995960921b6064820152608490fd5b50303b1580156113165750600182841614611316565b5060018284161061130f565b34610266576020366003190112610266576004356000526101066020526020604060002054604051908152f35b34610266576060366003190112610266576004356001600160401b03602435818111610266576119a2903690600401612336565b929091604435818111610266576119c0611a07913690600401612336565b9590946119cb612b15565b84151580611afd575b6119dd90612bb6565b6119e961048f86612484565b6119f66104ac838361395b565b611a01871515612ac6565b84612c30565b816000526020926101058452604060002091851161086a57611a3385611a2d84546121e2565b8461294c565b600090601f8611600114611a8857600080516020613b48833981519152959160009183611a7d575b50508160011b916000199060031b1c1916179055604051908152a1600160c955005b013590508680611a5b565b601f1986169183600052856000209260005b818110611ae65750916001939188600080516020613b48833981519152999410611acc575b505050811b0190556104b7565b0135600019600384901b60f8161c19169055868080611abf565b919387600181928787013581550195019201611a9a565b50610100548511156119d4565b3461026657600036600319011261026657611b236123ae565b609780546001600160a01b031981169091556000906001600160a01b0316600080516020613ae88339815191528280a3005b34610266576020366003190112610266576001600160a01b03611b76612181565b168015611b955760005260686020526020604060002054604051908152f35b60405162461bcd60e51b815260206004820152602960248201527f4552433732313a2061646472657373207a65726f206973206e6f7420612076616044820152683634b21037bbb732b960b91b6064820152608490fd5b3461026657600036600319011261026657602060fd54604051908152f35b34610266576020366003190112610266576020611c28600435612484565b6040516001600160a01b039091168152f35b3461026657600036600319011261026657602060ff60fe5460081c166040519015158152f35b346102665760003660031901126102665760405160009060ff54611c83816121e2565b808352600191808316908115610a555750600114611cab576102ac836102988187038261226d565b60ff600090815260209450917fe08ec2af2cfc251225e1968fd6ca21e4044f129bffa95bac3503be8bdb30a3675b828410611cf257505050810190910190610298816109eb565b8054858501870152928501928101611cd9565b346102665761021061069f611d19366121ad565b9060405192611d278461221c565b6000845261068f61068a84336125af565b3461026657600036600319011261026657611d516123ae565b600080808060018060a01b03609754164790828215611d73575bf115610be557005b506108fc611d6b565b34610266576020366003190112610266576001600160a01b03611d9d612181565b166000526101026020526020604060002054604051908152f35b3461026657600036600319011261026657602060fb54604051908152f35b34610266576020366003190112610266576020611df360043561389b565b604051908152f35b3461026657600036600319011261026657602060ff60fe54166040519015158152f35b3461026657610210611e2f366121ad565b91611e3d61068a84336125af565b612677565b3461026657600036600319011261026657602061010054604051908152f35b3461026657600036600319011261026657602060fc54604051908152f35b3461026657604036600319011261026657611e98612181565b602435906001600160a01b038080611eaf85612484565b16921691808314611faa57803314908115611f85575b5015611f1a57600083815260696020526040902080546001600160a01b03191683179055611ef283612484565b167f8c5be1e5ebec7d5bd14f71427d1e84f3dd0314c0f7b2291e5b200ac8c7c3b925600080a4005b60405162461bcd60e51b815260206004820152603d60248201527f4552433732313a20617070726f76652063616c6c6572206973206e6f7420746f60448201527f6b656e206f776e6572206f7220617070726f76656420666f7220616c6c0000006064820152608490fd5b9050600052606a60205260406000203360005260205260ff6040600020541684611ec5565b60405162461bcd60e51b815260206004820152602160248201527f4552433732313a20617070726f76616c20746f2063757272656e74206f776e656044820152603960f91b6064820152608490fd5b34610266576020366003190112610266576020611c286004356124aa565b346102665760003660031901126102665760405160009060655461203a816121e2565b808352600191808316908115610a555750600114612062576102ac836102988187038261226d565b6065600090815260209450917f8ff97419363ffd7000167f130ef7168fbea05faf9251824ca5043f113cc6a7c75b8284106120a957505050810190910190610298816109eb565b8054858501870152928501928101612090565b34610266576020366003190112610266576004359063ffffffff60e01b82168092036102665781602092159081156120f6575b5015158152f35b6380ac58cd60e01b811491508115612128575b8115612117575b50836120ef565b6301ffc9a760e01b14905083612110565b635b5e139f60e01b81149150612109565b60005b83811061214c5750506000910152565b818101518382015260200161213c565b9060209161217581518092818552858086019101612139565b601f01601f1916010190565b600435906001600160a01b038216820361026657565b602435906001600160a01b038216820361026657565b6060906003190112610266576001600160a01b0390600435828116810361026657916024359081168103610266579060443590565b90600182811c92168015612212575b60208310146121fc57565b634e487b7160e01b600052602260045260246000fd5b91607f16916121f1565b602081019081106001600160401b0382111761086a57604052565b604081019081106001600160401b0382111761086a57604052565b606081019081106001600160401b0382111761086a57604052565b601f909101601f19168101906001600160401b0382119082101761086a57604052565b90604051918260008254926122a4846121e2565b90818452600194858116908160001461231357506001146122d0575b50506122ce9250038361226d565b565b9093915060005260209081600020936000915b8183106122fb5750506122ce935082010138806122c0565b855488840185015294850194879450918301916122e3565b9150506122ce94506020925060ff191682840152151560051b82010138806122c0565b9181601f84011215610266578235916001600160401b038311610266576020838186019501011161026657565b9181601f84011215610266578235916001600160401b038311610266576020808501948460051b01011161026657565b6001600160401b03811161086a57601f01601f191660200190565b6097546001600160a01b031633036123c257565b606460405162461bcd60e51b815260206004820152602060248201527f4f776e61626c653a2063616c6c6572206973206e6f7420746865206f776e65726044820152fd5b609780546001600160a01b039283166001600160a01b031982168117909255909116600080516020613ae8833981519152600080a3565b1561244457565b60405162461bcd60e51b8152602060048201526018602482015277115490cdcc8c4e881a5b9d985b1a59081d1bdad95b88125160421b6044820152606490fd5b6000908152606760205260409020546001600160a01b03166124a781151561243d565b90565b6124bb6124b682612773565b61243d565b6000908152606960205260409020546001600160a01b031690565b156124dd57565b60405162461bcd60e51b815260206004820152602d60248201527f4552433732313a2063616c6c6572206973206e6f7420746f6b656e206f776e6560448201526c1c881bdc88185c1c1c9bdd9959609a1b6064820152608490fd5b60809060208152603260208201527f4552433732313a207472616e7366657220746f206e6f6e20455243373231526560408201527131b2b4bb32b91034b6b83632b6b2b73a32b960711b60608201520190565b1561259257565b60405162461bcd60e51b8152806125ab60048201612538565b0390fd5b906001600160a01b0380806125c384612484565b169316918383149384156125f6575b5083156125e0575b50505090565b6125ec919293506124aa565b16143880806125da565b909350600052606a60205260406000208260005260205260ff6040600020541692386125d2565b1561262457565b60405162461bcd60e51b815260206004820152602560248201527f4552433732313a207472616e736665722066726f6d20696e636f72726563742060448201526437bbb732b960d91b6064820152608490fd5b9061269f9161268584612484565b6001600160a01b039391841692849290918316841461261d565b1691821561272257816126bc916126b586612484565b161461261d565b600080516020613b08833981519152600084815260696020526040812060018060a01b03199081815416905583825260686020526040822060001981540190558482526040822060018154019055858252606760205284604083209182541617905580a4565b60405162461bcd60e51b8152602060048201526024808201527f4552433732313a207472616e7366657220746f20746865207a65726f206164646044820152637265737360e01b6064820152608490fd5b6000908152606760205260409020546001600160a01b0316151590565b91929091803b156128a5576127dd936040519081630a85bd0160e11b9384825233600483015260009687602484015260448301526080606483015281878160209a8b96608483019061215c565b03926001600160a01b03165af1849181612861575b50612850575050503d600014612848573d61280c81612393565b9061281a604051928361226d565b81528091833d92013e5b805191826128455760405162461bcd60e51b8152806125ab60048201612538565b01fd5b506060612824565b6001600160e01b0319161492509050565b9091508581813d831161289e575b612879818361226d565b8101031261289a57516001600160e01b03198116810361289a5790386127f2565b8480fd5b503d61286f565b50915050600190565b92939190803b1561292b57612900946040518092630a85bd0160e11b9485835233600484015260018060a01b03809816602484015260448301526080606483015281806020998a95608483019061215c565b03916000988991165af18491816128615750612850575050503d600014612848573d61280c81612393565b5050915050600190565b818110612940575050565b60008155600101612935565b9190601f811161295b57505050565b6122ce926000526020600020906020601f840160051c8301931061086057601f0160051c0190612935565b1561298d57565b60405162461bcd60e51b815260206004820152602b60248201527f496e697469616c697a61626c653a20636f6e7472616374206973206e6f74206960448201526a6e697469616c697a696e6760a81b6064820152608490fd5b919082018092116129f357565b634e487b7160e01b600052601160045260246000fd5b818102929181159184041417156129f357565b60001981146129f35760010190565b9190811015610ef35760051b81013590601e19813603018212156102665701803591906001600160401b038311610266576020018236038113610266579190565b15612a7357565b60405162461bcd60e51b815260206004820152602560248201527f496d616765206d75737420626520646174613a696d6167652f2a3b62617365366044820152641a1617171760d91b6064820152608490fd5b15612acd57565b60405162461bcd60e51b8152602060048201526013602482015272105d1d1c9a589d5d195cc81c995c5d5a5c9959606a1b6044820152606490fd5b919082039182116129f357565b600260c95414612b2657600260c955565b60405162461bcd60e51b815260206004820152601f60248201527f5265656e7472616e637947756172643a207265656e7472616e742063616c6c006044820152606490fd5b15612b7257565b60405162461bcd60e51b815260206004820152601c60248201527b115490cdcc8c4e881d1bdad95b88185b1c9958591e481b5a5b9d195960221b6044820152606490fd5b15612bbd57565b60405162461bcd60e51b815260206004820152600d60248201526c24b73b30b634b2103a37b5b2b760991b6044820152606490fd5b15612bf957565b60405162461bcd60e51b815260206004820152600f60248201526e2737ba103a37b5b2b71037bbb732b960891b6044820152606490fd5b6000818152610103602090815260408220919492939092906001600160401b038211612d4757612c6a82612c6485546121e2565b8561294c565b8590601f8311600114612ce05761010794939291879183612cd5575b50508160011b916000199060031b1c19161790555b8284525260408220600160ff198254161790557fe6bd40d7fbe8d26f44fd9e1ba6d94055a784eb2de4a192c015f84c86a73d225b339280a3565b013590503880612c86565b83875284872091601f198416885b818110612d3057509160019391856101079897969410612d16575b505050811b019055612c9b565b0135600019600384901b60f8161c19169055388080612d09565b919387600181928787013581550195019201612cee565b634e487b7160e01b86526041600452602486fd5b90612d6582612393565b612d72604051918261226d565b8281528092612d83601f1991612393565b0190602036910137565b805115612ecd5760405190612da182612252565b604082527f4142434445464748494a4b4c4d4e4f505152535455565758595a61626364656660208301527f6768696a6b6c6d6e6f707172737475767778797a303132333435363738392b2f604083015280516002918282018092116129f3576003918290046001600160fe1b03811681036129f357612e23908495941b612d5b565b936020850193829183518401906020820192835194600085525b838110612e7c575050505052510680600114612e6957600214612e5e575090565b603d90600019015390565b50603d9081600019820153600119015390565b87600491999293949901918251600190603f9082828260121c16880101518453828282600c1c16880101518385015382828260061c1688010151888501531685010151898201530197929190612e3d565b50604051612eda8161221c565b6000815290565b801515806133df575b612ef390612bb6565b60ff908160fe5460081c161561322d57609261304b926124a7926000918183526131696020916101038352604093612f2c858720612290565b958181526101048552612f40868220612290565b968282526101058652612f54878320612290565b9280835261010687528783205492612f6b8261389b565b958551156131e5575b828252612f8d61010796878b52828c852054169061353a565b95838352808a52818b842054166000146131ac578a51612fac81612252565b602981527f556e6971756520386269742050656e6775696e73206f6e2042617365202845768b820152686f6c7665642033442960b81b8c820152935b83528952908990205416156131825760296130266130208a5161300a81612237565b60048152637472756560e01b8b820152956133ec565b966133ec565b98519c8d809b683d913730b6b2911d1160b91b8b8301528a8151948593019101612139565b8901701116113232b9b1b934b83a34b7b7111d1160791b602982015261307a825180938a603a85019101612139565b016a11161134b6b0b3b2911d1160a91b603a8201526130a28251809389604585019101612139565b0170222c2272657665616c6564223a7472756560781b60458201526d161132bb37b63b32b22f99b2111d60911b60568201526130e78251809388606485019101612139565b016d161130ba3a3934b13aba32b9911d60911b60648201526131128251809387607285019101612139565b016f16113930b934ba3cafb9b1b7b932911d60811b607282015261313f8251809386608285019101612139565b01916e16113930b934ba3cafb930b735911d60891b60828401528351938491609185019101612139565b01607d60f81b609182015203607281018452018261226d565b60296130266130208a5161319581612237565b600581526466616c736560d81b8b820152956133ec565b8a516131b781612237565b601c81527b556e6971756520386269742050656e6775696e73206f6e204261736560201b8b82015293612fe8565b945088516131f281612252565b60368152600080516020613b288339815191528982015275223a224d65746164617461204d697373696e67227d5d60501b8a82015294612f74565b613236906133ec565b6040518092602092777b226e616d65223a22386269742050656e6775696e73202360401b848401526132718151809286603887019101612139565b8201907f222c226465736372697074696f6e223a22556e72657665616c6564203862697460388301527b102832b733bab4b7399037b7102130b9b291161134b6b0b3b2911d1160211b605883015260009181546132cd816121e2565b926001918083169081156133a65750600114613359575b505050509081600080516020613b288339815191526124a7947f222c2272657665616c6564223a66616c73652c2261747472696275746573223a606095528201527f223a224e6f2050726f706572747920756e74696c6c2052657665616c227d5d7d604082015203604081018452018261226d565b600090815286812093945091925b84831061338f575050500160740182600080516020613b2883398151915260606124a76132e4565b805484840160740152879550918601918101613367565b606097965060749350600080516020613b288339815191529492506124a79895915060ff191683830152801515020101929382956132e4565b5061010054811115612eea565b6000908072184f03e93ff9f4daa797ed6e38ed64bf6a1f0160401b8082101561351b575b506904ee2d6d415b85acef8160201b8083101561350c575b50662386f26fc10000808310156134fd575b506305f5e100808310156134ee575b50612710808310156134df575b5060648210156134cf575b600a809210156134c5575b60019081602161347d828701612d5b565b95860101905b61348f575b5050505090565b600019019083906f181899199a1a9b1b9c1cb0b131b232b360811b8282061a8353049182156134c057919082613483565b613488565b916001019161346c565b9190606460029104910191613461565b60049193920491019138613456565b60089193920491019138613449565b6010919392049101913861343a565b60209193920491019138613428565b604093508104915038613410565b908151811015610ef3570160200190565b90156124a757604080519061354e82612237565b6018825261357e60209277113a3930b4ba2fba3cb832911d1122bb37b63aba34b7b71160411b84820152846137eb565b6137e65782511580156137be575b61376b57825192835b6136d6575b831580156136a6575b61369f5760001984019384116129f3578051808511613697575b506135c784612393565b936135d48351958661226d565b8085526135e081612393565b8585019290601f1901368437600090815b8381106136675750505050926124a792827f2c7b2274726169745f74797065223a2245766f6c7574696f6e222c2276616c7561363a966051955197889551809286880190612139565b8401928301527065223a2245766f6c766564203344227d5d60781b9082015203603181018452018261226d565b613692906001600160f81b031961367e8285613529565b5116841a61368c828b613529565b53612a1c565b6135f1565b9350386135bd565b9250505090565b5060001984018481116129f357605d60f81b906001600160f81b0319906136cd9084613529565b511614156135a3565b92600019810190808211613756576001600160f81b03196136f78387613529565b5116600160fd1b8114908115613748575b811561373a575b811561372c575b501561372457509283613595565b93905061359a565b600d60f81b14905038613716565b600560f91b8114915061370f565b600960f81b81149150613708565b60246000634e487b7160e01b81526011600452fd5b9091507f5b7b2274726169745f74797065223a2245766f6c7574696f6e222c2276616c7581519261379b84612252565b603184528301527065223a2245766f6c766564203344227d5d60781b9082015290565b506137e181516137cd81612237565b60028152615b5d60f01b84820152846137eb565b61358c565b505090565b908051801561387a57825110613894576000905b61380c8351825190612b08565b821161388c5760019260005b8251811015613882576001600160f81b03198061383e61383884886129e6565b85613529565b51169061384b8386613529565b5116036138605761385b90612a1c565b613818565b5092509060005b61387a5761387490612a1c565b906137ff565b505050600190565b5092919091613867565b505050600090565b5050600090565b80151580613942575b6138ad90612bb6565b6000908082526101069160209183835260408083205492600195869561010054965b878111156138e257505050505050505090565b858114613906578084528282528484205487808211918215613929575b5050613914575b61390f90612a1c565b6138cf565b9761392161390f91612a1c565b989050613906565b14905080613939575b87386138ff565b50858110613932565b50610100548111156138a4565b90821015610ef3570190565b906040519061396982612237565b600b82526a646174613a696d6167652f60a81b60208301526040519261398e84612237565b60088452670ed8985cd94d8d0b60c21b60208501528251600881018091116129f357821115613a9e5760005b8351811015613a04576001600160f81b0319806139d883868661394f565b3516906139e58387613529565b5116036139fa576139f590612a1c565b6139ba565b5050505050600090565b509290919260009351925b80613a1b8451866129e6565b116134885760019460005b8451811015613a95576001600160f81b031980613a4d613a46848a6129e6565b868861394f565b351690613a5a8388613529565b511603613a6f57613a6a90612a1c565b613a26565b509390945060005b613a8b57613a8490612a1c565b9293613a0f565b5050505050600190565b50939094613a77565b5050505060009056fe9debbd008148f593b1d1f618a64b0d9561e522df1013cdcfd8c7302978119def6bd5c950a8d8df17f772f5af37cb3655737899cbf903264b9795592da439661c8be0079c531659141344cd1fd0a4f28419497f9722a3daafe3b4186f6b6457e0ddf252ad1be2c89b69c2b068fc378daa952ba7f163c4a11628f55a4df523b3ef5b7b2274726169745f74797065223a2250726f7065727479222c2276616c7565f8e1a15aba9398e019f0b49df1a4fde98ee17ae345cb5f6b5e2c27f5033e8ce7a264697066735822122015ae19095ba2b04454b7c4d733e7004623d6d011687b45e052fffb967f5b1ecc64736f6c63430008140033",
  "linkReferences": {},
  "deployedLinkReferences": {}
}